{
  "_format": "hh-sol-artifact-1",
  "contractName": "Marketplace",
  "sourceName": "contracts/Marketplace.sol",
  "abi": [
    {
      "inputs": [],
      "stateMutability": "nonpayable",
      "type": "constructor"
    },
    {
      "anonymous": false,
      "inputs": [
        {
          "indexed": true,
          "internalType": "uint256",
          "name": "itemId",
          "type": "uint256"
        },
        {
          "indexed": true,
          "internalType": "address",
          "name": "nftContract",
          "type": "address"
        },
        {
          "indexed": true,
          "internalType": "uint256",
          "name": "tokenId",
          "type": "uint256"
        },
        {
          "indexed": false,
          "internalType": "address",
          "name": "seller",
          "type": "address"
        },
        {
          "indexed": false,
          "internalType": "address",
          "name": "owner",
          "type": "address"
        },
        {
          "indexed": false,
          "internalType": "uint256",
          "name": "price",
          "type": "uint256"
        },
        {
          "indexed": false,
          "internalType": "bool",
          "name": "sold",
          "type": "bool"
        }
      ],
      "name": "MarketItemCreated",
      "type": "event"
    },
    {
      "inputs": [
        {
          "internalType": "address",
          "name": "nftContract",
          "type": "address"
        },
        {
          "internalType": "uint256",
          "name": "tokenId",
          "type": "uint256"
        },
        {
          "internalType": "uint256",
          "name": "price",
          "type": "uint256"
        }
      ],
      "name": "createMarketItem",
      "outputs": [],
      "stateMutability": "payable",
      "type": "function"
    },
    {
      "inputs": [
        {
          "internalType": "address",
          "name": "nftContract",
          "type": "address"
        },
        {
          "internalType": "uint256",
          "name": "itemId",
          "type": "uint256"
        }
      ],
      "name": "createMarketSale",
      "outputs": [],
      "stateMutability": "payable",
      "type": "function"
    },
    {
      "inputs": [],
      "name": "fetchItemsCreated",
      "outputs": [
        {
          "components": [
            {
              "internalType": "uint256",
              "name": "itemId",
              "type": "uint256"
            },
            {
              "internalType": "address",
              "name": "nftContract",
              "type": "address"
            },
            {
              "internalType": "uint256",
              "name": "tokenId",
              "type": "uint256"
            },
            {
              "internalType": "address payable",
              "name": "seller",
              "type": "address"
            },
            {
              "internalType": "address payable",
              "name": "owner",
              "type": "address"
            },
            {
              "internalType": "uint256",
              "name": "price",
              "type": "uint256"
            },
            {
              "internalType": "bool",
              "name": "sold",
              "type": "bool"
            }
          ],
          "internalType": "struct Marketplace.MarketItem[]",
          "name": "",
          "type": "tuple[]"
        }
      ],
      "stateMutability": "view",
      "type": "function"
    },
    {
      "inputs": [],
      "name": "fetchMarketItems",
      "outputs": [
        {
          "components": [
            {
              "internalType": "uint256",
              "name": "itemId",
              "type": "uint256"
            },
            {
              "internalType": "address",
              "name": "nftContract",
              "type": "address"
            },
            {
              "internalType": "uint256",
              "name": "tokenId",
              "type": "uint256"
            },
            {
              "internalType": "address payable",
              "name": "seller",
              "type": "address"
            },
            {
              "internalType": "address payable",
              "name": "owner",
              "type": "address"
            },
            {
              "internalType": "uint256",
              "name": "price",
              "type": "uint256"
            },
            {
              "internalType": "bool",
              "name": "sold",
              "type": "bool"
            }
          ],
          "internalType": "struct Marketplace.MarketItem[]",
          "name": "",
          "type": "tuple[]"
        }
      ],
      "stateMutability": "view",
      "type": "function"
    },
    {
      "inputs": [],
      "name": "fetchPurchasedNFTs",
      "outputs": [
        {
          "components": [
            {
              "internalType": "uint256",
              "name": "itemId",
              "type": "uint256"
            },
            {
              "internalType": "address",
              "name": "nftContract",
              "type": "address"
            },
            {
              "internalType": "uint256",
              "name": "tokenId",
              "type": "uint256"
            },
            {
              "internalType": "address payable",
              "name": "seller",
              "type": "address"
            },
            {
              "internalType": "address payable",
              "name": "owner",
              "type": "address"
            },
            {
              "internalType": "uint256",
              "name": "price",
              "type": "uint256"
            },
            {
              "internalType": "bool",
              "name": "sold",
              "type": "bool"
            }
          ],
          "internalType": "struct Marketplace.MarketItem[]",
          "name": "",
          "type": "tuple[]"
        }
      ],
      "stateMutability": "view",
      "type": "function"
    },
    {
      "inputs": [],
      "name": "getListingPrice",
      "outputs": [
        {
          "internalType": "uint256",
          "name": "",
          "type": "uint256"
        }
      ],
      "stateMutability": "view",
      "type": "function"
    },
    {
      "inputs": [
        {
          "internalType": "uint256",
          "name": "_price",
          "type": "uint256"
        }
      ],
      "name": "setListingPrice",
      "outputs": [
        {
          "internalType": "uint256",
          "name": "",
          "type": "uint256"
        }
      ],
      "stateMutability": "nonpayable",
      "type": "function"
    }
  ],
  "bytecode": "0x60806040526509184e72a00060045534801561001a57600080fd5b50600160008190555033600360006101000a81548173ffffffffffffffffffffffffffffffffffffffff021916908373ffffffffffffffffffffffffffffffffffffffff160217905550611a0e806100736000396000f3fe6080604052600436106100705760003560e01c80637c726b691161004e5780637c726b69146100e7578063c23b139e14610124578063ee6ba23414610140578063f064c32e1461016b57610070565b80630f08efe01461007557806312e85585146100a057806358eb2df5146100cb575b600080fd5b34801561008157600080fd5b5061008a610196565b6040516100979190611657565b60405180910390f35b3480156100ac57600080fd5b506100b56104c2565b6040516100c291906116f9565b60405180910390f35b6100e560048036038101906100e0919061136a565b6104cc565b005b3480156100f357600080fd5b5061010e600480360381019061010991906113b9565b6107ea565b60405161011b91906116f9565b60405180910390f35b61013e6004803603810190610139919061132e565b610832565b005b34801561014c57600080fd5b50610155610aa5565b6040516101629190611657565b60405180910390f35b34801561017757600080fd5b50610180610e55565b60405161018d9190611657565b60405180910390f35b606060006101a46001611205565b905060006101b26002611205565b6101bc6001611205565b6101c691906117b4565b90506000808267ffffffffffffffff81111561020b577f4e487b7100000000000000000000000000000000000000000000000000000000600052604160045260246000fd5b60405190808252806020026020018201604052801561024457816020015b610231611283565b8152602001906001900390816102295790505b50905060005b848110156104b757600073ffffffffffffffffffffffffffffffffffffffff166005600060018461027b919061175e565b815260200190815260200160002060040160009054906101000a900473ffffffffffffffffffffffffffffffffffffffff1673ffffffffffffffffffffffffffffffffffffffff1614156104a4576000600560006001846102dc919061175e565b81526020019081526020016000206000015490506000600560008381526020019081526020016000209050806040518060e0016040529081600082015481526020016001820160009054906101000a900473ffffffffffffffffffffffffffffffffffffffff1673ffffffffffffffffffffffffffffffffffffffff1673ffffffffffffffffffffffffffffffffffffffff168152602001600282015481526020016003820160009054906101000a900473ffffffffffffffffffffffffffffffffffffffff1673ffffffffffffffffffffffffffffffffffffffff1673ffffffffffffffffffffffffffffffffffffffff1681526020016004820160009054906101000a900473ffffffffffffffffffffffffffffffffffffffff1673ffffffffffffffffffffffffffffffffffffffff1673ffffffffffffffffffffffffffffffffffffffff168152602001600582015481526020016006820160009054906101000a900460ff161515151581525050848681518110610487577f4e487b7100000000000000000000000000000000000000000000000000000000600052603260045260246000fd5b602002602001018190525060018561049f919061175e565b945050505b80806104af90611842565b91505061024a565b508094505050505090565b6000600454905090565b6104d4611213565b60008111610517576040517f08c379a000000000000000000000000000000000000000000000000000000000815260040161050e90611699565b60405180910390fd5b600454341461055b576040517f08c379a0000000000000000000000000000000000000000000000000000000008152600401610552906116b9565b60405180910390fd5b6105656001611263565b60006105716001611205565b90506040518060e001604052808281526020018573ffffffffffffffffffffffffffffffffffffffff1681526020018481526020013373ffffffffffffffffffffffffffffffffffffffff168152602001600073ffffffffffffffffffffffffffffffffffffffff16815260200183815260200160001515815250600560008381526020019081526020016000206000820151816000015560208201518160010160006101000a81548173ffffffffffffffffffffffffffffffffffffffff021916908373ffffffffffffffffffffffffffffffffffffffff1602179055506040820151816002015560608201518160030160006101000a81548173ffffffffffffffffffffffffffffffffffffffff021916908373ffffffffffffffffffffffffffffffffffffffff16021790555060808201518160040160006101000a81548173ffffffffffffffffffffffffffffffffffffffff021916908373ffffffffffffffffffffffffffffffffffffffff16021790555060a0820151816005015560c08201518160060160006101000a81548160ff0219169083151502179055509050508373ffffffffffffffffffffffffffffffffffffffff166323b872dd3330866040518463ffffffff1660e01b8152600401610752939291906115db565b600060405180830381600087803b15801561076c57600080fd5b505af1158015610780573d6000803e3d6000fd5b50505050828473ffffffffffffffffffffffffffffffffffffffff16827f045dfa01dcba2b36aba1d3dc4a874f4b0c5d2fbeb8d2c4b34a7d88c8d8f929d13360008760006040516107d49493929190611612565b60405180910390a4506107e5611279565b505050565b60003073ffffffffffffffffffffffffffffffffffffffff163373ffffffffffffffffffffffffffffffffffffffff16141561082857816004819055505b6004549050919050565b61083a611213565b6000600560008381526020019081526020016000206005015490506000600560008481526020019081526020016000206002015490508134146108b2576040517f08c379a00000000000000000000000000000000000000000000000000000000081526004016108a990611679565b60405180910390fd5b6005600084815260200190815260200160002060030160009054906101000a900473ffffffffffffffffffffffffffffffffffffffff1673ffffffffffffffffffffffffffffffffffffffff166108fc349081150290604051600060405180830381858888f1935050505015801561092e573d6000803e3d6000fd5b508373ffffffffffffffffffffffffffffffffffffffff166323b872dd3033846040518463ffffffff1660e01b815260040161096c939291906115db565b600060405180830381600087803b15801561098657600080fd5b505af115801561099a573d6000803e3d6000fd5b50505050336005600085815260200190815260200160002060040160006101000a81548173ffffffffffffffffffffffffffffffffffffffff021916908373ffffffffffffffffffffffffffffffffffffffff16021790555060016005600085815260200190815260200160002060060160006101000a81548160ff021916908315150217905550610a2c6002611263565b600360009054906101000a900473ffffffffffffffffffffffffffffffffffffffff1673ffffffffffffffffffffffffffffffffffffffff166108fc6004549081150290604051600060405180830381858888f19350505050158015610a96573d6000803e3d6000fd5b505050610aa1611279565b5050565b60606000610ab36001611205565b905060008060005b83811015610b5c573373ffffffffffffffffffffffffffffffffffffffff1660056000600184610aeb919061175e565b815260200190815260200160002060040160009054906101000a900473ffffffffffffffffffffffffffffffffffffffff1673ffffffffffffffffffffffffffffffffffffffff161415610b4957600183610b46919061175e565b92505b8080610b5490611842565b915050610abb565b5060008267ffffffffffffffff811115610b9f577f4e487b7100000000000000000000000000000000000000000000000000000000600052604160045260246000fd5b604051908082528060200260200182016040528015610bd857816020015b610bc5611283565b815260200190600190039081610bbd5790505b50905060005b84811015610e4a573373ffffffffffffffffffffffffffffffffffffffff1660056000600184610c0e919061175e565b815260200190815260200160002060040160009054906101000a900473ffffffffffffffffffffffffffffffffffffffff1673ffffffffffffffffffffffffffffffffffffffff161415610e3757600060056000600184610c6f919061175e565b81526020019081526020016000206000015490506000600560008381526020019081526020016000209050806040518060e0016040529081600082015481526020016001820160009054906101000a900473ffffffffffffffffffffffffffffffffffffffff1673ffffffffffffffffffffffffffffffffffffffff1673ffffffffffffffffffffffffffffffffffffffff168152602001600282015481526020016003820160009054906101000a900473ffffffffffffffffffffffffffffffffffffffff1673ffffffffffffffffffffffffffffffffffffffff1673ffffffffffffffffffffffffffffffffffffffff1681526020016004820160009054906101000a900473ffffffffffffffffffffffffffffffffffffffff1673ffffffffffffffffffffffffffffffffffffffff1673ffffffffffffffffffffffffffffffffffffffff168152602001600582015481526020016006820160009054906101000a900460ff161515151581525050848681518110610e1a577f4e487b7100000000000000000000000000000000000000000000000000000000600052603260045260246000fd5b6020026020010181905250600185610e32919061175e565b945050505b8080610e4290611842565b915050610bde565b508094505050505090565b60606000610e636001611205565b905060008060005b83811015610f0c573373ffffffffffffffffffffffffffffffffffffffff1660056000600184610e9b919061175e565b815260200190815260200160002060030160009054906101000a900473ffffffffffffffffffffffffffffffffffffffff1673ffffffffffffffffffffffffffffffffffffffff161415610ef957600183610ef6919061175e565b92505b8080610f0490611842565b915050610e6b565b5060008267ffffffffffffffff811115610f4f577f4e487b7100000000000000000000000000000000000000000000000000000000600052604160045260246000fd5b604051908082528060200260200182016040528015610f8857816020015b610f75611283565b815260200190600190039081610f6d5790505b50905060005b848110156111fa573373ffffffffffffffffffffffffffffffffffffffff1660056000600184610fbe919061175e565b815260200190815260200160002060030160009054906101000a900473ffffffffffffffffffffffffffffffffffffffff1673ffffffffffffffffffffffffffffffffffffffff1614156111e75760006005600060018461101f919061175e565b81526020019081526020016000206000015490506000600560008381526020019081526020016000209050806040518060e0016040529081600082015481526020016001820160009054906101000a900473ffffffffffffffffffffffffffffffffffffffff1673ffffffffffffffffffffffffffffffffffffffff1673ffffffffffffffffffffffffffffffffffffffff168152602001600282015481526020016003820160009054906101000a900473ffffffffffffffffffffffffffffffffffffffff1673ffffffffffffffffffffffffffffffffffffffff1673ffffffffffffffffffffffffffffffffffffffff1681526020016004820160009054906101000a900473ffffffffffffffffffffffffffffffffffffffff1673ffffffffffffffffffffffffffffffffffffffff1673ffffffffffffffffffffffffffffffffffffffff168152602001600582015481526020016006820160009054906101000a900460ff1615151515815250508486815181106111ca577f4e487b7100000000000000000000000000000000000000000000000000000000600052603260045260246000fd5b60200260200101819052506001856111e2919061175e565b945050505b80806111f290611842565b915050610f8e565b508094505050505090565b600081600001549050919050565b60026000541415611259576040517f08c379a0000000000000000000000000000000000000000000000000000000008152600401611250906116d9565b60405180910390fd5b6002600081905550565b6001816000016000828254019250508190555050565b6001600081905550565b6040518060e0016040528060008152602001600073ffffffffffffffffffffffffffffffffffffffff16815260200160008152602001600073ffffffffffffffffffffffffffffffffffffffff168152602001600073ffffffffffffffffffffffffffffffffffffffff168152602001600081526020016000151581525090565b600081359050611313816119aa565b92915050565b600081359050611328816119c1565b92915050565b6000806040838503121561134157600080fd5b600061134f85828601611304565b925050602061136085828601611319565b9150509250929050565b60008060006060848603121561137f57600080fd5b600061138d86828701611304565b935050602061139e86828701611319565b92505060406113af86828701611319565b9150509250925092565b6000602082840312156113cb57600080fd5b60006113d984828501611319565b91505092915050565b60006113ee838361152f565b60e08301905092915050565b611403816117fa565b82525050565b611412816117e8565b82525050565b611421816117e8565b82525050565b600061143282611724565b61143c818561173c565b935061144783611714565b8060005b8381101561147857815161145f88826113e2565b975061146a8361172f565b92505060018101905061144b565b5085935050505092915050565b61148e8161180c565b82525050565b61149d8161180c565b82525050565b60006114b060318361174d565b91506114bb826118ba565b604082019050919050565b60006114d360188361174d565b91506114de82611909565b602082019050919050565b60006114f660248361174d565b915061150182611932565b604082019050919050565b6000611519601f8361174d565b915061152482611981565b602082019050919050565b60e08201600082015161154560008501826115bd565b5060208201516115586020850182611409565b50604082015161156b60408501826115bd565b50606082015161157e60608501826113fa565b50608082015161159160808501826113fa565b5060a08201516115a460a08501826115bd565b5060c08201516115b760c0850182611485565b50505050565b6115c681611838565b82525050565b6115d581611838565b82525050565b60006060820190506115f06000830186611418565b6115fd6020830185611418565b61160a60408301846115cc565b949350505050565b60006080820190506116276000830187611418565b6116346020830186611418565b61164160408301856115cc565b61164e6060830184611494565b95945050505050565b600060208201905081810360008301526116718184611427565b905092915050565b60006020820190508181036000830152611692816114a3565b9050919050565b600060208201905081810360008301526116b2816114c6565b9050919050565b600060208201905081810360008301526116d2816114e9565b9050919050565b600060208201905081810360008301526116f28161150c565b9050919050565b600060208201905061170e60008301846115cc565b92915050565b6000819050602082019050919050565b600081519050919050565b6000602082019050919050565b600082825260208201905092915050565b600082825260208201905092915050565b600061176982611838565b915061177483611838565b9250827fffffffffffffffffffffffffffffffffffffffffffffffffffffffffffffffff038211156117a9576117a861188b565b5b828201905092915050565b60006117bf82611838565b91506117ca83611838565b9250828210156117dd576117dc61188b565b5b828203905092915050565b60006117f382611818565b9050919050565b600061180582611818565b9050919050565b60008115159050919050565b600073ffffffffffffffffffffffffffffffffffffffff82169050919050565b6000819050919050565b600061184d82611838565b91507fffffffffffffffffffffffffffffffffffffffffffffffffffffffffffffffff8214156118805761187f61188b565b5b600182019050919050565b7f4e487b7100000000000000000000000000000000000000000000000000000000600052601160045260246000fd5b7f506c65617365206d616b652074686520707269636520746f2062652073616d6560008201527f206173206c697374696e67207072696365000000000000000000000000000000602082015250565b7f5072696365206d7573742062652061626f7665207a65726f0000000000000000600082015250565b7f5072696365206d75737420626520657175616c20746f206c697374696e67207060008201527f7269636500000000000000000000000000000000000000000000000000000000602082015250565b7f5265656e7472616e637947756172643a207265656e7472616e742063616c6c00600082015250565b6119b3816117e8565b81146119be57600080fd5b50565b6119ca81611838565b81146119d557600080fd5b5056fea2646970667358221220166f5ada9300ba03f1f676bb5ebbb71030f2600d3d2ffffd9574629d6693474664736f6c63430008040033",
  "linkReferences": {},
  "deployedLinkReferences": {}
}