{
  "_format": "hh-sol-artifact-1",
  "contractName": "Marketplace",
  "sourceName": "contracts/Marketplace.sol",
  "abi": [
    {
      "inputs": [],
      "stateMutability": "nonpayable",
      "type": "constructor"
    },
    {
      "anonymous": false,
      "inputs": [
        {
          "indexed": true,
          "internalType": "uint256",
          "name": "activityId",
          "type": "uint256"
        },
        {
          "indexed": true,
          "internalType": "uint256",
          "name": "itemId",
          "type": "uint256"
        },
        {
          "indexed": true,
          "internalType": "address",
          "name": "actor",
          "type": "address"
        },
        {
          "indexed": false,
          "internalType": "string",
          "name": "eventType",
          "type": "string"
        },
        {
          "indexed": false,
          "internalType": "uint256",
          "name": "price",
          "type": "uint256"
        },
        {
          "indexed": false,
          "internalType": "address",
          "name": "from",
          "type": "address"
        },
        {
          "indexed": false,
          "internalType": "address",
          "name": "to",
          "type": "address"
        },
        {
          "indexed": false,
          "internalType": "uint256",
          "name": "timestamp",
          "type": "uint256"
        }
      ],
      "name": "ActivityRecorded",
      "type": "event"
    },
    {
      "anonymous": false,
      "inputs": [
        {
          "indexed": true,
          "internalType": "uint256",
          "name": "itemId",
          "type": "uint256"
        },
        {
          "indexed": true,
          "internalType": "address",
          "name": "nftContract",
          "type": "address"
        },
        {
          "indexed": true,
          "internalType": "uint256",
          "name": "tokenId",
          "type": "uint256"
        },
        {
          "indexed": false,
          "internalType": "address",
          "name": "seller",
          "type": "address"
        },
        {
          "indexed": false,
          "internalType": "address",
          "name": "owner",
          "type": "address"
        },
        {
          "indexed": false,
          "internalType": "uint256",
          "name": "price",
          "type": "uint256"
        },
        {
          "indexed": false,
          "internalType": "bool",
          "name": "sold",
          "type": "bool"
        },
        {
          "indexed": false,
          "internalType": "bool",
          "name": "isRewardItem",
          "type": "bool"
        }
      ],
      "name": "MarketItemCreated",
      "type": "event"
    },
    {
      "anonymous": false,
      "inputs": [
        {
          "indexed": true,
          "internalType": "uint256",
          "name": "offerId",
          "type": "uint256"
        },
        {
          "indexed": true,
          "internalType": "uint256",
          "name": "itemId",
          "type": "uint256"
        },
        {
          "indexed": false,
          "internalType": "uint256",
          "name": "price",
          "type": "uint256"
        },
        {
          "indexed": false,
          "internalType": "uint256",
          "name": "usdPrice",
          "type": "uint256"
        },
        {
          "indexed": false,
          "internalType": "uint256",
          "name": "floorDifference",
          "type": "uint256"
        },
        {
          "indexed": false,
          "internalType": "uint256",
          "name": "expiration",
          "type": "uint256"
        },
        {
          "indexed": false,
          "internalType": "address",
          "name": "from",
          "type": "address"
        }
      ],
      "name": "OfferCreated",
      "type": "event"
    },
    {
      "inputs": [
        {
          "internalType": "address",
          "name": "nftContract",
          "type": "address"
        },
        {
          "internalType": "uint256",
          "name": "tokenId",
          "type": "uint256"
        },
        {
          "internalType": "uint256",
          "name": "price",
          "type": "uint256"
        },
        {
          "internalType": "bool",
          "name": "isRewardItem",
          "type": "bool"
        }
      ],
      "name": "createMarketItem",
      "outputs": [],
      "stateMutability": "payable",
      "type": "function"
    },
    {
      "inputs": [
        {
          "internalType": "address",
          "name": "nftContract",
          "type": "address"
        },
        {
          "internalType": "uint256",
          "name": "itemId",
          "type": "uint256"
        }
      ],
      "name": "createMarketSale",
      "outputs": [],
      "stateMutability": "payable",
      "type": "function"
    },
    {
      "inputs": [
        {
          "internalType": "uint256",
          "name": "itemId",
          "type": "uint256"
        },
        {
          "internalType": "uint256",
          "name": "price",
          "type": "uint256"
        },
        {
          "internalType": "uint256",
          "name": "usdPrice",
          "type": "uint256"
        },
        {
          "internalType": "uint256",
          "name": "floorDifference",
          "type": "uint256"
        },
        {
          "internalType": "uint256",
          "name": "expiration",
          "type": "uint256"
        }
      ],
      "name": "createOffer",
      "outputs": [],
      "stateMutability": "nonpayable",
      "type": "function"
    },
    {
      "inputs": [],
      "name": "fetchItemsCreated",
      "outputs": [
        {
          "components": [
            {
              "internalType": "uint256",
              "name": "itemId",
              "type": "uint256"
            },
            {
              "internalType": "address",
              "name": "nftContract",
              "type": "address"
            },
            {
              "internalType": "uint256",
              "name": "tokenId",
              "type": "uint256"
            },
            {
              "internalType": "address payable",
              "name": "seller",
              "type": "address"
            },
            {
              "internalType": "address payable",
              "name": "owner",
              "type": "address"
            },
            {
              "internalType": "uint256",
              "name": "price",
              "type": "uint256"
            },
            {
              "internalType": "bool",
              "name": "sold",
              "type": "bool"
            },
            {
              "internalType": "bool",
              "name": "isRewardItem",
              "type": "bool"
            }
          ],
          "internalType": "struct Marketplace.MarketItem[]",
          "name": "",
          "type": "tuple[]"
        }
      ],
      "stateMutability": "view",
      "type": "function"
    },
    {
      "inputs": [],
      "name": "fetchMarketItems",
      "outputs": [
        {
          "components": [
            {
              "internalType": "uint256",
              "name": "itemId",
              "type": "uint256"
            },
            {
              "internalType": "address",
              "name": "nftContract",
              "type": "address"
            },
            {
              "internalType": "uint256",
              "name": "tokenId",
              "type": "uint256"
            },
            {
              "internalType": "address payable",
              "name": "seller",
              "type": "address"
            },
            {
              "internalType": "address payable",
              "name": "owner",
              "type": "address"
            },
            {
              "internalType": "uint256",
              "name": "price",
              "type": "uint256"
            },
            {
              "internalType": "bool",
              "name": "sold",
              "type": "bool"
            },
            {
              "internalType": "bool",
              "name": "isRewardItem",
              "type": "bool"
            }
          ],
          "internalType": "struct Marketplace.MarketItem[]",
          "name": "",
          "type": "tuple[]"
        }
      ],
      "stateMutability": "view",
      "type": "function"
    },
    {
      "inputs": [],
      "name": "fetchPurchasedNFTs",
      "outputs": [
        {
          "components": [
            {
              "internalType": "uint256",
              "name": "itemId",
              "type": "uint256"
            },
            {
              "internalType": "address",
              "name": "nftContract",
              "type": "address"
            },
            {
              "internalType": "uint256",
              "name": "tokenId",
              "type": "uint256"
            },
            {
              "internalType": "address payable",
              "name": "seller",
              "type": "address"
            },
            {
              "internalType": "address payable",
              "name": "owner",
              "type": "address"
            },
            {
              "internalType": "uint256",
              "name": "price",
              "type": "uint256"
            },
            {
              "internalType": "bool",
              "name": "sold",
              "type": "bool"
            },
            {
              "internalType": "bool",
              "name": "isRewardItem",
              "type": "bool"
            }
          ],
          "internalType": "struct Marketplace.MarketItem[]",
          "name": "",
          "type": "tuple[]"
        }
      ],
      "stateMutability": "view",
      "type": "function"
    },
    {
      "inputs": [
        {
          "internalType": "uint256",
          "name": "itemId",
          "type": "uint256"
        }
      ],
      "name": "getActivityHistory",
      "outputs": [
        {
          "components": [
            {
              "internalType": "uint256",
              "name": "activityId",
              "type": "uint256"
            },
            {
              "internalType": "uint256",
              "name": "itemId",
              "type": "uint256"
            },
            {
              "internalType": "address",
              "name": "actor",
              "type": "address"
            },
            {
              "internalType": "string",
              "name": "eventType",
              "type": "string"
            },
            {
              "internalType": "uint256",
              "name": "price",
              "type": "uint256"
            },
            {
              "internalType": "address",
              "name": "from",
              "type": "address"
            },
            {
              "internalType": "address",
              "name": "to",
              "type": "address"
            },
            {
              "internalType": "uint256",
              "name": "timestamp",
              "type": "uint256"
            }
          ],
          "internalType": "struct Marketplace.Activity[]",
          "name": "",
          "type": "tuple[]"
        }
      ],
      "stateMutability": "view",
      "type": "function"
    },
    {
      "inputs": [],
      "name": "getListingPrice",
      "outputs": [
        {
          "internalType": "uint256",
          "name": "",
          "type": "uint256"
        }
      ],
      "stateMutability": "view",
      "type": "function"
    },
    {
      "inputs": [
        {
          "internalType": "uint256",
          "name": "itemId",
          "type": "uint256"
        }
      ],
      "name": "getNFTDetails",
      "outputs": [
        {
          "components": [
            {
              "internalType": "uint256",
              "name": "itemId",
              "type": "uint256"
            },
            {
              "internalType": "address",
              "name": "nftContract",
              "type": "address"
            },
            {
              "internalType": "uint256",
              "name": "tokenId",
              "type": "uint256"
            },
            {
              "internalType": "address payable",
              "name": "seller",
              "type": "address"
            },
            {
              "internalType": "address payable",
              "name": "owner",
              "type": "address"
            },
            {
              "internalType": "uint256",
              "name": "price",
              "type": "uint256"
            },
            {
              "internalType": "bool",
              "name": "sold",
              "type": "bool"
            },
            {
              "internalType": "bool",
              "name": "isRewardItem",
              "type": "bool"
            }
          ],
          "internalType": "struct Marketplace.MarketItem",
          "name": "",
          "type": "tuple"
        }
      ],
      "stateMutability": "view",
      "type": "function"
    },
    {
      "inputs": [
        {
          "internalType": "uint256",
          "name": "_price",
          "type": "uint256"
        }
      ],
      "name": "setListingPrice",
      "outputs": [
        {
          "internalType": "uint256",
          "name": "",
          "type": "uint256"
        }
      ],
      "stateMutability": "nonpayable",
      "type": "function"
    },
    {
      "inputs": [
        {
          "internalType": "uint256",
          "name": "itemId",
          "type": "uint256"
        },
        {
          "internalType": "bool",
          "name": "isRewardItem",
          "type": "bool"
        }
      ],
      "name": "updateIsRewardItem",
      "outputs": [],
      "stateMutability": "nonpayable",
      "type": "function"
    }
  ],
  "bytecode": "0x60806040526509184e72a00060065534801561001a57600080fd5b50600160008190555033600560006101000a81548173ffffffffffffffffffffffffffffffffffffffff021916908373ffffffffffffffffffffffffffffffffffffffff16021790555061304d806100736000396000f3fe60806040526004361061009c5760003560e01c80637c726b69116100645780637c726b691461018657806382260f35146101c3578063c23b139e14610200578063e814ce781461021c578063ee6ba23414610238578063f064c32e146102635761009c565b8063055e5f1a146100a15780630f08efe0146100de57806312e85585146101095780634e66d34e14610134578063795fccf11461015d575b600080fd5b3480156100ad57600080fd5b506100c860048036038101906100c391906122dd565b61028e565b6040516100d5919061292a565b60405180910390f35b3480156100ea57600080fd5b506100f361062a565b604051610100919061294c565b60405180910390f35b34801561011557600080fd5b5061011e610972565b60405161012b9190612ae4565b60405180910390f35b34801561014057600080fd5b5061015b60048036038101906101569190612306565b61097c565b005b34801561016957600080fd5b50610184600480360381019061017f9190612342565b610a3e565b005b34801561019257600080fd5b506101ad60048036038101906101a891906122dd565b610cf7565b6040516101ba9190612ae4565b60405180910390f35b3480156101cf57600080fd5b506101ea60048036038101906101e591906122dd565b610d3f565b6040516101f79190612ac8565b60405180910390f35b61021a6004803603810190610215919061223e565b610f1b565b005b6102366004803603810190610231919061227a565b611281565b005b34801561024457600080fd5b5061024d61160f565b60405161025a919061294c565b60405180910390f35b34801561026f57600080fd5b506102786119db565b604051610285919061294c565b60405180910390f35b6060600061029c6003611da7565b905060008060005b838110156102f95785600860006001846102be9190612bf1565b81526020019081526020016000206001015414156102e6576001836102e39190612bf1565b92505b80806102f190612d3a565b9150506102a4565b5060008267ffffffffffffffff81111561033c577f4e487b7100000000000000000000000000000000000000000000000000000000600052604160045260246000fd5b60405190808252806020026020018201604052801561037557816020015b61036261204a565b81526020019060019003908161035a5790505b50905060005b8481101561061d5786600860006001846103959190612bf1565b815260200190815260200160002060010154141561060a576000600860006001846103c09190612bf1565b81526020019081526020016000206000015490506000600860008381526020019081526020016000209050806040518061010001604052908160008201548152602001600182015481526020016002820160009054906101000a900473ffffffffffffffffffffffffffffffffffffffff1673ffffffffffffffffffffffffffffffffffffffff1673ffffffffffffffffffffffffffffffffffffffff16815260200160038201805461047290612d08565b80601f016020809104026020016040519081016040528092919081815260200182805461049e90612d08565b80156104eb5780601f106104c0576101008083540402835291602001916104eb565b820191906000526020600020905b8154815290600101906020018083116104ce57829003601f168201915b50505050508152602001600482015481526020016005820160009054906101000a900473ffffffffffffffffffffffffffffffffffffffff1673ffffffffffffffffffffffffffffffffffffffff1673ffffffffffffffffffffffffffffffffffffffff1681526020016006820160009054906101000a900473ffffffffffffffffffffffffffffffffffffffff1673ffffffffffffffffffffffffffffffffffffffff1673ffffffffffffffffffffffffffffffffffffffff1681526020016007820154815250508486815181106105ed577f4e487b7100000000000000000000000000000000000000000000000000000000600052603260045260246000fd5b60200260200101819052506001856106059190612bf1565b945050505b808061061590612d3a565b91505061037b565b5080945050505050919050565b606060006106386001611da7565b905060006106466002611da7565b6106506001611da7565b61065a9190612c47565b90506000808267ffffffffffffffff81111561069f577f4e487b7100000000000000000000000000000000000000000000000000000000600052604160045260246000fd5b6040519080825280602002602001820160405280156106d857816020015b6106c56120d1565b8152602001906001900390816106bd5790505b50905060005b8481101561096757600073ffffffffffffffffffffffffffffffffffffffff166007600060018461070f9190612bf1565b815260200190815260200160002060040160009054906101000a900473ffffffffffffffffffffffffffffffffffffffff1673ffffffffffffffffffffffffffffffffffffffff161415610954576000600760006001846107709190612bf1565b815260200190815260200160002060000154905060006007600083815260200190815260200160002090508060405180610100016040529081600082015481526020016001820160009054906101000a900473ffffffffffffffffffffffffffffffffffffffff1673ffffffffffffffffffffffffffffffffffffffff1673ffffffffffffffffffffffffffffffffffffffff168152602001600282015481526020016003820160009054906101000a900473ffffffffffffffffffffffffffffffffffffffff1673ffffffffffffffffffffffffffffffffffffffff1673ffffffffffffffffffffffffffffffffffffffff1681526020016004820160009054906101000a900473ffffffffffffffffffffffffffffffffffffffff1673ffffffffffffffffffffffffffffffffffffffff1673ffffffffffffffffffffffffffffffffffffffff168152602001600582015481526020016006820160009054906101000a900460ff161515151581526020016006820160019054906101000a900460ff161515151581525050848681518110610937577f4e487b7100000000000000000000000000000000000000000000000000000000600052603260045260246000fd5b602002602001018190525060018561094f9190612bf1565b945050505b808061095f90612d3a565b9150506106de565b508094505050505090565b6000600654905090565b600560009054906101000a900473ffffffffffffffffffffffffffffffffffffffff1673ffffffffffffffffffffffffffffffffffffffff163373ffffffffffffffffffffffffffffffffffffffff1614610a0c576040517f08c379a0000000000000000000000000000000000000000000000000000000008152600401610a0390612a08565b60405180910390fd5b806007600084815260200190815260200160002060060160016101000a81548160ff0219169083151502179055505050565b600085118015610a575750610a536001611da7565b8511155b610a96576040517f08c379a0000000000000000000000000000000000000000000000000000000008152600401610a8d90612a28565b60405180910390fd5b6007600086815260200190815260200160002060060160009054906101000a900460ff1615610afa576040517f08c379a0000000000000000000000000000000000000000000000000000000008152600401610af190612a68565b60405180910390fd5b6007600086815260200190815260200160002060030160009054906101000a900473ffffffffffffffffffffffffffffffffffffffff1673ffffffffffffffffffffffffffffffffffffffff163373ffffffffffffffffffffffffffffffffffffffff1614610b9e576040517f08c379a0000000000000000000000000000000000000000000000000000000008152600401610b95906129e8565b60405180910390fd5b610ba86004611db5565b6000610bb46004611da7565b90506040518060e001604052808281526020018781526020018681526020018581526020018481526020018342610beb9190612bf1565b81526020013373ffffffffffffffffffffffffffffffffffffffff1681525060096000838152602001908152602001600020600082015181600001556020820151816001015560408201518160020155606082015181600301556080820151816004015560a0820151816005015560c08201518160060160006101000a81548173ffffffffffffffffffffffffffffffffffffffff021916908373ffffffffffffffffffffffffffffffffffffffff16021790555090505085817f76d33c99a4e2b86df001a52f4defd016ef0269fa24446089611540089db759878787878742610cd59190612bf1565b33604051610ce7959493929190612aff565b60405180910390a3505050505050565b60003073ffffffffffffffffffffffffffffffffffffffff163373ffffffffffffffffffffffffffffffffffffffff161415610d3557816006819055505b6006549050919050565b610d476120d1565b600082118015610d605750610d5c6001611da7565b8211155b610d9f576040517f08c379a0000000000000000000000000000000000000000000000000000000008152600401610d9690612a28565b60405180910390fd5b6007600083815260200190815260200160002060405180610100016040529081600082015481526020016001820160009054906101000a900473ffffffffffffffffffffffffffffffffffffffff1673ffffffffffffffffffffffffffffffffffffffff1673ffffffffffffffffffffffffffffffffffffffff168152602001600282015481526020016003820160009054906101000a900473ffffffffffffffffffffffffffffffffffffffff1673ffffffffffffffffffffffffffffffffffffffff1673ffffffffffffffffffffffffffffffffffffffff1681526020016004820160009054906101000a900473ffffffffffffffffffffffffffffffffffffffff1673ffffffffffffffffffffffffffffffffffffffff1673ffffffffffffffffffffffffffffffffffffffff168152602001600582015481526020016006820160009054906101000a900460ff161515151581526020016006820160019054906101000a900460ff1615151515815250509050919050565b610f23611dcb565b600060076000838152602001908152602001600020600501549050600060076000848152602001908152602001600020600201549050813414610f9b576040517f08c379a0000000000000000000000000000000000000000000000000000000008152600401610f92906129c8565b60405180910390fd5b6007600084815260200190815260200160002060030160009054906101000a900473ffffffffffffffffffffffffffffffffffffffff1673ffffffffffffffffffffffffffffffffffffffff166108fc349081150290604051600060405180830381858888f19350505050158015611017573d6000803e3d6000fd5b508373ffffffffffffffffffffffffffffffffffffffff166323b872dd3033846040518463ffffffff1660e01b8152600401611055939291906128a0565b600060405180830381600087803b15801561106f57600080fd5b505af1158015611083573d6000803e3d6000fd5b50505050336007600085815260200190815260200160002060040160006101000a81548173ffffffffffffffffffffffffffffffffffffffff021916908373ffffffffffffffffffffffffffffffffffffffff16021790555060016007600085815260200190815260200160002060060160006101000a81548160ff0219169083151502179055506111156002611db5565b600560009054906101000a900473ffffffffffffffffffffffffffffffffffffffff1673ffffffffffffffffffffffffffffffffffffffff166108fc6006549081150290604051600060405180830381858888f1935050505015801561117f573d6000803e3d6000fd5b506111f983336040518060400160405280600481526020017f53616c6500000000000000000000000000000000000000000000000000000000815250856007600089815260200190815260200160002060030160009054906101000a900473ffffffffffffffffffffffffffffffffffffffff1633611e1b565b61127383336040518060400160405280600881526020017f5472616e7366657200000000000000000000000000000000000000000000000081525060006007600089815260200190815260200160002060030160009054906101000a900473ffffffffffffffffffffffffffffffffffffffff1633611e1b565b505061127d612040565b5050565b611289611dcb565b600082116112cc576040517f08c379a00000000000000000000000000000000000000000000000000000000081526004016112c390612a48565b60405180910390fd5b6006543414611310576040517f08c379a000000000000000000000000000000000000000000000000000000000815260040161130790612a88565b60405180910390fd5b61131a6001611db5565b60006113266001611da7565b90506040518061010001604052808281526020018673ffffffffffffffffffffffffffffffffffffffff1681526020018581526020013373ffffffffffffffffffffffffffffffffffffffff168152602001600073ffffffffffffffffffffffffffffffffffffffff168152602001848152602001600015158152602001831515815250600760008381526020019081526020016000206000820151816000015560208201518160010160006101000a81548173ffffffffffffffffffffffffffffffffffffffff021916908373ffffffffffffffffffffffffffffffffffffffff1602179055506040820151816002015560608201518160030160006101000a81548173ffffffffffffffffffffffffffffffffffffffff021916908373ffffffffffffffffffffffffffffffffffffffff16021790555060808201518160040160006101000a81548173ffffffffffffffffffffffffffffffffffffffff021916908373ffffffffffffffffffffffffffffffffffffffff16021790555060a0820151816005015560c08201518160060160006101000a81548160ff02191690831515021790555060e08201518160060160016101000a81548160ff02191690831515021790555090505061153781336040518060400160405280600481526020017f4d696e740000000000000000000000000000000000000000000000000000000081525086600080611e1b565b8473ffffffffffffffffffffffffffffffffffffffff166323b872dd3330876040518463ffffffff1660e01b8152600401611574939291906128a0565b600060405180830381600087803b15801561158e57600080fd5b505af11580156115a2573d6000803e3d6000fd5b50505050838573ffffffffffffffffffffffffffffffffffffffff16827fc99151f4453170a67bc7441775fde1a3bc3220c06645df1121e703aab5e7da5d336000886000896040516115f89594939291906128d7565b60405180910390a450611609612040565b50505050565b6060600061161d6001611da7565b905060008060005b838110156116c6573373ffffffffffffffffffffffffffffffffffffffff16600760006001846116559190612bf1565b815260200190815260200160002060040160009054906101000a900473ffffffffffffffffffffffffffffffffffffffff1673ffffffffffffffffffffffffffffffffffffffff1614156116b3576001836116b09190612bf1565b92505b80806116be90612d3a565b915050611625565b5060008267ffffffffffffffff811115611709577f4e487b7100000000000000000000000000000000000000000000000000000000600052604160045260246000fd5b60405190808252806020026020018201604052801561174257816020015b61172f6120d1565b8152602001906001900390816117275790505b50905060005b848110156119d0573373ffffffffffffffffffffffffffffffffffffffff16600760006001846117789190612bf1565b815260200190815260200160002060040160009054906101000a900473ffffffffffffffffffffffffffffffffffffffff1673ffffffffffffffffffffffffffffffffffffffff1614156119bd576000600760006001846117d99190612bf1565b815260200190815260200160002060000154905060006007600083815260200190815260200160002090508060405180610100016040529081600082015481526020016001820160009054906101000a900473ffffffffffffffffffffffffffffffffffffffff1673ffffffffffffffffffffffffffffffffffffffff1673ffffffffffffffffffffffffffffffffffffffff168152602001600282015481526020016003820160009054906101000a900473ffffffffffffffffffffffffffffffffffffffff1673ffffffffffffffffffffffffffffffffffffffff1673ffffffffffffffffffffffffffffffffffffffff1681526020016004820160009054906101000a900473ffffffffffffffffffffffffffffffffffffffff1673ffffffffffffffffffffffffffffffffffffffff1673ffffffffffffffffffffffffffffffffffffffff168152602001600582015481526020016006820160009054906101000a900460ff161515151581526020016006820160019054906101000a900460ff1615151515815250508486815181106119a0577f4e487b7100000000000000000000000000000000000000000000000000000000600052603260045260246000fd5b60200260200101819052506001856119b89190612bf1565b945050505b80806119c890612d3a565b915050611748565b508094505050505090565b606060006119e96001611da7565b905060008060005b83811015611a92573373ffffffffffffffffffffffffffffffffffffffff1660076000600184611a219190612bf1565b815260200190815260200160002060030160009054906101000a900473ffffffffffffffffffffffffffffffffffffffff1673ffffffffffffffffffffffffffffffffffffffff161415611a7f57600183611a7c9190612bf1565b92505b8080611a8a90612d3a565b9150506119f1565b5060008267ffffffffffffffff811115611ad5577f4e487b7100000000000000000000000000000000000000000000000000000000600052604160045260246000fd5b604051908082528060200260200182016040528015611b0e57816020015b611afb6120d1565b815260200190600190039081611af35790505b50905060005b84811015611d9c573373ffffffffffffffffffffffffffffffffffffffff1660076000600184611b449190612bf1565b815260200190815260200160002060030160009054906101000a900473ffffffffffffffffffffffffffffffffffffffff1673ffffffffffffffffffffffffffffffffffffffff161415611d8957600060076000600184611ba59190612bf1565b815260200190815260200160002060000154905060006007600083815260200190815260200160002090508060405180610100016040529081600082015481526020016001820160009054906101000a900473ffffffffffffffffffffffffffffffffffffffff1673ffffffffffffffffffffffffffffffffffffffff1673ffffffffffffffffffffffffffffffffffffffff168152602001600282015481526020016003820160009054906101000a900473ffffffffffffffffffffffffffffffffffffffff1673ffffffffffffffffffffffffffffffffffffffff1673ffffffffffffffffffffffffffffffffffffffff1681526020016004820160009054906101000a900473ffffffffffffffffffffffffffffffffffffffff1673ffffffffffffffffffffffffffffffffffffffff1673ffffffffffffffffffffffffffffffffffffffff168152602001600582015481526020016006820160009054906101000a900460ff161515151581526020016006820160019054906101000a900460ff161515151581525050848681518110611d6c577f4e487b7100000000000000000000000000000000000000000000000000000000600052603260045260246000fd5b6020026020010181905250600185611d849190612bf1565b945050505b8080611d9490612d3a565b915050611b14565b508094505050505090565b600081600001549050919050565b6001816000016000828254019250508190555050565b60026000541415611e11576040517f08c379a0000000000000000000000000000000000000000000000000000000008152600401611e0890612aa8565b60405180910390fd5b6002600081905550565b611e256003611db5565b6000611e316003611da7565b90506040518061010001604052808281526020018881526020018773ffffffffffffffffffffffffffffffffffffffff1681526020018681526020018581526020018473ffffffffffffffffffffffffffffffffffffffff1681526020018373ffffffffffffffffffffffffffffffffffffffff1681526020014281525060086000838152602001908152602001600020600082015181600001556020820151816001015560408201518160020160006101000a81548173ffffffffffffffffffffffffffffffffffffffff021916908373ffffffffffffffffffffffffffffffffffffffff1602179055506060820151816003019080519060200190611f3992919061215c565b506080820151816004015560a08201518160050160006101000a81548173ffffffffffffffffffffffffffffffffffffffff021916908373ffffffffffffffffffffffffffffffffffffffff16021790555060c08201518160060160006101000a81548173ffffffffffffffffffffffffffffffffffffffff021916908373ffffffffffffffffffffffffffffffffffffffff16021790555060e082015181600701559050508573ffffffffffffffffffffffffffffffffffffffff1687827f0b3f05d67e59c294aafa3f21b23b6d6030a875a914e6dbfe317c076293855efa888888884260405161202f95949392919061296e565b60405180910390a450505050505050565b6001600081905550565b6040518061010001604052806000815260200160008152602001600073ffffffffffffffffffffffffffffffffffffffff1681526020016060815260200160008152602001600073ffffffffffffffffffffffffffffffffffffffff168152602001600073ffffffffffffffffffffffffffffffffffffffff168152602001600081525090565b60405180610100016040528060008152602001600073ffffffffffffffffffffffffffffffffffffffff16815260200160008152602001600073ffffffffffffffffffffffffffffffffffffffff168152602001600073ffffffffffffffffffffffffffffffffffffffff168152602001600081526020016000151581526020016000151581525090565b82805461216890612d08565b90600052602060002090601f01602090048101928261218a57600085556121d1565b82601f106121a357805160ff19168380011785556121d1565b828001600101855582156121d1579182015b828111156121d05782518255916020019190600101906121b5565b5b5090506121de91906121e2565b5090565b5b808211156121fb5760008160009055506001016121e3565b5090565b60008135905061220e81612fd2565b92915050565b60008135905061222381612fe9565b92915050565b60008135905061223881613000565b92915050565b6000806040838503121561225157600080fd5b600061225f858286016121ff565b925050602061227085828601612229565b9150509250929050565b6000806000806080858703121561229057600080fd5b600061229e878288016121ff565b94505060206122af87828801612229565b93505060406122c087828801612229565b92505060606122d187828801612214565b91505092959194509250565b6000602082840312156122ef57600080fd5b60006122fd84828501612229565b91505092915050565b6000806040838503121561231957600080fd5b600061232785828601612229565b925050602061233885828601612214565b9150509250929050565b600080600080600060a0868803121561235a57600080fd5b600061236888828901612229565b955050602061237988828901612229565b945050604061238a88828901612229565b935050606061239b88828901612229565b92505060806123ac88828901612229565b9150509295509295909350565b60006123c5838361268e565b905092915050565b60006123d9838361273e565b6101008301905092915050565b6123ef81612c8d565b82525050565b6123fe81612c7b565b82525050565b61240d81612c7b565b82525050565b600061241e82612b72565b6124288185612bad565b93508360208202850161243a85612b52565b8060005b85811015612476578484038952815161245785826123b9565b945061246283612b93565b925060208a0199505060018101905061243e565b50829750879550505050505092915050565b600061249382612b7d565b61249d8185612bbe565b93506124a883612b62565b8060005b838110156124d95781516124c088826123cd565b97506124cb83612ba0565b9250506001810190506124ac565b5085935050505092915050565b6124ef81612c9f565b82525050565b6124fe81612c9f565b82525050565b600061250f82612b88565b6125198185612bcf565b9350612529818560208601612cd5565b61253281612de1565b840191505092915050565b600061254882612b88565b6125528185612be0565b9350612562818560208601612cd5565b61256b81612de1565b840191505092915050565b6000612583603183612be0565b915061258e82612df2565b604082019050919050565b60006125a6602383612be0565b91506125b182612e41565b604082019050919050565b60006125c9602683612be0565b91506125d482612e90565b604082019050919050565b60006125ec600f83612be0565b91506125f782612edf565b602082019050919050565b600061260f601883612be0565b915061261a82612f08565b602082019050919050565b6000612632601483612be0565b915061263d82612f31565b602082019050919050565b6000612655602483612be0565b915061266082612f5a565b604082019050919050565b6000612678601f83612be0565b915061268382612fa9565b602082019050919050565b6000610100830160008301516126a76000860182612882565b5060208301516126ba6020860182612882565b5060408301516126cd60408601826123f5565b50606083015184820360608601526126e58282612504565b91505060808301516126fa6080860182612882565b5060a083015161270d60a08601826123f5565b5060c083015161272060c08601826123f5565b5060e083015161273360e0860182612882565b508091505092915050565b610100820160008201516127556000850182612882565b50602082015161276860208501826123f5565b50604082015161277b6040850182612882565b50606082015161278e60608501826123e6565b5060808201516127a160808501826123e6565b5060a08201516127b460a0850182612882565b5060c08201516127c760c08501826124e6565b5060e08201516127da60e08501826124e6565b50505050565b610100820160008201516127f76000850182612882565b50602082015161280a60208501826123f5565b50604082015161281d6040850182612882565b50606082015161283060608501826123e6565b50608082015161284360808501826123e6565b5060a082015161285660a0850182612882565b5060c082015161286960c08501826124e6565b5060e082015161287c60e08501826124e6565b50505050565b61288b81612ccb565b82525050565b61289a81612ccb565b82525050565b60006060820190506128b56000830186612404565b6128c26020830185612404565b6128cf6040830184612891565b949350505050565b600060a0820190506128ec6000830188612404565b6128f96020830187612404565b6129066040830186612891565b61291360608301856124f5565b61292060808301846124f5565b9695505050505050565b600060208201905081810360008301526129448184612413565b905092915050565b600060208201905081810360008301526129668184612488565b905092915050565b600060a0820190508181036000830152612988818861253d565b90506129976020830187612891565b6129a46040830186612404565b6129b16060830185612404565b6129be6080830184612891565b9695505050505050565b600060208201905081810360008301526129e181612576565b9050919050565b60006020820190508181036000830152612a0181612599565b9050919050565b60006020820190508181036000830152612a21816125bc565b9050919050565b60006020820190508181036000830152612a41816125df565b9050919050565b60006020820190508181036000830152612a6181612602565b9050919050565b60006020820190508181036000830152612a8181612625565b9050919050565b60006020820190508181036000830152612aa181612648565b9050919050565b60006020820190508181036000830152612ac18161266b565b9050919050565b600061010082019050612ade60008301846127e0565b92915050565b6000602082019050612af96000830184612891565b92915050565b600060a082019050612b146000830188612891565b612b216020830187612891565b612b2e6040830186612891565b612b3b6060830185612891565b612b486080830184612404565b9695505050505050565b6000819050602082019050919050565b6000819050602082019050919050565b600081519050919050565b600081519050919050565b600081519050919050565b6000602082019050919050565b6000602082019050919050565b600082825260208201905092915050565b600082825260208201905092915050565b600082825260208201905092915050565b600082825260208201905092915050565b6000612bfc82612ccb565b9150612c0783612ccb565b9250827fffffffffffffffffffffffffffffffffffffffffffffffffffffffffffffffff03821115612c3c57612c3b612d83565b5b828201905092915050565b6000612c5282612ccb565b9150612c5d83612ccb565b925082821015612c7057612c6f612d83565b5b828203905092915050565b6000612c8682612cab565b9050919050565b6000612c9882612cab565b9050919050565b60008115159050919050565b600073ffffffffffffffffffffffffffffffffffffffff82169050919050565b6000819050919050565b60005b83811015612cf3578082015181840152602081019050612cd8565b83811115612d02576000848401525b50505050565b60006002820490506001821680612d2057607f821691505b60208210811415612d3457612d33612db2565b5b50919050565b6000612d4582612ccb565b91507fffffffffffffffffffffffffffffffffffffffffffffffffffffffffffffffff821415612d7857612d77612d83565b5b600182019050919050565b7f4e487b7100000000000000000000000000000000000000000000000000000000600052601160045260246000fd5b7f4e487b7100000000000000000000000000000000000000000000000000000000600052602260045260246000fd5b6000601f19601f8301169050919050565b7f506c65617365206d616b652074686520707269636520746f2062652073616d6560008201527f206173206c697374696e67207072696365000000000000000000000000000000602082015250565b7f4f6e6c79207468652073656c6c65722063616e2063726561746520616e206f6660008201527f6665720000000000000000000000000000000000000000000000000000000000602082015250565b7f4f6e6c7920746865206f776e65722063616e207570646174652069735265776160008201527f72644974656d0000000000000000000000000000000000000000000000000000602082015250565b7f496e76616c6964204974656d2049440000000000000000000000000000000000600082015250565b7f5072696365206d7573742062652061626f7665207a65726f0000000000000000600082015250565b7f4974656d20697320616c726561647920736f6c64000000000000000000000000600082015250565b7f5072696365206d75737420626520657175616c20746f206c697374696e67207060008201527f7269636500000000000000000000000000000000000000000000000000000000602082015250565b7f5265656e7472616e637947756172643a207265656e7472616e742063616c6c00600082015250565b612fdb81612c7b565b8114612fe657600080fd5b50565b612ff281612c9f565b8114612ffd57600080fd5b50565b61300981612ccb565b811461301457600080fd5b5056fea26469706673582212200ff360b13e3331015ca86ea1d6fbfa5a80b60dfea9afa8a2c05bbb89fdd0186b64736f6c63430008040033",
  "linkReferences": {},
  "deployedLinkReferences": {}
}