{
  "_format": "hh-sol-artifact-1",
  "contractName": "Marketplace",
  "sourceName": "contracts/Marketplace.sol",
  "abi": [
    {
      "inputs": [],
      "stateMutability": "nonpayable",
      "type": "constructor"
    },
    {
      "anonymous": false,
      "inputs": [
        {
          "indexed": true,
          "internalType": "address",
          "name": "owner",
          "type": "address"
        },
        {
          "indexed": true,
          "internalType": "address",
          "name": "approved",
          "type": "address"
        },
        {
          "indexed": true,
          "internalType": "uint256",
          "name": "tokenId",
          "type": "uint256"
        }
      ],
      "name": "Approval",
      "type": "event"
    },
    {
      "anonymous": false,
      "inputs": [
        {
          "indexed": true,
          "internalType": "address",
          "name": "owner",
          "type": "address"
        },
        {
          "indexed": true,
          "internalType": "address",
          "name": "operator",
          "type": "address"
        },
        {
          "indexed": false,
          "internalType": "bool",
          "name": "approved",
          "type": "bool"
        }
      ],
      "name": "ApprovalForAll",
      "type": "event"
    },
    {
      "anonymous": false,
      "inputs": [
        {
          "indexed": false,
          "internalType": "uint256",
          "name": "_fromTokenId",
          "type": "uint256"
        },
        {
          "indexed": false,
          "internalType": "uint256",
          "name": "_toTokenId",
          "type": "uint256"
        }
      ],
      "name": "BatchMetadataUpdate",
      "type": "event"
    },
    {
      "anonymous": false,
      "inputs": [
        {
          "indexed": true,
          "internalType": "uint256",
          "name": "itemId",
          "type": "uint256"
        },
        {
          "indexed": false,
          "internalType": "address",
          "name": "seller",
          "type": "address"
        },
        {
          "indexed": false,
          "internalType": "address",
          "name": "owner",
          "type": "address"
        },
        {
          "indexed": false,
          "internalType": "address",
          "name": "creator",
          "type": "address"
        },
        {
          "indexed": false,
          "internalType": "uint256",
          "name": "price",
          "type": "uint256"
        },
        {
          "indexed": false,
          "internalType": "bool",
          "name": "sold",
          "type": "bool"
        },
        {
          "indexed": false,
          "internalType": "bool",
          "name": "isRewardItem",
          "type": "bool"
        },
        {
          "indexed": false,
          "internalType": "uint256",
          "name": "likes",
          "type": "uint256"
        },
        {
          "indexed": false,
          "internalType": "uint256",
          "name": "views",
          "type": "uint256"
        },
        {
          "indexed": false,
          "internalType": "bool",
          "name": "isListed",
          "type": "bool"
        }
      ],
      "name": "MarketItemCreated",
      "type": "event"
    },
    {
      "anonymous": false,
      "inputs": [
        {
          "indexed": false,
          "internalType": "uint256",
          "name": "_tokenId",
          "type": "uint256"
        }
      ],
      "name": "MetadataUpdate",
      "type": "event"
    },
    {
      "anonymous": false,
      "inputs": [
        {
          "indexed": true,
          "internalType": "address",
          "name": "from",
          "type": "address"
        },
        {
          "indexed": true,
          "internalType": "address",
          "name": "to",
          "type": "address"
        },
        {
          "indexed": true,
          "internalType": "uint256",
          "name": "tokenId",
          "type": "uint256"
        }
      ],
      "name": "Transfer",
      "type": "event"
    },
    {
      "inputs": [
        {
          "internalType": "uint256",
          "name": "",
          "type": "uint256"
        },
        {
          "internalType": "uint256",
          "name": "",
          "type": "uint256"
        }
      ],
      "name": "activities",
      "outputs": [
        {
          "internalType": "uint256",
          "name": "itemId",
          "type": "uint256"
        },
        {
          "internalType": "address",
          "name": "from",
          "type": "address"
        },
        {
          "internalType": "address",
          "name": "to",
          "type": "address"
        },
        {
          "internalType": "string",
          "name": "eventType",
          "type": "string"
        },
        {
          "internalType": "uint256",
          "name": "price",
          "type": "uint256"
        },
        {
          "internalType": "uint256",
          "name": "timestamp",
          "type": "uint256"
        }
      ],
      "stateMutability": "view",
      "type": "function"
    },
    {
      "inputs": [
        {
          "internalType": "uint256",
          "name": "tokenId",
          "type": "uint256"
        },
        {
          "internalType": "address",
          "name": "from",
          "type": "address"
        },
        {
          "internalType": "address",
          "name": "to",
          "type": "address"
        },
        {
          "internalType": "string",
          "name": "eventType",
          "type": "string"
        },
        {
          "internalType": "uint256",
          "name": "price",
          "type": "uint256"
        }
      ],
      "name": "addActivity",
      "outputs": [],
      "stateMutability": "nonpayable",
      "type": "function"
    },
    {
      "inputs": [
        {
          "internalType": "uint256",
          "name": "tokenId",
          "type": "uint256"
        },
        {
          "internalType": "uint256",
          "name": "price",
          "type": "uint256"
        }
      ],
      "name": "addPriceHistory",
      "outputs": [],
      "stateMutability": "nonpayable",
      "type": "function"
    },
    {
      "inputs": [
        {
          "internalType": "address",
          "name": "to",
          "type": "address"
        },
        {
          "internalType": "uint256",
          "name": "tokenId",
          "type": "uint256"
        }
      ],
      "name": "approve",
      "outputs": [],
      "stateMutability": "nonpayable",
      "type": "function"
    },
    {
      "inputs": [
        {
          "internalType": "address",
          "name": "owner",
          "type": "address"
        }
      ],
      "name": "balanceOf",
      "outputs": [
        {
          "internalType": "uint256",
          "name": "",
          "type": "uint256"
        }
      ],
      "stateMutability": "view",
      "type": "function"
    },
    {
      "inputs": [
        {
          "internalType": "uint256",
          "name": "tokenId",
          "type": "uint256"
        }
      ],
      "name": "buyMarketItem",
      "outputs": [],
      "stateMutability": "payable",
      "type": "function"
    },
    {
      "inputs": [
        {
          "internalType": "string",
          "name": "tokenURI",
          "type": "string"
        },
        {
          "internalType": "uint256",
          "name": "price",
          "type": "uint256"
        }
      ],
      "name": "createToken",
      "outputs": [
        {
          "internalType": "uint256",
          "name": "",
          "type": "uint256"
        }
      ],
      "stateMutability": "payable",
      "type": "function"
    },
    {
      "inputs": [],
      "name": "fetchItemsCreated",
      "outputs": [
        {
          "components": [
            {
              "internalType": "uint256",
              "name": "itemId",
              "type": "uint256"
            },
            {
              "internalType": "address payable",
              "name": "seller",
              "type": "address"
            },
            {
              "internalType": "address payable",
              "name": "owner",
              "type": "address"
            },
            {
              "internalType": "address payable",
              "name": "creator",
              "type": "address"
            },
            {
              "internalType": "uint256",
              "name": "price",
              "type": "uint256"
            },
            {
              "internalType": "bool",
              "name": "sold",
              "type": "bool"
            },
            {
              "internalType": "bool",
              "name": "isRewardItem",
              "type": "bool"
            },
            {
              "internalType": "uint256",
              "name": "likes",
              "type": "uint256"
            },
            {
              "internalType": "uint256",
              "name": "views",
              "type": "uint256"
            },
            {
              "internalType": "bool",
              "name": "isListed",
              "type": "bool"
            }
          ],
          "internalType": "struct Marketplace.MarketItem[]",
          "name": "",
          "type": "tuple[]"
        }
      ],
      "stateMutability": "view",
      "type": "function"
    },
    {
      "inputs": [],
      "name": "fetchMarketItems",
      "outputs": [
        {
          "components": [
            {
              "internalType": "uint256",
              "name": "itemId",
              "type": "uint256"
            },
            {
              "internalType": "address payable",
              "name": "seller",
              "type": "address"
            },
            {
              "internalType": "address payable",
              "name": "owner",
              "type": "address"
            },
            {
              "internalType": "address payable",
              "name": "creator",
              "type": "address"
            },
            {
              "internalType": "uint256",
              "name": "price",
              "type": "uint256"
            },
            {
              "internalType": "bool",
              "name": "sold",
              "type": "bool"
            },
            {
              "internalType": "bool",
              "name": "isRewardItem",
              "type": "bool"
            },
            {
              "internalType": "uint256",
              "name": "likes",
              "type": "uint256"
            },
            {
              "internalType": "uint256",
              "name": "views",
              "type": "uint256"
            },
            {
              "internalType": "bool",
              "name": "isListed",
              "type": "bool"
            }
          ],
          "internalType": "struct Marketplace.MarketItem[]",
          "name": "",
          "type": "tuple[]"
        }
      ],
      "stateMutability": "view",
      "type": "function"
    },
    {
      "inputs": [],
      "name": "fetchPurchasedNFTs",
      "outputs": [
        {
          "components": [
            {
              "internalType": "uint256",
              "name": "itemId",
              "type": "uint256"
            },
            {
              "internalType": "address payable",
              "name": "seller",
              "type": "address"
            },
            {
              "internalType": "address payable",
              "name": "owner",
              "type": "address"
            },
            {
              "internalType": "address payable",
              "name": "creator",
              "type": "address"
            },
            {
              "internalType": "uint256",
              "name": "price",
              "type": "uint256"
            },
            {
              "internalType": "bool",
              "name": "sold",
              "type": "bool"
            },
            {
              "internalType": "bool",
              "name": "isRewardItem",
              "type": "bool"
            },
            {
              "internalType": "uint256",
              "name": "likes",
              "type": "uint256"
            },
            {
              "internalType": "uint256",
              "name": "views",
              "type": "uint256"
            },
            {
              "internalType": "bool",
              "name": "isListed",
              "type": "bool"
            }
          ],
          "internalType": "struct Marketplace.MarketItem[]",
          "name": "",
          "type": "tuple[]"
        }
      ],
      "stateMutability": "view",
      "type": "function"
    },
    {
      "inputs": [
        {
          "internalType": "uint256",
          "name": "tokenId",
          "type": "uint256"
        }
      ],
      "name": "getActivities",
      "outputs": [
        {
          "components": [
            {
              "internalType": "uint256",
              "name": "itemId",
              "type": "uint256"
            },
            {
              "internalType": "address",
              "name": "from",
              "type": "address"
            },
            {
              "internalType": "address",
              "name": "to",
              "type": "address"
            },
            {
              "internalType": "string",
              "name": "eventType",
              "type": "string"
            },
            {
              "internalType": "uint256",
              "name": "price",
              "type": "uint256"
            },
            {
              "internalType": "uint256",
              "name": "timestamp",
              "type": "uint256"
            }
          ],
          "internalType": "struct Marketplace.Activity[]",
          "name": "",
          "type": "tuple[]"
        }
      ],
      "stateMutability": "view",
      "type": "function"
    },
    {
      "inputs": [
        {
          "internalType": "uint256",
          "name": "tokenId",
          "type": "uint256"
        }
      ],
      "name": "getApproved",
      "outputs": [
        {
          "internalType": "address",
          "name": "",
          "type": "address"
        }
      ],
      "stateMutability": "view",
      "type": "function"
    },
    {
      "inputs": [],
      "name": "getListingPrice",
      "outputs": [
        {
          "internalType": "uint256",
          "name": "",
          "type": "uint256"
        }
      ],
      "stateMutability": "view",
      "type": "function"
    },
    {
      "inputs": [
        {
          "internalType": "uint256",
          "name": "itemId",
          "type": "uint256"
        }
      ],
      "name": "getNFTDetails",
      "outputs": [
        {
          "components": [
            {
              "internalType": "uint256",
              "name": "itemId",
              "type": "uint256"
            },
            {
              "internalType": "address payable",
              "name": "seller",
              "type": "address"
            },
            {
              "internalType": "address payable",
              "name": "owner",
              "type": "address"
            },
            {
              "internalType": "address payable",
              "name": "creator",
              "type": "address"
            },
            {
              "internalType": "uint256",
              "name": "price",
              "type": "uint256"
            },
            {
              "internalType": "bool",
              "name": "sold",
              "type": "bool"
            },
            {
              "internalType": "bool",
              "name": "isRewardItem",
              "type": "bool"
            },
            {
              "internalType": "uint256",
              "name": "likes",
              "type": "uint256"
            },
            {
              "internalType": "uint256",
              "name": "views",
              "type": "uint256"
            },
            {
              "internalType": "bool",
              "name": "isListed",
              "type": "bool"
            }
          ],
          "internalType": "struct Marketplace.MarketItem",
          "name": "",
          "type": "tuple"
        }
      ],
      "stateMutability": "view",
      "type": "function"
    },
    {
      "inputs": [
        {
          "internalType": "uint256",
          "name": "tokenId",
          "type": "uint256"
        }
      ],
      "name": "getPriceHistory",
      "outputs": [
        {
          "components": [
            {
              "internalType": "uint256",
              "name": "itemId",
              "type": "uint256"
            },
            {
              "internalType": "uint256",
              "name": "price",
              "type": "uint256"
            },
            {
              "internalType": "uint256",
              "name": "timestamp",
              "type": "uint256"
            }
          ],
          "internalType": "struct Marketplace.PriceHistory[]",
          "name": "",
          "type": "tuple[]"
        }
      ],
      "stateMutability": "view",
      "type": "function"
    },
    {
      "inputs": [
        {
          "internalType": "address",
          "name": "owner",
          "type": "address"
        },
        {
          "internalType": "address",
          "name": "operator",
          "type": "address"
        }
      ],
      "name": "isApprovedForAll",
      "outputs": [
        {
          "internalType": "bool",
          "name": "",
          "type": "bool"
        }
      ],
      "stateMutability": "view",
      "type": "function"
    },
    {
      "inputs": [],
      "name": "name",
      "outputs": [
        {
          "internalType": "string",
          "name": "",
          "type": "string"
        }
      ],
      "stateMutability": "view",
      "type": "function"
    },
    {
      "inputs": [
        {
          "internalType": "uint256",
          "name": "tokenId",
          "type": "uint256"
        }
      ],
      "name": "ownerOf",
      "outputs": [
        {
          "internalType": "address",
          "name": "",
          "type": "address"
        }
      ],
      "stateMutability": "view",
      "type": "function"
    },
    {
      "inputs": [
        {
          "internalType": "uint256",
          "name": "",
          "type": "uint256"
        },
        {
          "internalType": "uint256",
          "name": "",
          "type": "uint256"
        }
      ],
      "name": "priceHistories",
      "outputs": [
        {
          "internalType": "uint256",
          "name": "itemId",
          "type": "uint256"
        },
        {
          "internalType": "uint256",
          "name": "price",
          "type": "uint256"
        },
        {
          "internalType": "uint256",
          "name": "timestamp",
          "type": "uint256"
        }
      ],
      "stateMutability": "view",
      "type": "function"
    },
    {
      "inputs": [
        {
          "internalType": "uint256",
          "name": "tokenId",
          "type": "uint256"
        },
        {
          "internalType": "uint256",
          "name": "price",
          "type": "uint256"
        }
      ],
      "name": "resellToken",
      "outputs": [],
      "stateMutability": "payable",
      "type": "function"
    },
    {
      "inputs": [
        {
          "internalType": "address",
          "name": "from",
          "type": "address"
        },
        {
          "internalType": "address",
          "name": "to",
          "type": "address"
        },
        {
          "internalType": "uint256",
          "name": "tokenId",
          "type": "uint256"
        }
      ],
      "name": "safeTransferFrom",
      "outputs": [],
      "stateMutability": "nonpayable",
      "type": "function"
    },
    {
      "inputs": [
        {
          "internalType": "address",
          "name": "from",
          "type": "address"
        },
        {
          "internalType": "address",
          "name": "to",
          "type": "address"
        },
        {
          "internalType": "uint256",
          "name": "tokenId",
          "type": "uint256"
        },
        {
          "internalType": "bytes",
          "name": "data",
          "type": "bytes"
        }
      ],
      "name": "safeTransferFrom",
      "outputs": [],
      "stateMutability": "nonpayable",
      "type": "function"
    },
    {
      "inputs": [
        {
          "internalType": "address",
          "name": "operator",
          "type": "address"
        },
        {
          "internalType": "bool",
          "name": "approved",
          "type": "bool"
        }
      ],
      "name": "setApprovalForAll",
      "outputs": [],
      "stateMutability": "nonpayable",
      "type": "function"
    },
    {
      "inputs": [
        {
          "internalType": "bytes4",
          "name": "interfaceId",
          "type": "bytes4"
        }
      ],
      "name": "supportsInterface",
      "outputs": [
        {
          "internalType": "bool",
          "name": "",
          "type": "bool"
        }
      ],
      "stateMutability": "view",
      "type": "function"
    },
    {
      "inputs": [],
      "name": "symbol",
      "outputs": [
        {
          "internalType": "string",
          "name": "",
          "type": "string"
        }
      ],
      "stateMutability": "view",
      "type": "function"
    },
    {
      "inputs": [
        {
          "internalType": "uint256",
          "name": "tokenId",
          "type": "uint256"
        }
      ],
      "name": "tokenURI",
      "outputs": [
        {
          "internalType": "string",
          "name": "",
          "type": "string"
        }
      ],
      "stateMutability": "view",
      "type": "function"
    },
    {
      "inputs": [
        {
          "internalType": "address",
          "name": "from",
          "type": "address"
        },
        {
          "internalType": "address",
          "name": "to",
          "type": "address"
        },
        {
          "internalType": "uint256",
          "name": "tokenId",
          "type": "uint256"
        }
      ],
      "name": "transferFrom",
      "outputs": [],
      "stateMutability": "nonpayable",
      "type": "function"
    },
    {
      "inputs": [
        {
          "internalType": "uint256",
          "name": "itemId",
          "type": "uint256"
        },
        {
          "internalType": "bool",
          "name": "isRewardItem",
          "type": "bool"
        }
      ],
      "name": "updateIsRewardItem",
      "outputs": [],
      "stateMutability": "nonpayable",
      "type": "function"
    },
    {
      "inputs": [
        {
          "internalType": "uint256",
          "name": "_price",
          "type": "uint256"
        }
      ],
      "name": "updateListingPrice",
      "outputs": [],
      "stateMutability": "payable",
      "type": "function"
    }
  ],
  "bytecode": "0x60806040526509184e72a000600b553480156200001b57600080fd5b506040518060400160405280601581526020017f4e666c75656e6365722d4d61726b6574706c61636500000000000000000000008152506040518060400160405280600481526020017f4e464d50000000000000000000000000000000000000000000000000000000008152508160009080519060200190620000a09291906200010b565b508060019080519060200190620000b99291906200010b565b505050600160078190555033600a60006101000a81548173ffffffffffffffffffffffffffffffffffffffff021916908373ffffffffffffffffffffffffffffffffffffffff16021790555062000220565b8280546200011990620001bb565b90600052602060002090601f0160209004810192826200013d576000855562000189565b82601f106200015857805160ff191683800117855562000189565b8280016001018555821562000189579182015b82811115620001885782518255916020019190600101906200016b565b5b5090506200019891906200019c565b5090565b5b80821115620001b75760008160009055506001016200019d565b5090565b60006002820490506001821680620001d457607f821691505b60208210811415620001eb57620001ea620001f1565b5b50919050565b7f4e487b7100000000000000000000000000000000000000000000000000000000600052602260045260246000fd5b61573880620002306000396000f3fe6080604052600436106101c25760003560e01c806370a08231116100f7578063c87b56dd11610095578063f064c32e11610064578063f064c32e14610654578063fca97fdb1461067f578063fcfc1a76146106bc578063fd1a98a5146106fe576101c2565b8063c87b56dd14610593578063e219fc75146105d0578063e985e9c5146105ec578063ee6ba23414610629576101c2565b806395d89b41116100d157806395d89b41146104fa578063a22cb46514610525578063ae677aa31461054e578063b88d4fde1461056a576101c2565b806370a082311461045057806372b3b6201461048d57806382260f35146104bd576101c2565b806323b872dd1161016457806342842e0e1161013e57806342842e0e146103825780634bd738c7146103ab5780634e66d34e146103ea5780636352211e14610413576101c2565b806323b872dd14610314578063351901c31461033d5780633a52c69014610359576101c2565b8063095ea7b3116101a0578063095ea7b31461026c5780630f08efe01461029557806312e85585146102c057806319a0782e146102eb576101c2565b806301ffc9a7146101c757806306fdde0314610204578063081812fc1461022f575b600080fd5b3480156101d357600080fd5b506101ee60048036038101906101e99190613fa4565b61073b565b6040516101fb9190614a9b565b60405180910390f35b34801561021057600080fd5b5061021961079c565b6040516102269190614ab6565b60405180910390f35b34801561023b57600080fd5b506102566004803603810190610251919061404a565b61082e565b6040516102639190614941565b60405180910390f35b34801561027857600080fd5b50610293600480360381019061028e9190613f68565b610874565b005b3480156102a157600080fd5b506102aa61098c565b6040516102b79190614a57565b60405180910390f35b3480156102cc57600080fd5b506102d5610ce2565b6040516102e29190614d34565b60405180910390f35b3480156102f757600080fd5b50610312600480360381019061030d9190614073565b610cec565b005b34801561032057600080fd5b5061033b60048036038101906103369190613e62565b610e59565b005b6103576004803603810190610352919061404a565b610eb9565b005b34801561036557600080fd5b50610380600480360381019061037b919061413e565b61116a565b005b34801561038e57600080fd5b506103a960048036038101906103a49190613e62565b6111eb565b005b3480156103b757600080fd5b506103d260048036038101906103cd919061413e565b61120b565b6040516103e193929190614db7565b60405180910390f35b3480156103f657600080fd5b50610411600480360381019061040c9190614102565b611252565b005b34801561041f57600080fd5b5061043a6004803603810190610435919061404a565b611314565b6040516104479190614941565b60405180910390f35b34801561045c57600080fd5b5061047760048036038101906104729190613dfd565b61139b565b6040516104849190614d34565b60405180910390f35b6104a760048036038101906104a29190613ff6565b611453565b6040516104b49190614d34565b60405180910390f35b3480156104c957600080fd5b506104e460048036038101906104df919061404a565b611495565b6040516104f19190614d18565b60405180910390f35b34801561050657600080fd5b5061050f611696565b60405161051c9190614ab6565b60405180910390f35b34801561053157600080fd5b5061054c60048036038101906105479190613f2c565b611728565b005b6105686004803603810190610563919061404a565b61173e565b005b34801561057657600080fd5b50610591600480360381019061058c9190613eb1565b611748565b005b34801561059f57600080fd5b506105ba60048036038101906105b5919061404a565b6117aa565b6040516105c79190614ab6565b60405180910390f35b6105ea60048036038101906105e5919061413e565b6118bd565b005b3480156105f857600080fd5b50610613600480360381019061060e9190613e26565b611b2d565b6040516106209190614a9b565b60405180910390f35b34801561063557600080fd5b5061063e611bc1565b60405161064b9190614a57565b60405180910390f35b34801561066057600080fd5b50610669611f9c565b6040516106769190614a57565b60405180910390f35b34801561068b57600080fd5b506106a660048036038101906106a1919061404a565b612377565b6040516106b39190614a35565b60405180910390f35b3480156106c857600080fd5b506106e360048036038101906106de919061413e565b612545565b6040516106f596959493929190614d4f565b60405180910390f35b34801561070a57600080fd5b506107256004803603810190610720919061404a565b612666565b6040516107329190614a79565b60405180910390f35b6000634906490660e01b7bffffffffffffffffffffffffffffffffffffffffffffffffffffffff1916827bffffffffffffffffffffffffffffffffffffffffffffffffffffffff191614806107955750610794826126f6565b5b9050919050565b6060600080546107ab906150d8565b80601f01602080910402602001604051908101604052809291908181526020018280546107d7906150d8565b80156108245780601f106107f957610100808354040283529160200191610824565b820191906000526020600020905b81548152906001019060200180831161080757829003601f168201915b5050505050905090565b6000610839826127d8565b6004600083815260200190815260200160002060009054906101000a900473ffffffffffffffffffffffffffffffffffffffff169050919050565b600061087f82611314565b90508073ffffffffffffffffffffffffffffffffffffffff168373ffffffffffffffffffffffffffffffffffffffff1614156108f0576040517f08c379a00000000000000000000000000000000000000000000000000000000081526004016108e790614c98565b60405180910390fd5b8073ffffffffffffffffffffffffffffffffffffffff1661090f612823565b73ffffffffffffffffffffffffffffffffffffffff16148061093e575061093d81610938612823565b611b2d565b5b61097d576040517f08c379a000000000000000000000000000000000000000000000000000000000815260040161097490614cd8565b60405180910390fd5b610987838361282b565b505050565b6060600061099a60086128e4565b905060006109a860096128e4565b6109b260086128e4565b6109bc9190614fca565b90506000808267ffffffffffffffff811115610a01577f4e487b7100000000000000000000000000000000000000000000000000000000600052604160045260246000fd5b604051908082528060200260200182016040528015610a3a57816020015b610a27613b86565b815260200190600190039081610a1f5790505b50905060005b84811015610cd7573073ffffffffffffffffffffffffffffffffffffffff16600c6000600184610a709190614f74565b815260200190815260200160002060020160009054906101000a900473ffffffffffffffffffffffffffffffffffffffff1673ffffffffffffffffffffffffffffffffffffffff161415610cc4576000600182610acd9190614f74565b90506000600c600083815260200190815260200160002090508060405180610140016040529081600082015481526020016001820160009054906101000a900473ffffffffffffffffffffffffffffffffffffffff1673ffffffffffffffffffffffffffffffffffffffff1673ffffffffffffffffffffffffffffffffffffffff1681526020016002820160009054906101000a900473ffffffffffffffffffffffffffffffffffffffff1673ffffffffffffffffffffffffffffffffffffffff1673ffffffffffffffffffffffffffffffffffffffff1681526020016003820160009054906101000a900473ffffffffffffffffffffffffffffffffffffffff1673ffffffffffffffffffffffffffffffffffffffff1673ffffffffffffffffffffffffffffffffffffffff168152602001600482015481526020016005820160009054906101000a900460ff161515151581526020016005820160019054906101000a900460ff1615151515815260200160068201548152602001600782015481526020016008820160009054906101000a900460ff161515151581525050848681518110610ca7577f4e487b7100000000000000000000000000000000000000000000000000000000600052603260045260246000fd5b6020026020010181905250600185610cbf9190614f74565b945050505b8080610ccf9061513b565b915050610a40565b508094505050505090565b6000600b54905090565b60006040518060c001604052808781526020018673ffffffffffffffffffffffffffffffffffffffff1681526020018573ffffffffffffffffffffffffffffffffffffffff168152602001848152602001838152602001428152509050600d60008781526020019081526020016000208190806001815401808255809150506001900390600052602060002090600602016000909190919091506000820151816000015560208201518160010160006101000a81548173ffffffffffffffffffffffffffffffffffffffff021916908373ffffffffffffffffffffffffffffffffffffffff16021790555060408201518160020160006101000a81548173ffffffffffffffffffffffffffffffffffffffff021916908373ffffffffffffffffffffffffffffffffffffffff1602179055506060820151816003019080519060200190610e3a929190613c21565b506080820151816004015560a082015181600501555050505050505050565b610e6a610e64612823565b826128f2565b610ea9576040517f08c379a0000000000000000000000000000000000000000000000000000000008152600401610ea090614ad8565b60405180910390fd5b610eb4838383612987565b505050565b6000600c60008381526020019081526020016000206004015490506000600c600084815260200190815260200160002060010160009054906101000a900473ffffffffffffffffffffffffffffffffffffffff16905033600c600085815260200190815260200160002060020160006101000a81548173ffffffffffffffffffffffffffffffffffffffff021916908373ffffffffffffffffffffffffffffffffffffffff1602179055506001600c600085815260200190815260200160002060050160006101000a81548160ff0219169083151502179055506000600c600085815260200190815260200160002060010160006101000a81548173ffffffffffffffffffffffffffffffffffffffff021916908373ffffffffffffffffffffffffffffffffffffffff1602179055506000600c600085815260200190815260200160002060080160006101000a81548160ff0219169083151502179055506110226009612c81565b611065836000336040518060400160405280600481526020017f53616c650000000000000000000000000000000000000000000000000000000081525086610cec565b611070303385612987565b6110b3836000336040518060400160405280600881526020017f5472616e7366657200000000000000000000000000000000000000000000000081525086610cec565b600a60009054906101000a900473ffffffffffffffffffffffffffffffffffffffff1673ffffffffffffffffffffffffffffffffffffffff166108fc600b549081150290604051600060405180830381858888f1935050505015801561111d573d6000803e3d6000fd5b508073ffffffffffffffffffffffffffffffffffffffff166108fc349081150290604051600060405180830381858888f19350505050158015611164573d6000803e3d6000fd5b50505050565b60006040518060600160405280848152602001838152602001428152509050600e60008481526020019081526020016000208190806001815401808255809150506001900390600052602060002090600302016000909190919091506000820151816000015560208201518160010155604082015181600201555050505050565b61120683838360405180602001604052806000815250611748565b505050565b600e602052816000526040600020818154811061122757600080fd5b9060005260206000209060030201600091509150508060000154908060010154908060020154905083565b600a60009054906101000a900473ffffffffffffffffffffffffffffffffffffffff1673ffffffffffffffffffffffffffffffffffffffff163373ffffffffffffffffffffffffffffffffffffffff16146112e2576040517f08c379a00000000000000000000000000000000000000000000000000000000081526004016112d990614b78565b60405180910390fd5b80600c600084815260200190815260200160002060050160016101000a81548160ff0219169083151502179055505050565b60008061132083612c97565b9050600073ffffffffffffffffffffffffffffffffffffffff168173ffffffffffffffffffffffffffffffffffffffff161415611392576040517f08c379a000000000000000000000000000000000000000000000000000000000815260040161138990614c78565b60405180910390fd5b80915050919050565b60008073ffffffffffffffffffffffffffffffffffffffff168273ffffffffffffffffffffffffffffffffffffffff16141561140c576040517f08c379a000000000000000000000000000000000000000000000000000000000815260040161140390614bd8565b60405180910390fd5b600360008373ffffffffffffffffffffffffffffffffffffffff1673ffffffffffffffffffffffffffffffffffffffff168152602001908152602001600020549050919050565b600061145f6008612c81565b600061146b60086128e4565b90506114773382612cd4565b6114818185612ef2565b61148b8184612f9d565b8091505092915050565b61149d613b86565b6000821180156114b657506114b260086128e4565b8211155b6114f5576040517f08c379a00000000000000000000000000000000000000000000000000000000081526004016114ec90614c18565b60405180910390fd5b600c600083815260200190815260200160002060405180610140016040529081600082015481526020016001820160009054906101000a900473ffffffffffffffffffffffffffffffffffffffff1673ffffffffffffffffffffffffffffffffffffffff1673ffffffffffffffffffffffffffffffffffffffff1681526020016002820160009054906101000a900473ffffffffffffffffffffffffffffffffffffffff1673ffffffffffffffffffffffffffffffffffffffff1673ffffffffffffffffffffffffffffffffffffffff1681526020016003820160009054906101000a900473ffffffffffffffffffffffffffffffffffffffff1673ffffffffffffffffffffffffffffffffffffffff1673ffffffffffffffffffffffffffffffffffffffff168152602001600482015481526020016005820160009054906101000a900460ff161515151581526020016005820160019054906101000a900460ff1615151515815260200160068201548152602001600782015481526020016008820160009054906101000a900460ff1615151515815250509050919050565b6060600180546116a5906150d8565b80601f01602080910402602001604051908101604052809291908181526020018280546116d1906150d8565b801561171e5780601f106116f35761010080835404028352916020019161171e565b820191906000526020600020905b81548152906001019060200180831161170157829003601f168201915b5050505050905090565b61173a611733612823565b8383613316565b5050565b80600b8190555050565b611759611753612823565b836128f2565b611798576040517f08c379a000000000000000000000000000000000000000000000000000000000815260040161178f90614ad8565b60405180910390fd5b6117a484848484613483565b50505050565b60606117b5826127d8565b60006006600084815260200190815260200160002080546117d5906150d8565b80601f0160208091040260200160405190810160405280929190818152602001828054611801906150d8565b801561184e5780601f106118235761010080835404028352916020019161184e565b820191906000526020600020905b81548152906001019060200180831161183157829003601f168201915b50505050509050600061185f6134df565b90506000815114156118755781925050506118b8565b6000825111156118aa57808260405160200161189292919061491d565b604051602081830303815290604052925050506118b8565b6118b3846134f6565b925050505b919050565b3373ffffffffffffffffffffffffffffffffffffffff16600c600084815260200190815260200160002060020160009054906101000a900473ffffffffffffffffffffffffffffffffffffffff1673ffffffffffffffffffffffffffffffffffffffff1614611961576040517f08c379a000000000000000000000000000000000000000000000000000000000815260040161195890614c58565b60405180910390fd5b600b5434146119a5576040517f08c379a000000000000000000000000000000000000000000000000000000000815260040161199c90614cb8565b60405180910390fd5b6000600c600084815260200190815260200160002060050160006101000a81548160ff02191690831515021790555080600c60008481526020019081526020016000206004018190555033600c600084815260200190815260200160002060010160006101000a81548173ffffffffffffffffffffffffffffffffffffffff021916908373ffffffffffffffffffffffffffffffffffffffff16021790555030600c600084815260200190815260200160002060020160006101000a81548173ffffffffffffffffffffffffffffffffffffffff021916908373ffffffffffffffffffffffffffffffffffffffff1602179055506001600c600084815260200190815260200160002060080160006101000a81548160ff021916908315150217905550611ad2600961355e565b611add333084612987565b611b1f8230336040518060400160405280600481526020017f4c6973740000000000000000000000000000000000000000000000000000000081525085610cec565b611b29828261116a565b5050565b6000600560008473ffffffffffffffffffffffffffffffffffffffff1673ffffffffffffffffffffffffffffffffffffffff16815260200190815260200160002060008373ffffffffffffffffffffffffffffffffffffffff1673ffffffffffffffffffffffffffffffffffffffff16815260200190815260200160002060009054906101000a900460ff16905092915050565b60606000611bcf60086128e4565b905060008060005b83811015611c78573373ffffffffffffffffffffffffffffffffffffffff16600c6000600184611c079190614f74565b815260200190815260200160002060020160009054906101000a900473ffffffffffffffffffffffffffffffffffffffff1673ffffffffffffffffffffffffffffffffffffffff161415611c6557600183611c629190614f74565b92505b8080611c709061513b565b915050611bd7565b5060008267ffffffffffffffff811115611cbb577f4e487b7100000000000000000000000000000000000000000000000000000000600052604160045260246000fd5b604051908082528060200260200182016040528015611cf457816020015b611ce1613b86565b815260200190600190039081611cd95790505b50905060005b84811015611f91573373ffffffffffffffffffffffffffffffffffffffff16600c6000600184611d2a9190614f74565b815260200190815260200160002060020160009054906101000a900473ffffffffffffffffffffffffffffffffffffffff1673ffffffffffffffffffffffffffffffffffffffff161415611f7e576000600182611d879190614f74565b90506000600c600083815260200190815260200160002090508060405180610140016040529081600082015481526020016001820160009054906101000a900473ffffffffffffffffffffffffffffffffffffffff1673ffffffffffffffffffffffffffffffffffffffff1673ffffffffffffffffffffffffffffffffffffffff1681526020016002820160009054906101000a900473ffffffffffffffffffffffffffffffffffffffff1673ffffffffffffffffffffffffffffffffffffffff1673ffffffffffffffffffffffffffffffffffffffff1681526020016003820160009054906101000a900473ffffffffffffffffffffffffffffffffffffffff1673ffffffffffffffffffffffffffffffffffffffff1673ffffffffffffffffffffffffffffffffffffffff168152602001600482015481526020016005820160009054906101000a900460ff161515151581526020016005820160019054906101000a900460ff1615151515815260200160068201548152602001600782015481526020016008820160009054906101000a900460ff161515151581525050848681518110611f61577f4e487b7100000000000000000000000000000000000000000000000000000000600052603260045260246000fd5b6020026020010181905250600185611f799190614f74565b945050505b8080611f899061513b565b915050611cfa565b508094505050505090565b60606000611faa60086128e4565b905060008060005b83811015612053573373ffffffffffffffffffffffffffffffffffffffff16600c6000600184611fe29190614f74565b815260200190815260200160002060010160009054906101000a900473ffffffffffffffffffffffffffffffffffffffff1673ffffffffffffffffffffffffffffffffffffffff1614156120405760018361203d9190614f74565b92505b808061204b9061513b565b915050611fb2565b5060008267ffffffffffffffff811115612096577f4e487b7100000000000000000000000000000000000000000000000000000000600052604160045260246000fd5b6040519080825280602002602001820160405280156120cf57816020015b6120bc613b86565b8152602001906001900390816120b45790505b50905060005b8481101561236c573373ffffffffffffffffffffffffffffffffffffffff16600c60006001846121059190614f74565b815260200190815260200160002060010160009054906101000a900473ffffffffffffffffffffffffffffffffffffffff1673ffffffffffffffffffffffffffffffffffffffff1614156123595760006001826121629190614f74565b90506000600c600083815260200190815260200160002090508060405180610140016040529081600082015481526020016001820160009054906101000a900473ffffffffffffffffffffffffffffffffffffffff1673ffffffffffffffffffffffffffffffffffffffff1673ffffffffffffffffffffffffffffffffffffffff1681526020016002820160009054906101000a900473ffffffffffffffffffffffffffffffffffffffff1673ffffffffffffffffffffffffffffffffffffffff1673ffffffffffffffffffffffffffffffffffffffff1681526020016003820160009054906101000a900473ffffffffffffffffffffffffffffffffffffffff1673ffffffffffffffffffffffffffffffffffffffff1673ffffffffffffffffffffffffffffffffffffffff168152602001600482015481526020016005820160009054906101000a900460ff161515151581526020016005820160019054906101000a900460ff1615151515815260200160068201548152602001600782015481526020016008820160009054906101000a900460ff16151515158152505084868151811061233c577f4e487b7100000000000000000000000000000000000000000000000000000000600052603260045260246000fd5b60200260200101819052506001856123549190614f74565b945050505b80806123649061513b565b9150506120d5565b508094505050505090565b6060600d6000838152602001908152602001600020805480602002602001604051908101604052809291908181526020016000905b8282101561253a57838290600052602060002090600602016040518060c0016040529081600082015481526020016001820160009054906101000a900473ffffffffffffffffffffffffffffffffffffffff1673ffffffffffffffffffffffffffffffffffffffff1673ffffffffffffffffffffffffffffffffffffffff1681526020016002820160009054906101000a900473ffffffffffffffffffffffffffffffffffffffff1673ffffffffffffffffffffffffffffffffffffffff1673ffffffffffffffffffffffffffffffffffffffff168152602001600382018054612495906150d8565b80601f01602080910402602001604051908101604052809291908181526020018280546124c1906150d8565b801561250e5780601f106124e35761010080835404028352916020019161250e565b820191906000526020600020905b8154815290600101906020018083116124f157829003601f168201915b5050505050815260200160048201548152602001600582015481525050815260200190600101906123ac565b505050509050919050565b600d602052816000526040600020818154811061256157600080fd5b9060005260206000209060060201600091509150508060000154908060010160009054906101000a900473ffffffffffffffffffffffffffffffffffffffff16908060020160009054906101000a900473ffffffffffffffffffffffffffffffffffffffff16908060030180546125d7906150d8565b80601f0160208091040260200160405190810160405280929190818152602001828054612603906150d8565b80156126505780601f1061262557610100808354040283529160200191612650565b820191906000526020600020905b81548152906001019060200180831161263357829003601f168201915b5050505050908060040154908060050154905086565b6060600e6000838152602001908152602001600020805480602002602001604051908101604052809291908181526020016000905b828210156126eb578382906000526020600020906003020160405180606001604052908160008201548152602001600182015481526020016002820154815250508152602001906001019061269b565b505050509050919050565b60007f80ac58cd000000000000000000000000000000000000000000000000000000007bffffffffffffffffffffffffffffffffffffffffffffffffffffffff1916827bffffffffffffffffffffffffffffffffffffffffffffffffffffffff191614806127c157507f5b5e139f000000000000000000000000000000000000000000000000000000007bffffffffffffffffffffffffffffffffffffffffffffffffffffffff1916827bffffffffffffffffffffffffffffffffffffffffffffffffffffffff1916145b806127d157506127d0826135ba565b5b9050919050565b6127e181613624565b612820576040517f08c379a000000000000000000000000000000000000000000000000000000000815260040161281790614c78565b60405180910390fd5b50565b600033905090565b816004600083815260200190815260200160002060006101000a81548173ffffffffffffffffffffffffffffffffffffffff021916908373ffffffffffffffffffffffffffffffffffffffff160217905550808273ffffffffffffffffffffffffffffffffffffffff1661289e83611314565b73ffffffffffffffffffffffffffffffffffffffff167f8c5be1e5ebec7d5bd14f71427d1e84f3dd0314c0f7b2291e5b200ac8c7c3b92560405160405180910390a45050565b600081600001549050919050565b6000806128fe83611314565b90508073ffffffffffffffffffffffffffffffffffffffff168473ffffffffffffffffffffffffffffffffffffffff161480612940575061293f8185611b2d565b5b8061297e57508373ffffffffffffffffffffffffffffffffffffffff166129668461082e565b73ffffffffffffffffffffffffffffffffffffffff16145b91505092915050565b8273ffffffffffffffffffffffffffffffffffffffff166129a782611314565b73ffffffffffffffffffffffffffffffffffffffff16146129fd576040517f08c379a00000000000000000000000000000000000000000000000000000000081526004016129f490614b38565b60405180910390fd5b600073ffffffffffffffffffffffffffffffffffffffff168273ffffffffffffffffffffffffffffffffffffffff161415612a6d576040517f08c379a0000000000000000000000000000000000000000000000000000000008152600401612a6490614b98565b60405180910390fd5b612a7a8383836001613665565b8273ffffffffffffffffffffffffffffffffffffffff16612a9a82611314565b73ffffffffffffffffffffffffffffffffffffffff1614612af0576040517f08c379a0000000000000000000000000000000000000000000000000000000008152600401612ae790614b38565b60405180910390fd5b6004600082815260200190815260200160002060006101000a81549073ffffffffffffffffffffffffffffffffffffffff02191690556001600360008573ffffffffffffffffffffffffffffffffffffffff1673ffffffffffffffffffffffffffffffffffffffff168152602001908152602001600020600082825403925050819055506001600360008473ffffffffffffffffffffffffffffffffffffffff1673ffffffffffffffffffffffffffffffffffffffff16815260200190815260200160002060008282540192505081905550816002600083815260200190815260200160002060006101000a81548173ffffffffffffffffffffffffffffffffffffffff021916908373ffffffffffffffffffffffffffffffffffffffff160217905550808273ffffffffffffffffffffffffffffffffffffffff168473ffffffffffffffffffffffffffffffffffffffff167fddf252ad1be2c89b69c2b068fc378daa952ba7f163c4a11628f55a4df523b3ef60405160405180910390a4612c7c838383600161366b565b505050565b6001816000016000828254019250508190555050565b60006002600083815260200190815260200160002060009054906101000a900473ffffffffffffffffffffffffffffffffffffffff169050919050565b600073ffffffffffffffffffffffffffffffffffffffff168273ffffffffffffffffffffffffffffffffffffffff161415612d44576040517f08c379a0000000000000000000000000000000000000000000000000000000008152600401612d3b90614c38565b60405180910390fd5b612d4d81613624565b15612d8d576040517f08c379a0000000000000000000000000000000000000000000000000000000008152600401612d8490614b58565b60405180910390fd5b612d9b600083836001613665565b612da481613624565b15612de4576040517f08c379a0000000000000000000000000000000000000000000000000000000008152600401612ddb90614b58565b60405180910390fd5b6001600360008473ffffffffffffffffffffffffffffffffffffffff1673ffffffffffffffffffffffffffffffffffffffff16815260200190815260200160002060008282540192505081905550816002600083815260200190815260200160002060006101000a81548173ffffffffffffffffffffffffffffffffffffffff021916908373ffffffffffffffffffffffffffffffffffffffff160217905550808273ffffffffffffffffffffffffffffffffffffffff16600073ffffffffffffffffffffffffffffffffffffffff167fddf252ad1be2c89b69c2b068fc378daa952ba7f163c4a11628f55a4df523b3ef60405160405180910390a4612eee60008383600161366b565b5050565b612efb82613624565b612f3a576040517f08c379a0000000000000000000000000000000000000000000000000000000008152600401612f3190614bf8565b60405180910390fd5b80600660008481526020019081526020016000209080519060200190612f61929190613c21565b507ff8e1a15aba9398e019f0b49df1a4fde98ee17ae345cb5f6b5e2c27f5033e8ce782604051612f919190614d34565b60405180910390a15050565b60008111612fe0576040517f08c379a0000000000000000000000000000000000000000000000000000000008152600401612fd790614cf8565b60405180910390fd5b600b543414613024576040517f08c379a000000000000000000000000000000000000000000000000000000000815260040161301b90614cb8565b60405180910390fd5b6040518061014001604052808381526020013373ffffffffffffffffffffffffffffffffffffffff1681526020013073ffffffffffffffffffffffffffffffffffffffff1681526020013373ffffffffffffffffffffffffffffffffffffffff168152602001828152602001600015158152602001600015158152602001600081526020016000815260200160011515815250600c60008481526020019081526020016000206000820151816000015560208201518160010160006101000a81548173ffffffffffffffffffffffffffffffffffffffff021916908373ffffffffffffffffffffffffffffffffffffffff16021790555060408201518160020160006101000a81548173ffffffffffffffffffffffffffffffffffffffff021916908373ffffffffffffffffffffffffffffffffffffffff16021790555060608201518160030160006101000a81548173ffffffffffffffffffffffffffffffffffffffff021916908373ffffffffffffffffffffffffffffffffffffffff1602179055506080820151816004015560a08201518160050160006101000a81548160ff02191690831515021790555060c08201518160050160016101000a81548160ff02191690831515021790555060e0820151816006015561010082015181600701556101208201518160080160006101000a81548160ff02191690831515021790555090505061326f826000336040518060400160405280600481526020017f4d696e740000000000000000000000000000000000000000000000000000000081525085610cec565b61327a333084612987565b6132bd826000336040518060400160405280600481526020017f4c6973740000000000000000000000000000000000000000000000000000000081525085610cec565b6132c7828261116a565b817f560fddf78a1b57989607b07f1062c0c712b87ff215e41a1af8b93d1e4175ac7133303385600080600080600160405161330a9998979695949392919061495c565b60405180910390a25050565b8173ffffffffffffffffffffffffffffffffffffffff168373ffffffffffffffffffffffffffffffffffffffff161415613385576040517f08c379a000000000000000000000000000000000000000000000000000000000815260040161337c90614bb8565b60405180910390fd5b80600560008573ffffffffffffffffffffffffffffffffffffffff1673ffffffffffffffffffffffffffffffffffffffff16815260200190815260200160002060008473ffffffffffffffffffffffffffffffffffffffff1673ffffffffffffffffffffffffffffffffffffffff16815260200190815260200160002060006101000a81548160ff0219169083151502179055508173ffffffffffffffffffffffffffffffffffffffff168373ffffffffffffffffffffffffffffffffffffffff167f17307eab39ab6107e8899845ad3d59bd9653f200f220920489ca2b5937696c31836040516134769190614a9b565b60405180910390a3505050565b61348e848484612987565b61349a84848484613671565b6134d9576040517f08c379a00000000000000000000000000000000000000000000000000000000081526004016134d090614b18565b60405180910390fd5b50505050565b606060405180602001604052806000815250905090565b6060613501826127d8565b600061350b6134df565b9050600081511161352b5760405180602001604052806000815250613556565b8061353584613808565b60405160200161354692919061491d565b6040516020818303038152906040525b915050919050565b600081600001549050600081116135aa576040517f08c379a00000000000000000000000000000000000000000000000000000000081526004016135a190614af8565b60405180910390fd5b6001810382600001819055505050565b60007f01ffc9a7000000000000000000000000000000000000000000000000000000007bffffffffffffffffffffffffffffffffffffffffffffffffffffffff1916827bffffffffffffffffffffffffffffffffffffffffffffffffffffffff1916149050919050565b60008073ffffffffffffffffffffffffffffffffffffffff1661364683612c97565b73ffffffffffffffffffffffffffffffffffffffff1614159050919050565b50505050565b50505050565b60006136928473ffffffffffffffffffffffffffffffffffffffff1661392c565b156137fb578373ffffffffffffffffffffffffffffffffffffffff1663150b7a026136bb612823565b8786866040518563ffffffff1660e01b81526004016136dd94939291906149e9565b602060405180830381600087803b1580156136f757600080fd5b505af192505050801561372857506040513d601f19601f820116820180604052508101906137259190613fcd565b60015b6137ab573d8060008114613758576040519150601f19603f3d011682016040523d82523d6000602084013e61375d565b606091505b506000815114156137a3576040517f08c379a000000000000000000000000000000000000000000000000000000000815260040161379a90614b18565b60405180910390fd5b805181602001fd5b63150b7a0260e01b7bffffffffffffffffffffffffffffffffffffffffffffffffffffffff1916817bffffffffffffffffffffffffffffffffffffffffffffffffffffffff191614915050613800565b600190505b949350505050565b6060600060016138178461394f565b01905060008167ffffffffffffffff81111561385c577f4e487b7100000000000000000000000000000000000000000000000000000000600052604160045260246000fd5b6040519080825280601f01601f19166020018201604052801561388e5781602001600182028036833780820191505090505b509050600082602001820190505b600115613921578080600190039150507f3031323334353637383961626364656600000000000000000000000000000000600a86061a8153600a858161390b577f4e487b7100000000000000000000000000000000000000000000000000000000600052601260045260246000fd5b049450600085141561391c57613921565b61389c565b819350505050919050565b6000808273ffffffffffffffffffffffffffffffffffffffff163b119050919050565b600080600090507a184f03e93ff9f4daa797ed6e38ed64bf6a1f01000000000000000083106139d3577a184f03e93ff9f4daa797ed6e38ed64bf6a1f01000000000000000083816139c9577f4e487b7100000000000000000000000000000000000000000000000000000000600052601260045260246000fd5b0492506040810190505b6d04ee2d6d415b85acef81000000008310613a36576d04ee2d6d415b85acef81000000008381613a2c577f4e487b7100000000000000000000000000000000000000000000000000000000600052601260045260246000fd5b0492506020810190505b662386f26fc100008310613a8b57662386f26fc100008381613a81577f4e487b7100000000000000000000000000000000000000000000000000000000600052601260045260246000fd5b0492506010810190505b6305f5e1008310613ada576305f5e1008381613ad0577f4e487b7100000000000000000000000000000000000000000000000000000000600052601260045260246000fd5b0492506008810190505b6127108310613b25576127108381613b1b577f4e487b7100000000000000000000000000000000000000000000000000000000600052601260045260246000fd5b0492506004810190505b60648310613b6e5760648381613b64577f4e487b7100000000000000000000000000000000000000000000000000000000600052601260045260246000fd5b0492506002810190505b600a8310613b7d576001810190505b80915050919050565b60405180610140016040528060008152602001600073ffffffffffffffffffffffffffffffffffffffff168152602001600073ffffffffffffffffffffffffffffffffffffffff168152602001600073ffffffffffffffffffffffffffffffffffffffff1681526020016000815260200160001515815260200160001515815260200160008152602001600081526020016000151581525090565b828054613c2d906150d8565b90600052602060002090601f016020900481019282613c4f5760008555613c96565b82601f10613c6857805160ff1916838001178555613c96565b82800160010185558215613c96579182015b82811115613c95578251825591602001919060010190613c7a565b5b509050613ca39190613ca7565b5090565b5b80821115613cc0576000816000905550600101613ca8565b5090565b6000613cd7613cd284614e13565b614dee565b905082815260208101848484011115613cef57600080fd5b613cfa848285615096565b509392505050565b6000613d15613d1084614e44565b614dee565b905082815260208101848484011115613d2d57600080fd5b613d38848285615096565b509392505050565b600081359050613d4f816156a6565b92915050565b600081359050613d64816156bd565b92915050565b600081359050613d79816156d4565b92915050565b600081519050613d8e816156d4565b92915050565b600082601f830112613da557600080fd5b8135613db5848260208601613cc4565b91505092915050565b600082601f830112613dcf57600080fd5b8135613ddf848260208601613d02565b91505092915050565b600081359050613df7816156eb565b92915050565b600060208284031215613e0f57600080fd5b6000613e1d84828501613d40565b91505092915050565b60008060408385031215613e3957600080fd5b6000613e4785828601613d40565b9250506020613e5885828601613d40565b9150509250929050565b600080600060608486031215613e7757600080fd5b6000613e8586828701613d40565b9350506020613e9686828701613d40565b9250506040613ea786828701613de8565b9150509250925092565b60008060008060808587031215613ec757600080fd5b6000613ed587828801613d40565b9450506020613ee687828801613d40565b9350506040613ef787828801613de8565b925050606085013567ffffffffffffffff811115613f1457600080fd5b613f2087828801613d94565b91505092959194509250565b60008060408385031215613f3f57600080fd5b6000613f4d85828601613d40565b9250506020613f5e85828601613d55565b9150509250929050565b60008060408385031215613f7b57600080fd5b6000613f8985828601613d40565b9250506020613f9a85828601613de8565b9150509250929050565b600060208284031215613fb657600080fd5b6000613fc484828501613d6a565b91505092915050565b600060208284031215613fdf57600080fd5b6000613fed84828501613d7f565b91505092915050565b6000806040838503121561400957600080fd5b600083013567ffffffffffffffff81111561402357600080fd5b61402f85828601613dbe565b925050602061404085828601613de8565b9150509250929050565b60006020828403121561405c57600080fd5b600061406a84828501613de8565b91505092915050565b600080600080600060a0868803121561408b57600080fd5b600061409988828901613de8565b95505060206140aa88828901613d40565b94505060406140bb88828901613d40565b935050606086013567ffffffffffffffff8111156140d857600080fd5b6140e488828901613dbe565b92505060806140f588828901613de8565b9150509295509295909350565b6000806040838503121561411557600080fd5b600061412385828601613de8565b925050602061413485828601613d55565b9150509250929050565b6000806040838503121561415157600080fd5b600061415f85828601613de8565b925050602061417085828601613de8565b9150509250929050565b6000614186838361469c565b905092915050565b600061419a8383614725565b6101408301905092915050565b60006141b383836148bd565b60608301905092915050565b6141c881615010565b82525050565b6141d781614ffe565b82525050565b6141e681614ffe565b82525050565b60006141f782614ea5565b6142018185614f03565b93508360208202850161421385614e75565b8060005b8581101561424f5784840389528151614230858261417a565b945061423b83614edc565b925060208a01995050600181019050614217565b50829750879550505050505092915050565b600061426c82614eb0565b6142768185614f14565b935061428183614e85565b8060005b838110156142b2578151614299888261418e565b97506142a483614ee9565b925050600181019050614285565b5085935050505092915050565b60006142ca82614ebb565b6142d48185614f25565b93506142df83614e95565b8060005b838110156143105781516142f788826141a7565b975061430283614ef6565b9250506001810190506142e3565b5085935050505092915050565b61432681615022565b82525050565b61433581615022565b82525050565b600061434682614ec6565b6143508185614f36565b93506143608185602086016150a5565b61436981615211565b840191505092915050565b61437d81615084565b82525050565b600061438e82614ed1565b6143988185614f47565b93506143a88185602086016150a5565b6143b181615211565b840191505092915050565b60006143c782614ed1565b6143d18185614f58565b93506143e18185602086016150a5565b6143ea81615211565b840191505092915050565b600061440082614ed1565b61440a8185614f69565b935061441a8185602086016150a5565b80840191505092915050565b6000614433602d83614f58565b915061443e82615222565b604082019050919050565b6000614456601b83614f58565b915061446182615271565b602082019050919050565b6000614479603283614f58565b91506144848261529a565b604082019050919050565b600061449c602583614f58565b91506144a7826152e9565b604082019050919050565b60006144bf601c83614f58565b91506144ca82615338565b602082019050919050565b60006144e2602683614f58565b91506144ed82615361565b604082019050919050565b6000614505602483614f58565b9150614510826153b0565b604082019050919050565b6000614528601983614f58565b9150614533826153ff565b602082019050919050565b600061454b602983614f58565b915061455682615428565b604082019050919050565b600061456e602e83614f58565b915061457982615477565b604082019050919050565b6000614591600f83614f58565b915061459c826154c6565b602082019050919050565b60006145b4602083614f58565b91506145bf826154ef565b602082019050919050565b60006145d7602a83614f58565b91506145e282615518565b604082019050919050565b60006145fa601883614f58565b915061460582615567565b602082019050919050565b600061461d602183614f58565b915061462882615590565b604082019050919050565b6000614640602483614f58565b915061464b826155df565b604082019050919050565b6000614663603d83614f58565b915061466e8261562e565b604082019050919050565b6000614686601c83614f58565b91506146918261567d565b602082019050919050565b600060c0830160008301516146b460008601826148ff565b5060208301516146c760208601826141ce565b5060408301516146da60408601826141ce565b50606083015184820360608601526146f28282614383565b915050608083015161470760808601826148ff565b5060a083015161471a60a08601826148ff565b508091505092915050565b6101408201600082015161473c60008501826148ff565b50602082015161474f60208501826141bf565b50604082015161476260408501826141bf565b50606082015161477560608501826141bf565b50608082015161478860808501826148ff565b5060a082015161479b60a085018261431d565b5060c08201516147ae60c085018261431d565b5060e08201516147c160e08501826148ff565b506101008201516147d66101008501826148ff565b506101208201516147eb61012085018261431d565b50505050565b6101408201600082015161480860008501826148ff565b50602082015161481b60208501826141bf565b50604082015161482e60408501826141bf565b50606082015161484160608501826141bf565b50608082015161485460808501826148ff565b5060a082015161486760a085018261431d565b5060c082015161487a60c085018261431d565b5060e082015161488d60e08501826148ff565b506101008201516148a26101008501826148ff565b506101208201516148b761012085018261431d565b50505050565b6060820160008201516148d360008501826148ff565b5060208201516148e660208501826148ff565b5060408201516148f960408501826148ff565b50505050565b6149088161507a565b82525050565b6149178161507a565b82525050565b600061492982856143f5565b915061493582846143f5565b91508190509392505050565b600060208201905061495660008301846141dd565b92915050565b600061012082019050614972600083018c6141dd565b61497f602083018b6141dd565b61498c604083018a6141dd565b614999606083018961490e565b6149a6608083018861432c565b6149b360a083018761432c565b6149c060c0830186614374565b6149cd60e0830185614374565b6149db61010083018461432c565b9a9950505050505050505050565b60006080820190506149fe60008301876141dd565b614a0b60208301866141dd565b614a18604083018561490e565b8181036060830152614a2a818461433b565b905095945050505050565b60006020820190508181036000830152614a4f81846141ec565b905092915050565b60006020820190508181036000830152614a718184614261565b905092915050565b60006020820190508181036000830152614a9381846142bf565b905092915050565b6000602082019050614ab0600083018461432c565b92915050565b60006020820190508181036000830152614ad081846143bc565b905092915050565b60006020820190508181036000830152614af181614426565b9050919050565b60006020820190508181036000830152614b1181614449565b9050919050565b60006020820190508181036000830152614b318161446c565b9050919050565b60006020820190508181036000830152614b518161448f565b9050919050565b60006020820190508181036000830152614b71816144b2565b9050919050565b60006020820190508181036000830152614b91816144d5565b9050919050565b60006020820190508181036000830152614bb1816144f8565b9050919050565b60006020820190508181036000830152614bd18161451b565b9050919050565b60006020820190508181036000830152614bf18161453e565b9050919050565b60006020820190508181036000830152614c1181614561565b9050919050565b60006020820190508181036000830152614c3181614584565b9050919050565b60006020820190508181036000830152614c51816145a7565b9050919050565b60006020820190508181036000830152614c71816145ca565b9050919050565b60006020820190508181036000830152614c91816145ed565b9050919050565b60006020820190508181036000830152614cb181614610565b9050919050565b60006020820190508181036000830152614cd181614633565b9050919050565b60006020820190508181036000830152614cf181614656565b9050919050565b60006020820190508181036000830152614d1181614679565b9050919050565b600061014082019050614d2e60008301846147f1565b92915050565b6000602082019050614d49600083018461490e565b92915050565b600060c082019050614d64600083018961490e565b614d7160208301886141dd565b614d7e60408301876141dd565b8181036060830152614d9081866143bc565b9050614d9f608083018561490e565b614dac60a083018461490e565b979650505050505050565b6000606082019050614dcc600083018661490e565b614dd9602083018561490e565b614de6604083018461490e565b949350505050565b6000614df8614e09565b9050614e04828261510a565b919050565b6000604051905090565b600067ffffffffffffffff821115614e2e57614e2d6151e2565b5b614e3782615211565b9050602081019050919050565b600067ffffffffffffffff821115614e5f57614e5e6151e2565b5b614e6882615211565b9050602081019050919050565b6000819050602082019050919050565b6000819050602082019050919050565b6000819050602082019050919050565b600081519050919050565b600081519050919050565b600081519050919050565b600081519050919050565b600081519050919050565b6000602082019050919050565b6000602082019050919050565b6000602082019050919050565b600082825260208201905092915050565b600082825260208201905092915050565b600082825260208201905092915050565b600082825260208201905092915050565b600082825260208201905092915050565b600082825260208201905092915050565b600081905092915050565b6000614f7f8261507a565b9150614f8a8361507a565b9250827fffffffffffffffffffffffffffffffffffffffffffffffffffffffffffffffff03821115614fbf57614fbe615184565b5b828201905092915050565b6000614fd58261507a565b9150614fe08361507a565b925082821015614ff357614ff2615184565b5b828203905092915050565b60006150098261505a565b9050919050565b600061501b8261505a565b9050919050565b60008115159050919050565b60007fffffffff0000000000000000000000000000000000000000000000000000000082169050919050565b600073ffffffffffffffffffffffffffffffffffffffff82169050919050565b6000819050919050565b600061508f8261507a565b9050919050565b82818337600083830152505050565b60005b838110156150c35780820151818401526020810190506150a8565b838111156150d2576000848401525b50505050565b600060028204905060018216806150f057607f821691505b60208210811415615104576151036151b3565b5b50919050565b61511382615211565b810181811067ffffffffffffffff82111715615132576151316151e2565b5b80604052505050565b60006151468261507a565b91507fffffffffffffffffffffffffffffffffffffffffffffffffffffffffffffffff82141561517957615178615184565b5b600182019050919050565b7f4e487b7100000000000000000000000000000000000000000000000000000000600052601160045260246000fd5b7f4e487b7100000000000000000000000000000000000000000000000000000000600052602260045260246000fd5b7f4e487b7100000000000000000000000000000000000000000000000000000000600052604160045260246000fd5b6000601f19601f8301169050919050565b7f4552433732313a2063616c6c6572206973206e6f7420746f6b656e206f776e6560008201527f72206f7220617070726f76656400000000000000000000000000000000000000602082015250565b7f436f756e7465723a2064656372656d656e74206f766572666c6f770000000000600082015250565b7f4552433732313a207472616e7366657220746f206e6f6e20455243373231526560008201527f63656976657220696d706c656d656e7465720000000000000000000000000000602082015250565b7f4552433732313a207472616e736665722066726f6d20696e636f72726563742060008201527f6f776e6572000000000000000000000000000000000000000000000000000000602082015250565b7f4552433732313a20746f6b656e20616c7265616479206d696e74656400000000600082015250565b7f4f6e6c7920746865206f776e65722063616e207570646174652069735265776160008201527f72644974656d0000000000000000000000000000000000000000000000000000602082015250565b7f4552433732313a207472616e7366657220746f20746865207a65726f2061646460008201527f7265737300000000000000000000000000000000000000000000000000000000602082015250565b7f4552433732313a20617070726f766520746f2063616c6c657200000000000000600082015250565b7f4552433732313a2061646472657373207a65726f206973206e6f74206120766160008201527f6c6964206f776e65720000000000000000000000000000000000000000000000602082015250565b7f45524337323155524953746f726167653a2055524920736574206f66206e6f6e60008201527f6578697374656e7420746f6b656e000000000000000000000000000000000000602082015250565b7f496e76616c6964204974656d2049440000000000000000000000000000000000600082015250565b7f4552433732313a206d696e7420746f20746865207a65726f2061646472657373600082015250565b7f4f6e6c79206974656d206f776e65722063616e20706572666f726d207468697360008201527f206f7065726174696f6e00000000000000000000000000000000000000000000602082015250565b7f4552433732313a20696e76616c696420746f6b656e2049440000000000000000600082015250565b7f4552433732313a20617070726f76616c20746f2063757272656e74206f776e6560008201527f7200000000000000000000000000000000000000000000000000000000000000602082015250565b7f5072696365206d75737420626520657175616c20746f206c697374696e67207060008201527f7269636500000000000000000000000000000000000000000000000000000000602082015250565b7f4552433732313a20617070726f76652063616c6c6572206973206e6f7420746f60008201527f6b656e206f776e6572206f7220617070726f76656420666f7220616c6c000000602082015250565b7f5072696365206d757374206265206174206c6561737420312077656900000000600082015250565b6156af81614ffe565b81146156ba57600080fd5b50565b6156c681615022565b81146156d157600080fd5b50565b6156dd8161502e565b81146156e857600080fd5b50565b6156f48161507a565b81146156ff57600080fd5b5056fea264697066735822122047e309f9dd359ca94419e4dd4f208530230280baa64d29767b0de84466be008664736f6c63430008040033",
  "linkReferences": {},
  "deployedLinkReferences": {}
}