{
  "_format": "hh-sol-artifact-1",
  "contractName": "Marketplace",
  "sourceName": "contracts/Marketplace.sol",
  "abi": [
    {
      "inputs": [],
      "stateMutability": "nonpayable",
      "type": "constructor"
    },
    {
      "anonymous": false,
      "inputs": [
        {
          "indexed": true,
          "internalType": "uint256",
          "name": "itemId",
          "type": "uint256"
        },
        {
          "indexed": false,
          "internalType": "address",
          "name": "from",
          "type": "address"
        },
        {
          "indexed": false,
          "internalType": "address",
          "name": "to",
          "type": "address"
        },
        {
          "indexed": false,
          "internalType": "string",
          "name": "eventType",
          "type": "string"
        },
        {
          "indexed": false,
          "internalType": "uint256",
          "name": "price",
          "type": "uint256"
        },
        {
          "indexed": false,
          "internalType": "uint256",
          "name": "timestamp",
          "type": "uint256"
        }
      ],
      "name": "ActivityRecorded",
      "type": "event"
    },
    {
      "anonymous": false,
      "inputs": [
        {
          "indexed": true,
          "internalType": "uint256",
          "name": "itemId",
          "type": "uint256"
        },
        {
          "indexed": true,
          "internalType": "address",
          "name": "nftContract",
          "type": "address"
        },
        {
          "indexed": true,
          "internalType": "uint256",
          "name": "tokenId",
          "type": "uint256"
        },
        {
          "indexed": false,
          "internalType": "address",
          "name": "seller",
          "type": "address"
        },
        {
          "indexed": false,
          "internalType": "address",
          "name": "owner",
          "type": "address"
        },
        {
          "indexed": false,
          "internalType": "uint256",
          "name": "price",
          "type": "uint256"
        },
        {
          "indexed": false,
          "internalType": "bool",
          "name": "sold",
          "type": "bool"
        },
        {
          "indexed": false,
          "internalType": "bool",
          "name": "isRewardItem",
          "type": "bool"
        }
      ],
      "name": "MarketItemCreated",
      "type": "event"
    },
    {
      "inputs": [
        {
          "internalType": "address",
          "name": "nftContract",
          "type": "address"
        },
        {
          "internalType": "uint256",
          "name": "tokenId",
          "type": "uint256"
        },
        {
          "internalType": "uint256",
          "name": "price",
          "type": "uint256"
        },
        {
          "internalType": "bool",
          "name": "isRewardItem",
          "type": "bool"
        }
      ],
      "name": "createMarketItem",
      "outputs": [],
      "stateMutability": "payable",
      "type": "function"
    },
    {
      "inputs": [],
      "name": "fetchItemsCreated",
      "outputs": [
        {
          "components": [
            {
              "internalType": "uint256",
              "name": "itemId",
              "type": "uint256"
            },
            {
              "internalType": "address",
              "name": "nftContract",
              "type": "address"
            },
            {
              "internalType": "uint256",
              "name": "tokenId",
              "type": "uint256"
            },
            {
              "internalType": "address payable",
              "name": "seller",
              "type": "address"
            },
            {
              "internalType": "address payable",
              "name": "owner",
              "type": "address"
            },
            {
              "internalType": "uint256",
              "name": "price",
              "type": "uint256"
            },
            {
              "internalType": "bool",
              "name": "sold",
              "type": "bool"
            },
            {
              "internalType": "bool",
              "name": "isRewardItem",
              "type": "bool"
            }
          ],
          "internalType": "struct Marketplace.MarketItem[]",
          "name": "",
          "type": "tuple[]"
        }
      ],
      "stateMutability": "view",
      "type": "function"
    },
    {
      "inputs": [],
      "name": "fetchMarketItems",
      "outputs": [
        {
          "components": [
            {
              "internalType": "uint256",
              "name": "itemId",
              "type": "uint256"
            },
            {
              "internalType": "address",
              "name": "nftContract",
              "type": "address"
            },
            {
              "internalType": "uint256",
              "name": "tokenId",
              "type": "uint256"
            },
            {
              "internalType": "address payable",
              "name": "seller",
              "type": "address"
            },
            {
              "internalType": "address payable",
              "name": "owner",
              "type": "address"
            },
            {
              "internalType": "uint256",
              "name": "price",
              "type": "uint256"
            },
            {
              "internalType": "bool",
              "name": "sold",
              "type": "bool"
            },
            {
              "internalType": "bool",
              "name": "isRewardItem",
              "type": "bool"
            }
          ],
          "internalType": "struct Marketplace.MarketItem[]",
          "name": "",
          "type": "tuple[]"
        }
      ],
      "stateMutability": "view",
      "type": "function"
    },
    {
      "inputs": [],
      "name": "fetchPurchasedNFTs",
      "outputs": [
        {
          "components": [
            {
              "internalType": "uint256",
              "name": "itemId",
              "type": "uint256"
            },
            {
              "internalType": "address",
              "name": "nftContract",
              "type": "address"
            },
            {
              "internalType": "uint256",
              "name": "tokenId",
              "type": "uint256"
            },
            {
              "internalType": "address payable",
              "name": "seller",
              "type": "address"
            },
            {
              "internalType": "address payable",
              "name": "owner",
              "type": "address"
            },
            {
              "internalType": "uint256",
              "name": "price",
              "type": "uint256"
            },
            {
              "internalType": "bool",
              "name": "sold",
              "type": "bool"
            },
            {
              "internalType": "bool",
              "name": "isRewardItem",
              "type": "bool"
            }
          ],
          "internalType": "struct Marketplace.MarketItem[]",
          "name": "",
          "type": "tuple[]"
        }
      ],
      "stateMutability": "view",
      "type": "function"
    },
    {
      "inputs": [],
      "name": "getListingPrice",
      "outputs": [
        {
          "internalType": "uint256",
          "name": "",
          "type": "uint256"
        }
      ],
      "stateMutability": "view",
      "type": "function"
    },
    {
      "inputs": [
        {
          "internalType": "uint256",
          "name": "tokenId",
          "type": "uint256"
        }
      ],
      "name": "getNFTActivity",
      "outputs": [
        {
          "components": [
            {
              "internalType": "uint256",
              "name": "itemId",
              "type": "uint256"
            },
            {
              "internalType": "address",
              "name": "from",
              "type": "address"
            },
            {
              "internalType": "address",
              "name": "to",
              "type": "address"
            },
            {
              "internalType": "string",
              "name": "eventType",
              "type": "string"
            },
            {
              "internalType": "uint256",
              "name": "price",
              "type": "uint256"
            },
            {
              "internalType": "uint256",
              "name": "timestamp",
              "type": "uint256"
            }
          ],
          "internalType": "struct Marketplace.Activity",
          "name": "",
          "type": "tuple"
        }
      ],
      "stateMutability": "view",
      "type": "function"
    },
    {
      "inputs": [
        {
          "internalType": "uint256",
          "name": "itemId",
          "type": "uint256"
        }
      ],
      "name": "getNFTDetails",
      "outputs": [
        {
          "components": [
            {
              "internalType": "uint256",
              "name": "itemId",
              "type": "uint256"
            },
            {
              "internalType": "address",
              "name": "nftContract",
              "type": "address"
            },
            {
              "internalType": "uint256",
              "name": "tokenId",
              "type": "uint256"
            },
            {
              "internalType": "address payable",
              "name": "seller",
              "type": "address"
            },
            {
              "internalType": "address payable",
              "name": "owner",
              "type": "address"
            },
            {
              "internalType": "uint256",
              "name": "price",
              "type": "uint256"
            },
            {
              "internalType": "bool",
              "name": "sold",
              "type": "bool"
            },
            {
              "internalType": "bool",
              "name": "isRewardItem",
              "type": "bool"
            }
          ],
          "internalType": "struct Marketplace.MarketItem",
          "name": "",
          "type": "tuple"
        }
      ],
      "stateMutability": "view",
      "type": "function"
    },
    {
      "inputs": [
        {
          "internalType": "uint256",
          "name": "itemId",
          "type": "uint256"
        },
        {
          "internalType": "address",
          "name": "from",
          "type": "address"
        },
        {
          "internalType": "address",
          "name": "to",
          "type": "address"
        },
        {
          "internalType": "string",
          "name": "eventType",
          "type": "string"
        },
        {
          "internalType": "uint256",
          "name": "price",
          "type": "uint256"
        }
      ],
      "name": "recordActivity",
      "outputs": [],
      "stateMutability": "payable",
      "type": "function"
    },
    {
      "inputs": [
        {
          "internalType": "uint256",
          "name": "_price",
          "type": "uint256"
        }
      ],
      "name": "setListingPrice",
      "outputs": [
        {
          "internalType": "uint256",
          "name": "",
          "type": "uint256"
        }
      ],
      "stateMutability": "nonpayable",
      "type": "function"
    },
    {
      "inputs": [
        {
          "internalType": "uint256",
          "name": "itemId",
          "type": "uint256"
        },
        {
          "internalType": "bool",
          "name": "isRewardItem",
          "type": "bool"
        }
      ],
      "name": "updateIsRewardItem",
      "outputs": [],
      "stateMutability": "nonpayable",
      "type": "function"
    }
  ],
  "bytecode": "0x60806040526509184e72a00060045534801561001a57600080fd5b50600160008190555033600360006101000a81548173ffffffffffffffffffffffffffffffffffffffff021916908373ffffffffffffffffffffffffffffffffffffffff160217905550612524806100736000396000f3fe6080604052600436106100915760003560e01c806382260f351161005957806382260f351461018f578063e814ce78146101cc578063ea5d76f7146101e8578063ee6ba23414610204578063f064c32e1461022f57610091565b80630200102a146100965780630f08efe0146100d357806312e85585146100fe5780634e66d34e146101295780637c726b6914610152575b600080fd5b3480156100a257600080fd5b506100bd60048036038101906100b891906119a3565b61025a565b6040516100ca919061200b565b60405180910390f35b3480156100df57600080fd5b506100e86103e3565b6040516100f59190611f49565b60405180910390f35b34801561010a57600080fd5b5061011361072b565b6040516101209190612049565b60405180910390f35b34801561013557600080fd5b50610150600480360381019061014b9190611a5b565b610735565b005b34801561015e57600080fd5b50610179600480360381019061017491906119a3565b6107f7565b6040516101869190612049565b60405180910390f35b34801561019b57600080fd5b506101b660048036038101906101b191906119a3565b61083f565b6040516101c3919061202d565b60405180910390f35b6101e660048036038101906101e19190611940565b610a1b565b005b61020260048036038101906101fd91906119cc565b610d65565b005b34801561021057600080fd5b50610219610ef3565b6040516102269190611f49565b60405180910390f35b34801561023b57600080fd5b506102446112bf565b6040516102519190611f49565b60405180910390f35b610262611709565b600660008381526020019081526020016000206040518060c0016040529081600082015481526020016001820160009054906101000a900473ffffffffffffffffffffffffffffffffffffffff1673ffffffffffffffffffffffffffffffffffffffff1673ffffffffffffffffffffffffffffffffffffffff1681526020016002820160009054906101000a900473ffffffffffffffffffffffffffffffffffffffff1673ffffffffffffffffffffffffffffffffffffffff1673ffffffffffffffffffffffffffffffffffffffff16815260200160038201805461034690612246565b80601f016020809104026020016040519081016040528092919081815260200182805461037290612246565b80156103bf5780601f10610394576101008083540402835291602001916103bf565b820191906000526020600020905b8154815290600101906020018083116103a257829003601f168201915b50505050508152602001600482015481526020016005820154815250509050919050565b606060006103f1600161168b565b905060006103ff600261168b565b610409600161168b565b6104139190612176565b90506000808267ffffffffffffffff811115610458577f4e487b7100000000000000000000000000000000000000000000000000000000600052604160045260246000fd5b60405190808252806020026020018201604052801561049157816020015b61047e61176b565b8152602001906001900390816104765790505b50905060005b8481101561072057600073ffffffffffffffffffffffffffffffffffffffff16600560006001846104c89190612120565b815260200190815260200160002060040160009054906101000a900473ffffffffffffffffffffffffffffffffffffffff1673ffffffffffffffffffffffffffffffffffffffff16141561070d576000600560006001846105299190612120565b815260200190815260200160002060000154905060006005600083815260200190815260200160002090508060405180610100016040529081600082015481526020016001820160009054906101000a900473ffffffffffffffffffffffffffffffffffffffff1673ffffffffffffffffffffffffffffffffffffffff1673ffffffffffffffffffffffffffffffffffffffff168152602001600282015481526020016003820160009054906101000a900473ffffffffffffffffffffffffffffffffffffffff1673ffffffffffffffffffffffffffffffffffffffff1673ffffffffffffffffffffffffffffffffffffffff1681526020016004820160009054906101000a900473ffffffffffffffffffffffffffffffffffffffff1673ffffffffffffffffffffffffffffffffffffffff1673ffffffffffffffffffffffffffffffffffffffff168152602001600582015481526020016006820160009054906101000a900460ff161515151581526020016006820160019054906101000a900460ff1615151515815250508486815181106106f0577f4e487b7100000000000000000000000000000000000000000000000000000000600052603260045260246000fd5b60200260200101819052506001856107089190612120565b945050505b8080610718906122a9565b915050610497565b508094505050505090565b6000600454905090565b600360009054906101000a900473ffffffffffffffffffffffffffffffffffffffff1673ffffffffffffffffffffffffffffffffffffffff163373ffffffffffffffffffffffffffffffffffffffff16146107c5576040517f08c379a00000000000000000000000000000000000000000000000000000000081526004016107bc90611f6b565b60405180910390fd5b806005600084815260200190815260200160002060060160016101000a81548160ff0219169083151502179055505050565b60003073ffffffffffffffffffffffffffffffffffffffff163373ffffffffffffffffffffffffffffffffffffffff16141561083557816004819055505b6004549050919050565b61084761176b565b600082118015610860575061085c600161168b565b8211155b61089f576040517f08c379a000000000000000000000000000000000000000000000000000000000815260040161089690611f8b565b60405180910390fd5b6005600083815260200190815260200160002060405180610100016040529081600082015481526020016001820160009054906101000a900473ffffffffffffffffffffffffffffffffffffffff1673ffffffffffffffffffffffffffffffffffffffff1673ffffffffffffffffffffffffffffffffffffffff168152602001600282015481526020016003820160009054906101000a900473ffffffffffffffffffffffffffffffffffffffff1673ffffffffffffffffffffffffffffffffffffffff1673ffffffffffffffffffffffffffffffffffffffff1681526020016004820160009054906101000a900473ffffffffffffffffffffffffffffffffffffffff1673ffffffffffffffffffffffffffffffffffffffff1673ffffffffffffffffffffffffffffffffffffffff168152602001600582015481526020016006820160009054906101000a900460ff161515151581526020016006820160019054906101000a900460ff1615151515815250509050919050565b610a23611699565b60008211610a66576040517f08c379a0000000000000000000000000000000000000000000000000000000008152600401610a5d90611fab565b60405180910390fd5b6004543414610aaa576040517f08c379a0000000000000000000000000000000000000000000000000000000008152600401610aa190611fcb565b60405180910390fd5b610ab460016116e9565b6000610ac0600161168b565b90506040518061010001604052808281526020018673ffffffffffffffffffffffffffffffffffffffff1681526020018581526020013373ffffffffffffffffffffffffffffffffffffffff168152602001600073ffffffffffffffffffffffffffffffffffffffff168152602001848152602001600015158152602001831515815250600560008381526020019081526020016000206000820151816000015560208201518160010160006101000a81548173ffffffffffffffffffffffffffffffffffffffff021916908373ffffffffffffffffffffffffffffffffffffffff1602179055506040820151816002015560608201518160030160006101000a81548173ffffffffffffffffffffffffffffffffffffffff021916908373ffffffffffffffffffffffffffffffffffffffff16021790555060808201518160040160006101000a81548173ffffffffffffffffffffffffffffffffffffffff021916908373ffffffffffffffffffffffffffffffffffffffff16021790555060a0820151816005015560c08201518160060160006101000a81548160ff02191690831515021790555060e08201518160060160016101000a81548160ff0219169083151502179055509050508473ffffffffffffffffffffffffffffffffffffffff166323b872dd3330876040518463ffffffff1660e01b8152600401610cca93929190611ebf565b600060405180830381600087803b158015610ce457600080fd5b505af1158015610cf8573d6000803e3d6000fd5b50505050838573ffffffffffffffffffffffffffffffffffffffff16827fc99151f4453170a67bc7441775fde1a3bc3220c06645df1121e703aab5e7da5d33600088600089604051610d4e959493929190611ef6565b60405180910390a450610d5f6116ff565b50505050565b610d6d611699565b6040518060c001604052808681526020018573ffffffffffffffffffffffffffffffffffffffff1681526020018473ffffffffffffffffffffffffffffffffffffffff16815260200183815260200182815260200142815250600660008781526020019081526020016000206000820151816000015560208201518160010160006101000a81548173ffffffffffffffffffffffffffffffffffffffff021916908373ffffffffffffffffffffffffffffffffffffffff16021790555060408201518160020160006101000a81548173ffffffffffffffffffffffffffffffffffffffff021916908373ffffffffffffffffffffffffffffffffffffffff1602179055506060820151816003019080519060200190610e8d9291906117f6565b506080820151816004015560a08201518160050155905050847ebf28291d338649b38f0e4dbcadcdf13fb96abac62c2c2582783e335f72a6bb8585858542604051610edc959493929190611e65565b60405180910390a2610eec6116ff565b5050505050565b60606000610f01600161168b565b905060008060005b83811015610faa573373ffffffffffffffffffffffffffffffffffffffff1660056000600184610f399190612120565b815260200190815260200160002060040160009054906101000a900473ffffffffffffffffffffffffffffffffffffffff1673ffffffffffffffffffffffffffffffffffffffff161415610f9757600183610f949190612120565b92505b8080610fa2906122a9565b915050610f09565b5060008267ffffffffffffffff811115610fed577f4e487b7100000000000000000000000000000000000000000000000000000000600052604160045260246000fd5b60405190808252806020026020018201604052801561102657816020015b61101361176b565b81526020019060019003908161100b5790505b50905060005b848110156112b4573373ffffffffffffffffffffffffffffffffffffffff166005600060018461105c9190612120565b815260200190815260200160002060040160009054906101000a900473ffffffffffffffffffffffffffffffffffffffff1673ffffffffffffffffffffffffffffffffffffffff1614156112a1576000600560006001846110bd9190612120565b815260200190815260200160002060000154905060006005600083815260200190815260200160002090508060405180610100016040529081600082015481526020016001820160009054906101000a900473ffffffffffffffffffffffffffffffffffffffff1673ffffffffffffffffffffffffffffffffffffffff1673ffffffffffffffffffffffffffffffffffffffff168152602001600282015481526020016003820160009054906101000a900473ffffffffffffffffffffffffffffffffffffffff1673ffffffffffffffffffffffffffffffffffffffff1673ffffffffffffffffffffffffffffffffffffffff1681526020016004820160009054906101000a900473ffffffffffffffffffffffffffffffffffffffff1673ffffffffffffffffffffffffffffffffffffffff1673ffffffffffffffffffffffffffffffffffffffff168152602001600582015481526020016006820160009054906101000a900460ff161515151581526020016006820160019054906101000a900460ff161515151581525050848681518110611284577f4e487b7100000000000000000000000000000000000000000000000000000000600052603260045260246000fd5b602002602001018190525060018561129c9190612120565b945050505b80806112ac906122a9565b91505061102c565b508094505050505090565b606060006112cd600161168b565b905060008060005b83811015611376573373ffffffffffffffffffffffffffffffffffffffff16600560006001846113059190612120565b815260200190815260200160002060030160009054906101000a900473ffffffffffffffffffffffffffffffffffffffff1673ffffffffffffffffffffffffffffffffffffffff161415611363576001836113609190612120565b92505b808061136e906122a9565b9150506112d5565b5060008267ffffffffffffffff8111156113b9577f4e487b7100000000000000000000000000000000000000000000000000000000600052604160045260246000fd5b6040519080825280602002602001820160405280156113f257816020015b6113df61176b565b8152602001906001900390816113d75790505b50905060005b84811015611680573373ffffffffffffffffffffffffffffffffffffffff16600560006001846114289190612120565b815260200190815260200160002060030160009054906101000a900473ffffffffffffffffffffffffffffffffffffffff1673ffffffffffffffffffffffffffffffffffffffff16141561166d576000600560006001846114899190612120565b815260200190815260200160002060000154905060006005600083815260200190815260200160002090508060405180610100016040529081600082015481526020016001820160009054906101000a900473ffffffffffffffffffffffffffffffffffffffff1673ffffffffffffffffffffffffffffffffffffffff1673ffffffffffffffffffffffffffffffffffffffff168152602001600282015481526020016003820160009054906101000a900473ffffffffffffffffffffffffffffffffffffffff1673ffffffffffffffffffffffffffffffffffffffff1673ffffffffffffffffffffffffffffffffffffffff1681526020016004820160009054906101000a900473ffffffffffffffffffffffffffffffffffffffff1673ffffffffffffffffffffffffffffffffffffffff1673ffffffffffffffffffffffffffffffffffffffff168152602001600582015481526020016006820160009054906101000a900460ff161515151581526020016006820160019054906101000a900460ff161515151581525050848681518110611650577f4e487b7100000000000000000000000000000000000000000000000000000000600052603260045260246000fd5b60200260200101819052506001856116689190612120565b945050505b8080611678906122a9565b9150506113f8565b508094505050505090565b600081600001549050919050565b600260005414156116df576040517f08c379a00000000000000000000000000000000000000000000000000000000081526004016116d690611feb565b60405180910390fd5b6002600081905550565b6001816000016000828254019250508190555050565b6001600081905550565b6040518060c0016040528060008152602001600073ffffffffffffffffffffffffffffffffffffffff168152602001600073ffffffffffffffffffffffffffffffffffffffff1681526020016060815260200160008152602001600081525090565b60405180610100016040528060008152602001600073ffffffffffffffffffffffffffffffffffffffff16815260200160008152602001600073ffffffffffffffffffffffffffffffffffffffff168152602001600073ffffffffffffffffffffffffffffffffffffffff168152602001600081526020016000151581526020016000151581525090565b82805461180290612246565b90600052602060002090601f016020900481019282611824576000855561186b565b82601f1061183d57805160ff191683800117855561186b565b8280016001018555821561186b579182015b8281111561186a57825182559160200191906001019061184f565b5b509050611878919061187c565b5090565b5b8082111561189557600081600090555060010161187d565b5090565b60006118ac6118a784612089565b612064565b9050828152602081018484840111156118c457600080fd5b6118cf848285612204565b509392505050565b6000813590506118e6816124a9565b92915050565b6000813590506118fb816124c0565b92915050565b600082601f83011261191257600080fd5b8135611922848260208601611899565b91505092915050565b60008135905061193a816124d7565b92915050565b6000806000806080858703121561195657600080fd5b6000611964878288016118d7565b94505060206119758782880161192b565b93505060406119868782880161192b565b9250506060611997878288016118ec565b91505092959194509250565b6000602082840312156119b557600080fd5b60006119c38482850161192b565b91505092915050565b600080600080600060a086880312156119e457600080fd5b60006119f28882890161192b565b9550506020611a03888289016118d7565b9450506040611a14888289016118d7565b935050606086013567ffffffffffffffff811115611a3157600080fd5b611a3d88828901611901565b9250506080611a4e8882890161192b565b9150509295509295909350565b60008060408385031215611a6e57600080fd5b6000611a7c8582860161192b565b9250506020611a8d858286016118ec565b9150509250929050565b6000611aa38383611d03565b6101008301905092915050565b611ab9816121bc565b82525050565b611ac8816121aa565b82525050565b611ad7816121aa565b82525050565b6000611ae8826120ca565b611af281856120ed565b9350611afd836120ba565b8060005b83811015611b2e578151611b158882611a97565b9750611b20836120e0565b925050600181019050611b01565b5085935050505092915050565b611b44816121ce565b82525050565b611b53816121ce565b82525050565b6000611b64826120d5565b611b6e81856120fe565b9350611b7e818560208601612213565b611b878161237f565b840191505092915050565b6000611b9d826120d5565b611ba7818561210f565b9350611bb7818560208601612213565b611bc08161237f565b840191505092915050565b6000611bd860268361210f565b9150611be382612390565b604082019050919050565b6000611bfb600f8361210f565b9150611c06826123df565b602082019050919050565b6000611c1e60188361210f565b9150611c2982612408565b602082019050919050565b6000611c4160248361210f565b9150611c4c82612431565b604082019050919050565b6000611c64601f8361210f565b9150611c6f82612480565b602082019050919050565b600060c083016000830151611c926000860182611e47565b506020830151611ca56020860182611abf565b506040830151611cb86040860182611abf565b5060608301518482036060860152611cd08282611b59565b9150506080830151611ce56080860182611e47565b5060a0830151611cf860a0860182611e47565b508091505092915050565b61010082016000820151611d1a6000850182611e47565b506020820151611d2d6020850182611abf565b506040820151611d406040850182611e47565b506060820151611d536060850182611ab0565b506080820151611d666080850182611ab0565b5060a0820151611d7960a0850182611e47565b5060c0820151611d8c60c0850182611b3b565b5060e0820151611d9f60e0850182611b3b565b50505050565b61010082016000820151611dbc6000850182611e47565b506020820151611dcf6020850182611abf565b506040820151611de26040850182611e47565b506060820151611df56060850182611ab0565b506080820151611e086080850182611ab0565b5060a0820151611e1b60a0850182611e47565b5060c0820151611e2e60c0850182611b3b565b5060e0820151611e4160e0850182611b3b565b50505050565b611e50816121fa565b82525050565b611e5f816121fa565b82525050565b600060a082019050611e7a6000830188611ace565b611e876020830187611ace565b8181036040830152611e998186611b92565b9050611ea86060830185611e56565b611eb56080830184611e56565b9695505050505050565b6000606082019050611ed46000830186611ace565b611ee16020830185611ace565b611eee6040830184611e56565b949350505050565b600060a082019050611f0b6000830188611ace565b611f186020830187611ace565b611f256040830186611e56565b611f326060830185611b4a565b611f3f6080830184611b4a565b9695505050505050565b60006020820190508181036000830152611f638184611add565b905092915050565b60006020820190508181036000830152611f8481611bcb565b9050919050565b60006020820190508181036000830152611fa481611bee565b9050919050565b60006020820190508181036000830152611fc481611c11565b9050919050565b60006020820190508181036000830152611fe481611c34565b9050919050565b6000602082019050818103600083015261200481611c57565b9050919050565b600060208201905081810360008301526120258184611c7a565b905092915050565b6000610100820190506120436000830184611da5565b92915050565b600060208201905061205e6000830184611e56565b92915050565b600061206e61207f565b905061207a8282612278565b919050565b6000604051905090565b600067ffffffffffffffff8211156120a4576120a3612350565b5b6120ad8261237f565b9050602081019050919050565b6000819050602082019050919050565b600081519050919050565b600081519050919050565b6000602082019050919050565b600082825260208201905092915050565b600082825260208201905092915050565b600082825260208201905092915050565b600061212b826121fa565b9150612136836121fa565b9250827fffffffffffffffffffffffffffffffffffffffffffffffffffffffffffffffff0382111561216b5761216a6122f2565b5b828201905092915050565b6000612181826121fa565b915061218c836121fa565b92508282101561219f5761219e6122f2565b5b828203905092915050565b60006121b5826121da565b9050919050565b60006121c7826121da565b9050919050565b60008115159050919050565b600073ffffffffffffffffffffffffffffffffffffffff82169050919050565b6000819050919050565b82818337600083830152505050565b60005b83811015612231578082015181840152602081019050612216565b83811115612240576000848401525b50505050565b6000600282049050600182168061225e57607f821691505b6020821081141561227257612271612321565b5b50919050565b6122818261237f565b810181811067ffffffffffffffff821117156122a05761229f612350565b5b80604052505050565b60006122b4826121fa565b91507fffffffffffffffffffffffffffffffffffffffffffffffffffffffffffffffff8214156122e7576122e66122f2565b5b600182019050919050565b7f4e487b7100000000000000000000000000000000000000000000000000000000600052601160045260246000fd5b7f4e487b7100000000000000000000000000000000000000000000000000000000600052602260045260246000fd5b7f4e487b7100000000000000000000000000000000000000000000000000000000600052604160045260246000fd5b6000601f19601f8301169050919050565b7f4f6e6c7920746865206f776e65722063616e207570646174652069735265776160008201527f72644974656d0000000000000000000000000000000000000000000000000000602082015250565b7f496e76616c6964204974656d2049440000000000000000000000000000000000600082015250565b7f5072696365206d7573742062652061626f7665207a65726f0000000000000000600082015250565b7f5072696365206d75737420626520657175616c20746f206c697374696e67207060008201527f7269636500000000000000000000000000000000000000000000000000000000602082015250565b7f5265656e7472616e637947756172643a207265656e7472616e742063616c6c00600082015250565b6124b2816121aa565b81146124bd57600080fd5b50565b6124c9816121ce565b81146124d457600080fd5b50565b6124e0816121fa565b81146124eb57600080fd5b5056fea26469706673582212200b806ac34ddc1ce0e37e09beacc6ad6615ea94692b568194fcd50e49f0b16edb64736f6c63430008040033",
  "linkReferences": {},
  "deployedLinkReferences": {}
}