{
  "_format": "hh-sol-artifact-1",
  "contractName": "Marketplace",
  "sourceName": "contracts/Marketplace.sol",
  "abi": [
    {
      "inputs": [],
      "stateMutability": "nonpayable",
      "type": "constructor"
    },
    {
      "anonymous": false,
      "inputs": [
        {
          "indexed": true,
          "internalType": "uint256",
          "name": "itemId",
          "type": "uint256"
        },
        {
          "indexed": false,
          "internalType": "address",
          "name": "from",
          "type": "address"
        },
        {
          "indexed": false,
          "internalType": "address",
          "name": "to",
          "type": "address"
        },
        {
          "indexed": false,
          "internalType": "string",
          "name": "eventType",
          "type": "string"
        },
        {
          "indexed": false,
          "internalType": "uint256",
          "name": "price",
          "type": "uint256"
        },
        {
          "indexed": false,
          "internalType": "uint256",
          "name": "timestamp",
          "type": "uint256"
        }
      ],
      "name": "ActivityRecorded",
      "type": "event"
    },
    {
      "anonymous": false,
      "inputs": [
        {
          "indexed": true,
          "internalType": "uint256",
          "name": "itemId",
          "type": "uint256"
        },
        {
          "indexed": true,
          "internalType": "address",
          "name": "nftContract",
          "type": "address"
        },
        {
          "indexed": true,
          "internalType": "uint256",
          "name": "tokenId",
          "type": "uint256"
        },
        {
          "indexed": false,
          "internalType": "address",
          "name": "seller",
          "type": "address"
        },
        {
          "indexed": false,
          "internalType": "address",
          "name": "owner",
          "type": "address"
        },
        {
          "indexed": false,
          "internalType": "address",
          "name": "creator",
          "type": "address"
        },
        {
          "indexed": false,
          "internalType": "uint256",
          "name": "price",
          "type": "uint256"
        },
        {
          "indexed": false,
          "internalType": "bool",
          "name": "sold",
          "type": "bool"
        },
        {
          "indexed": false,
          "internalType": "bool",
          "name": "isRewardItem",
          "type": "bool"
        },
        {
          "indexed": false,
          "internalType": "uint256",
          "name": "likes",
          "type": "uint256"
        },
        {
          "indexed": false,
          "internalType": "uint256",
          "name": "views",
          "type": "uint256"
        }
      ],
      "name": "MarketItemCreated",
      "type": "event"
    },
    {
      "inputs": [
        {
          "internalType": "address",
          "name": "nftContract",
          "type": "address"
        },
        {
          "internalType": "uint256",
          "name": "tokenId",
          "type": "uint256"
        },
        {
          "internalType": "uint256",
          "name": "price",
          "type": "uint256"
        },
        {
          "internalType": "bool",
          "name": "isRewardItem",
          "type": "bool"
        }
      ],
      "name": "createMarketItem",
      "outputs": [],
      "stateMutability": "payable",
      "type": "function"
    },
    {
      "inputs": [
        {
          "internalType": "uint256",
          "name": "itemId",
          "type": "uint256"
        }
      ],
      "name": "decrementItemLikes",
      "outputs": [
        {
          "internalType": "uint256",
          "name": "",
          "type": "uint256"
        }
      ],
      "stateMutability": "nonpayable",
      "type": "function"
    },
    {
      "inputs": [
        {
          "internalType": "uint256",
          "name": "itemId",
          "type": "uint256"
        }
      ],
      "name": "decrementItemViews",
      "outputs": [
        {
          "internalType": "uint256",
          "name": "",
          "type": "uint256"
        }
      ],
      "stateMutability": "nonpayable",
      "type": "function"
    },
    {
      "inputs": [],
      "name": "fetchItemsCreated",
      "outputs": [
        {
          "components": [
            {
              "internalType": "uint256",
              "name": "itemId",
              "type": "uint256"
            },
            {
              "internalType": "address",
              "name": "nftContract",
              "type": "address"
            },
            {
              "internalType": "uint256",
              "name": "tokenId",
              "type": "uint256"
            },
            {
              "internalType": "address payable",
              "name": "seller",
              "type": "address"
            },
            {
              "internalType": "address payable",
              "name": "owner",
              "type": "address"
            },
            {
              "internalType": "address payable",
              "name": "creator",
              "type": "address"
            },
            {
              "internalType": "uint256",
              "name": "price",
              "type": "uint256"
            },
            {
              "internalType": "bool",
              "name": "sold",
              "type": "bool"
            },
            {
              "internalType": "bool",
              "name": "isRewardItem",
              "type": "bool"
            },
            {
              "internalType": "uint256",
              "name": "likes",
              "type": "uint256"
            },
            {
              "internalType": "uint256",
              "name": "views",
              "type": "uint256"
            }
          ],
          "internalType": "struct Marketplace.MarketItem[]",
          "name": "",
          "type": "tuple[]"
        }
      ],
      "stateMutability": "view",
      "type": "function"
    },
    {
      "inputs": [],
      "name": "fetchMarketItems",
      "outputs": [
        {
          "components": [
            {
              "internalType": "uint256",
              "name": "itemId",
              "type": "uint256"
            },
            {
              "internalType": "address",
              "name": "nftContract",
              "type": "address"
            },
            {
              "internalType": "uint256",
              "name": "tokenId",
              "type": "uint256"
            },
            {
              "internalType": "address payable",
              "name": "seller",
              "type": "address"
            },
            {
              "internalType": "address payable",
              "name": "owner",
              "type": "address"
            },
            {
              "internalType": "address payable",
              "name": "creator",
              "type": "address"
            },
            {
              "internalType": "uint256",
              "name": "price",
              "type": "uint256"
            },
            {
              "internalType": "bool",
              "name": "sold",
              "type": "bool"
            },
            {
              "internalType": "bool",
              "name": "isRewardItem",
              "type": "bool"
            },
            {
              "internalType": "uint256",
              "name": "likes",
              "type": "uint256"
            },
            {
              "internalType": "uint256",
              "name": "views",
              "type": "uint256"
            }
          ],
          "internalType": "struct Marketplace.MarketItem[]",
          "name": "",
          "type": "tuple[]"
        }
      ],
      "stateMutability": "view",
      "type": "function"
    },
    {
      "inputs": [],
      "name": "fetchPurchasedNFTs",
      "outputs": [
        {
          "components": [
            {
              "internalType": "uint256",
              "name": "itemId",
              "type": "uint256"
            },
            {
              "internalType": "address",
              "name": "nftContract",
              "type": "address"
            },
            {
              "internalType": "uint256",
              "name": "tokenId",
              "type": "uint256"
            },
            {
              "internalType": "address payable",
              "name": "seller",
              "type": "address"
            },
            {
              "internalType": "address payable",
              "name": "owner",
              "type": "address"
            },
            {
              "internalType": "address payable",
              "name": "creator",
              "type": "address"
            },
            {
              "internalType": "uint256",
              "name": "price",
              "type": "uint256"
            },
            {
              "internalType": "bool",
              "name": "sold",
              "type": "bool"
            },
            {
              "internalType": "bool",
              "name": "isRewardItem",
              "type": "bool"
            },
            {
              "internalType": "uint256",
              "name": "likes",
              "type": "uint256"
            },
            {
              "internalType": "uint256",
              "name": "views",
              "type": "uint256"
            }
          ],
          "internalType": "struct Marketplace.MarketItem[]",
          "name": "",
          "type": "tuple[]"
        }
      ],
      "stateMutability": "view",
      "type": "function"
    },
    {
      "inputs": [
        {
          "internalType": "uint256",
          "name": "itemId",
          "type": "uint256"
        }
      ],
      "name": "getItemLikes",
      "outputs": [
        {
          "internalType": "uint256",
          "name": "",
          "type": "uint256"
        }
      ],
      "stateMutability": "view",
      "type": "function"
    },
    {
      "inputs": [
        {
          "internalType": "uint256",
          "name": "itemId",
          "type": "uint256"
        }
      ],
      "name": "getItemViews",
      "outputs": [
        {
          "internalType": "uint256",
          "name": "",
          "type": "uint256"
        }
      ],
      "stateMutability": "view",
      "type": "function"
    },
    {
      "inputs": [],
      "name": "getListingPrice",
      "outputs": [
        {
          "internalType": "uint256",
          "name": "",
          "type": "uint256"
        }
      ],
      "stateMutability": "view",
      "type": "function"
    },
    {
      "inputs": [
        {
          "internalType": "uint256",
          "name": "tokenId",
          "type": "uint256"
        }
      ],
      "name": "getNFTActivity",
      "outputs": [
        {
          "components": [
            {
              "internalType": "uint256",
              "name": "itemId",
              "type": "uint256"
            },
            {
              "internalType": "address",
              "name": "from",
              "type": "address"
            },
            {
              "internalType": "address",
              "name": "to",
              "type": "address"
            },
            {
              "internalType": "string",
              "name": "eventType",
              "type": "string"
            },
            {
              "internalType": "uint256",
              "name": "price",
              "type": "uint256"
            },
            {
              "internalType": "uint256",
              "name": "timestamp",
              "type": "uint256"
            }
          ],
          "internalType": "struct Marketplace.Activity",
          "name": "",
          "type": "tuple"
        }
      ],
      "stateMutability": "view",
      "type": "function"
    },
    {
      "inputs": [
        {
          "internalType": "uint256",
          "name": "itemId",
          "type": "uint256"
        }
      ],
      "name": "getNFTDetails",
      "outputs": [
        {
          "components": [
            {
              "internalType": "uint256",
              "name": "itemId",
              "type": "uint256"
            },
            {
              "internalType": "address",
              "name": "nftContract",
              "type": "address"
            },
            {
              "internalType": "uint256",
              "name": "tokenId",
              "type": "uint256"
            },
            {
              "internalType": "address payable",
              "name": "seller",
              "type": "address"
            },
            {
              "internalType": "address payable",
              "name": "owner",
              "type": "address"
            },
            {
              "internalType": "address payable",
              "name": "creator",
              "type": "address"
            },
            {
              "internalType": "uint256",
              "name": "price",
              "type": "uint256"
            },
            {
              "internalType": "bool",
              "name": "sold",
              "type": "bool"
            },
            {
              "internalType": "bool",
              "name": "isRewardItem",
              "type": "bool"
            },
            {
              "internalType": "uint256",
              "name": "likes",
              "type": "uint256"
            },
            {
              "internalType": "uint256",
              "name": "views",
              "type": "uint256"
            }
          ],
          "internalType": "struct Marketplace.MarketItem",
          "name": "",
          "type": "tuple"
        }
      ],
      "stateMutability": "view",
      "type": "function"
    },
    {
      "inputs": [
        {
          "internalType": "uint256",
          "name": "itemId",
          "type": "uint256"
        }
      ],
      "name": "incrementItemLikes",
      "outputs": [
        {
          "internalType": "uint256",
          "name": "",
          "type": "uint256"
        }
      ],
      "stateMutability": "nonpayable",
      "type": "function"
    },
    {
      "inputs": [
        {
          "internalType": "uint256",
          "name": "itemId",
          "type": "uint256"
        }
      ],
      "name": "incrementItemViews",
      "outputs": [
        {
          "internalType": "uint256",
          "name": "",
          "type": "uint256"
        }
      ],
      "stateMutability": "nonpayable",
      "type": "function"
    },
    {
      "inputs": [
        {
          "internalType": "uint256",
          "name": "_price",
          "type": "uint256"
        }
      ],
      "name": "setListingPrice",
      "outputs": [
        {
          "internalType": "uint256",
          "name": "",
          "type": "uint256"
        }
      ],
      "stateMutability": "nonpayable",
      "type": "function"
    },
    {
      "inputs": [
        {
          "internalType": "uint256",
          "name": "itemId",
          "type": "uint256"
        },
        {
          "internalType": "bool",
          "name": "isRewardItem",
          "type": "bool"
        }
      ],
      "name": "updateIsRewardItem",
      "outputs": [],
      "stateMutability": "nonpayable",
      "type": "function"
    }
  ],
  "bytecode": "0x60806040526509184e72a00060045534801561001a57600080fd5b50600160008190555033600360006101000a81548173ffffffffffffffffffffffffffffffffffffffff021916908373ffffffffffffffffffffffffffffffffffffffff1602179055506129e4806100736000396000f3fe6080604052600436106100e85760003560e01c806369af0b051161008a578063b97d185f11610059578063b97d185f14610354578063e814ce7814610391578063ee6ba234146103ad578063f064c32e146103d8576100e8565b806369af0b05146102605780637c726b691461029d57806382260f35146102da578063a236d2c514610317576100e8565b806312e85585116100c657806312e8558514610192578063137da13f146101bd5780634420f9e5146101fa5780634e66d34e14610237576100e8565b80630200102a146100ed57806307a539a31461012a5780630f08efe014610167575b600080fd5b3480156100f957600080fd5b50610114600480360381019061010f9190611edc565b610403565b6040516101219190612555565b60405180910390f35b34801561013657600080fd5b50610151600480360381019061014c9190611edc565b61058c565b60405161015e9190612593565b60405180910390f35b34801561017357600080fd5b5061017c6105da565b6040516101899190612493565b60405180910390f35b34801561019e57600080fd5b506101a761098c565b6040516101b49190612593565b60405180910390f35b3480156101c957600080fd5b506101e460048036038101906101df9190611edc565b610996565b6040516101f19190612593565b60405180910390f35b34801561020657600080fd5b50610221600480360381019061021c9190611edc565b6109b6565b60405161022e9190612593565b60405180910390f35b34801561024357600080fd5b5061025e60048036038101906102599190611f05565b610a04565b005b34801561026c57600080fd5b5061028760048036038101906102829190611edc565b610ac6565b6040516102949190612593565b60405180910390f35b3480156102a957600080fd5b506102c460048036038101906102bf9190611edc565b610ae6565b6040516102d19190612593565b60405180910390f35b3480156102e657600080fd5b5061030160048036038101906102fc9190611edc565b610b2e565b60405161030e9190612577565b60405180910390f35b34801561032357600080fd5b5061033e60048036038101906103399190611edc565b610d74565b60405161034b9190612593565b60405180910390f35b34801561036057600080fd5b5061037b60048036038101906103769190611edc565b610dc2565b6040516103889190612593565b60405180910390f35b6103ab60048036038101906103a69190611e79565b610e10565b005b3480156103b957600080fd5b506103c2611395565b6040516103cf9190612493565b60405180910390f35b3480156103e457600080fd5b506103ed6117cb565b6040516103fa9190612493565b60405180910390f35b61040b611c7f565b600660008381526020019081526020016000206040518060c0016040529081600082015481526020016001820160009054906101000a900473ffffffffffffffffffffffffffffffffffffffff1673ffffffffffffffffffffffffffffffffffffffff1673ffffffffffffffffffffffffffffffffffffffff1681526020016002820160009054906101000a900473ffffffffffffffffffffffffffffffffffffffff1673ffffffffffffffffffffffffffffffffffffffff1673ffffffffffffffffffffffffffffffffffffffff1681526020016003820180546104ef9061273d565b80601f016020809104026020016040519081016040528092919081815260200182805461051b9061273d565b80156105685780601f1061053d57610100808354040283529160200191610568565b820191906000526020600020905b81548152906001019060200180831161054b57829003601f168201915b50505050508152602001600482015481526020016005820154815250509050919050565b600060016005600084815260200190815260200160002060080160008282546105b59190612614565b9250508190555060056000838152602001908152602001600020600801549050919050565b606060006105e86001611c01565b905060006105f66002611c01565b6106006001611c01565b61060a919061266a565b90506000808267ffffffffffffffff81111561064f577f4e487b7100000000000000000000000000000000000000000000000000000000600052604160045260246000fd5b60405190808252806020026020018201604052801561068857816020015b610675611ce1565b81526020019060019003908161066d5790505b50905060005b8481101561098157600073ffffffffffffffffffffffffffffffffffffffff16600560006001846106bf9190612614565b815260200190815260200160002060040160009054906101000a900473ffffffffffffffffffffffffffffffffffffffff1673ffffffffffffffffffffffffffffffffffffffff16141561096e576000600560006001846107209190612614565b815260200190815260200160002060000154905060006005600083815260200190815260200160002090508060405180610160016040529081600082015481526020016001820160009054906101000a900473ffffffffffffffffffffffffffffffffffffffff1673ffffffffffffffffffffffffffffffffffffffff1673ffffffffffffffffffffffffffffffffffffffff168152602001600282015481526020016003820160009054906101000a900473ffffffffffffffffffffffffffffffffffffffff1673ffffffffffffffffffffffffffffffffffffffff1673ffffffffffffffffffffffffffffffffffffffff1681526020016004820160009054906101000a900473ffffffffffffffffffffffffffffffffffffffff1673ffffffffffffffffffffffffffffffffffffffff1673ffffffffffffffffffffffffffffffffffffffff1681526020016005820160009054906101000a900473ffffffffffffffffffffffffffffffffffffffff1673ffffffffffffffffffffffffffffffffffffffff1673ffffffffffffffffffffffffffffffffffffffff168152602001600682015481526020016007820160009054906101000a900460ff161515151581526020016007820160019054906101000a900460ff1615151515815260200160088201548152602001600982015481525050848681518110610951577f4e487b7100000000000000000000000000000000000000000000000000000000600052603260045260246000fd5b60200260200101819052506001856109699190612614565b945050505b80806109799061276f565b91505061068e565b508094505050505090565b6000600454905090565b600060056000838152602001908152602001600020600901549050919050565b600060016005600084815260200190815260200160002060090160008282546109df9190612614565b9250508190555060056000838152602001908152602001600020600901549050919050565b600360009054906101000a900473ffffffffffffffffffffffffffffffffffffffff1673ffffffffffffffffffffffffffffffffffffffff163373ffffffffffffffffffffffffffffffffffffffff1614610a94576040517f08c379a0000000000000000000000000000000000000000000000000000000008152600401610a8b906124b5565b60405180910390fd5b806005600084815260200190815260200160002060070160016101000a81548160ff0219169083151502179055505050565b600060056000838152602001908152602001600020600801549050919050565b60003073ffffffffffffffffffffffffffffffffffffffff163373ffffffffffffffffffffffffffffffffffffffff161415610b2457816004819055505b6004549050919050565b610b36611ce1565b600082118015610b4f5750610b4b6001611c01565b8211155b610b8e576040517f08c379a0000000000000000000000000000000000000000000000000000000008152600401610b85906124d5565b60405180910390fd5b6005600083815260200190815260200160002060405180610160016040529081600082015481526020016001820160009054906101000a900473ffffffffffffffffffffffffffffffffffffffff1673ffffffffffffffffffffffffffffffffffffffff1673ffffffffffffffffffffffffffffffffffffffff168152602001600282015481526020016003820160009054906101000a900473ffffffffffffffffffffffffffffffffffffffff1673ffffffffffffffffffffffffffffffffffffffff1673ffffffffffffffffffffffffffffffffffffffff1681526020016004820160009054906101000a900473ffffffffffffffffffffffffffffffffffffffff1673ffffffffffffffffffffffffffffffffffffffff1673ffffffffffffffffffffffffffffffffffffffff1681526020016005820160009054906101000a900473ffffffffffffffffffffffffffffffffffffffff1673ffffffffffffffffffffffffffffffffffffffff1673ffffffffffffffffffffffffffffffffffffffff168152602001600682015481526020016007820160009054906101000a900460ff161515151581526020016007820160019054906101000a900460ff16151515158152602001600882015481526020016009820154815250509050919050565b60006001600560008481526020019081526020016000206009016000828254610d9d919061266a565b9250508190555060056000838152602001908152602001600020600901549050919050565b60006001600560008481526020019081526020016000206008016000828254610deb919061266a565b9250508190555060056000838152602001908152602001600020600801549050919050565b610e18611c0f565b60008211610e5b576040517f08c379a0000000000000000000000000000000000000000000000000000000008152600401610e52906124f5565b60405180910390fd5b6004543414610e9f576040517f08c379a0000000000000000000000000000000000000000000000000000000008152600401610e9690612515565b60405180910390fd5b610ea96001611c5f565b6000610eb56001611c01565b90506040518061016001604052808281526020018673ffffffffffffffffffffffffffffffffffffffff1681526020018581526020013373ffffffffffffffffffffffffffffffffffffffff168152602001600073ffffffffffffffffffffffffffffffffffffffff1681526020013373ffffffffffffffffffffffffffffffffffffffff1681526020018481526020016000151581526020018315158152602001600081526020016000815250600560008381526020019081526020016000206000820151816000015560208201518160010160006101000a81548173ffffffffffffffffffffffffffffffffffffffff021916908373ffffffffffffffffffffffffffffffffffffffff1602179055506040820151816002015560608201518160030160006101000a81548173ffffffffffffffffffffffffffffffffffffffff021916908373ffffffffffffffffffffffffffffffffffffffff16021790555060808201518160040160006101000a81548173ffffffffffffffffffffffffffffffffffffffff021916908373ffffffffffffffffffffffffffffffffffffffff16021790555060a08201518160050160006101000a81548173ffffffffffffffffffffffffffffffffffffffff021916908373ffffffffffffffffffffffffffffffffffffffff16021790555060c0820151816006015560e08201518160070160006101000a81548160ff0219169083151502179055506101008201518160070160016101000a81548160ff021916908315150217905550610120820151816008015561014082015181600901559050508473ffffffffffffffffffffffffffffffffffffffff166323b872dd3330876040518463ffffffff1660e01b81526004016111479392919061245c565b600060405180830381600087803b15801561116157600080fd5b505af1158015611175573d6000803e3d6000fd5b505050506040518060c00160405280828152602001600073ffffffffffffffffffffffffffffffffffffffff1681526020013373ffffffffffffffffffffffffffffffffffffffff1681526020016040518060400160405280600481526020017f4d696e7400000000000000000000000000000000000000000000000000000000815250815260200184815260200142815250600660008381526020019081526020016000206000820151816000015560208201518160010160006101000a81548173ffffffffffffffffffffffffffffffffffffffff021916908373ffffffffffffffffffffffffffffffffffffffff16021790555060408201518160020160006101000a81548173ffffffffffffffffffffffffffffffffffffffff021916908373ffffffffffffffffffffffffffffffffffffffff16021790555060608201518160030190805190602001906112cf929190611d97565b506080820151816004015560a08201518160050155905050807ebf28291d338649b38f0e4dbcadcdf13fb96abac62c2c2582783e335f72a6bb600033864260405161131d9493929190612404565b60405180910390a2838573ffffffffffffffffffffffffffffffffffffffff16827f1aa1e4870599a6e5a6de9a51776a6c7b45dfa68ab9d5c25eb3fcfbfabe1db1ce336000338960008a60008060405161137e989796959493929190612386565b60405180910390a45061138f611c75565b50505050565b606060006113a36001611c01565b905060008060005b8381101561144c573373ffffffffffffffffffffffffffffffffffffffff16600560006001846113db9190612614565b815260200190815260200160002060040160009054906101000a900473ffffffffffffffffffffffffffffffffffffffff1673ffffffffffffffffffffffffffffffffffffffff161415611439576001836114369190612614565b92505b80806114449061276f565b9150506113ab565b5060008267ffffffffffffffff81111561148f577f4e487b7100000000000000000000000000000000000000000000000000000000600052604160045260246000fd5b6040519080825280602002602001820160405280156114c857816020015b6114b5611ce1565b8152602001906001900390816114ad5790505b50905060005b848110156117c0573373ffffffffffffffffffffffffffffffffffffffff16600560006001846114fe9190612614565b815260200190815260200160002060040160009054906101000a900473ffffffffffffffffffffffffffffffffffffffff1673ffffffffffffffffffffffffffffffffffffffff1614156117ad5760006005600060018461155f9190612614565b815260200190815260200160002060000154905060006005600083815260200190815260200160002090508060405180610160016040529081600082015481526020016001820160009054906101000a900473ffffffffffffffffffffffffffffffffffffffff1673ffffffffffffffffffffffffffffffffffffffff1673ffffffffffffffffffffffffffffffffffffffff168152602001600282015481526020016003820160009054906101000a900473ffffffffffffffffffffffffffffffffffffffff1673ffffffffffffffffffffffffffffffffffffffff1673ffffffffffffffffffffffffffffffffffffffff1681526020016004820160009054906101000a900473ffffffffffffffffffffffffffffffffffffffff1673ffffffffffffffffffffffffffffffffffffffff1673ffffffffffffffffffffffffffffffffffffffff1681526020016005820160009054906101000a900473ffffffffffffffffffffffffffffffffffffffff1673ffffffffffffffffffffffffffffffffffffffff1673ffffffffffffffffffffffffffffffffffffffff168152602001600682015481526020016007820160009054906101000a900460ff161515151581526020016007820160019054906101000a900460ff1615151515815260200160088201548152602001600982015481525050848681518110611790577f4e487b7100000000000000000000000000000000000000000000000000000000600052603260045260246000fd5b60200260200101819052506001856117a89190612614565b945050505b80806117b89061276f565b9150506114ce565b508094505050505090565b606060006117d96001611c01565b905060008060005b83811015611882573373ffffffffffffffffffffffffffffffffffffffff16600560006001846118119190612614565b815260200190815260200160002060030160009054906101000a900473ffffffffffffffffffffffffffffffffffffffff1673ffffffffffffffffffffffffffffffffffffffff16141561186f5760018361186c9190612614565b92505b808061187a9061276f565b9150506117e1565b5060008267ffffffffffffffff8111156118c5577f4e487b7100000000000000000000000000000000000000000000000000000000600052604160045260246000fd5b6040519080825280602002602001820160405280156118fe57816020015b6118eb611ce1565b8152602001906001900390816118e35790505b50905060005b84811015611bf6573373ffffffffffffffffffffffffffffffffffffffff16600560006001846119349190612614565b815260200190815260200160002060030160009054906101000a900473ffffffffffffffffffffffffffffffffffffffff1673ffffffffffffffffffffffffffffffffffffffff161415611be3576000600560006001846119959190612614565b815260200190815260200160002060000154905060006005600083815260200190815260200160002090508060405180610160016040529081600082015481526020016001820160009054906101000a900473ffffffffffffffffffffffffffffffffffffffff1673ffffffffffffffffffffffffffffffffffffffff1673ffffffffffffffffffffffffffffffffffffffff168152602001600282015481526020016003820160009054906101000a900473ffffffffffffffffffffffffffffffffffffffff1673ffffffffffffffffffffffffffffffffffffffff1673ffffffffffffffffffffffffffffffffffffffff1681526020016004820160009054906101000a900473ffffffffffffffffffffffffffffffffffffffff1673ffffffffffffffffffffffffffffffffffffffff1673ffffffffffffffffffffffffffffffffffffffff1681526020016005820160009054906101000a900473ffffffffffffffffffffffffffffffffffffffff1673ffffffffffffffffffffffffffffffffffffffff1673ffffffffffffffffffffffffffffffffffffffff168152602001600682015481526020016007820160009054906101000a900460ff161515151581526020016007820160019054906101000a900460ff1615151515815260200160088201548152602001600982015481525050848681518110611bc6577f4e487b7100000000000000000000000000000000000000000000000000000000600052603260045260246000fd5b6020026020010181905250600185611bde9190612614565b945050505b8080611bee9061276f565b915050611904565b508094505050505090565b600081600001549050919050565b60026000541415611c55576040517f08c379a0000000000000000000000000000000000000000000000000000000008152600401611c4c90612535565b60405180910390fd5b6002600081905550565b6001816000016000828254019250508190555050565b6001600081905550565b6040518060c0016040528060008152602001600073ffffffffffffffffffffffffffffffffffffffff168152602001600073ffffffffffffffffffffffffffffffffffffffff1681526020016060815260200160008152602001600081525090565b60405180610160016040528060008152602001600073ffffffffffffffffffffffffffffffffffffffff16815260200160008152602001600073ffffffffffffffffffffffffffffffffffffffff168152602001600073ffffffffffffffffffffffffffffffffffffffff168152602001600073ffffffffffffffffffffffffffffffffffffffff1681526020016000815260200160001515815260200160001515815260200160008152602001600081525090565b828054611da39061273d565b90600052602060002090601f016020900481019282611dc55760008555611e0c565b82601f10611dde57805160ff1916838001178555611e0c565b82800160010185558215611e0c579182015b82811115611e0b578251825591602001919060010190611df0565b5b509050611e199190611e1d565b5090565b5b80821115611e36576000816000905550600101611e1e565b5090565b600081359050611e4981612969565b92915050565b600081359050611e5e81612980565b92915050565b600081359050611e7381612997565b92915050565b60008060008060808587031215611e8f57600080fd5b6000611e9d87828801611e3a565b9450506020611eae87828801611e64565b9350506040611ebf87828801611e64565b9250506060611ed087828801611e4f565b91505092959194509250565b600060208284031215611eee57600080fd5b6000611efc84828501611e64565b91505092915050565b60008060408385031215611f1857600080fd5b6000611f2685828601611e64565b9250506020611f3785828601611e4f565b9150509250929050565b6000611f4d83836121a6565b6101608301905092915050565b611f63816126b0565b82525050565b611f728161269e565b82525050565b611f818161269e565b82525050565b6000611f92826125be565b611f9c81856125e1565b9350611fa7836125ae565b8060005b83811015611fd8578151611fbf8882611f41565b9750611fca836125d4565b925050600181019050611fab565b5085935050505092915050565b611fee816126c2565b82525050565b611ffd816126c2565b82525050565b61200c816126f8565b82525050565b600061201d826125c9565b61202781856125f2565b935061203781856020860161270a565b61204081612816565b840191505092915050565b6000612058600483612603565b915061206382612827565b602082019050919050565b600061207b602683612603565b915061208682612850565b604082019050919050565b600061209e600f83612603565b91506120a98261289f565b602082019050919050565b60006120c1601883612603565b91506120cc826128c8565b602082019050919050565b60006120e4602483612603565b91506120ef826128f1565b604082019050919050565b6000612107601f83612603565b915061211282612940565b602082019050919050565b600060c0830160008301516121356000860182612368565b5060208301516121486020860182611f69565b50604083015161215b6040860182611f69565b50606083015184820360608601526121738282612012565b91505060808301516121886080860182612368565b5060a083015161219b60a0860182612368565b508091505092915050565b610160820160008201516121bd6000850182612368565b5060208201516121d06020850182611f69565b5060408201516121e36040850182612368565b5060608201516121f66060850182611f5a565b5060808201516122096080850182611f5a565b5060a082015161221c60a0850182611f5a565b5060c082015161222f60c0850182612368565b5060e082015161224260e0850182611fe5565b50610100820151612257610100850182611fe5565b5061012082015161226c610120850182612368565b50610140820151612281610140850182612368565b50505050565b6101608201600082015161229e6000850182612368565b5060208201516122b16020850182611f69565b5060408201516122c46040850182612368565b5060608201516122d76060850182611f5a565b5060808201516122ea6080850182611f5a565b5060a08201516122fd60a0850182611f5a565b5060c082015161231060c0850182612368565b5060e082015161232360e0850182611fe5565b50610100820151612338610100850182611fe5565b5061012082015161234d610120850182612368565b50610140820151612362610140850182612368565b50505050565b612371816126ee565b82525050565b612380816126ee565b82525050565b60006101008201905061239c600083018b611f78565b6123a9602083018a611f78565b6123b66040830189611f78565b6123c36060830188612377565b6123d06080830187611ff4565b6123dd60a0830186611ff4565b6123ea60c0830185612003565b6123f760e0830184612003565b9998505050505050505050565b600060a0820190506124196000830187611f78565b6124266020830186611f78565b81810360408301526124378161204b565b90506124466060830185612377565b6124536080830184612377565b95945050505050565b60006060820190506124716000830186611f78565b61247e6020830185611f78565b61248b6040830184612377565b949350505050565b600060208201905081810360008301526124ad8184611f87565b905092915050565b600060208201905081810360008301526124ce8161206e565b9050919050565b600060208201905081810360008301526124ee81612091565b9050919050565b6000602082019050818103600083015261250e816120b4565b9050919050565b6000602082019050818103600083015261252e816120d7565b9050919050565b6000602082019050818103600083015261254e816120fa565b9050919050565b6000602082019050818103600083015261256f818461211d565b905092915050565b60006101608201905061258d6000830184612287565b92915050565b60006020820190506125a86000830184612377565b92915050565b6000819050602082019050919050565b600081519050919050565b600081519050919050565b6000602082019050919050565b600082825260208201905092915050565b600082825260208201905092915050565b600082825260208201905092915050565b600061261f826126ee565b915061262a836126ee565b9250827fffffffffffffffffffffffffffffffffffffffffffffffffffffffffffffffff0382111561265f5761265e6127b8565b5b828201905092915050565b6000612675826126ee565b9150612680836126ee565b925082821015612693576126926127b8565b5b828203905092915050565b60006126a9826126ce565b9050919050565b60006126bb826126ce565b9050919050565b60008115159050919050565b600073ffffffffffffffffffffffffffffffffffffffff82169050919050565b6000819050919050565b6000612703826126ee565b9050919050565b60005b8381101561272857808201518184015260208101905061270d565b83811115612737576000848401525b50505050565b6000600282049050600182168061275557607f821691505b60208210811415612769576127686127e7565b5b50919050565b600061277a826126ee565b91507fffffffffffffffffffffffffffffffffffffffffffffffffffffffffffffffff8214156127ad576127ac6127b8565b5b600182019050919050565b7f4e487b7100000000000000000000000000000000000000000000000000000000600052601160045260246000fd5b7f4e487b7100000000000000000000000000000000000000000000000000000000600052602260045260246000fd5b6000601f19601f8301169050919050565b7f4d696e7400000000000000000000000000000000000000000000000000000000600082015250565b7f4f6e6c7920746865206f776e65722063616e207570646174652069735265776160008201527f72644974656d0000000000000000000000000000000000000000000000000000602082015250565b7f496e76616c6964204974656d2049440000000000000000000000000000000000600082015250565b7f5072696365206d7573742062652061626f7665207a65726f0000000000000000600082015250565b7f5072696365206d75737420626520657175616c20746f206c697374696e67207060008201527f7269636500000000000000000000000000000000000000000000000000000000602082015250565b7f5265656e7472616e637947756172643a207265656e7472616e742063616c6c00600082015250565b6129728161269e565b811461297d57600080fd5b50565b612989816126c2565b811461299457600080fd5b50565b6129a0816126ee565b81146129ab57600080fd5b5056fea264697066735822122054111a14f0c0753609e57d0685c334837fdfaa2d9f40bfa4d03c255a9627194564736f6c63430008040033",
  "linkReferences": {},
  "deployedLinkReferences": {}
}