{
  "_format": "hh-sol-artifact-1",
  "contractName": "Marketplace",
  "sourceName": "contracts/Marketplace.sol",
  "abi": [
    {
      "inputs": [],
      "stateMutability": "nonpayable",
      "type": "constructor"
    },
    {
      "anonymous": false,
      "inputs": [
        {
          "indexed": true,
          "internalType": "uint256",
          "name": "itemId",
          "type": "uint256"
        },
        {
          "indexed": true,
          "internalType": "address",
          "name": "nftContract",
          "type": "address"
        },
        {
          "indexed": true,
          "internalType": "uint256",
          "name": "tokenId",
          "type": "uint256"
        },
        {
          "indexed": false,
          "internalType": "address",
          "name": "seller",
          "type": "address"
        },
        {
          "indexed": false,
          "internalType": "address",
          "name": "owner",
          "type": "address"
        },
        {
          "indexed": false,
          "internalType": "address",
          "name": "creator",
          "type": "address"
        },
        {
          "indexed": false,
          "internalType": "uint256",
          "name": "price",
          "type": "uint256"
        },
        {
          "indexed": false,
          "internalType": "bool",
          "name": "sold",
          "type": "bool"
        },
        {
          "indexed": false,
          "internalType": "bool",
          "name": "isRewardItem",
          "type": "bool"
        },
        {
          "indexed": false,
          "internalType": "uint256",
          "name": "likes",
          "type": "uint256"
        },
        {
          "indexed": false,
          "internalType": "uint256",
          "name": "views",
          "type": "uint256"
        }
      ],
      "name": "MarketItemCreated",
      "type": "event"
    },
    {
      "inputs": [
        {
          "internalType": "uint256",
          "name": "",
          "type": "uint256"
        },
        {
          "internalType": "uint256",
          "name": "",
          "type": "uint256"
        }
      ],
      "name": "activities",
      "outputs": [
        {
          "internalType": "uint256",
          "name": "itemId",
          "type": "uint256"
        },
        {
          "internalType": "address",
          "name": "from",
          "type": "address"
        },
        {
          "internalType": "address",
          "name": "to",
          "type": "address"
        },
        {
          "internalType": "string",
          "name": "eventType",
          "type": "string"
        },
        {
          "internalType": "uint256",
          "name": "price",
          "type": "uint256"
        },
        {
          "internalType": "uint256",
          "name": "timestamp",
          "type": "uint256"
        }
      ],
      "stateMutability": "view",
      "type": "function"
    },
    {
      "inputs": [
        {
          "internalType": "uint256",
          "name": "tokenId",
          "type": "uint256"
        },
        {
          "internalType": "address",
          "name": "from",
          "type": "address"
        },
        {
          "internalType": "address",
          "name": "to",
          "type": "address"
        },
        {
          "internalType": "string",
          "name": "eventType",
          "type": "string"
        },
        {
          "internalType": "uint256",
          "name": "price",
          "type": "uint256"
        }
      ],
      "name": "addActivity",
      "outputs": [],
      "stateMutability": "nonpayable",
      "type": "function"
    },
    {
      "inputs": [
        {
          "internalType": "uint256",
          "name": "tokenId",
          "type": "uint256"
        }
      ],
      "name": "buyMarketItem",
      "outputs": [],
      "stateMutability": "payable",
      "type": "function"
    },
    {
      "inputs": [
        {
          "internalType": "address",
          "name": "nftContract",
          "type": "address"
        },
        {
          "internalType": "uint256",
          "name": "tokenId",
          "type": "uint256"
        },
        {
          "internalType": "uint256",
          "name": "price",
          "type": "uint256"
        },
        {
          "internalType": "bool",
          "name": "isRewardItem",
          "type": "bool"
        }
      ],
      "name": "createMarketItem",
      "outputs": [],
      "stateMutability": "payable",
      "type": "function"
    },
    {
      "inputs": [],
      "name": "fetchItemsCreated",
      "outputs": [
        {
          "components": [
            {
              "internalType": "uint256",
              "name": "itemId",
              "type": "uint256"
            },
            {
              "internalType": "address",
              "name": "nftContract",
              "type": "address"
            },
            {
              "internalType": "uint256",
              "name": "tokenId",
              "type": "uint256"
            },
            {
              "internalType": "address payable",
              "name": "seller",
              "type": "address"
            },
            {
              "internalType": "address payable",
              "name": "owner",
              "type": "address"
            },
            {
              "internalType": "address payable",
              "name": "creator",
              "type": "address"
            },
            {
              "internalType": "uint256",
              "name": "price",
              "type": "uint256"
            },
            {
              "internalType": "bool",
              "name": "sold",
              "type": "bool"
            },
            {
              "internalType": "bool",
              "name": "isRewardItem",
              "type": "bool"
            },
            {
              "internalType": "uint256",
              "name": "likes",
              "type": "uint256"
            },
            {
              "internalType": "uint256",
              "name": "views",
              "type": "uint256"
            }
          ],
          "internalType": "struct Marketplace.MarketItem[]",
          "name": "",
          "type": "tuple[]"
        }
      ],
      "stateMutability": "view",
      "type": "function"
    },
    {
      "inputs": [],
      "name": "fetchMarketItems",
      "outputs": [
        {
          "components": [
            {
              "internalType": "uint256",
              "name": "itemId",
              "type": "uint256"
            },
            {
              "internalType": "address",
              "name": "nftContract",
              "type": "address"
            },
            {
              "internalType": "uint256",
              "name": "tokenId",
              "type": "uint256"
            },
            {
              "internalType": "address payable",
              "name": "seller",
              "type": "address"
            },
            {
              "internalType": "address payable",
              "name": "owner",
              "type": "address"
            },
            {
              "internalType": "address payable",
              "name": "creator",
              "type": "address"
            },
            {
              "internalType": "uint256",
              "name": "price",
              "type": "uint256"
            },
            {
              "internalType": "bool",
              "name": "sold",
              "type": "bool"
            },
            {
              "internalType": "bool",
              "name": "isRewardItem",
              "type": "bool"
            },
            {
              "internalType": "uint256",
              "name": "likes",
              "type": "uint256"
            },
            {
              "internalType": "uint256",
              "name": "views",
              "type": "uint256"
            }
          ],
          "internalType": "struct Marketplace.MarketItem[]",
          "name": "",
          "type": "tuple[]"
        }
      ],
      "stateMutability": "view",
      "type": "function"
    },
    {
      "inputs": [],
      "name": "fetchPurchasedNFTs",
      "outputs": [
        {
          "components": [
            {
              "internalType": "uint256",
              "name": "itemId",
              "type": "uint256"
            },
            {
              "internalType": "address",
              "name": "nftContract",
              "type": "address"
            },
            {
              "internalType": "uint256",
              "name": "tokenId",
              "type": "uint256"
            },
            {
              "internalType": "address payable",
              "name": "seller",
              "type": "address"
            },
            {
              "internalType": "address payable",
              "name": "owner",
              "type": "address"
            },
            {
              "internalType": "address payable",
              "name": "creator",
              "type": "address"
            },
            {
              "internalType": "uint256",
              "name": "price",
              "type": "uint256"
            },
            {
              "internalType": "bool",
              "name": "sold",
              "type": "bool"
            },
            {
              "internalType": "bool",
              "name": "isRewardItem",
              "type": "bool"
            },
            {
              "internalType": "uint256",
              "name": "likes",
              "type": "uint256"
            },
            {
              "internalType": "uint256",
              "name": "views",
              "type": "uint256"
            }
          ],
          "internalType": "struct Marketplace.MarketItem[]",
          "name": "",
          "type": "tuple[]"
        }
      ],
      "stateMutability": "view",
      "type": "function"
    },
    {
      "inputs": [
        {
          "internalType": "uint256",
          "name": "tokenId",
          "type": "uint256"
        }
      ],
      "name": "getActivities",
      "outputs": [
        {
          "components": [
            {
              "internalType": "uint256",
              "name": "itemId",
              "type": "uint256"
            },
            {
              "internalType": "address",
              "name": "from",
              "type": "address"
            },
            {
              "internalType": "address",
              "name": "to",
              "type": "address"
            },
            {
              "internalType": "string",
              "name": "eventType",
              "type": "string"
            },
            {
              "internalType": "uint256",
              "name": "price",
              "type": "uint256"
            },
            {
              "internalType": "uint256",
              "name": "timestamp",
              "type": "uint256"
            }
          ],
          "internalType": "struct Marketplace.Activity[]",
          "name": "",
          "type": "tuple[]"
        }
      ],
      "stateMutability": "view",
      "type": "function"
    },
    {
      "inputs": [],
      "name": "getListingPrice",
      "outputs": [
        {
          "internalType": "uint256",
          "name": "",
          "type": "uint256"
        }
      ],
      "stateMutability": "view",
      "type": "function"
    },
    {
      "inputs": [
        {
          "internalType": "uint256",
          "name": "itemId",
          "type": "uint256"
        }
      ],
      "name": "getNFTDetails",
      "outputs": [
        {
          "components": [
            {
              "internalType": "uint256",
              "name": "itemId",
              "type": "uint256"
            },
            {
              "internalType": "address",
              "name": "nftContract",
              "type": "address"
            },
            {
              "internalType": "uint256",
              "name": "tokenId",
              "type": "uint256"
            },
            {
              "internalType": "address payable",
              "name": "seller",
              "type": "address"
            },
            {
              "internalType": "address payable",
              "name": "owner",
              "type": "address"
            },
            {
              "internalType": "address payable",
              "name": "creator",
              "type": "address"
            },
            {
              "internalType": "uint256",
              "name": "price",
              "type": "uint256"
            },
            {
              "internalType": "bool",
              "name": "sold",
              "type": "bool"
            },
            {
              "internalType": "bool",
              "name": "isRewardItem",
              "type": "bool"
            },
            {
              "internalType": "uint256",
              "name": "likes",
              "type": "uint256"
            },
            {
              "internalType": "uint256",
              "name": "views",
              "type": "uint256"
            }
          ],
          "internalType": "struct Marketplace.MarketItem",
          "name": "",
          "type": "tuple"
        }
      ],
      "stateMutability": "view",
      "type": "function"
    },
    {
      "inputs": [
        {
          "internalType": "uint256",
          "name": "tokenId",
          "type": "uint256"
        },
        {
          "internalType": "uint256",
          "name": "price",
          "type": "uint256"
        }
      ],
      "name": "resellToken",
      "outputs": [],
      "stateMutability": "payable",
      "type": "function"
    },
    {
      "inputs": [
        {
          "internalType": "uint256",
          "name": "_price",
          "type": "uint256"
        }
      ],
      "name": "setListingPrice",
      "outputs": [
        {
          "internalType": "uint256",
          "name": "",
          "type": "uint256"
        }
      ],
      "stateMutability": "nonpayable",
      "type": "function"
    },
    {
      "inputs": [
        {
          "internalType": "uint256",
          "name": "itemId",
          "type": "uint256"
        },
        {
          "internalType": "bool",
          "name": "isRewardItem",
          "type": "bool"
        }
      ],
      "name": "updateIsRewardItem",
      "outputs": [],
      "stateMutability": "nonpayable",
      "type": "function"
    }
  ],
  "bytecode": "0x60806040526509184e72a00060045534801561001a57600080fd5b50600160008190555033600360006101000a81548173ffffffffffffffffffffffffffffffffffffffff021916908373ffffffffffffffffffffffffffffffffffffffff160217905550613389806100736000396000f3fe6080604052600436106100c25760003560e01c806382260f351161007f578063ee6ba23411610059578063ee6ba2341461023d578063f064c32e14610268578063fca97fdb14610293578063fcfc1a76146102d0576100c2565b806382260f35146101c8578063e219fc7514610205578063e814ce7814610221576100c2565b80630f08efe0146100c757806312e85585146100f257806319a0782e1461011d578063351901c3146101465780634e66d34e146101625780637c726b691461018b575b600080fd5b3480156100d357600080fd5b506100dc610312565b6040516100e99190612c65565b60405180910390f35b3480156100fe57600080fd5b506101076106c4565b6040516101149190612d83565b60405180910390f35b34801561012957600080fd5b50610144600480360381019061013f9190612534565b6106ce565b005b610160600480360381019061015b919061250b565b61083b565b005b34801561016e57600080fd5b50610189600480360381019061018491906125c3565b610b67565b005b34801561019757600080fd5b506101b260048036038101906101ad919061250b565b610c29565b6040516101bf9190612d83565b60405180910390f35b3480156101d457600080fd5b506101ef60048036038101906101ea919061250b565b610c71565b6040516101fc9190612d67565b60405180910390f35b61021f600480360381019061021a91906125ff565b610eb7565b005b61023b600480360381019061023691906124a8565b611214565b005b34801561024957600080fd5b50610252611673565b60405161025f9190612c65565b60405180910390f35b34801561027457600080fd5b5061027d611aa9565b60405161028a9190612c65565b60405180910390f35b34801561029f57600080fd5b506102ba60048036038101906102b5919061250b565b611edf565b6040516102c79190612c43565b60405180910390f35b3480156102dc57600080fd5b506102f760048036038101906102f291906125ff565b6120ad565b60405161030996959493929190612d9e565b60405180910390f35b6060600061032060016121ce565b9050600061032e60026121ce565b61033860016121ce565b6103429190612f51565b90506000808267ffffffffffffffff811115610387577f4e487b7100000000000000000000000000000000000000000000000000000000600052604160045260246000fd5b6040519080825280602002602001820160405280156103c057816020015b6103ad6122a8565b8152602001906001900390816103a55790505b50905060005b848110156106b957600073ffffffffffffffffffffffffffffffffffffffff16600560006001846103f79190612efb565b815260200190815260200160002060040160009054906101000a900473ffffffffffffffffffffffffffffffffffffffff1673ffffffffffffffffffffffffffffffffffffffff1614156106a6576000600560006001846104589190612efb565b815260200190815260200160002060000154905060006005600083815260200190815260200160002090508060405180610160016040529081600082015481526020016001820160009054906101000a900473ffffffffffffffffffffffffffffffffffffffff1673ffffffffffffffffffffffffffffffffffffffff1673ffffffffffffffffffffffffffffffffffffffff168152602001600282015481526020016003820160009054906101000a900473ffffffffffffffffffffffffffffffffffffffff1673ffffffffffffffffffffffffffffffffffffffff1673ffffffffffffffffffffffffffffffffffffffff1681526020016004820160009054906101000a900473ffffffffffffffffffffffffffffffffffffffff1673ffffffffffffffffffffffffffffffffffffffff1673ffffffffffffffffffffffffffffffffffffffff1681526020016005820160009054906101000a900473ffffffffffffffffffffffffffffffffffffffff1673ffffffffffffffffffffffffffffffffffffffff1673ffffffffffffffffffffffffffffffffffffffff168152602001600682015481526020016007820160009054906101000a900460ff161515151581526020016007820160019054906101000a900460ff1615151515815260200160088201548152602001600982015481525050848681518110610689577f4e487b7100000000000000000000000000000000000000000000000000000000600052603260045260246000fd5b60200260200101819052506001856106a19190612efb565b945050505b80806106b190613096565b9150506103c6565b508094505050505090565b6000600454905090565b60006040518060c001604052808781526020018673ffffffffffffffffffffffffffffffffffffffff1681526020018573ffffffffffffffffffffffffffffffffffffffff168152602001848152602001838152602001428152509050600660008781526020019081526020016000208190806001815401808255809150506001900390600052602060002090600602016000909190919091506000820151816000015560208201518160010160006101000a81548173ffffffffffffffffffffffffffffffffffffffff021916908373ffffffffffffffffffffffffffffffffffffffff16021790555060408201518160020160006101000a81548173ffffffffffffffffffffffffffffffffffffffff021916908373ffffffffffffffffffffffffffffffffffffffff160217905550606082015181600301908051906020019061081c92919061235e565b506080820151816004015560a082015181600501555050505050505050565b600060056000838152602001908152602001600020600601549050336005600084815260200190815260200160002060040160006101000a81548173ffffffffffffffffffffffffffffffffffffffff021916908373ffffffffffffffffffffffffffffffffffffffff16021790555060006005600084815260200190815260200160002060030160006101000a81548173ffffffffffffffffffffffffffffffffffffffff021916908373ffffffffffffffffffffffffffffffffffffffff16021790555060016005600084815260200190815260200160002060070160006101000a81548160ff02191690831515021790555061093a60026121dc565b61097d826000336040518060400160405280600481526020017f53616c6500000000000000000000000000000000000000000000000000000000815250856106ce565b6005600083815260200190815260200160002060010160009054906101000a900473ffffffffffffffffffffffffffffffffffffffff1673ffffffffffffffffffffffffffffffffffffffff166323b872dd303360056000878152602001908152602001600020600201546040518463ffffffff1660e01b8152600401610a0693929190612be3565b600060405180830381600087803b158015610a2057600080fd5b505af1158015610a34573d6000803e3d6000fd5b50505050610a7b826000336040518060400160405280600881526020017f5472616e73666572000000000000000000000000000000000000000000000000815250856106ce565b600360009054906101000a900473ffffffffffffffffffffffffffffffffffffffff1673ffffffffffffffffffffffffffffffffffffffff166108fc6004549081150290604051600060405180830381858888f19350505050158015610ae5573d6000803e3d6000fd5b506005600083815260200190815260200160002060030160009054906101000a900473ffffffffffffffffffffffffffffffffffffffff1673ffffffffffffffffffffffffffffffffffffffff166108fc349081150290604051600060405180830381858888f19350505050158015610b62573d6000803e3d6000fd5b505050565b600360009054906101000a900473ffffffffffffffffffffffffffffffffffffffff1673ffffffffffffffffffffffffffffffffffffffff163373ffffffffffffffffffffffffffffffffffffffff1614610bf7576040517f08c379a0000000000000000000000000000000000000000000000000000000008152600401610bee90612ca7565b60405180910390fd5b806005600084815260200190815260200160002060070160016101000a81548160ff0219169083151502179055505050565b60003073ffffffffffffffffffffffffffffffffffffffff163373ffffffffffffffffffffffffffffffffffffffff161415610c6757816004819055505b6004549050919050565b610c796122a8565b600082118015610c925750610c8e60016121ce565b8211155b610cd1576040517f08c379a0000000000000000000000000000000000000000000000000000000008152600401610cc890612cc7565b60405180910390fd5b6005600083815260200190815260200160002060405180610160016040529081600082015481526020016001820160009054906101000a900473ffffffffffffffffffffffffffffffffffffffff1673ffffffffffffffffffffffffffffffffffffffff1673ffffffffffffffffffffffffffffffffffffffff168152602001600282015481526020016003820160009054906101000a900473ffffffffffffffffffffffffffffffffffffffff1673ffffffffffffffffffffffffffffffffffffffff1673ffffffffffffffffffffffffffffffffffffffff1681526020016004820160009054906101000a900473ffffffffffffffffffffffffffffffffffffffff1673ffffffffffffffffffffffffffffffffffffffff1673ffffffffffffffffffffffffffffffffffffffff1681526020016005820160009054906101000a900473ffffffffffffffffffffffffffffffffffffffff1673ffffffffffffffffffffffffffffffffffffffff1673ffffffffffffffffffffffffffffffffffffffff168152602001600682015481526020016007820160009054906101000a900460ff161515151581526020016007820160019054906101000a900460ff16151515158152602001600882015481526020016009820154815250509050919050565b3373ffffffffffffffffffffffffffffffffffffffff166005600084815260200190815260200160002060040160009054906101000a900473ffffffffffffffffffffffffffffffffffffffff1673ffffffffffffffffffffffffffffffffffffffff1614610f5b576040517f08c379a0000000000000000000000000000000000000000000000000000000008152600401610f5290612d07565b60405180910390fd5b60006005600084815260200190815260200160002060070160006101000a81548160ff021916908315150217905550806005600084815260200190815260200160002060060181905550336005600084815260200190815260200160002060030160006101000a81548173ffffffffffffffffffffffffffffffffffffffff021916908373ffffffffffffffffffffffffffffffffffffffff160217905550306005600084815260200190815260200160002060040160006101000a81548173ffffffffffffffffffffffffffffffffffffffff021916908373ffffffffffffffffffffffffffffffffffffffff16021790555061105960026121f2565b6005600083815260200190815260200160002060010160009054906101000a900473ffffffffffffffffffffffffffffffffffffffff1673ffffffffffffffffffffffffffffffffffffffff1663095ea7b33060056000868152602001908152602001600020600201546040518363ffffffff1660e01b81526004016110e0929190612c1a565b600060405180830381600087803b1580156110fa57600080fd5b505af115801561110e573d6000803e3d6000fd5b505050506005600083815260200190815260200160002060010160009054906101000a900473ffffffffffffffffffffffffffffffffffffffff1673ffffffffffffffffffffffffffffffffffffffff166323b872dd333060056000878152602001908152602001600020600201546040518463ffffffff1660e01b815260040161119b93929190612be3565b600060405180830381600087803b1580156111b557600080fd5b505af11580156111c9573d6000803e3d6000fd5b50505050611210826000336040518060400160405280600481526020017f4c69737400000000000000000000000000000000000000000000000000000000815250856106ce565b5050565b61121c61224e565b6000821161125f576040517f08c379a000000000000000000000000000000000000000000000000000000000815260040161125690612ce7565b60405180910390fd5b60045434146112a3576040517f08c379a000000000000000000000000000000000000000000000000000000000815260040161129a90612d27565b60405180910390fd5b6112ad60016121dc565b60006112b960016121ce565b90506040518061016001604052808281526020018673ffffffffffffffffffffffffffffffffffffffff1681526020018581526020013373ffffffffffffffffffffffffffffffffffffffff168152602001600073ffffffffffffffffffffffffffffffffffffffff1681526020013373ffffffffffffffffffffffffffffffffffffffff1681526020018481526020016000151581526020018315158152602001600081526020016000815250600560008381526020019081526020016000206000820151816000015560208201518160010160006101000a81548173ffffffffffffffffffffffffffffffffffffffff021916908373ffffffffffffffffffffffffffffffffffffffff1602179055506040820151816002015560608201518160030160006101000a81548173ffffffffffffffffffffffffffffffffffffffff021916908373ffffffffffffffffffffffffffffffffffffffff16021790555060808201518160040160006101000a81548173ffffffffffffffffffffffffffffffffffffffff021916908373ffffffffffffffffffffffffffffffffffffffff16021790555060a08201518160050160006101000a81548173ffffffffffffffffffffffffffffffffffffffff021916908373ffffffffffffffffffffffffffffffffffffffff16021790555060c0820151816006015560e08201518160070160006101000a81548160ff0219169083151502179055506101008201518160070160016101000a81548160ff02191690831515021790555061012082015181600801556101408201518160090155905050611551816000336040518060400160405280600481526020017f4d696e7400000000000000000000000000000000000000000000000000000000815250876106ce565b8473ffffffffffffffffffffffffffffffffffffffff166323b872dd3330876040518463ffffffff1660e01b815260040161158e93929190612be3565b600060405180830381600087803b1580156115a857600080fd5b505af11580156115bc573d6000803e3d6000fd5b50505050611603816000336040518060400160405280600481526020017f4c69737400000000000000000000000000000000000000000000000000000000815250876106ce565b838573ffffffffffffffffffffffffffffffffffffffff16827f1aa1e4870599a6e5a6de9a51776a6c7b45dfa68ab9d5c25eb3fcfbfabe1db1ce336000338960008a60008060405161165c989796959493929190612b65565b60405180910390a45061166d61229e565b50505050565b6060600061168160016121ce565b905060008060005b8381101561172a573373ffffffffffffffffffffffffffffffffffffffff16600560006001846116b99190612efb565b815260200190815260200160002060040160009054906101000a900473ffffffffffffffffffffffffffffffffffffffff1673ffffffffffffffffffffffffffffffffffffffff161415611717576001836117149190612efb565b92505b808061172290613096565b915050611689565b5060008267ffffffffffffffff81111561176d577f4e487b7100000000000000000000000000000000000000000000000000000000600052604160045260246000fd5b6040519080825280602002602001820160405280156117a657816020015b6117936122a8565b81526020019060019003908161178b5790505b50905060005b84811015611a9e573373ffffffffffffffffffffffffffffffffffffffff16600560006001846117dc9190612efb565b815260200190815260200160002060040160009054906101000a900473ffffffffffffffffffffffffffffffffffffffff1673ffffffffffffffffffffffffffffffffffffffff161415611a8b5760006005600060018461183d9190612efb565b815260200190815260200160002060000154905060006005600083815260200190815260200160002090508060405180610160016040529081600082015481526020016001820160009054906101000a900473ffffffffffffffffffffffffffffffffffffffff1673ffffffffffffffffffffffffffffffffffffffff1673ffffffffffffffffffffffffffffffffffffffff168152602001600282015481526020016003820160009054906101000a900473ffffffffffffffffffffffffffffffffffffffff1673ffffffffffffffffffffffffffffffffffffffff1673ffffffffffffffffffffffffffffffffffffffff1681526020016004820160009054906101000a900473ffffffffffffffffffffffffffffffffffffffff1673ffffffffffffffffffffffffffffffffffffffff1673ffffffffffffffffffffffffffffffffffffffff1681526020016005820160009054906101000a900473ffffffffffffffffffffffffffffffffffffffff1673ffffffffffffffffffffffffffffffffffffffff1673ffffffffffffffffffffffffffffffffffffffff168152602001600682015481526020016007820160009054906101000a900460ff161515151581526020016007820160019054906101000a900460ff1615151515815260200160088201548152602001600982015481525050848681518110611a6e577f4e487b7100000000000000000000000000000000000000000000000000000000600052603260045260246000fd5b6020026020010181905250600185611a869190612efb565b945050505b8080611a9690613096565b9150506117ac565b508094505050505090565b60606000611ab760016121ce565b905060008060005b83811015611b60573373ffffffffffffffffffffffffffffffffffffffff1660056000600184611aef9190612efb565b815260200190815260200160002060030160009054906101000a900473ffffffffffffffffffffffffffffffffffffffff1673ffffffffffffffffffffffffffffffffffffffff161415611b4d57600183611b4a9190612efb565b92505b8080611b5890613096565b915050611abf565b5060008267ffffffffffffffff811115611ba3577f4e487b7100000000000000000000000000000000000000000000000000000000600052604160045260246000fd5b604051908082528060200260200182016040528015611bdc57816020015b611bc96122a8565b815260200190600190039081611bc15790505b50905060005b84811015611ed4573373ffffffffffffffffffffffffffffffffffffffff1660056000600184611c129190612efb565b815260200190815260200160002060030160009054906101000a900473ffffffffffffffffffffffffffffffffffffffff1673ffffffffffffffffffffffffffffffffffffffff161415611ec157600060056000600184611c739190612efb565b815260200190815260200160002060000154905060006005600083815260200190815260200160002090508060405180610160016040529081600082015481526020016001820160009054906101000a900473ffffffffffffffffffffffffffffffffffffffff1673ffffffffffffffffffffffffffffffffffffffff1673ffffffffffffffffffffffffffffffffffffffff168152602001600282015481526020016003820160009054906101000a900473ffffffffffffffffffffffffffffffffffffffff1673ffffffffffffffffffffffffffffffffffffffff1673ffffffffffffffffffffffffffffffffffffffff1681526020016004820160009054906101000a900473ffffffffffffffffffffffffffffffffffffffff1673ffffffffffffffffffffffffffffffffffffffff1673ffffffffffffffffffffffffffffffffffffffff1681526020016005820160009054906101000a900473ffffffffffffffffffffffffffffffffffffffff1673ffffffffffffffffffffffffffffffffffffffff1673ffffffffffffffffffffffffffffffffffffffff168152602001600682015481526020016007820160009054906101000a900460ff161515151581526020016007820160019054906101000a900460ff1615151515815260200160088201548152602001600982015481525050848681518110611ea4577f4e487b7100000000000000000000000000000000000000000000000000000000600052603260045260246000fd5b6020026020010181905250600185611ebc9190612efb565b945050505b8080611ecc90613096565b915050611be2565b508094505050505090565b606060066000838152602001908152602001600020805480602002602001604051908101604052809291908181526020016000905b828210156120a257838290600052602060002090600602016040518060c0016040529081600082015481526020016001820160009054906101000a900473ffffffffffffffffffffffffffffffffffffffff1673ffffffffffffffffffffffffffffffffffffffff1673ffffffffffffffffffffffffffffffffffffffff1681526020016002820160009054906101000a900473ffffffffffffffffffffffffffffffffffffffff1673ffffffffffffffffffffffffffffffffffffffff1673ffffffffffffffffffffffffffffffffffffffff168152602001600382018054611ffd90613033565b80601f016020809104026020016040519081016040528092919081815260200182805461202990613033565b80156120765780601f1061204b57610100808354040283529160200191612076565b820191906000526020600020905b81548152906001019060200180831161205957829003601f168201915b505050505081526020016004820154815260200160058201548152505081526020019060010190611f14565b505050509050919050565b600660205281600052604060002081815481106120c957600080fd5b9060005260206000209060060201600091509150508060000154908060010160009054906101000a900473ffffffffffffffffffffffffffffffffffffffff16908060020160009054906101000a900473ffffffffffffffffffffffffffffffffffffffff169080600301805461213f90613033565b80601f016020809104026020016040519081016040528092919081815260200182805461216b90613033565b80156121b85780601f1061218d576101008083540402835291602001916121b8565b820191906000526020600020905b81548152906001019060200180831161219b57829003601f168201915b5050505050908060040154908060050154905086565b600081600001549050919050565b6001816000016000828254019250508190555050565b6000816000015490506000811161223e576040517f08c379a000000000000000000000000000000000000000000000000000000000815260040161223590612c87565b60405180910390fd5b6001810382600001819055505050565b60026000541415612294576040517f08c379a000000000000000000000000000000000000000000000000000000000815260040161228b90612d47565b60405180910390fd5b6002600081905550565b6001600081905550565b60405180610160016040528060008152602001600073ffffffffffffffffffffffffffffffffffffffff16815260200160008152602001600073ffffffffffffffffffffffffffffffffffffffff168152602001600073ffffffffffffffffffffffffffffffffffffffff168152602001600073ffffffffffffffffffffffffffffffffffffffff1681526020016000815260200160001515815260200160001515815260200160008152602001600081525090565b82805461236a90613033565b90600052602060002090601f01602090048101928261238c57600085556123d3565b82601f106123a557805160ff19168380011785556123d3565b828001600101855582156123d3579182015b828111156123d25782518255916020019190600101906123b7565b5b5090506123e091906123e4565b5090565b5b808211156123fd5760008160009055506001016123e5565b5090565b600061241461240f84612e2b565b612e06565b90508281526020810184848401111561242c57600080fd5b612437848285612ff1565b509392505050565b60008135905061244e8161330e565b92915050565b60008135905061246381613325565b92915050565b600082601f83011261247a57600080fd5b813561248a848260208601612401565b91505092915050565b6000813590506124a28161333c565b92915050565b600080600080608085870312156124be57600080fd5b60006124cc8782880161243f565b94505060206124dd87828801612493565b93505060406124ee87828801612493565b92505060606124ff87828801612454565b91505092959194509250565b60006020828403121561251d57600080fd5b600061252b84828501612493565b91505092915050565b600080600080600060a0868803121561254c57600080fd5b600061255a88828901612493565b955050602061256b8882890161243f565b945050604061257c8882890161243f565b935050606086013567ffffffffffffffff81111561259957600080fd5b6125a588828901612469565b92505060806125b688828901612493565b9150509295509295909350565b600080604083850312156125d657600080fd5b60006125e485828601612493565b92505060206125f585828601612454565b9150509250929050565b6000806040838503121561261257600080fd5b600061262085828601612493565b925050602061263185828601612493565b9150509250929050565b600061264783836128fc565b905092915050565b600061265b8383612985565b6101608301905092915050565b61267181612f97565b82525050565b61268081612f85565b82525050565b61268f81612f85565b82525050565b60006126a082612e7c565b6126aa8185612eb7565b9350836020820285016126bc85612e5c565b8060005b858110156126f857848403895281516126d9858261263b565b94506126e483612e9d565b925060208a019950506001810190506126c0565b50829750879550505050505092915050565b600061271582612e87565b61271f8185612ec8565b935061272a83612e6c565b8060005b8381101561275b578151612742888261264f565b975061274d83612eaa565b92505060018101905061272e565b5085935050505092915050565b61277181612fa9565b82525050565b61278081612fa9565b82525050565b61278f81612fdf565b82525050565b60006127a082612e92565b6127aa8185612ed9565b93506127ba818560208601613000565b6127c38161316c565b840191505092915050565b60006127d982612e92565b6127e38185612eea565b93506127f3818560208601613000565b6127fc8161316c565b840191505092915050565b6000612814601b83612eea565b915061281f8261317d565b602082019050919050565b6000612837602683612eea565b9150612842826131a6565b604082019050919050565b600061285a600f83612eea565b9150612865826131f5565b602082019050919050565b600061287d601883612eea565b91506128888261321e565b602082019050919050565b60006128a0602a83612eea565b91506128ab82613247565b604082019050919050565b60006128c3602483612eea565b91506128ce82613296565b604082019050919050565b60006128e6601f83612eea565b91506128f1826132e5565b602082019050919050565b600060c0830160008301516129146000860182612b47565b5060208301516129276020860182612677565b50604083015161293a6040860182612677565b50606083015184820360608601526129528282612795565b91505060808301516129676080860182612b47565b5060a083015161297a60a0860182612b47565b508091505092915050565b6101608201600082015161299c6000850182612b47565b5060208201516129af6020850182612677565b5060408201516129c26040850182612b47565b5060608201516129d56060850182612668565b5060808201516129e86080850182612668565b5060a08201516129fb60a0850182612668565b5060c0820151612a0e60c0850182612b47565b5060e0820151612a2160e0850182612768565b50610100820151612a36610100850182612768565b50610120820151612a4b610120850182612b47565b50610140820151612a60610140850182612b47565b50505050565b61016082016000820151612a7d6000850182612b47565b506020820151612a906020850182612677565b506040820151612aa36040850182612b47565b506060820151612ab66060850182612668565b506080820151612ac96080850182612668565b5060a0820151612adc60a0850182612668565b5060c0820151612aef60c0850182612b47565b5060e0820151612b0260e0850182612768565b50610100820151612b17610100850182612768565b50610120820151612b2c610120850182612b47565b50610140820151612b41610140850182612b47565b50505050565b612b5081612fd5565b82525050565b612b5f81612fd5565b82525050565b600061010082019050612b7b600083018b612686565b612b88602083018a612686565b612b956040830189612686565b612ba26060830188612b56565b612baf6080830187612777565b612bbc60a0830186612777565b612bc960c0830185612786565b612bd660e0830184612786565b9998505050505050505050565b6000606082019050612bf86000830186612686565b612c056020830185612686565b612c126040830184612b56565b949350505050565b6000604082019050612c2f6000830185612686565b612c3c6020830184612b56565b9392505050565b60006020820190508181036000830152612c5d8184612695565b905092915050565b60006020820190508181036000830152612c7f818461270a565b905092915050565b60006020820190508181036000830152612ca081612807565b9050919050565b60006020820190508181036000830152612cc08161282a565b9050919050565b60006020820190508181036000830152612ce08161284d565b9050919050565b60006020820190508181036000830152612d0081612870565b9050919050565b60006020820190508181036000830152612d2081612893565b9050919050565b60006020820190508181036000830152612d40816128b6565b9050919050565b60006020820190508181036000830152612d60816128d9565b9050919050565b600061016082019050612d7d6000830184612a66565b92915050565b6000602082019050612d986000830184612b56565b92915050565b600060c082019050612db36000830189612b56565b612dc06020830188612686565b612dcd6040830187612686565b8181036060830152612ddf81866127ce565b9050612dee6080830185612b56565b612dfb60a0830184612b56565b979650505050505050565b6000612e10612e21565b9050612e1c8282613065565b919050565b6000604051905090565b600067ffffffffffffffff821115612e4657612e4561313d565b5b612e4f8261316c565b9050602081019050919050565b6000819050602082019050919050565b6000819050602082019050919050565b600081519050919050565b600081519050919050565b600081519050919050565b6000602082019050919050565b6000602082019050919050565b600082825260208201905092915050565b600082825260208201905092915050565b600082825260208201905092915050565b600082825260208201905092915050565b6000612f0682612fd5565b9150612f1183612fd5565b9250827fffffffffffffffffffffffffffffffffffffffffffffffffffffffffffffffff03821115612f4657612f456130df565b5b828201905092915050565b6000612f5c82612fd5565b9150612f6783612fd5565b925082821015612f7a57612f796130df565b5b828203905092915050565b6000612f9082612fb5565b9050919050565b6000612fa282612fb5565b9050919050565b60008115159050919050565b600073ffffffffffffffffffffffffffffffffffffffff82169050919050565b6000819050919050565b6000612fea82612fd5565b9050919050565b82818337600083830152505050565b60005b8381101561301e578082015181840152602081019050613003565b8381111561302d576000848401525b50505050565b6000600282049050600182168061304b57607f821691505b6020821081141561305f5761305e61310e565b5b50919050565b61306e8261316c565b810181811067ffffffffffffffff8211171561308d5761308c61313d565b5b80604052505050565b60006130a182612fd5565b91507fffffffffffffffffffffffffffffffffffffffffffffffffffffffffffffffff8214156130d4576130d36130df565b5b600182019050919050565b7f4e487b7100000000000000000000000000000000000000000000000000000000600052601160045260246000fd5b7f4e487b7100000000000000000000000000000000000000000000000000000000600052602260045260246000fd5b7f4e487b7100000000000000000000000000000000000000000000000000000000600052604160045260246000fd5b6000601f19601f8301169050919050565b7f436f756e7465723a2064656372656d656e74206f766572666c6f770000000000600082015250565b7f4f6e6c7920746865206f776e65722063616e207570646174652069735265776160008201527f72644974656d0000000000000000000000000000000000000000000000000000602082015250565b7f496e76616c6964204974656d2049440000000000000000000000000000000000600082015250565b7f5072696365206d7573742062652061626f7665207a65726f0000000000000000600082015250565b7f4f6e6c79206974656d206f776e65722063616e20706572666f726d207468697360008201527f206f7065726174696f6e00000000000000000000000000000000000000000000602082015250565b7f5072696365206d75737420626520657175616c20746f206c697374696e67207060008201527f7269636500000000000000000000000000000000000000000000000000000000602082015250565b7f5265656e7472616e637947756172643a207265656e7472616e742063616c6c00600082015250565b61331781612f85565b811461332257600080fd5b50565b61332e81612fa9565b811461333957600080fd5b50565b61334581612fd5565b811461335057600080fd5b5056fea2646970667358221220cef857e20468968a8e67d1516f066003b6b90c66edb89ea7361b8cef5c6e755a64736f6c63430008040033",
  "linkReferences": {},
  "deployedLinkReferences": {}
}