{
  "_format": "hh-sol-artifact-1",
  "contractName": "Marketplace",
  "sourceName": "contracts/Marketplace.sol",
  "abi": [
    {
      "inputs": [],
      "stateMutability": "nonpayable",
      "type": "constructor"
    },
    {
      "anonymous": false,
      "inputs": [
        {
          "indexed": true,
          "internalType": "address",
          "name": "owner",
          "type": "address"
        },
        {
          "indexed": true,
          "internalType": "address",
          "name": "approved",
          "type": "address"
        },
        {
          "indexed": true,
          "internalType": "uint256",
          "name": "tokenId",
          "type": "uint256"
        }
      ],
      "name": "Approval",
      "type": "event"
    },
    {
      "anonymous": false,
      "inputs": [
        {
          "indexed": true,
          "internalType": "address",
          "name": "owner",
          "type": "address"
        },
        {
          "indexed": true,
          "internalType": "address",
          "name": "operator",
          "type": "address"
        },
        {
          "indexed": false,
          "internalType": "bool",
          "name": "approved",
          "type": "bool"
        }
      ],
      "name": "ApprovalForAll",
      "type": "event"
    },
    {
      "anonymous": false,
      "inputs": [
        {
          "indexed": false,
          "internalType": "uint256",
          "name": "_fromTokenId",
          "type": "uint256"
        },
        {
          "indexed": false,
          "internalType": "uint256",
          "name": "_toTokenId",
          "type": "uint256"
        }
      ],
      "name": "BatchMetadataUpdate",
      "type": "event"
    },
    {
      "anonymous": false,
      "inputs": [
        {
          "indexed": true,
          "internalType": "uint256",
          "name": "itemId",
          "type": "uint256"
        },
        {
          "indexed": false,
          "internalType": "address",
          "name": "seller",
          "type": "address"
        },
        {
          "indexed": false,
          "internalType": "address",
          "name": "owner",
          "type": "address"
        },
        {
          "indexed": false,
          "internalType": "address",
          "name": "creator",
          "type": "address"
        },
        {
          "indexed": false,
          "internalType": "uint256",
          "name": "price",
          "type": "uint256"
        },
        {
          "indexed": false,
          "internalType": "bool",
          "name": "sold",
          "type": "bool"
        },
        {
          "indexed": false,
          "internalType": "bool",
          "name": "isRewardItem",
          "type": "bool"
        },
        {
          "indexed": false,
          "internalType": "uint256",
          "name": "likes",
          "type": "uint256"
        },
        {
          "indexed": false,
          "internalType": "uint256",
          "name": "views",
          "type": "uint256"
        },
        {
          "indexed": false,
          "internalType": "bool",
          "name": "isListed",
          "type": "bool"
        }
      ],
      "name": "MarketItemCreated",
      "type": "event"
    },
    {
      "anonymous": false,
      "inputs": [
        {
          "indexed": false,
          "internalType": "uint256",
          "name": "_tokenId",
          "type": "uint256"
        }
      ],
      "name": "MetadataUpdate",
      "type": "event"
    },
    {
      "anonymous": false,
      "inputs": [
        {
          "indexed": true,
          "internalType": "address",
          "name": "from",
          "type": "address"
        },
        {
          "indexed": true,
          "internalType": "address",
          "name": "to",
          "type": "address"
        },
        {
          "indexed": true,
          "internalType": "uint256",
          "name": "tokenId",
          "type": "uint256"
        }
      ],
      "name": "Transfer",
      "type": "event"
    },
    {
      "inputs": [
        {
          "internalType": "uint256",
          "name": "",
          "type": "uint256"
        },
        {
          "internalType": "uint256",
          "name": "",
          "type": "uint256"
        }
      ],
      "name": "activities",
      "outputs": [
        {
          "internalType": "uint256",
          "name": "itemId",
          "type": "uint256"
        },
        {
          "internalType": "address",
          "name": "from",
          "type": "address"
        },
        {
          "internalType": "address",
          "name": "to",
          "type": "address"
        },
        {
          "internalType": "string",
          "name": "eventType",
          "type": "string"
        },
        {
          "internalType": "uint256",
          "name": "price",
          "type": "uint256"
        },
        {
          "internalType": "uint256",
          "name": "timestamp",
          "type": "uint256"
        }
      ],
      "stateMutability": "view",
      "type": "function"
    },
    {
      "inputs": [
        {
          "internalType": "uint256",
          "name": "tokenId",
          "type": "uint256"
        },
        {
          "internalType": "address",
          "name": "from",
          "type": "address"
        },
        {
          "internalType": "address",
          "name": "to",
          "type": "address"
        },
        {
          "internalType": "string",
          "name": "eventType",
          "type": "string"
        },
        {
          "internalType": "uint256",
          "name": "price",
          "type": "uint256"
        }
      ],
      "name": "addActivity",
      "outputs": [],
      "stateMutability": "nonpayable",
      "type": "function"
    },
    {
      "inputs": [
        {
          "internalType": "address",
          "name": "to",
          "type": "address"
        },
        {
          "internalType": "uint256",
          "name": "tokenId",
          "type": "uint256"
        }
      ],
      "name": "approve",
      "outputs": [],
      "stateMutability": "nonpayable",
      "type": "function"
    },
    {
      "inputs": [
        {
          "internalType": "address",
          "name": "owner",
          "type": "address"
        }
      ],
      "name": "balanceOf",
      "outputs": [
        {
          "internalType": "uint256",
          "name": "",
          "type": "uint256"
        }
      ],
      "stateMutability": "view",
      "type": "function"
    },
    {
      "inputs": [
        {
          "internalType": "uint256",
          "name": "tokenId",
          "type": "uint256"
        }
      ],
      "name": "buyMarketItem",
      "outputs": [],
      "stateMutability": "payable",
      "type": "function"
    },
    {
      "inputs": [
        {
          "internalType": "string",
          "name": "tokenURI",
          "type": "string"
        },
        {
          "internalType": "uint256",
          "name": "price",
          "type": "uint256"
        }
      ],
      "name": "createToken",
      "outputs": [
        {
          "internalType": "uint256",
          "name": "",
          "type": "uint256"
        }
      ],
      "stateMutability": "payable",
      "type": "function"
    },
    {
      "inputs": [],
      "name": "fetchItemsCreated",
      "outputs": [
        {
          "components": [
            {
              "internalType": "uint256",
              "name": "itemId",
              "type": "uint256"
            },
            {
              "internalType": "address payable",
              "name": "seller",
              "type": "address"
            },
            {
              "internalType": "address payable",
              "name": "owner",
              "type": "address"
            },
            {
              "internalType": "address payable",
              "name": "creator",
              "type": "address"
            },
            {
              "internalType": "uint256",
              "name": "price",
              "type": "uint256"
            },
            {
              "internalType": "bool",
              "name": "sold",
              "type": "bool"
            },
            {
              "internalType": "bool",
              "name": "isRewardItem",
              "type": "bool"
            },
            {
              "internalType": "uint256",
              "name": "likes",
              "type": "uint256"
            },
            {
              "internalType": "uint256",
              "name": "views",
              "type": "uint256"
            },
            {
              "internalType": "bool",
              "name": "isListed",
              "type": "bool"
            }
          ],
          "internalType": "struct Marketplace.MarketItem[]",
          "name": "",
          "type": "tuple[]"
        }
      ],
      "stateMutability": "view",
      "type": "function"
    },
    {
      "inputs": [],
      "name": "fetchMarketItems",
      "outputs": [
        {
          "components": [
            {
              "internalType": "uint256",
              "name": "itemId",
              "type": "uint256"
            },
            {
              "internalType": "address payable",
              "name": "seller",
              "type": "address"
            },
            {
              "internalType": "address payable",
              "name": "owner",
              "type": "address"
            },
            {
              "internalType": "address payable",
              "name": "creator",
              "type": "address"
            },
            {
              "internalType": "uint256",
              "name": "price",
              "type": "uint256"
            },
            {
              "internalType": "bool",
              "name": "sold",
              "type": "bool"
            },
            {
              "internalType": "bool",
              "name": "isRewardItem",
              "type": "bool"
            },
            {
              "internalType": "uint256",
              "name": "likes",
              "type": "uint256"
            },
            {
              "internalType": "uint256",
              "name": "views",
              "type": "uint256"
            },
            {
              "internalType": "bool",
              "name": "isListed",
              "type": "bool"
            }
          ],
          "internalType": "struct Marketplace.MarketItem[]",
          "name": "",
          "type": "tuple[]"
        }
      ],
      "stateMutability": "view",
      "type": "function"
    },
    {
      "inputs": [],
      "name": "fetchPurchasedNFTs",
      "outputs": [
        {
          "components": [
            {
              "internalType": "uint256",
              "name": "itemId",
              "type": "uint256"
            },
            {
              "internalType": "address payable",
              "name": "seller",
              "type": "address"
            },
            {
              "internalType": "address payable",
              "name": "owner",
              "type": "address"
            },
            {
              "internalType": "address payable",
              "name": "creator",
              "type": "address"
            },
            {
              "internalType": "uint256",
              "name": "price",
              "type": "uint256"
            },
            {
              "internalType": "bool",
              "name": "sold",
              "type": "bool"
            },
            {
              "internalType": "bool",
              "name": "isRewardItem",
              "type": "bool"
            },
            {
              "internalType": "uint256",
              "name": "likes",
              "type": "uint256"
            },
            {
              "internalType": "uint256",
              "name": "views",
              "type": "uint256"
            },
            {
              "internalType": "bool",
              "name": "isListed",
              "type": "bool"
            }
          ],
          "internalType": "struct Marketplace.MarketItem[]",
          "name": "",
          "type": "tuple[]"
        }
      ],
      "stateMutability": "view",
      "type": "function"
    },
    {
      "inputs": [
        {
          "internalType": "uint256",
          "name": "tokenId",
          "type": "uint256"
        }
      ],
      "name": "getActivities",
      "outputs": [
        {
          "components": [
            {
              "internalType": "uint256",
              "name": "itemId",
              "type": "uint256"
            },
            {
              "internalType": "address",
              "name": "from",
              "type": "address"
            },
            {
              "internalType": "address",
              "name": "to",
              "type": "address"
            },
            {
              "internalType": "string",
              "name": "eventType",
              "type": "string"
            },
            {
              "internalType": "uint256",
              "name": "price",
              "type": "uint256"
            },
            {
              "internalType": "uint256",
              "name": "timestamp",
              "type": "uint256"
            }
          ],
          "internalType": "struct Marketplace.Activity[]",
          "name": "",
          "type": "tuple[]"
        }
      ],
      "stateMutability": "view",
      "type": "function"
    },
    {
      "inputs": [
        {
          "internalType": "uint256",
          "name": "tokenId",
          "type": "uint256"
        }
      ],
      "name": "getApproved",
      "outputs": [
        {
          "internalType": "address",
          "name": "",
          "type": "address"
        }
      ],
      "stateMutability": "view",
      "type": "function"
    },
    {
      "inputs": [],
      "name": "getListingPrice",
      "outputs": [
        {
          "internalType": "uint256",
          "name": "",
          "type": "uint256"
        }
      ],
      "stateMutability": "view",
      "type": "function"
    },
    {
      "inputs": [
        {
          "internalType": "uint256",
          "name": "itemId",
          "type": "uint256"
        }
      ],
      "name": "getNFTDetails",
      "outputs": [
        {
          "components": [
            {
              "internalType": "uint256",
              "name": "itemId",
              "type": "uint256"
            },
            {
              "internalType": "address payable",
              "name": "seller",
              "type": "address"
            },
            {
              "internalType": "address payable",
              "name": "owner",
              "type": "address"
            },
            {
              "internalType": "address payable",
              "name": "creator",
              "type": "address"
            },
            {
              "internalType": "uint256",
              "name": "price",
              "type": "uint256"
            },
            {
              "internalType": "bool",
              "name": "sold",
              "type": "bool"
            },
            {
              "internalType": "bool",
              "name": "isRewardItem",
              "type": "bool"
            },
            {
              "internalType": "uint256",
              "name": "likes",
              "type": "uint256"
            },
            {
              "internalType": "uint256",
              "name": "views",
              "type": "uint256"
            },
            {
              "internalType": "bool",
              "name": "isListed",
              "type": "bool"
            }
          ],
          "internalType": "struct Marketplace.MarketItem",
          "name": "",
          "type": "tuple"
        }
      ],
      "stateMutability": "view",
      "type": "function"
    },
    {
      "inputs": [
        {
          "internalType": "address",
          "name": "owner",
          "type": "address"
        },
        {
          "internalType": "address",
          "name": "operator",
          "type": "address"
        }
      ],
      "name": "isApprovedForAll",
      "outputs": [
        {
          "internalType": "bool",
          "name": "",
          "type": "bool"
        }
      ],
      "stateMutability": "view",
      "type": "function"
    },
    {
      "inputs": [],
      "name": "name",
      "outputs": [
        {
          "internalType": "string",
          "name": "",
          "type": "string"
        }
      ],
      "stateMutability": "view",
      "type": "function"
    },
    {
      "inputs": [
        {
          "internalType": "uint256",
          "name": "tokenId",
          "type": "uint256"
        }
      ],
      "name": "ownerOf",
      "outputs": [
        {
          "internalType": "address",
          "name": "",
          "type": "address"
        }
      ],
      "stateMutability": "view",
      "type": "function"
    },
    {
      "inputs": [
        {
          "internalType": "uint256",
          "name": "tokenId",
          "type": "uint256"
        },
        {
          "internalType": "uint256",
          "name": "price",
          "type": "uint256"
        }
      ],
      "name": "resellToken",
      "outputs": [],
      "stateMutability": "payable",
      "type": "function"
    },
    {
      "inputs": [
        {
          "internalType": "address",
          "name": "from",
          "type": "address"
        },
        {
          "internalType": "address",
          "name": "to",
          "type": "address"
        },
        {
          "internalType": "uint256",
          "name": "tokenId",
          "type": "uint256"
        }
      ],
      "name": "safeTransferFrom",
      "outputs": [],
      "stateMutability": "nonpayable",
      "type": "function"
    },
    {
      "inputs": [
        {
          "internalType": "address",
          "name": "from",
          "type": "address"
        },
        {
          "internalType": "address",
          "name": "to",
          "type": "address"
        },
        {
          "internalType": "uint256",
          "name": "tokenId",
          "type": "uint256"
        },
        {
          "internalType": "bytes",
          "name": "data",
          "type": "bytes"
        }
      ],
      "name": "safeTransferFrom",
      "outputs": [],
      "stateMutability": "nonpayable",
      "type": "function"
    },
    {
      "inputs": [
        {
          "internalType": "address",
          "name": "operator",
          "type": "address"
        },
        {
          "internalType": "bool",
          "name": "approved",
          "type": "bool"
        }
      ],
      "name": "setApprovalForAll",
      "outputs": [],
      "stateMutability": "nonpayable",
      "type": "function"
    },
    {
      "inputs": [
        {
          "internalType": "bytes4",
          "name": "interfaceId",
          "type": "bytes4"
        }
      ],
      "name": "supportsInterface",
      "outputs": [
        {
          "internalType": "bool",
          "name": "",
          "type": "bool"
        }
      ],
      "stateMutability": "view",
      "type": "function"
    },
    {
      "inputs": [],
      "name": "symbol",
      "outputs": [
        {
          "internalType": "string",
          "name": "",
          "type": "string"
        }
      ],
      "stateMutability": "view",
      "type": "function"
    },
    {
      "inputs": [
        {
          "internalType": "uint256",
          "name": "tokenId",
          "type": "uint256"
        }
      ],
      "name": "tokenURI",
      "outputs": [
        {
          "internalType": "string",
          "name": "",
          "type": "string"
        }
      ],
      "stateMutability": "view",
      "type": "function"
    },
    {
      "inputs": [
        {
          "internalType": "address",
          "name": "from",
          "type": "address"
        },
        {
          "internalType": "address",
          "name": "to",
          "type": "address"
        },
        {
          "internalType": "uint256",
          "name": "tokenId",
          "type": "uint256"
        }
      ],
      "name": "transferFrom",
      "outputs": [],
      "stateMutability": "nonpayable",
      "type": "function"
    },
    {
      "inputs": [
        {
          "internalType": "uint256",
          "name": "itemId",
          "type": "uint256"
        },
        {
          "internalType": "bool",
          "name": "isRewardItem",
          "type": "bool"
        }
      ],
      "name": "updateIsRewardItem",
      "outputs": [],
      "stateMutability": "nonpayable",
      "type": "function"
    },
    {
      "inputs": [
        {
          "internalType": "uint256",
          "name": "_price",
          "type": "uint256"
        }
      ],
      "name": "updateListingPrice",
      "outputs": [],
      "stateMutability": "payable",
      "type": "function"
    }
  ],
  "bytecode": "0x60806040526509184e72a000600b553480156200001b57600080fd5b506040518060400160405280601581526020017f4e666c75656e6365722d4d61726b6574706c61636500000000000000000000008152506040518060400160405280600481526020017f4e464d50000000000000000000000000000000000000000000000000000000008152508160009080519060200190620000a09291906200010b565b508060019080519060200190620000b99291906200010b565b505050600160078190555033600a60006101000a81548173ffffffffffffffffffffffffffffffffffffffff021916908373ffffffffffffffffffffffffffffffffffffffff16021790555062000220565b8280546200011990620001bb565b90600052602060002090601f0160209004810192826200013d576000855562000189565b82601f106200015857805160ff191683800117855562000189565b8280016001018555821562000189579182015b82811115620001885782518255916020019190600101906200016b565b5b5090506200019891906200019c565b5090565b5b80821115620001b75760008160009055506001016200019d565b5090565b60006002820490506001821680620001d457607f821691505b60208210811415620001eb57620001ea620001f1565b5b50919050565b7f4e487b7100000000000000000000000000000000000000000000000000000000600052602260045260246000fd5b61539c80620002306000396000f3fe6080604052600436106101815760003560e01c806372b3b620116100d1578063c87b56dd1161008a578063ee6ba23411610064578063ee6ba23414610580578063f064c32e146105ab578063fca97fdb146105d6578063fcfc1a761461061357610181565b8063c87b56dd146104ea578063e219fc7514610527578063e985e9c51461054357610181565b806372b3b620146103e457806382260f351461041457806395d89b4114610451578063a22cb4651461047c578063ae677aa3146104a5578063b88d4fde146104c157610181565b806319a0782e1161013e57806342842e0e1161011857806342842e0e146103185780634e66d34e146103415780636352211e1461036a57806370a08231146103a757610181565b806319a0782e146102aa57806323b872dd146102d3578063351901c3146102fc57610181565b806301ffc9a71461018657806306fdde03146101c3578063081812fc146101ee578063095ea7b31461022b5780630f08efe01461025457806312e855851461027f575b600080fd5b34801561019257600080fd5b506101ad60048036038101906101a89190613d52565b610655565b6040516101ba919061476f565b60405180910390f35b3480156101cf57600080fd5b506101d86106b6565b6040516101e5919061478a565b60405180910390f35b3480156101fa57600080fd5b5061021560048036038101906102109190613df8565b610748565b6040516102229190614637565b60405180910390f35b34801561023757600080fd5b50610252600480360381019061024d9190613d16565b61078e565b005b34801561026057600080fd5b506102696108a6565b604051610276919061474d565b60405180910390f35b34801561028b57600080fd5b50610294610bfc565b6040516102a19190614a08565b60405180910390f35b3480156102b657600080fd5b506102d160048036038101906102cc9190613e21565b610c06565b005b3480156102df57600080fd5b506102fa60048036038101906102f59190613c10565b610d73565b005b61031660048036038101906103119190613df8565b610dd3565b005b34801561032457600080fd5b5061033f600480360381019061033a9190613c10565b611084565b005b34801561034d57600080fd5b5061036860048036038101906103639190613eb0565b6110a4565b005b34801561037657600080fd5b50610391600480360381019061038c9190613df8565b611166565b60405161039e9190614637565b60405180910390f35b3480156103b357600080fd5b506103ce60048036038101906103c99190613bab565b6111ed565b6040516103db9190614a08565b60405180910390f35b6103fe60048036038101906103f99190613da4565b6112a5565b60405161040b9190614a08565b60405180910390f35b34801561042057600080fd5b5061043b60048036038101906104369190613df8565b6112e7565b60405161044891906149ec565b60405180910390f35b34801561045d57600080fd5b506104666114e8565b604051610473919061478a565b60405180910390f35b34801561048857600080fd5b506104a3600480360381019061049e9190613cda565b61157a565b005b6104bf60048036038101906104ba9190613df8565b611590565b005b3480156104cd57600080fd5b506104e860048036038101906104e39190613c5f565b61159a565b005b3480156104f657600080fd5b50610511600480360381019061050c9190613df8565b6115fc565b60405161051e919061478a565b60405180910390f35b610541600480360381019061053c9190613eec565b61170f565b005b34801561054f57600080fd5b5061056a60048036038101906105659190613bd4565b611975565b604051610577919061476f565b60405180910390f35b34801561058c57600080fd5b50610595611a09565b6040516105a2919061474d565b60405180910390f35b3480156105b757600080fd5b506105c0611de4565b6040516105cd919061474d565b60405180910390f35b3480156105e257600080fd5b506105fd60048036038101906105f89190613df8565b6121bf565b60405161060a919061472b565b60405180910390f35b34801561061f57600080fd5b5061063a60048036038101906106359190613eec565b61238d565b60405161064c96959493929190614a23565b60405180910390f35b6000634906490660e01b7bffffffffffffffffffffffffffffffffffffffffffffffffffffffff1916827bffffffffffffffffffffffffffffffffffffffffffffffffffffffff191614806106af57506106ae826124ae565b5b9050919050565b6060600080546106c590614d3c565b80601f01602080910402602001604051908101604052809291908181526020018280546106f190614d3c565b801561073e5780601f106107135761010080835404028352916020019161073e565b820191906000526020600020905b81548152906001019060200180831161072157829003601f168201915b5050505050905090565b600061075382612590565b6004600083815260200190815260200160002060009054906101000a900473ffffffffffffffffffffffffffffffffffffffff169050919050565b600061079982611166565b90508073ffffffffffffffffffffffffffffffffffffffff168373ffffffffffffffffffffffffffffffffffffffff16141561080a576040517f08c379a00000000000000000000000000000000000000000000000000000000081526004016108019061496c565b60405180910390fd5b8073ffffffffffffffffffffffffffffffffffffffff166108296125db565b73ffffffffffffffffffffffffffffffffffffffff1614806108585750610857816108526125db565b611975565b5b610897576040517f08c379a000000000000000000000000000000000000000000000000000000000815260040161088e906149ac565b60405180910390fd5b6108a183836125e3565b505050565b606060006108b4600861269c565b905060006108c2600961269c565b6108cc600861269c565b6108d69190614c2e565b90506000808267ffffffffffffffff81111561091b577f4e487b7100000000000000000000000000000000000000000000000000000000600052604160045260246000fd5b60405190808252806020026020018201604052801561095457816020015b610941613934565b8152602001906001900390816109395790505b50905060005b84811015610bf1573073ffffffffffffffffffffffffffffffffffffffff16600c600060018461098a9190614bd8565b815260200190815260200160002060020160009054906101000a900473ffffffffffffffffffffffffffffffffffffffff1673ffffffffffffffffffffffffffffffffffffffff161415610bde5760006001826109e79190614bd8565b90506000600c600083815260200190815260200160002090508060405180610140016040529081600082015481526020016001820160009054906101000a900473ffffffffffffffffffffffffffffffffffffffff1673ffffffffffffffffffffffffffffffffffffffff1673ffffffffffffffffffffffffffffffffffffffff1681526020016002820160009054906101000a900473ffffffffffffffffffffffffffffffffffffffff1673ffffffffffffffffffffffffffffffffffffffff1673ffffffffffffffffffffffffffffffffffffffff1681526020016003820160009054906101000a900473ffffffffffffffffffffffffffffffffffffffff1673ffffffffffffffffffffffffffffffffffffffff1673ffffffffffffffffffffffffffffffffffffffff168152602001600482015481526020016005820160009054906101000a900460ff161515151581526020016005820160019054906101000a900460ff1615151515815260200160068201548152602001600782015481526020016008820160009054906101000a900460ff161515151581525050848681518110610bc1577f4e487b7100000000000000000000000000000000000000000000000000000000600052603260045260246000fd5b6020026020010181905250600185610bd99190614bd8565b945050505b8080610be990614d9f565b91505061095a565b508094505050505090565b6000600b54905090565b60006040518060c001604052808781526020018673ffffffffffffffffffffffffffffffffffffffff1681526020018573ffffffffffffffffffffffffffffffffffffffff168152602001848152602001838152602001428152509050600d60008781526020019081526020016000208190806001815401808255809150506001900390600052602060002090600602016000909190919091506000820151816000015560208201518160010160006101000a81548173ffffffffffffffffffffffffffffffffffffffff021916908373ffffffffffffffffffffffffffffffffffffffff16021790555060408201518160020160006101000a81548173ffffffffffffffffffffffffffffffffffffffff021916908373ffffffffffffffffffffffffffffffffffffffff1602179055506060820151816003019080519060200190610d549291906139cf565b506080820151816004015560a082015181600501555050505050505050565b610d84610d7e6125db565b826126aa565b610dc3576040517f08c379a0000000000000000000000000000000000000000000000000000000008152600401610dba906147ac565b60405180910390fd5b610dce83838361273f565b505050565b6000600c60008381526020019081526020016000206004015490506000600c600084815260200190815260200160002060010160009054906101000a900473ffffffffffffffffffffffffffffffffffffffff16905033600c600085815260200190815260200160002060020160006101000a81548173ffffffffffffffffffffffffffffffffffffffff021916908373ffffffffffffffffffffffffffffffffffffffff1602179055506001600c600085815260200190815260200160002060050160006101000a81548160ff0219169083151502179055506000600c600085815260200190815260200160002060010160006101000a81548173ffffffffffffffffffffffffffffffffffffffff021916908373ffffffffffffffffffffffffffffffffffffffff1602179055506000600c600085815260200190815260200160002060080160006101000a81548160ff021916908315150217905550610f3c6009612a39565b610f7f836000336040518060400160405280600481526020017f53616c650000000000000000000000000000000000000000000000000000000081525086610c06565b610f8a30338561273f565b610fcd836000336040518060400160405280600881526020017f5472616e7366657200000000000000000000000000000000000000000000000081525086610c06565b600a60009054906101000a900473ffffffffffffffffffffffffffffffffffffffff1673ffffffffffffffffffffffffffffffffffffffff166108fc600b549081150290604051600060405180830381858888f19350505050158015611037573d6000803e3d6000fd5b508073ffffffffffffffffffffffffffffffffffffffff166108fc349081150290604051600060405180830381858888f1935050505015801561107e573d6000803e3d6000fd5b50505050565b61109f8383836040518060200160405280600081525061159a565b505050565b600a60009054906101000a900473ffffffffffffffffffffffffffffffffffffffff1673ffffffffffffffffffffffffffffffffffffffff163373ffffffffffffffffffffffffffffffffffffffff1614611134576040517f08c379a000000000000000000000000000000000000000000000000000000000815260040161112b9061484c565b60405180910390fd5b80600c600084815260200190815260200160002060050160016101000a81548160ff0219169083151502179055505050565b60008061117283612a4f565b9050600073ffffffffffffffffffffffffffffffffffffffff168173ffffffffffffffffffffffffffffffffffffffff1614156111e4576040517f08c379a00000000000000000000000000000000000000000000000000000000081526004016111db9061494c565b60405180910390fd5b80915050919050565b60008073ffffffffffffffffffffffffffffffffffffffff168273ffffffffffffffffffffffffffffffffffffffff16141561125e576040517f08c379a0000000000000000000000000000000000000000000000000000000008152600401611255906148ac565b60405180910390fd5b600360008373ffffffffffffffffffffffffffffffffffffffff1673ffffffffffffffffffffffffffffffffffffffff168152602001908152602001600020549050919050565b60006112b16008612a39565b60006112bd600861269c565b90506112c93382612a8c565b6112d38185612caa565b6112dd8184612d55565b8091505092915050565b6112ef613934565b6000821180156113085750611304600861269c565b8211155b611347576040517f08c379a000000000000000000000000000000000000000000000000000000000815260040161133e906148ec565b60405180910390fd5b600c600083815260200190815260200160002060405180610140016040529081600082015481526020016001820160009054906101000a900473ffffffffffffffffffffffffffffffffffffffff1673ffffffffffffffffffffffffffffffffffffffff1673ffffffffffffffffffffffffffffffffffffffff1681526020016002820160009054906101000a900473ffffffffffffffffffffffffffffffffffffffff1673ffffffffffffffffffffffffffffffffffffffff1673ffffffffffffffffffffffffffffffffffffffff1681526020016003820160009054906101000a900473ffffffffffffffffffffffffffffffffffffffff1673ffffffffffffffffffffffffffffffffffffffff1673ffffffffffffffffffffffffffffffffffffffff168152602001600482015481526020016005820160009054906101000a900460ff161515151581526020016005820160019054906101000a900460ff1615151515815260200160068201548152602001600782015481526020016008820160009054906101000a900460ff1615151515815250509050919050565b6060600180546114f790614d3c565b80601f016020809104026020016040519081016040528092919081815260200182805461152390614d3c565b80156115705780601f1061154557610100808354040283529160200191611570565b820191906000526020600020905b81548152906001019060200180831161155357829003601f168201915b5050505050905090565b61158c6115856125db565b83836130c4565b5050565b80600b8190555050565b6115ab6115a56125db565b836126aa565b6115ea576040517f08c379a00000000000000000000000000000000000000000000000000000000081526004016115e1906147ac565b60405180910390fd5b6115f684848484613231565b50505050565b606061160782612590565b600060066000848152602001908152602001600020805461162790614d3c565b80601f016020809104026020016040519081016040528092919081815260200182805461165390614d3c565b80156116a05780601f10611675576101008083540402835291602001916116a0565b820191906000526020600020905b81548152906001019060200180831161168357829003601f168201915b5050505050905060006116b161328d565b90506000815114156116c757819250505061170a565b6000825111156116fc5780826040516020016116e4929190614613565b6040516020818303038152906040529250505061170a565b611705846132a4565b925050505b919050565b3373ffffffffffffffffffffffffffffffffffffffff16600c600084815260200190815260200160002060020160009054906101000a900473ffffffffffffffffffffffffffffffffffffffff1673ffffffffffffffffffffffffffffffffffffffff16146117b3576040517f08c379a00000000000000000000000000000000000000000000000000000000081526004016117aa9061492c565b60405180910390fd5b600b5434146117f7576040517f08c379a00000000000000000000000000000000000000000000000000000000081526004016117ee9061498c565b60405180910390fd5b6000600c600084815260200190815260200160002060050160006101000a81548160ff02191690831515021790555080600c60008481526020019081526020016000206004018190555033600c600084815260200190815260200160002060010160006101000a81548173ffffffffffffffffffffffffffffffffffffffff021916908373ffffffffffffffffffffffffffffffffffffffff16021790555030600c600084815260200190815260200160002060020160006101000a81548173ffffffffffffffffffffffffffffffffffffffff021916908373ffffffffffffffffffffffffffffffffffffffff1602179055506001600c600084815260200190815260200160002060080160006101000a81548160ff021916908315150217905550611924600961330c565b61192f33308461273f565b6119718230336040518060400160405280600481526020017f4c6973740000000000000000000000000000000000000000000000000000000081525085610c06565b5050565b6000600560008473ffffffffffffffffffffffffffffffffffffffff1673ffffffffffffffffffffffffffffffffffffffff16815260200190815260200160002060008373ffffffffffffffffffffffffffffffffffffffff1673ffffffffffffffffffffffffffffffffffffffff16815260200190815260200160002060009054906101000a900460ff16905092915050565b60606000611a17600861269c565b905060008060005b83811015611ac0573373ffffffffffffffffffffffffffffffffffffffff16600c6000600184611a4f9190614bd8565b815260200190815260200160002060020160009054906101000a900473ffffffffffffffffffffffffffffffffffffffff1673ffffffffffffffffffffffffffffffffffffffff161415611aad57600183611aaa9190614bd8565b92505b8080611ab890614d9f565b915050611a1f565b5060008267ffffffffffffffff811115611b03577f4e487b7100000000000000000000000000000000000000000000000000000000600052604160045260246000fd5b604051908082528060200260200182016040528015611b3c57816020015b611b29613934565b815260200190600190039081611b215790505b50905060005b84811015611dd9573373ffffffffffffffffffffffffffffffffffffffff16600c6000600184611b729190614bd8565b815260200190815260200160002060020160009054906101000a900473ffffffffffffffffffffffffffffffffffffffff1673ffffffffffffffffffffffffffffffffffffffff161415611dc6576000600182611bcf9190614bd8565b90506000600c600083815260200190815260200160002090508060405180610140016040529081600082015481526020016001820160009054906101000a900473ffffffffffffffffffffffffffffffffffffffff1673ffffffffffffffffffffffffffffffffffffffff1673ffffffffffffffffffffffffffffffffffffffff1681526020016002820160009054906101000a900473ffffffffffffffffffffffffffffffffffffffff1673ffffffffffffffffffffffffffffffffffffffff1673ffffffffffffffffffffffffffffffffffffffff1681526020016003820160009054906101000a900473ffffffffffffffffffffffffffffffffffffffff1673ffffffffffffffffffffffffffffffffffffffff1673ffffffffffffffffffffffffffffffffffffffff168152602001600482015481526020016005820160009054906101000a900460ff161515151581526020016005820160019054906101000a900460ff1615151515815260200160068201548152602001600782015481526020016008820160009054906101000a900460ff161515151581525050848681518110611da9577f4e487b7100000000000000000000000000000000000000000000000000000000600052603260045260246000fd5b6020026020010181905250600185611dc19190614bd8565b945050505b8080611dd190614d9f565b915050611b42565b508094505050505090565b60606000611df2600861269c565b905060008060005b83811015611e9b573373ffffffffffffffffffffffffffffffffffffffff16600c6000600184611e2a9190614bd8565b815260200190815260200160002060010160009054906101000a900473ffffffffffffffffffffffffffffffffffffffff1673ffffffffffffffffffffffffffffffffffffffff161415611e8857600183611e859190614bd8565b92505b8080611e9390614d9f565b915050611dfa565b5060008267ffffffffffffffff811115611ede577f4e487b7100000000000000000000000000000000000000000000000000000000600052604160045260246000fd5b604051908082528060200260200182016040528015611f1757816020015b611f04613934565b815260200190600190039081611efc5790505b50905060005b848110156121b4573373ffffffffffffffffffffffffffffffffffffffff16600c6000600184611f4d9190614bd8565b815260200190815260200160002060010160009054906101000a900473ffffffffffffffffffffffffffffffffffffffff1673ffffffffffffffffffffffffffffffffffffffff1614156121a1576000600182611faa9190614bd8565b90506000600c600083815260200190815260200160002090508060405180610140016040529081600082015481526020016001820160009054906101000a900473ffffffffffffffffffffffffffffffffffffffff1673ffffffffffffffffffffffffffffffffffffffff1673ffffffffffffffffffffffffffffffffffffffff1681526020016002820160009054906101000a900473ffffffffffffffffffffffffffffffffffffffff1673ffffffffffffffffffffffffffffffffffffffff1673ffffffffffffffffffffffffffffffffffffffff1681526020016003820160009054906101000a900473ffffffffffffffffffffffffffffffffffffffff1673ffffffffffffffffffffffffffffffffffffffff1673ffffffffffffffffffffffffffffffffffffffff168152602001600482015481526020016005820160009054906101000a900460ff161515151581526020016005820160019054906101000a900460ff1615151515815260200160068201548152602001600782015481526020016008820160009054906101000a900460ff161515151581525050848681518110612184577f4e487b7100000000000000000000000000000000000000000000000000000000600052603260045260246000fd5b602002602001018190525060018561219c9190614bd8565b945050505b80806121ac90614d9f565b915050611f1d565b508094505050505090565b6060600d6000838152602001908152602001600020805480602002602001604051908101604052809291908181526020016000905b8282101561238257838290600052602060002090600602016040518060c0016040529081600082015481526020016001820160009054906101000a900473ffffffffffffffffffffffffffffffffffffffff1673ffffffffffffffffffffffffffffffffffffffff1673ffffffffffffffffffffffffffffffffffffffff1681526020016002820160009054906101000a900473ffffffffffffffffffffffffffffffffffffffff1673ffffffffffffffffffffffffffffffffffffffff1673ffffffffffffffffffffffffffffffffffffffff1681526020016003820180546122dd90614d3c565b80601f016020809104026020016040519081016040528092919081815260200182805461230990614d3c565b80156123565780601f1061232b57610100808354040283529160200191612356565b820191906000526020600020905b81548152906001019060200180831161233957829003601f168201915b5050505050815260200160048201548152602001600582015481525050815260200190600101906121f4565b505050509050919050565b600d60205281600052604060002081815481106123a957600080fd5b9060005260206000209060060201600091509150508060000154908060010160009054906101000a900473ffffffffffffffffffffffffffffffffffffffff16908060020160009054906101000a900473ffffffffffffffffffffffffffffffffffffffff169080600301805461241f90614d3c565b80601f016020809104026020016040519081016040528092919081815260200182805461244b90614d3c565b80156124985780601f1061246d57610100808354040283529160200191612498565b820191906000526020600020905b81548152906001019060200180831161247b57829003601f168201915b5050505050908060040154908060050154905086565b60007f80ac58cd000000000000000000000000000000000000000000000000000000007bffffffffffffffffffffffffffffffffffffffffffffffffffffffff1916827bffffffffffffffffffffffffffffffffffffffffffffffffffffffff1916148061257957507f5b5e139f000000000000000000000000000000000000000000000000000000007bffffffffffffffffffffffffffffffffffffffffffffffffffffffff1916827bffffffffffffffffffffffffffffffffffffffffffffffffffffffff1916145b80612589575061258882613368565b5b9050919050565b612599816133d2565b6125d8576040517f08c379a00000000000000000000000000000000000000000000000000000000081526004016125cf9061494c565b60405180910390fd5b50565b600033905090565b816004600083815260200190815260200160002060006101000a81548173ffffffffffffffffffffffffffffffffffffffff021916908373ffffffffffffffffffffffffffffffffffffffff160217905550808273ffffffffffffffffffffffffffffffffffffffff1661265683611166565b73ffffffffffffffffffffffffffffffffffffffff167f8c5be1e5ebec7d5bd14f71427d1e84f3dd0314c0f7b2291e5b200ac8c7c3b92560405160405180910390a45050565b600081600001549050919050565b6000806126b683611166565b90508073ffffffffffffffffffffffffffffffffffffffff168473ffffffffffffffffffffffffffffffffffffffff1614806126f857506126f78185611975565b5b8061273657508373ffffffffffffffffffffffffffffffffffffffff1661271e84610748565b73ffffffffffffffffffffffffffffffffffffffff16145b91505092915050565b8273ffffffffffffffffffffffffffffffffffffffff1661275f82611166565b73ffffffffffffffffffffffffffffffffffffffff16146127b5576040517f08c379a00000000000000000000000000000000000000000000000000000000081526004016127ac9061480c565b60405180910390fd5b600073ffffffffffffffffffffffffffffffffffffffff168273ffffffffffffffffffffffffffffffffffffffff161415612825576040517f08c379a000000000000000000000000000000000000000000000000000000000815260040161281c9061486c565b60405180910390fd5b6128328383836001613413565b8273ffffffffffffffffffffffffffffffffffffffff1661285282611166565b73ffffffffffffffffffffffffffffffffffffffff16146128a8576040517f08c379a000000000000000000000000000000000000000000000000000000000815260040161289f9061480c565b60405180910390fd5b6004600082815260200190815260200160002060006101000a81549073ffffffffffffffffffffffffffffffffffffffff02191690556001600360008573ffffffffffffffffffffffffffffffffffffffff1673ffffffffffffffffffffffffffffffffffffffff168152602001908152602001600020600082825403925050819055506001600360008473ffffffffffffffffffffffffffffffffffffffff1673ffffffffffffffffffffffffffffffffffffffff16815260200190815260200160002060008282540192505081905550816002600083815260200190815260200160002060006101000a81548173ffffffffffffffffffffffffffffffffffffffff021916908373ffffffffffffffffffffffffffffffffffffffff160217905550808273ffffffffffffffffffffffffffffffffffffffff168473ffffffffffffffffffffffffffffffffffffffff167fddf252ad1be2c89b69c2b068fc378daa952ba7f163c4a11628f55a4df523b3ef60405160405180910390a4612a348383836001613419565b505050565b6001816000016000828254019250508190555050565b60006002600083815260200190815260200160002060009054906101000a900473ffffffffffffffffffffffffffffffffffffffff169050919050565b600073ffffffffffffffffffffffffffffffffffffffff168273ffffffffffffffffffffffffffffffffffffffff161415612afc576040517f08c379a0000000000000000000000000000000000000000000000000000000008152600401612af39061490c565b60405180910390fd5b612b05816133d2565b15612b45576040517f08c379a0000000000000000000000000000000000000000000000000000000008152600401612b3c9061482c565b60405180910390fd5b612b53600083836001613413565b612b5c816133d2565b15612b9c576040517f08c379a0000000000000000000000000000000000000000000000000000000008152600401612b939061482c565b60405180910390fd5b6001600360008473ffffffffffffffffffffffffffffffffffffffff1673ffffffffffffffffffffffffffffffffffffffff16815260200190815260200160002060008282540192505081905550816002600083815260200190815260200160002060006101000a81548173ffffffffffffffffffffffffffffffffffffffff021916908373ffffffffffffffffffffffffffffffffffffffff160217905550808273ffffffffffffffffffffffffffffffffffffffff16600073ffffffffffffffffffffffffffffffffffffffff167fddf252ad1be2c89b69c2b068fc378daa952ba7f163c4a11628f55a4df523b3ef60405160405180910390a4612ca6600083836001613419565b5050565b612cb3826133d2565b612cf2576040517f08c379a0000000000000000000000000000000000000000000000000000000008152600401612ce9906148cc565b60405180910390fd5b80600660008481526020019081526020016000209080519060200190612d199291906139cf565b507ff8e1a15aba9398e019f0b49df1a4fde98ee17ae345cb5f6b5e2c27f5033e8ce782604051612d499190614a08565b60405180910390a15050565b60008111612d98576040517f08c379a0000000000000000000000000000000000000000000000000000000008152600401612d8f906149cc565b60405180910390fd5b600b543414612ddc576040517f08c379a0000000000000000000000000000000000000000000000000000000008152600401612dd39061498c565b60405180910390fd5b6040518061014001604052808381526020013373ffffffffffffffffffffffffffffffffffffffff1681526020013073ffffffffffffffffffffffffffffffffffffffff1681526020013373ffffffffffffffffffffffffffffffffffffffff168152602001828152602001600015158152602001600015158152602001600081526020016000815260200160011515815250600c60008481526020019081526020016000206000820151816000015560208201518160010160006101000a81548173ffffffffffffffffffffffffffffffffffffffff021916908373ffffffffffffffffffffffffffffffffffffffff16021790555060408201518160020160006101000a81548173ffffffffffffffffffffffffffffffffffffffff021916908373ffffffffffffffffffffffffffffffffffffffff16021790555060608201518160030160006101000a81548173ffffffffffffffffffffffffffffffffffffffff021916908373ffffffffffffffffffffffffffffffffffffffff1602179055506080820151816004015560a08201518160050160006101000a81548160ff02191690831515021790555060c08201518160050160016101000a81548160ff02191690831515021790555060e0820151816006015561010082015181600701556101208201518160080160006101000a81548160ff021916908315150217905550905050613027826000336040518060400160405280600481526020017f4d696e740000000000000000000000000000000000000000000000000000000081525085610c06565b61303233308461273f565b613075826000336040518060400160405280600481526020017f4c6973740000000000000000000000000000000000000000000000000000000081525085610c06565b817f560fddf78a1b57989607b07f1062c0c712b87ff215e41a1af8b93d1e4175ac713330338560008060008060016040516130b899989796959493929190614652565b60405180910390a25050565b8173ffffffffffffffffffffffffffffffffffffffff168373ffffffffffffffffffffffffffffffffffffffff161415613133576040517f08c379a000000000000000000000000000000000000000000000000000000000815260040161312a9061488c565b60405180910390fd5b80600560008573ffffffffffffffffffffffffffffffffffffffff1673ffffffffffffffffffffffffffffffffffffffff16815260200190815260200160002060008473ffffffffffffffffffffffffffffffffffffffff1673ffffffffffffffffffffffffffffffffffffffff16815260200190815260200160002060006101000a81548160ff0219169083151502179055508173ffffffffffffffffffffffffffffffffffffffff168373ffffffffffffffffffffffffffffffffffffffff167f17307eab39ab6107e8899845ad3d59bd9653f200f220920489ca2b5937696c3183604051613224919061476f565b60405180910390a3505050565b61323c84848461273f565b6132488484848461341f565b613287576040517f08c379a000000000000000000000000000000000000000000000000000000000815260040161327e906147ec565b60405180910390fd5b50505050565b606060405180602001604052806000815250905090565b60606132af82612590565b60006132b961328d565b905060008151116132d95760405180602001604052806000815250613304565b806132e3846135b6565b6040516020016132f4929190614613565b6040516020818303038152906040525b915050919050565b60008160000154905060008111613358576040517f08c379a000000000000000000000000000000000000000000000000000000000815260040161334f906147cc565b60405180910390fd5b6001810382600001819055505050565b60007f01ffc9a7000000000000000000000000000000000000000000000000000000007bffffffffffffffffffffffffffffffffffffffffffffffffffffffff1916827bffffffffffffffffffffffffffffffffffffffffffffffffffffffff1916149050919050565b60008073ffffffffffffffffffffffffffffffffffffffff166133f483612a4f565b73ffffffffffffffffffffffffffffffffffffffff1614159050919050565b50505050565b50505050565b60006134408473ffffffffffffffffffffffffffffffffffffffff166136da565b156135a9578373ffffffffffffffffffffffffffffffffffffffff1663150b7a026134696125db565b8786866040518563ffffffff1660e01b815260040161348b94939291906146df565b602060405180830381600087803b1580156134a557600080fd5b505af19250505080156134d657506040513d601f19601f820116820180604052508101906134d39190613d7b565b60015b613559573d8060008114613506576040519150601f19603f3d011682016040523d82523d6000602084013e61350b565b606091505b50600081511415613551576040517f08c379a0000000000000000000000000000000000000000000000000000000008152600401613548906147ec565b60405180910390fd5b805181602001fd5b63150b7a0260e01b7bffffffffffffffffffffffffffffffffffffffffffffffffffffffff1916817bffffffffffffffffffffffffffffffffffffffffffffffffffffffff1916149150506135ae565b600190505b949350505050565b6060600060016135c5846136fd565b01905060008167ffffffffffffffff81111561360a577f4e487b7100000000000000000000000000000000000000000000000000000000600052604160045260246000fd5b6040519080825280601f01601f19166020018201604052801561363c5781602001600182028036833780820191505090505b509050600082602001820190505b6001156136cf578080600190039150507f3031323334353637383961626364656600000000000000000000000000000000600a86061a8153600a85816136b9577f4e487b7100000000000000000000000000000000000000000000000000000000600052601260045260246000fd5b04945060008514156136ca576136cf565b61364a565b819350505050919050565b6000808273ffffffffffffffffffffffffffffffffffffffff163b119050919050565b600080600090507a184f03e93ff9f4daa797ed6e38ed64bf6a1f0100000000000000008310613781577a184f03e93ff9f4daa797ed6e38ed64bf6a1f0100000000000000008381613777577f4e487b7100000000000000000000000000000000000000000000000000000000600052601260045260246000fd5b0492506040810190505b6d04ee2d6d415b85acef810000000083106137e4576d04ee2d6d415b85acef810000000083816137da577f4e487b7100000000000000000000000000000000000000000000000000000000600052601260045260246000fd5b0492506020810190505b662386f26fc10000831061383957662386f26fc10000838161382f577f4e487b7100000000000000000000000000000000000000000000000000000000600052601260045260246000fd5b0492506010810190505b6305f5e1008310613888576305f5e100838161387e577f4e487b7100000000000000000000000000000000000000000000000000000000600052601260045260246000fd5b0492506008810190505b61271083106138d35761271083816138c9577f4e487b7100000000000000000000000000000000000000000000000000000000600052601260045260246000fd5b0492506004810190505b6064831061391c5760648381613912577f4e487b7100000000000000000000000000000000000000000000000000000000600052601260045260246000fd5b0492506002810190505b600a831061392b576001810190505b80915050919050565b60405180610140016040528060008152602001600073ffffffffffffffffffffffffffffffffffffffff168152602001600073ffffffffffffffffffffffffffffffffffffffff168152602001600073ffffffffffffffffffffffffffffffffffffffff1681526020016000815260200160001515815260200160001515815260200160008152602001600081526020016000151581525090565b8280546139db90614d3c565b90600052602060002090601f0160209004810192826139fd5760008555613a44565b82601f10613a1657805160ff1916838001178555613a44565b82800160010185558215613a44579182015b82811115613a43578251825591602001919060010190613a28565b5b509050613a519190613a55565b5090565b5b80821115613a6e576000816000905550600101613a56565b5090565b6000613a85613a8084614ab0565b614a8b565b905082815260208101848484011115613a9d57600080fd5b613aa8848285614cfa565b509392505050565b6000613ac3613abe84614ae1565b614a8b565b905082815260208101848484011115613adb57600080fd5b613ae6848285614cfa565b509392505050565b600081359050613afd8161530a565b92915050565b600081359050613b1281615321565b92915050565b600081359050613b2781615338565b92915050565b600081519050613b3c81615338565b92915050565b600082601f830112613b5357600080fd5b8135613b63848260208601613a72565b91505092915050565b600082601f830112613b7d57600080fd5b8135613b8d848260208601613ab0565b91505092915050565b600081359050613ba58161534f565b92915050565b600060208284031215613bbd57600080fd5b6000613bcb84828501613aee565b91505092915050565b60008060408385031215613be757600080fd5b6000613bf585828601613aee565b9250506020613c0685828601613aee565b9150509250929050565b600080600060608486031215613c2557600080fd5b6000613c3386828701613aee565b9350506020613c4486828701613aee565b9250506040613c5586828701613b96565b9150509250925092565b60008060008060808587031215613c7557600080fd5b6000613c8387828801613aee565b9450506020613c9487828801613aee565b9350506040613ca587828801613b96565b925050606085013567ffffffffffffffff811115613cc257600080fd5b613cce87828801613b42565b91505092959194509250565b60008060408385031215613ced57600080fd5b6000613cfb85828601613aee565b9250506020613d0c85828601613b03565b9150509250929050565b60008060408385031215613d2957600080fd5b6000613d3785828601613aee565b9250506020613d4885828601613b96565b9150509250929050565b600060208284031215613d6457600080fd5b6000613d7284828501613b18565b91505092915050565b600060208284031215613d8d57600080fd5b6000613d9b84828501613b2d565b91505092915050565b60008060408385031215613db757600080fd5b600083013567ffffffffffffffff811115613dd157600080fd5b613ddd85828601613b6c565b9250506020613dee85828601613b96565b9150509250929050565b600060208284031215613e0a57600080fd5b6000613e1884828501613b96565b91505092915050565b600080600080600060a08688031215613e3957600080fd5b6000613e4788828901613b96565b9550506020613e5888828901613aee565b9450506040613e6988828901613aee565b935050606086013567ffffffffffffffff811115613e8657600080fd5b613e9288828901613b6c565b9250506080613ea388828901613b96565b9150509295509295909350565b60008060408385031215613ec357600080fd5b6000613ed185828601613b96565b9250506020613ee285828601613b03565b9150509250929050565b60008060408385031215613eff57600080fd5b6000613f0d85828601613b96565b9250506020613f1e85828601613b96565b9150509250929050565b6000613f3483836143d4565b905092915050565b6000613f48838361445d565b6101408301905092915050565b613f5e81614c74565b82525050565b613f6d81614c62565b82525050565b613f7c81614c62565b82525050565b6000613f8d82614b32565b613f978185614b78565b935083602082028501613fa985614b12565b8060005b85811015613fe55784840389528151613fc68582613f28565b9450613fd183614b5e565b925060208a01995050600181019050613fad565b50829750879550505050505092915050565b600061400282614b3d565b61400c8185614b89565b935061401783614b22565b8060005b8381101561404857815161402f8882613f3c565b975061403a83614b6b565b92505060018101905061401b565b5085935050505092915050565b61405e81614c86565b82525050565b61406d81614c86565b82525050565b600061407e82614b48565b6140888185614b9a565b9350614098818560208601614d09565b6140a181614e75565b840191505092915050565b6140b581614ce8565b82525050565b60006140c682614b53565b6140d08185614bab565b93506140e0818560208601614d09565b6140e981614e75565b840191505092915050565b60006140ff82614b53565b6141098185614bbc565b9350614119818560208601614d09565b61412281614e75565b840191505092915050565b600061413882614b53565b6141428185614bcd565b9350614152818560208601614d09565b80840191505092915050565b600061416b602d83614bbc565b915061417682614e86565b604082019050919050565b600061418e601b83614bbc565b915061419982614ed5565b602082019050919050565b60006141b1603283614bbc565b91506141bc82614efe565b604082019050919050565b60006141d4602583614bbc565b91506141df82614f4d565b604082019050919050565b60006141f7601c83614bbc565b915061420282614f9c565b602082019050919050565b600061421a602683614bbc565b915061422582614fc5565b604082019050919050565b600061423d602483614bbc565b915061424882615014565b604082019050919050565b6000614260601983614bbc565b915061426b82615063565b602082019050919050565b6000614283602983614bbc565b915061428e8261508c565b604082019050919050565b60006142a6602e83614bbc565b91506142b1826150db565b604082019050919050565b60006142c9600f83614bbc565b91506142d48261512a565b602082019050919050565b60006142ec602083614bbc565b91506142f782615153565b602082019050919050565b600061430f602a83614bbc565b915061431a8261517c565b604082019050919050565b6000614332601883614bbc565b915061433d826151cb565b602082019050919050565b6000614355602183614bbc565b9150614360826151f4565b604082019050919050565b6000614378602483614bbc565b915061438382615243565b604082019050919050565b600061439b603d83614bbc565b91506143a682615292565b604082019050919050565b60006143be601c83614bbc565b91506143c9826152e1565b602082019050919050565b600060c0830160008301516143ec60008601826145f5565b5060208301516143ff6020860182613f64565b5060408301516144126040860182613f64565b506060830151848203606086015261442a82826140bb565b915050608083015161443f60808601826145f5565b5060a083015161445260a08601826145f5565b508091505092915050565b6101408201600082015161447460008501826145f5565b5060208201516144876020850182613f55565b50604082015161449a6040850182613f55565b5060608201516144ad6060850182613f55565b5060808201516144c060808501826145f5565b5060a08201516144d360a0850182614055565b5060c08201516144e660c0850182614055565b5060e08201516144f960e08501826145f5565b5061010082015161450e6101008501826145f5565b50610120820151614523610120850182614055565b50505050565b6101408201600082015161454060008501826145f5565b5060208201516145536020850182613f55565b5060408201516145666040850182613f55565b5060608201516145796060850182613f55565b50608082015161458c60808501826145f5565b5060a082015161459f60a0850182614055565b5060c08201516145b260c0850182614055565b5060e08201516145c560e08501826145f5565b506101008201516145da6101008501826145f5565b506101208201516145ef610120850182614055565b50505050565b6145fe81614cde565b82525050565b61460d81614cde565b82525050565b600061461f828561412d565b915061462b828461412d565b91508190509392505050565b600060208201905061464c6000830184613f73565b92915050565b600061012082019050614668600083018c613f73565b614675602083018b613f73565b614682604083018a613f73565b61468f6060830189614604565b61469c6080830188614064565b6146a960a0830187614064565b6146b660c08301866140ac565b6146c360e08301856140ac565b6146d1610100830184614064565b9a9950505050505050505050565b60006080820190506146f46000830187613f73565b6147016020830186613f73565b61470e6040830185614604565b81810360608301526147208184614073565b905095945050505050565b600060208201905081810360008301526147458184613f82565b905092915050565b600060208201905081810360008301526147678184613ff7565b905092915050565b60006020820190506147846000830184614064565b92915050565b600060208201905081810360008301526147a481846140f4565b905092915050565b600060208201905081810360008301526147c58161415e565b9050919050565b600060208201905081810360008301526147e581614181565b9050919050565b60006020820190508181036000830152614805816141a4565b9050919050565b60006020820190508181036000830152614825816141c7565b9050919050565b60006020820190508181036000830152614845816141ea565b9050919050565b600060208201905081810360008301526148658161420d565b9050919050565b6000602082019050818103600083015261488581614230565b9050919050565b600060208201905081810360008301526148a581614253565b9050919050565b600060208201905081810360008301526148c581614276565b9050919050565b600060208201905081810360008301526148e581614299565b9050919050565b60006020820190508181036000830152614905816142bc565b9050919050565b60006020820190508181036000830152614925816142df565b9050919050565b6000602082019050818103600083015261494581614302565b9050919050565b6000602082019050818103600083015261496581614325565b9050919050565b6000602082019050818103600083015261498581614348565b9050919050565b600060208201905081810360008301526149a58161436b565b9050919050565b600060208201905081810360008301526149c58161438e565b9050919050565b600060208201905081810360008301526149e5816143b1565b9050919050565b600061014082019050614a026000830184614529565b92915050565b6000602082019050614a1d6000830184614604565b92915050565b600060c082019050614a386000830189614604565b614a456020830188613f73565b614a526040830187613f73565b8181036060830152614a6481866140f4565b9050614a736080830185614604565b614a8060a0830184614604565b979650505050505050565b6000614a95614aa6565b9050614aa18282614d6e565b919050565b6000604051905090565b600067ffffffffffffffff821115614acb57614aca614e46565b5b614ad482614e75565b9050602081019050919050565b600067ffffffffffffffff821115614afc57614afb614e46565b5b614b0582614e75565b9050602081019050919050565b6000819050602082019050919050565b6000819050602082019050919050565b600081519050919050565b600081519050919050565b600081519050919050565b600081519050919050565b6000602082019050919050565b6000602082019050919050565b600082825260208201905092915050565b600082825260208201905092915050565b600082825260208201905092915050565b600082825260208201905092915050565b600082825260208201905092915050565b600081905092915050565b6000614be382614cde565b9150614bee83614cde565b9250827fffffffffffffffffffffffffffffffffffffffffffffffffffffffffffffffff03821115614c2357614c22614de8565b5b828201905092915050565b6000614c3982614cde565b9150614c4483614cde565b925082821015614c5757614c56614de8565b5b828203905092915050565b6000614c6d82614cbe565b9050919050565b6000614c7f82614cbe565b9050919050565b60008115159050919050565b60007fffffffff0000000000000000000000000000000000000000000000000000000082169050919050565b600073ffffffffffffffffffffffffffffffffffffffff82169050919050565b6000819050919050565b6000614cf382614cde565b9050919050565b82818337600083830152505050565b60005b83811015614d27578082015181840152602081019050614d0c565b83811115614d36576000848401525b50505050565b60006002820490506001821680614d5457607f821691505b60208210811415614d6857614d67614e17565b5b50919050565b614d7782614e75565b810181811067ffffffffffffffff82111715614d9657614d95614e46565b5b80604052505050565b6000614daa82614cde565b91507fffffffffffffffffffffffffffffffffffffffffffffffffffffffffffffffff821415614ddd57614ddc614de8565b5b600182019050919050565b7f4e487b7100000000000000000000000000000000000000000000000000000000600052601160045260246000fd5b7f4e487b7100000000000000000000000000000000000000000000000000000000600052602260045260246000fd5b7f4e487b7100000000000000000000000000000000000000000000000000000000600052604160045260246000fd5b6000601f19601f8301169050919050565b7f4552433732313a2063616c6c6572206973206e6f7420746f6b656e206f776e6560008201527f72206f7220617070726f76656400000000000000000000000000000000000000602082015250565b7f436f756e7465723a2064656372656d656e74206f766572666c6f770000000000600082015250565b7f4552433732313a207472616e7366657220746f206e6f6e20455243373231526560008201527f63656976657220696d706c656d656e7465720000000000000000000000000000602082015250565b7f4552433732313a207472616e736665722066726f6d20696e636f72726563742060008201527f6f776e6572000000000000000000000000000000000000000000000000000000602082015250565b7f4552433732313a20746f6b656e20616c7265616479206d696e74656400000000600082015250565b7f4f6e6c7920746865206f776e65722063616e207570646174652069735265776160008201527f72644974656d0000000000000000000000000000000000000000000000000000602082015250565b7f4552433732313a207472616e7366657220746f20746865207a65726f2061646460008201527f7265737300000000000000000000000000000000000000000000000000000000602082015250565b7f4552433732313a20617070726f766520746f2063616c6c657200000000000000600082015250565b7f4552433732313a2061646472657373207a65726f206973206e6f74206120766160008201527f6c6964206f776e65720000000000000000000000000000000000000000000000602082015250565b7f45524337323155524953746f726167653a2055524920736574206f66206e6f6e60008201527f6578697374656e7420746f6b656e000000000000000000000000000000000000602082015250565b7f496e76616c6964204974656d2049440000000000000000000000000000000000600082015250565b7f4552433732313a206d696e7420746f20746865207a65726f2061646472657373600082015250565b7f4f6e6c79206974656d206f776e65722063616e20706572666f726d207468697360008201527f206f7065726174696f6e00000000000000000000000000000000000000000000602082015250565b7f4552433732313a20696e76616c696420746f6b656e2049440000000000000000600082015250565b7f4552433732313a20617070726f76616c20746f2063757272656e74206f776e6560008201527f7200000000000000000000000000000000000000000000000000000000000000602082015250565b7f5072696365206d75737420626520657175616c20746f206c697374696e67207060008201527f7269636500000000000000000000000000000000000000000000000000000000602082015250565b7f4552433732313a20617070726f76652063616c6c6572206973206e6f7420746f60008201527f6b656e206f776e6572206f7220617070726f76656420666f7220616c6c000000602082015250565b7f5072696365206d757374206265206174206c6561737420312077656900000000600082015250565b61531381614c62565b811461531e57600080fd5b50565b61532a81614c86565b811461533557600080fd5b50565b61534181614c92565b811461534c57600080fd5b50565b61535881614cde565b811461536357600080fd5b5056fea2646970667358221220e38ce640b6ac0bd128877d4f1f3e1f1635ee080a66491c79385bfcd3cc8dfa0364736f6c63430008040033",
  "linkReferences": {},
  "deployedLinkReferences": {}
}