{
  "_format": "hh-sol-artifact-1",
  "contractName": "Marketplace",
  "sourceName": "contracts/Marketplace.sol",
  "abi": [
    {
      "inputs": [],
      "stateMutability": "nonpayable",
      "type": "constructor"
    },
    {
      "anonymous": false,
      "inputs": [
        {
          "indexed": true,
          "internalType": "uint256",
          "name": "itemId",
          "type": "uint256"
        },
        {
          "indexed": false,
          "internalType": "address",
          "name": "from",
          "type": "address"
        },
        {
          "indexed": false,
          "internalType": "address",
          "name": "to",
          "type": "address"
        },
        {
          "indexed": false,
          "internalType": "string",
          "name": "eventType",
          "type": "string"
        },
        {
          "indexed": false,
          "internalType": "uint256",
          "name": "price",
          "type": "uint256"
        },
        {
          "indexed": false,
          "internalType": "uint256",
          "name": "timestamp",
          "type": "uint256"
        }
      ],
      "name": "ActivityRecorded",
      "type": "event"
    },
    {
      "anonymous": false,
      "inputs": [
        {
          "indexed": true,
          "internalType": "uint256",
          "name": "itemId",
          "type": "uint256"
        },
        {
          "indexed": true,
          "internalType": "address",
          "name": "nftContract",
          "type": "address"
        },
        {
          "indexed": true,
          "internalType": "uint256",
          "name": "tokenId",
          "type": "uint256"
        },
        {
          "indexed": false,
          "internalType": "address",
          "name": "seller",
          "type": "address"
        },
        {
          "indexed": false,
          "internalType": "address",
          "name": "owner",
          "type": "address"
        },
        {
          "indexed": false,
          "internalType": "uint256",
          "name": "price",
          "type": "uint256"
        },
        {
          "indexed": false,
          "internalType": "bool",
          "name": "sold",
          "type": "bool"
        },
        {
          "indexed": false,
          "internalType": "bool",
          "name": "isRewardItem",
          "type": "bool"
        }
      ],
      "name": "MarketItemCreated",
      "type": "event"
    },
    {
      "inputs": [
        {
          "internalType": "address",
          "name": "nftContract",
          "type": "address"
        },
        {
          "internalType": "uint256",
          "name": "tokenId",
          "type": "uint256"
        },
        {
          "internalType": "uint256",
          "name": "price",
          "type": "uint256"
        },
        {
          "internalType": "bool",
          "name": "isRewardItem",
          "type": "bool"
        }
      ],
      "name": "createMarketItem",
      "outputs": [],
      "stateMutability": "payable",
      "type": "function"
    },
    {
      "inputs": [],
      "name": "fetchItemsCreated",
      "outputs": [
        {
          "components": [
            {
              "internalType": "uint256",
              "name": "itemId",
              "type": "uint256"
            },
            {
              "internalType": "address",
              "name": "nftContract",
              "type": "address"
            },
            {
              "internalType": "uint256",
              "name": "tokenId",
              "type": "uint256"
            },
            {
              "internalType": "address payable",
              "name": "seller",
              "type": "address"
            },
            {
              "internalType": "address payable",
              "name": "owner",
              "type": "address"
            },
            {
              "internalType": "uint256",
              "name": "price",
              "type": "uint256"
            },
            {
              "internalType": "bool",
              "name": "sold",
              "type": "bool"
            },
            {
              "internalType": "bool",
              "name": "isRewardItem",
              "type": "bool"
            }
          ],
          "internalType": "struct Marketplace.MarketItem[]",
          "name": "",
          "type": "tuple[]"
        }
      ],
      "stateMutability": "view",
      "type": "function"
    },
    {
      "inputs": [],
      "name": "fetchMarketItems",
      "outputs": [
        {
          "components": [
            {
              "internalType": "uint256",
              "name": "itemId",
              "type": "uint256"
            },
            {
              "internalType": "address",
              "name": "nftContract",
              "type": "address"
            },
            {
              "internalType": "uint256",
              "name": "tokenId",
              "type": "uint256"
            },
            {
              "internalType": "address payable",
              "name": "seller",
              "type": "address"
            },
            {
              "internalType": "address payable",
              "name": "owner",
              "type": "address"
            },
            {
              "internalType": "uint256",
              "name": "price",
              "type": "uint256"
            },
            {
              "internalType": "bool",
              "name": "sold",
              "type": "bool"
            },
            {
              "internalType": "bool",
              "name": "isRewardItem",
              "type": "bool"
            }
          ],
          "internalType": "struct Marketplace.MarketItem[]",
          "name": "",
          "type": "tuple[]"
        }
      ],
      "stateMutability": "view",
      "type": "function"
    },
    {
      "inputs": [],
      "name": "fetchPurchasedNFTs",
      "outputs": [
        {
          "components": [
            {
              "internalType": "uint256",
              "name": "itemId",
              "type": "uint256"
            },
            {
              "internalType": "address",
              "name": "nftContract",
              "type": "address"
            },
            {
              "internalType": "uint256",
              "name": "tokenId",
              "type": "uint256"
            },
            {
              "internalType": "address payable",
              "name": "seller",
              "type": "address"
            },
            {
              "internalType": "address payable",
              "name": "owner",
              "type": "address"
            },
            {
              "internalType": "uint256",
              "name": "price",
              "type": "uint256"
            },
            {
              "internalType": "bool",
              "name": "sold",
              "type": "bool"
            },
            {
              "internalType": "bool",
              "name": "isRewardItem",
              "type": "bool"
            }
          ],
          "internalType": "struct Marketplace.MarketItem[]",
          "name": "",
          "type": "tuple[]"
        }
      ],
      "stateMutability": "view",
      "type": "function"
    },
    {
      "inputs": [],
      "name": "getListingPrice",
      "outputs": [
        {
          "internalType": "uint256",
          "name": "",
          "type": "uint256"
        }
      ],
      "stateMutability": "view",
      "type": "function"
    },
    {
      "inputs": [
        {
          "internalType": "uint256",
          "name": "tokenId",
          "type": "uint256"
        }
      ],
      "name": "getNFTActivity",
      "outputs": [
        {
          "components": [
            {
              "internalType": "uint256",
              "name": "itemId",
              "type": "uint256"
            },
            {
              "internalType": "address",
              "name": "from",
              "type": "address"
            },
            {
              "internalType": "address",
              "name": "to",
              "type": "address"
            },
            {
              "internalType": "string",
              "name": "eventType",
              "type": "string"
            },
            {
              "internalType": "uint256",
              "name": "price",
              "type": "uint256"
            },
            {
              "internalType": "uint256",
              "name": "timestamp",
              "type": "uint256"
            }
          ],
          "internalType": "struct Marketplace.Activity",
          "name": "",
          "type": "tuple"
        }
      ],
      "stateMutability": "view",
      "type": "function"
    },
    {
      "inputs": [
        {
          "internalType": "uint256",
          "name": "itemId",
          "type": "uint256"
        }
      ],
      "name": "getNFTDetails",
      "outputs": [
        {
          "components": [
            {
              "internalType": "uint256",
              "name": "itemId",
              "type": "uint256"
            },
            {
              "internalType": "address",
              "name": "nftContract",
              "type": "address"
            },
            {
              "internalType": "uint256",
              "name": "tokenId",
              "type": "uint256"
            },
            {
              "internalType": "address payable",
              "name": "seller",
              "type": "address"
            },
            {
              "internalType": "address payable",
              "name": "owner",
              "type": "address"
            },
            {
              "internalType": "uint256",
              "name": "price",
              "type": "uint256"
            },
            {
              "internalType": "bool",
              "name": "sold",
              "type": "bool"
            },
            {
              "internalType": "bool",
              "name": "isRewardItem",
              "type": "bool"
            }
          ],
          "internalType": "struct Marketplace.MarketItem",
          "name": "",
          "type": "tuple"
        }
      ],
      "stateMutability": "view",
      "type": "function"
    },
    {
      "inputs": [
        {
          "internalType": "uint256",
          "name": "_price",
          "type": "uint256"
        }
      ],
      "name": "setListingPrice",
      "outputs": [
        {
          "internalType": "uint256",
          "name": "",
          "type": "uint256"
        }
      ],
      "stateMutability": "nonpayable",
      "type": "function"
    },
    {
      "inputs": [
        {
          "internalType": "uint256",
          "name": "itemId",
          "type": "uint256"
        },
        {
          "internalType": "bool",
          "name": "isRewardItem",
          "type": "bool"
        }
      ],
      "name": "updateIsRewardItem",
      "outputs": [],
      "stateMutability": "nonpayable",
      "type": "function"
    }
  ],
  "bytecode": "0x60806040526509184e72a00060045534801561001a57600080fd5b50600160008190555033600360006101000a81548173ffffffffffffffffffffffffffffffffffffffff021916908373ffffffffffffffffffffffffffffffffffffffff160217905550612370806100736000396000f3fe6080604052600436106100865760003560e01c80637c726b69116100595780637c726b691461014757806382260f3514610184578063e814ce78146101c1578063ee6ba234146101dd578063f064c32e1461020857610086565b80630200102a1461008b5780630f08efe0146100c857806312e85585146100f35780634e66d34e1461011e575b600080fd5b34801561009757600080fd5b506100b260048036038101906100ad9190611932565b610233565b6040516100bf9190611ef3565b60405180910390f35b3480156100d457600080fd5b506100dd6103bc565b6040516100ea9190611e31565b60405180910390f35b3480156100ff57600080fd5b50610108610704565b6040516101159190611f31565b60405180910390f35b34801561012a57600080fd5b506101456004803603810190610140919061195b565b61070e565b005b34801561015357600080fd5b5061016e60048036038101906101699190611932565b6107d0565b60405161017b9190611f31565b60405180910390f35b34801561019057600080fd5b506101ab60048036038101906101a69190611932565b610818565b6040516101b89190611f15565b60405180910390f35b6101db60048036038101906101d691906118cf565b6109f4565b005b3480156101e957600080fd5b506101f2610eea565b6040516101ff9190611e31565b60405180910390f35b34801561021457600080fd5b5061021d6112b6565b60405161022a9190611e31565b60405180910390f35b61023b611700565b600660008381526020019081526020016000206040518060c0016040529081600082015481526020016001820160009054906101000a900473ffffffffffffffffffffffffffffffffffffffff1673ffffffffffffffffffffffffffffffffffffffff1673ffffffffffffffffffffffffffffffffffffffff1681526020016002820160009054906101000a900473ffffffffffffffffffffffffffffffffffffffff1673ffffffffffffffffffffffffffffffffffffffff1673ffffffffffffffffffffffffffffffffffffffff16815260200160038201805461031f906120c9565b80601f016020809104026020016040519081016040528092919081815260200182805461034b906120c9565b80156103985780601f1061036d57610100808354040283529160200191610398565b820191906000526020600020905b81548152906001019060200180831161037b57829003601f168201915b50505050508152602001600482015481526020016005820154815250509050919050565b606060006103ca6001611682565b905060006103d86002611682565b6103e26001611682565b6103ec9190612008565b90506000808267ffffffffffffffff811115610431577f4e487b7100000000000000000000000000000000000000000000000000000000600052604160045260246000fd5b60405190808252806020026020018201604052801561046a57816020015b610457611762565b81526020019060019003908161044f5790505b50905060005b848110156106f957600073ffffffffffffffffffffffffffffffffffffffff16600560006001846104a19190611fb2565b815260200190815260200160002060040160009054906101000a900473ffffffffffffffffffffffffffffffffffffffff1673ffffffffffffffffffffffffffffffffffffffff1614156106e6576000600560006001846105029190611fb2565b815260200190815260200160002060000154905060006005600083815260200190815260200160002090508060405180610100016040529081600082015481526020016001820160009054906101000a900473ffffffffffffffffffffffffffffffffffffffff1673ffffffffffffffffffffffffffffffffffffffff1673ffffffffffffffffffffffffffffffffffffffff168152602001600282015481526020016003820160009054906101000a900473ffffffffffffffffffffffffffffffffffffffff1673ffffffffffffffffffffffffffffffffffffffff1673ffffffffffffffffffffffffffffffffffffffff1681526020016004820160009054906101000a900473ffffffffffffffffffffffffffffffffffffffff1673ffffffffffffffffffffffffffffffffffffffff1673ffffffffffffffffffffffffffffffffffffffff168152602001600582015481526020016006820160009054906101000a900460ff161515151581526020016006820160019054906101000a900460ff1615151515815250508486815181106106c9577f4e487b7100000000000000000000000000000000000000000000000000000000600052603260045260246000fd5b60200260200101819052506001856106e19190611fb2565b945050505b80806106f1906120fb565b915050610470565b508094505050505090565b6000600454905090565b600360009054906101000a900473ffffffffffffffffffffffffffffffffffffffff1673ffffffffffffffffffffffffffffffffffffffff163373ffffffffffffffffffffffffffffffffffffffff161461079e576040517f08c379a000000000000000000000000000000000000000000000000000000000815260040161079590611e53565b60405180910390fd5b806005600084815260200190815260200160002060060160016101000a81548160ff0219169083151502179055505050565b60003073ffffffffffffffffffffffffffffffffffffffff163373ffffffffffffffffffffffffffffffffffffffff16141561080e57816004819055505b6004549050919050565b610820611762565b60008211801561083957506108356001611682565b8211155b610878576040517f08c379a000000000000000000000000000000000000000000000000000000000815260040161086f90611e73565b60405180910390fd5b6005600083815260200190815260200160002060405180610100016040529081600082015481526020016001820160009054906101000a900473ffffffffffffffffffffffffffffffffffffffff1673ffffffffffffffffffffffffffffffffffffffff1673ffffffffffffffffffffffffffffffffffffffff168152602001600282015481526020016003820160009054906101000a900473ffffffffffffffffffffffffffffffffffffffff1673ffffffffffffffffffffffffffffffffffffffff1673ffffffffffffffffffffffffffffffffffffffff1681526020016004820160009054906101000a900473ffffffffffffffffffffffffffffffffffffffff1673ffffffffffffffffffffffffffffffffffffffff1673ffffffffffffffffffffffffffffffffffffffff168152602001600582015481526020016006820160009054906101000a900460ff161515151581526020016006820160019054906101000a900460ff1615151515815250509050919050565b6109fc611690565b60008211610a3f576040517f08c379a0000000000000000000000000000000000000000000000000000000008152600401610a3690611e93565b60405180910390fd5b6004543414610a83576040517f08c379a0000000000000000000000000000000000000000000000000000000008152600401610a7a90611eb3565b60405180910390fd5b610a8d60016116e0565b6000610a996001611682565b90506040518061010001604052808281526020018673ffffffffffffffffffffffffffffffffffffffff1681526020018581526020013373ffffffffffffffffffffffffffffffffffffffff168152602001600073ffffffffffffffffffffffffffffffffffffffff168152602001848152602001600015158152602001831515815250600560008381526020019081526020016000206000820151816000015560208201518160010160006101000a81548173ffffffffffffffffffffffffffffffffffffffff021916908373ffffffffffffffffffffffffffffffffffffffff1602179055506040820151816002015560608201518160030160006101000a81548173ffffffffffffffffffffffffffffffffffffffff021916908373ffffffffffffffffffffffffffffffffffffffff16021790555060808201518160040160006101000a81548173ffffffffffffffffffffffffffffffffffffffff021916908373ffffffffffffffffffffffffffffffffffffffff16021790555060a0820151816005015560c08201518160060160006101000a81548160ff02191690831515021790555060e08201518160060160016101000a81548160ff0219169083151502179055509050508473ffffffffffffffffffffffffffffffffffffffff166323b872dd3330876040518463ffffffff1660e01b8152600401610ca393929190611da7565b600060405180830381600087803b158015610cbd57600080fd5b505af1158015610cd1573d6000803e3d6000fd5b505050506040518060c00160405280828152602001600073ffffffffffffffffffffffffffffffffffffffff1681526020013373ffffffffffffffffffffffffffffffffffffffff1681526020016040518060400160405280600481526020017f4d696e7400000000000000000000000000000000000000000000000000000000815250815260200184815260200142815250600660008381526020019081526020016000206000820151816000015560208201518160010160006101000a81548173ffffffffffffffffffffffffffffffffffffffff021916908373ffffffffffffffffffffffffffffffffffffffff16021790555060408201518160020160006101000a81548173ffffffffffffffffffffffffffffffffffffffff021916908373ffffffffffffffffffffffffffffffffffffffff1602179055506060820151816003019080519060200190610e2b9291906117ed565b506080820151816004015560a08201518160050155905050807ebf28291d338649b38f0e4dbcadcdf13fb96abac62c2c2582783e335f72a6bb6000338642604051610e799493929190611d4f565b60405180910390a2838573ffffffffffffffffffffffffffffffffffffffff16827fc99151f4453170a67bc7441775fde1a3bc3220c06645df1121e703aab5e7da5d33600088600089604051610ed3959493929190611dde565b60405180910390a450610ee46116f6565b50505050565b60606000610ef86001611682565b905060008060005b83811015610fa1573373ffffffffffffffffffffffffffffffffffffffff1660056000600184610f309190611fb2565b815260200190815260200160002060040160009054906101000a900473ffffffffffffffffffffffffffffffffffffffff1673ffffffffffffffffffffffffffffffffffffffff161415610f8e57600183610f8b9190611fb2565b92505b8080610f99906120fb565b915050610f00565b5060008267ffffffffffffffff811115610fe4577f4e487b7100000000000000000000000000000000000000000000000000000000600052604160045260246000fd5b60405190808252806020026020018201604052801561101d57816020015b61100a611762565b8152602001906001900390816110025790505b50905060005b848110156112ab573373ffffffffffffffffffffffffffffffffffffffff16600560006001846110539190611fb2565b815260200190815260200160002060040160009054906101000a900473ffffffffffffffffffffffffffffffffffffffff1673ffffffffffffffffffffffffffffffffffffffff161415611298576000600560006001846110b49190611fb2565b815260200190815260200160002060000154905060006005600083815260200190815260200160002090508060405180610100016040529081600082015481526020016001820160009054906101000a900473ffffffffffffffffffffffffffffffffffffffff1673ffffffffffffffffffffffffffffffffffffffff1673ffffffffffffffffffffffffffffffffffffffff168152602001600282015481526020016003820160009054906101000a900473ffffffffffffffffffffffffffffffffffffffff1673ffffffffffffffffffffffffffffffffffffffff1673ffffffffffffffffffffffffffffffffffffffff1681526020016004820160009054906101000a900473ffffffffffffffffffffffffffffffffffffffff1673ffffffffffffffffffffffffffffffffffffffff1673ffffffffffffffffffffffffffffffffffffffff168152602001600582015481526020016006820160009054906101000a900460ff161515151581526020016006820160019054906101000a900460ff16151515158152505084868151811061127b577f4e487b7100000000000000000000000000000000000000000000000000000000600052603260045260246000fd5b60200260200101819052506001856112939190611fb2565b945050505b80806112a3906120fb565b915050611023565b508094505050505090565b606060006112c46001611682565b905060008060005b8381101561136d573373ffffffffffffffffffffffffffffffffffffffff16600560006001846112fc9190611fb2565b815260200190815260200160002060030160009054906101000a900473ffffffffffffffffffffffffffffffffffffffff1673ffffffffffffffffffffffffffffffffffffffff16141561135a576001836113579190611fb2565b92505b8080611365906120fb565b9150506112cc565b5060008267ffffffffffffffff8111156113b0577f4e487b7100000000000000000000000000000000000000000000000000000000600052604160045260246000fd5b6040519080825280602002602001820160405280156113e957816020015b6113d6611762565b8152602001906001900390816113ce5790505b50905060005b84811015611677573373ffffffffffffffffffffffffffffffffffffffff166005600060018461141f9190611fb2565b815260200190815260200160002060030160009054906101000a900473ffffffffffffffffffffffffffffffffffffffff1673ffffffffffffffffffffffffffffffffffffffff161415611664576000600560006001846114809190611fb2565b815260200190815260200160002060000154905060006005600083815260200190815260200160002090508060405180610100016040529081600082015481526020016001820160009054906101000a900473ffffffffffffffffffffffffffffffffffffffff1673ffffffffffffffffffffffffffffffffffffffff1673ffffffffffffffffffffffffffffffffffffffff168152602001600282015481526020016003820160009054906101000a900473ffffffffffffffffffffffffffffffffffffffff1673ffffffffffffffffffffffffffffffffffffffff1673ffffffffffffffffffffffffffffffffffffffff1681526020016004820160009054906101000a900473ffffffffffffffffffffffffffffffffffffffff1673ffffffffffffffffffffffffffffffffffffffff1673ffffffffffffffffffffffffffffffffffffffff168152602001600582015481526020016006820160009054906101000a900460ff161515151581526020016006820160019054906101000a900460ff161515151581525050848681518110611647577f4e487b7100000000000000000000000000000000000000000000000000000000600052603260045260246000fd5b602002602001018190525060018561165f9190611fb2565b945050505b808061166f906120fb565b9150506113ef565b508094505050505090565b600081600001549050919050565b600260005414156116d6576040517f08c379a00000000000000000000000000000000000000000000000000000000081526004016116cd90611ed3565b60405180910390fd5b6002600081905550565b6001816000016000828254019250508190555050565b6001600081905550565b6040518060c0016040528060008152602001600073ffffffffffffffffffffffffffffffffffffffff168152602001600073ffffffffffffffffffffffffffffffffffffffff1681526020016060815260200160008152602001600081525090565b60405180610100016040528060008152602001600073ffffffffffffffffffffffffffffffffffffffff16815260200160008152602001600073ffffffffffffffffffffffffffffffffffffffff168152602001600073ffffffffffffffffffffffffffffffffffffffff168152602001600081526020016000151581526020016000151581525090565b8280546117f9906120c9565b90600052602060002090601f01602090048101928261181b5760008555611862565b82601f1061183457805160ff1916838001178555611862565b82800160010185558215611862579182015b82811115611861578251825591602001919060010190611846565b5b50905061186f9190611873565b5090565b5b8082111561188c576000816000905550600101611874565b5090565b60008135905061189f816122f5565b92915050565b6000813590506118b48161230c565b92915050565b6000813590506118c981612323565b92915050565b600080600080608085870312156118e557600080fd5b60006118f387828801611890565b9450506020611904878288016118ba565b9350506040611915878288016118ba565b9250506060611926878288016118a5565b91505092959194509250565b60006020828403121561194457600080fd5b6000611952848285016118ba565b91505092915050565b6000806040838503121561196e57600080fd5b600061197c858286016118ba565b925050602061198d858286016118a5565b9150509250929050565b60006119a38383611bed565b6101008301905092915050565b6119b98161204e565b82525050565b6119c88161203c565b82525050565b6119d78161203c565b82525050565b60006119e882611f5c565b6119f28185611f7f565b93506119fd83611f4c565b8060005b83811015611a2e578151611a158882611997565b9750611a2083611f72565b925050600181019050611a01565b5085935050505092915050565b611a4481612060565b82525050565b611a5381612060565b82525050565b6000611a6482611f67565b611a6e8185611f90565b9350611a7e818560208601612096565b611a87816121a2565b840191505092915050565b6000611a9f600483611fa1565b9150611aaa826121b3565b602082019050919050565b6000611ac2602683611fa1565b9150611acd826121dc565b604082019050919050565b6000611ae5600f83611fa1565b9150611af08261222b565b602082019050919050565b6000611b08601883611fa1565b9150611b1382612254565b602082019050919050565b6000611b2b602483611fa1565b9150611b368261227d565b604082019050919050565b6000611b4e601f83611fa1565b9150611b59826122cc565b602082019050919050565b600060c083016000830151611b7c6000860182611d31565b506020830151611b8f60208601826119bf565b506040830151611ba260408601826119bf565b5060608301518482036060860152611bba8282611a59565b9150506080830151611bcf6080860182611d31565b5060a0830151611be260a0860182611d31565b508091505092915050565b61010082016000820151611c046000850182611d31565b506020820151611c1760208501826119bf565b506040820151611c2a6040850182611d31565b506060820151611c3d60608501826119b0565b506080820151611c5060808501826119b0565b5060a0820151611c6360a0850182611d31565b5060c0820151611c7660c0850182611a3b565b5060e0820151611c8960e0850182611a3b565b50505050565b61010082016000820151611ca66000850182611d31565b506020820151611cb960208501826119bf565b506040820151611ccc6040850182611d31565b506060820151611cdf60608501826119b0565b506080820151611cf260808501826119b0565b5060a0820151611d0560a0850182611d31565b5060c0820151611d1860c0850182611a3b565b5060e0820151611d2b60e0850182611a3b565b50505050565b611d3a8161208c565b82525050565b611d498161208c565b82525050565b600060a082019050611d6460008301876119ce565b611d7160208301866119ce565b8181036040830152611d8281611a92565b9050611d916060830185611d40565b611d9e6080830184611d40565b95945050505050565b6000606082019050611dbc60008301866119ce565b611dc960208301856119ce565b611dd66040830184611d40565b949350505050565b600060a082019050611df360008301886119ce565b611e0060208301876119ce565b611e0d6040830186611d40565b611e1a6060830185611a4a565b611e276080830184611a4a565b9695505050505050565b60006020820190508181036000830152611e4b81846119dd565b905092915050565b60006020820190508181036000830152611e6c81611ab5565b9050919050565b60006020820190508181036000830152611e8c81611ad8565b9050919050565b60006020820190508181036000830152611eac81611afb565b9050919050565b60006020820190508181036000830152611ecc81611b1e565b9050919050565b60006020820190508181036000830152611eec81611b41565b9050919050565b60006020820190508181036000830152611f0d8184611b64565b905092915050565b600061010082019050611f2b6000830184611c8f565b92915050565b6000602082019050611f466000830184611d40565b92915050565b6000819050602082019050919050565b600081519050919050565b600081519050919050565b6000602082019050919050565b600082825260208201905092915050565b600082825260208201905092915050565b600082825260208201905092915050565b6000611fbd8261208c565b9150611fc88361208c565b9250827fffffffffffffffffffffffffffffffffffffffffffffffffffffffffffffffff03821115611ffd57611ffc612144565b5b828201905092915050565b60006120138261208c565b915061201e8361208c565b92508282101561203157612030612144565b5b828203905092915050565b60006120478261206c565b9050919050565b60006120598261206c565b9050919050565b60008115159050919050565b600073ffffffffffffffffffffffffffffffffffffffff82169050919050565b6000819050919050565b60005b838110156120b4578082015181840152602081019050612099565b838111156120c3576000848401525b50505050565b600060028204905060018216806120e157607f821691505b602082108114156120f5576120f4612173565b5b50919050565b60006121068261208c565b91507fffffffffffffffffffffffffffffffffffffffffffffffffffffffffffffffff82141561213957612138612144565b5b600182019050919050565b7f4e487b7100000000000000000000000000000000000000000000000000000000600052601160045260246000fd5b7f4e487b7100000000000000000000000000000000000000000000000000000000600052602260045260246000fd5b6000601f19601f8301169050919050565b7f4d696e7400000000000000000000000000000000000000000000000000000000600082015250565b7f4f6e6c7920746865206f776e65722063616e207570646174652069735265776160008201527f72644974656d0000000000000000000000000000000000000000000000000000602082015250565b7f496e76616c6964204974656d2049440000000000000000000000000000000000600082015250565b7f5072696365206d7573742062652061626f7665207a65726f0000000000000000600082015250565b7f5072696365206d75737420626520657175616c20746f206c697374696e67207060008201527f7269636500000000000000000000000000000000000000000000000000000000602082015250565b7f5265656e7472616e637947756172643a207265656e7472616e742063616c6c00600082015250565b6122fe8161203c565b811461230957600080fd5b50565b61231581612060565b811461232057600080fd5b50565b61232c8161208c565b811461233757600080fd5b5056fea264697066735822122000d13b1fdf2935e12e55a0a646693cd2534988683cd74d3990537d1d6acca4ba64736f6c63430008040033",
  "linkReferences": {},
  "deployedLinkReferences": {}
}