{
  "_format": "hh-sol-artifact-1",
  "contractName": "Marketplace",
  "sourceName": "contracts/Marketplace.sol",
  "abi": [
    {
      "inputs": [],
      "stateMutability": "nonpayable",
      "type": "constructor"
    },
    {
      "anonymous": false,
      "inputs": [
        {
          "indexed": true,
          "internalType": "address",
          "name": "owner",
          "type": "address"
        },
        {
          "indexed": true,
          "internalType": "address",
          "name": "approved",
          "type": "address"
        },
        {
          "indexed": true,
          "internalType": "uint256",
          "name": "tokenId",
          "type": "uint256"
        }
      ],
      "name": "Approval",
      "type": "event"
    },
    {
      "anonymous": false,
      "inputs": [
        {
          "indexed": true,
          "internalType": "address",
          "name": "owner",
          "type": "address"
        },
        {
          "indexed": true,
          "internalType": "address",
          "name": "operator",
          "type": "address"
        },
        {
          "indexed": false,
          "internalType": "bool",
          "name": "approved",
          "type": "bool"
        }
      ],
      "name": "ApprovalForAll",
      "type": "event"
    },
    {
      "anonymous": false,
      "inputs": [
        {
          "indexed": false,
          "internalType": "uint256",
          "name": "_fromTokenId",
          "type": "uint256"
        },
        {
          "indexed": false,
          "internalType": "uint256",
          "name": "_toTokenId",
          "type": "uint256"
        }
      ],
      "name": "BatchMetadataUpdate",
      "type": "event"
    },
    {
      "anonymous": false,
      "inputs": [
        {
          "indexed": true,
          "internalType": "uint256",
          "name": "itemId",
          "type": "uint256"
        },
        {
          "indexed": false,
          "internalType": "address",
          "name": "seller",
          "type": "address"
        },
        {
          "indexed": false,
          "internalType": "address",
          "name": "owner",
          "type": "address"
        },
        {
          "indexed": false,
          "internalType": "address",
          "name": "creator",
          "type": "address"
        },
        {
          "indexed": false,
          "internalType": "uint256",
          "name": "price",
          "type": "uint256"
        },
        {
          "indexed": false,
          "internalType": "bool",
          "name": "sold",
          "type": "bool"
        },
        {
          "indexed": false,
          "internalType": "bool",
          "name": "isRewardItem",
          "type": "bool"
        },
        {
          "indexed": false,
          "internalType": "uint256",
          "name": "likes",
          "type": "uint256"
        },
        {
          "indexed": false,
          "internalType": "uint256",
          "name": "views",
          "type": "uint256"
        },
        {
          "indexed": false,
          "internalType": "bool",
          "name": "isListed",
          "type": "bool"
        }
      ],
      "name": "MarketItemCreated",
      "type": "event"
    },
    {
      "anonymous": false,
      "inputs": [
        {
          "indexed": false,
          "internalType": "uint256",
          "name": "_tokenId",
          "type": "uint256"
        }
      ],
      "name": "MetadataUpdate",
      "type": "event"
    },
    {
      "anonymous": false,
      "inputs": [
        {
          "indexed": true,
          "internalType": "address",
          "name": "from",
          "type": "address"
        },
        {
          "indexed": true,
          "internalType": "address",
          "name": "to",
          "type": "address"
        },
        {
          "indexed": true,
          "internalType": "uint256",
          "name": "tokenId",
          "type": "uint256"
        }
      ],
      "name": "Transfer",
      "type": "event"
    },
    {
      "inputs": [
        {
          "internalType": "uint256",
          "name": "",
          "type": "uint256"
        },
        {
          "internalType": "uint256",
          "name": "",
          "type": "uint256"
        }
      ],
      "name": "activities",
      "outputs": [
        {
          "internalType": "uint256",
          "name": "itemId",
          "type": "uint256"
        },
        {
          "internalType": "address",
          "name": "from",
          "type": "address"
        },
        {
          "internalType": "address",
          "name": "to",
          "type": "address"
        },
        {
          "internalType": "string",
          "name": "eventType",
          "type": "string"
        },
        {
          "internalType": "uint256",
          "name": "price",
          "type": "uint256"
        },
        {
          "internalType": "uint256",
          "name": "timestamp",
          "type": "uint256"
        }
      ],
      "stateMutability": "view",
      "type": "function"
    },
    {
      "inputs": [
        {
          "internalType": "uint256",
          "name": "tokenId",
          "type": "uint256"
        },
        {
          "internalType": "address",
          "name": "from",
          "type": "address"
        },
        {
          "internalType": "address",
          "name": "to",
          "type": "address"
        },
        {
          "internalType": "string",
          "name": "eventType",
          "type": "string"
        },
        {
          "internalType": "uint256",
          "name": "price",
          "type": "uint256"
        }
      ],
      "name": "addActivity",
      "outputs": [],
      "stateMutability": "nonpayable",
      "type": "function"
    },
    {
      "inputs": [
        {
          "internalType": "uint256",
          "name": "itemId",
          "type": "uint256"
        }
      ],
      "name": "addLike",
      "outputs": [],
      "stateMutability": "nonpayable",
      "type": "function"
    },
    {
      "inputs": [
        {
          "internalType": "uint256",
          "name": "tokenId",
          "type": "uint256"
        },
        {
          "internalType": "uint256",
          "name": "price",
          "type": "uint256"
        }
      ],
      "name": "addPriceHistory",
      "outputs": [],
      "stateMutability": "nonpayable",
      "type": "function"
    },
    {
      "inputs": [
        {
          "internalType": "address",
          "name": "to",
          "type": "address"
        },
        {
          "internalType": "uint256",
          "name": "tokenId",
          "type": "uint256"
        }
      ],
      "name": "approve",
      "outputs": [],
      "stateMutability": "nonpayable",
      "type": "function"
    },
    {
      "inputs": [
        {
          "internalType": "address",
          "name": "owner",
          "type": "address"
        }
      ],
      "name": "balanceOf",
      "outputs": [
        {
          "internalType": "uint256",
          "name": "",
          "type": "uint256"
        }
      ],
      "stateMutability": "view",
      "type": "function"
    },
    {
      "inputs": [
        {
          "internalType": "uint256",
          "name": "tokenId",
          "type": "uint256"
        }
      ],
      "name": "buyMarketItem",
      "outputs": [],
      "stateMutability": "payable",
      "type": "function"
    },
    {
      "inputs": [
        {
          "internalType": "string",
          "name": "tokenURI",
          "type": "string"
        },
        {
          "internalType": "uint256",
          "name": "price",
          "type": "uint256"
        }
      ],
      "name": "createToken",
      "outputs": [
        {
          "internalType": "uint256",
          "name": "",
          "type": "uint256"
        }
      ],
      "stateMutability": "payable",
      "type": "function"
    },
    {
      "inputs": [],
      "name": "fetchItemsCreated",
      "outputs": [
        {
          "components": [
            {
              "internalType": "uint256",
              "name": "itemId",
              "type": "uint256"
            },
            {
              "internalType": "address payable",
              "name": "seller",
              "type": "address"
            },
            {
              "internalType": "address payable",
              "name": "owner",
              "type": "address"
            },
            {
              "internalType": "address payable",
              "name": "creator",
              "type": "address"
            },
            {
              "internalType": "uint256",
              "name": "price",
              "type": "uint256"
            },
            {
              "internalType": "bool",
              "name": "sold",
              "type": "bool"
            },
            {
              "internalType": "bool",
              "name": "isRewardItem",
              "type": "bool"
            },
            {
              "internalType": "uint256",
              "name": "likes",
              "type": "uint256"
            },
            {
              "internalType": "uint256",
              "name": "views",
              "type": "uint256"
            },
            {
              "internalType": "bool",
              "name": "isListed",
              "type": "bool"
            }
          ],
          "internalType": "struct Marketplace.MarketItem[]",
          "name": "",
          "type": "tuple[]"
        }
      ],
      "stateMutability": "view",
      "type": "function"
    },
    {
      "inputs": [],
      "name": "fetchMarketItems",
      "outputs": [
        {
          "components": [
            {
              "internalType": "uint256",
              "name": "itemId",
              "type": "uint256"
            },
            {
              "internalType": "address payable",
              "name": "seller",
              "type": "address"
            },
            {
              "internalType": "address payable",
              "name": "owner",
              "type": "address"
            },
            {
              "internalType": "address payable",
              "name": "creator",
              "type": "address"
            },
            {
              "internalType": "uint256",
              "name": "price",
              "type": "uint256"
            },
            {
              "internalType": "bool",
              "name": "sold",
              "type": "bool"
            },
            {
              "internalType": "bool",
              "name": "isRewardItem",
              "type": "bool"
            },
            {
              "internalType": "uint256",
              "name": "likes",
              "type": "uint256"
            },
            {
              "internalType": "uint256",
              "name": "views",
              "type": "uint256"
            },
            {
              "internalType": "bool",
              "name": "isListed",
              "type": "bool"
            }
          ],
          "internalType": "struct Marketplace.MarketItem[]",
          "name": "",
          "type": "tuple[]"
        }
      ],
      "stateMutability": "view",
      "type": "function"
    },
    {
      "inputs": [],
      "name": "fetchPurchasedNFTs",
      "outputs": [
        {
          "components": [
            {
              "internalType": "uint256",
              "name": "itemId",
              "type": "uint256"
            },
            {
              "internalType": "address payable",
              "name": "seller",
              "type": "address"
            },
            {
              "internalType": "address payable",
              "name": "owner",
              "type": "address"
            },
            {
              "internalType": "address payable",
              "name": "creator",
              "type": "address"
            },
            {
              "internalType": "uint256",
              "name": "price",
              "type": "uint256"
            },
            {
              "internalType": "bool",
              "name": "sold",
              "type": "bool"
            },
            {
              "internalType": "bool",
              "name": "isRewardItem",
              "type": "bool"
            },
            {
              "internalType": "uint256",
              "name": "likes",
              "type": "uint256"
            },
            {
              "internalType": "uint256",
              "name": "views",
              "type": "uint256"
            },
            {
              "internalType": "bool",
              "name": "isListed",
              "type": "bool"
            }
          ],
          "internalType": "struct Marketplace.MarketItem[]",
          "name": "",
          "type": "tuple[]"
        }
      ],
      "stateMutability": "view",
      "type": "function"
    },
    {
      "inputs": [
        {
          "internalType": "uint256",
          "name": "tokenId",
          "type": "uint256"
        }
      ],
      "name": "getActivities",
      "outputs": [
        {
          "components": [
            {
              "internalType": "uint256",
              "name": "itemId",
              "type": "uint256"
            },
            {
              "internalType": "address",
              "name": "from",
              "type": "address"
            },
            {
              "internalType": "address",
              "name": "to",
              "type": "address"
            },
            {
              "internalType": "string",
              "name": "eventType",
              "type": "string"
            },
            {
              "internalType": "uint256",
              "name": "price",
              "type": "uint256"
            },
            {
              "internalType": "uint256",
              "name": "timestamp",
              "type": "uint256"
            }
          ],
          "internalType": "struct Marketplace.Activity[]",
          "name": "",
          "type": "tuple[]"
        }
      ],
      "stateMutability": "view",
      "type": "function"
    },
    {
      "inputs": [
        {
          "internalType": "uint256",
          "name": "tokenId",
          "type": "uint256"
        }
      ],
      "name": "getApproved",
      "outputs": [
        {
          "internalType": "address",
          "name": "",
          "type": "address"
        }
      ],
      "stateMutability": "view",
      "type": "function"
    },
    {
      "inputs": [
        {
          "internalType": "uint256",
          "name": "itemId",
          "type": "uint256"
        }
      ],
      "name": "getLikes",
      "outputs": [
        {
          "components": [
            {
              "internalType": "uint256",
              "name": "itemId",
              "type": "uint256"
            },
            {
              "internalType": "address",
              "name": "from",
              "type": "address"
            },
            {
              "internalType": "uint256",
              "name": "timestamp",
              "type": "uint256"
            }
          ],
          "internalType": "struct Marketplace.Like[]",
          "name": "",
          "type": "tuple[]"
        }
      ],
      "stateMutability": "view",
      "type": "function"
    },
    {
      "inputs": [],
      "name": "getListingPrice",
      "outputs": [
        {
          "internalType": "uint256",
          "name": "",
          "type": "uint256"
        }
      ],
      "stateMutability": "view",
      "type": "function"
    },
    {
      "inputs": [
        {
          "internalType": "uint256",
          "name": "itemId",
          "type": "uint256"
        }
      ],
      "name": "getNFTDetails",
      "outputs": [
        {
          "components": [
            {
              "internalType": "uint256",
              "name": "itemId",
              "type": "uint256"
            },
            {
              "internalType": "address payable",
              "name": "seller",
              "type": "address"
            },
            {
              "internalType": "address payable",
              "name": "owner",
              "type": "address"
            },
            {
              "internalType": "address payable",
              "name": "creator",
              "type": "address"
            },
            {
              "internalType": "uint256",
              "name": "price",
              "type": "uint256"
            },
            {
              "internalType": "bool",
              "name": "sold",
              "type": "bool"
            },
            {
              "internalType": "bool",
              "name": "isRewardItem",
              "type": "bool"
            },
            {
              "internalType": "uint256",
              "name": "likes",
              "type": "uint256"
            },
            {
              "internalType": "uint256",
              "name": "views",
              "type": "uint256"
            },
            {
              "internalType": "bool",
              "name": "isListed",
              "type": "bool"
            }
          ],
          "internalType": "struct Marketplace.MarketItem",
          "name": "",
          "type": "tuple"
        }
      ],
      "stateMutability": "view",
      "type": "function"
    },
    {
      "inputs": [
        {
          "internalType": "uint256",
          "name": "tokenId",
          "type": "uint256"
        }
      ],
      "name": "getPriceHistory",
      "outputs": [
        {
          "components": [
            {
              "internalType": "uint256",
              "name": "itemId",
              "type": "uint256"
            },
            {
              "internalType": "uint256",
              "name": "price",
              "type": "uint256"
            },
            {
              "internalType": "uint256",
              "name": "timestamp",
              "type": "uint256"
            }
          ],
          "internalType": "struct Marketplace.PriceHistory[]",
          "name": "",
          "type": "tuple[]"
        }
      ],
      "stateMutability": "view",
      "type": "function"
    },
    {
      "inputs": [
        {
          "internalType": "address",
          "name": "owner",
          "type": "address"
        },
        {
          "internalType": "address",
          "name": "operator",
          "type": "address"
        }
      ],
      "name": "isApprovedForAll",
      "outputs": [
        {
          "internalType": "bool",
          "name": "",
          "type": "bool"
        }
      ],
      "stateMutability": "view",
      "type": "function"
    },
    {
      "inputs": [
        {
          "internalType": "uint256",
          "name": "",
          "type": "uint256"
        },
        {
          "internalType": "uint256",
          "name": "",
          "type": "uint256"
        }
      ],
      "name": "likes",
      "outputs": [
        {
          "internalType": "uint256",
          "name": "itemId",
          "type": "uint256"
        },
        {
          "internalType": "address",
          "name": "from",
          "type": "address"
        },
        {
          "internalType": "uint256",
          "name": "timestamp",
          "type": "uint256"
        }
      ],
      "stateMutability": "view",
      "type": "function"
    },
    {
      "inputs": [],
      "name": "name",
      "outputs": [
        {
          "internalType": "string",
          "name": "",
          "type": "string"
        }
      ],
      "stateMutability": "view",
      "type": "function"
    },
    {
      "inputs": [
        {
          "internalType": "uint256",
          "name": "tokenId",
          "type": "uint256"
        }
      ],
      "name": "ownerOf",
      "outputs": [
        {
          "internalType": "address",
          "name": "",
          "type": "address"
        }
      ],
      "stateMutability": "view",
      "type": "function"
    },
    {
      "inputs": [
        {
          "internalType": "uint256",
          "name": "",
          "type": "uint256"
        },
        {
          "internalType": "uint256",
          "name": "",
          "type": "uint256"
        }
      ],
      "name": "priceHistories",
      "outputs": [
        {
          "internalType": "uint256",
          "name": "itemId",
          "type": "uint256"
        },
        {
          "internalType": "uint256",
          "name": "price",
          "type": "uint256"
        },
        {
          "internalType": "uint256",
          "name": "timestamp",
          "type": "uint256"
        }
      ],
      "stateMutability": "view",
      "type": "function"
    },
    {
      "inputs": [
        {
          "internalType": "uint256",
          "name": "itemId",
          "type": "uint256"
        }
      ],
      "name": "removeLike",
      "outputs": [],
      "stateMutability": "nonpayable",
      "type": "function"
    },
    {
      "inputs": [
        {
          "internalType": "uint256",
          "name": "tokenId",
          "type": "uint256"
        },
        {
          "internalType": "uint256",
          "name": "price",
          "type": "uint256"
        }
      ],
      "name": "resellToken",
      "outputs": [],
      "stateMutability": "payable",
      "type": "function"
    },
    {
      "inputs": [
        {
          "internalType": "address",
          "name": "from",
          "type": "address"
        },
        {
          "internalType": "address",
          "name": "to",
          "type": "address"
        },
        {
          "internalType": "uint256",
          "name": "tokenId",
          "type": "uint256"
        }
      ],
      "name": "safeTransferFrom",
      "outputs": [],
      "stateMutability": "nonpayable",
      "type": "function"
    },
    {
      "inputs": [
        {
          "internalType": "address",
          "name": "from",
          "type": "address"
        },
        {
          "internalType": "address",
          "name": "to",
          "type": "address"
        },
        {
          "internalType": "uint256",
          "name": "tokenId",
          "type": "uint256"
        },
        {
          "internalType": "bytes",
          "name": "data",
          "type": "bytes"
        }
      ],
      "name": "safeTransferFrom",
      "outputs": [],
      "stateMutability": "nonpayable",
      "type": "function"
    },
    {
      "inputs": [
        {
          "internalType": "address",
          "name": "operator",
          "type": "address"
        },
        {
          "internalType": "bool",
          "name": "approved",
          "type": "bool"
        }
      ],
      "name": "setApprovalForAll",
      "outputs": [],
      "stateMutability": "nonpayable",
      "type": "function"
    },
    {
      "inputs": [
        {
          "internalType": "bytes4",
          "name": "interfaceId",
          "type": "bytes4"
        }
      ],
      "name": "supportsInterface",
      "outputs": [
        {
          "internalType": "bool",
          "name": "",
          "type": "bool"
        }
      ],
      "stateMutability": "view",
      "type": "function"
    },
    {
      "inputs": [],
      "name": "symbol",
      "outputs": [
        {
          "internalType": "string",
          "name": "",
          "type": "string"
        }
      ],
      "stateMutability": "view",
      "type": "function"
    },
    {
      "inputs": [
        {
          "internalType": "uint256",
          "name": "tokenId",
          "type": "uint256"
        }
      ],
      "name": "tokenURI",
      "outputs": [
        {
          "internalType": "string",
          "name": "",
          "type": "string"
        }
      ],
      "stateMutability": "view",
      "type": "function"
    },
    {
      "inputs": [
        {
          "internalType": "address",
          "name": "from",
          "type": "address"
        },
        {
          "internalType": "address",
          "name": "to",
          "type": "address"
        },
        {
          "internalType": "uint256",
          "name": "tokenId",
          "type": "uint256"
        }
      ],
      "name": "transferFrom",
      "outputs": [],
      "stateMutability": "nonpayable",
      "type": "function"
    },
    {
      "inputs": [
        {
          "internalType": "uint256",
          "name": "itemId",
          "type": "uint256"
        },
        {
          "internalType": "bool",
          "name": "isRewardItem",
          "type": "bool"
        }
      ],
      "name": "updateIsRewardItem",
      "outputs": [],
      "stateMutability": "nonpayable",
      "type": "function"
    },
    {
      "inputs": [
        {
          "internalType": "uint256",
          "name": "_price",
          "type": "uint256"
        }
      ],
      "name": "updateListingPrice",
      "outputs": [],
      "stateMutability": "payable",
      "type": "function"
    },
    {
      "inputs": [
        {
          "internalType": "uint256",
          "name": "tokenId",
          "type": "uint256"
        },
        {
          "internalType": "string",
          "name": "newTokenURI",
          "type": "string"
        }
      ],
      "name": "updateTokenURI",
      "outputs": [],
      "stateMutability": "nonpayable",
      "type": "function"
    }
  ],
  "bytecode": "0x6080604052654a941cdf2000600b553480156200001b57600080fd5b506040518060400160405280601581526020017f4e666c75656e6365722d4d61726b6574706c61636500000000000000000000008152506040518060400160405280600481526020017f4e464d50000000000000000000000000000000000000000000000000000000008152508160009080519060200190620000a09291906200010b565b508060019080519060200190620000b99291906200010b565b505050600160078190555033600a60006101000a81548173ffffffffffffffffffffffffffffffffffffffff021916908373ffffffffffffffffffffffffffffffffffffffff16021790555062000220565b8280546200011990620001bb565b90600052602060002090601f0160209004810192826200013d576000855562000189565b82601f106200015857805160ff191683800117855562000189565b8280016001018555821562000189579182015b82811115620001885782518255916020019190600101906200016b565b5b5090506200019891906200019c565b5090565b5b80821115620001b75760008160009055506001016200019d565b5090565b60006002820490506001821680620001d457607f821691505b60208210811415620001eb57620001ea620001f1565b5b50919050565b7f4e487b7100000000000000000000000000000000000000000000000000000000600052602260045260246000fd5b615e1280620002306000396000f3fe6080604052600436106101f95760003560e01c806370a082311161010d578063b88d4fde116100a0578063ee6ba2341161006f578063ee6ba23414610757578063f064c32e14610782578063fca97fdb146107ad578063fcfc1a76146107ea578063fd1a98a51461082c576101f9565b8063b88d4fde14610698578063c87b56dd146106c1578063e219fc75146106fe578063e985e9c51461071a576101f9565b8063a209081e116100dc578063a209081e146105ed578063a22cb4651461062a578063a7656e3314610653578063ae677aa31461067c576101f9565b806370a082311461051857806372b3b6201461055557806382260f351461058557806395d89b41146105c2576101f9565b806323b872dd116101905780633a52c6901161015f5780633a52c6901461042157806342842e0e1461044a5780634bd738c7146104735780634e66d34e146104b25780636352211e146104db576101f9565b806323b872dd14610374578063263457f21461039d578063351901c3146103dc578063378a35cd146103f8576101f9565b80630f08efe0116101cc5780630f08efe0146102cc57806312e85585146102f757806318e97fd11461032257806319a0782e1461034b576101f9565b806301ffc9a7146101fe57806306fdde031461023b578063081812fc14610266578063095ea7b3146102a3575b600080fd5b34801561020a57600080fd5b50610225600480360381019061022091906144e0565b610869565b6040516102329190615105565b60405180910390f35b34801561024757600080fd5b506102506108ca565b60405161025d9190615120565b60405180910390f35b34801561027257600080fd5b5061028d60048036038101906102889190614586565b61095c565b60405161029a9190614f89565b60405180910390f35b3480156102af57600080fd5b506102ca60048036038101906102c591906144a4565b6109a2565b005b3480156102d857600080fd5b506102e1610aba565b6040516102ee91906150c1565b60405180910390f35b34801561030357600080fd5b5061030c610e10565b604051610319919061539e565b60405180910390f35b34801561032e57600080fd5b506103496004803603810190610344919061467a565b610e1a565b005b34801561035757600080fd5b50610372600480360381019061036d91906145af565b610e28565b005b34801561038057600080fd5b5061039b6004803603810190610396919061439e565b610f95565b005b3480156103a957600080fd5b506103c460048036038101906103bf91906146ce565b610ff5565b6040516103d393929190615421565b60405180910390f35b6103f660048036038101906103f19190614586565b61105c565b005b34801561040457600080fd5b5061041f600480360381019061041a9190614586565b61130d565b005b34801561042d57600080fd5b50610448600480360381019061044391906146ce565b61140e565b005b34801561045657600080fd5b50610471600480360381019061046c919061439e565b61148f565b005b34801561047f57600080fd5b5061049a600480360381019061049591906146ce565b6114af565b6040516104a993929190615458565b60405180910390f35b3480156104be57600080fd5b506104d960048036038101906104d4919061463e565b6114f6565b005b3480156104e757600080fd5b5061050260048036038101906104fd9190614586565b6115b8565b60405161050f9190614f89565b60405180910390f35b34801561052457600080fd5b5061053f600480360381019061053a9190614339565b61163f565b60405161054c919061539e565b60405180910390f35b61056f600480360381019061056a9190614532565b6116f7565b60405161057c919061539e565b60405180910390f35b34801561059157600080fd5b506105ac60048036038101906105a79190614586565b611739565b6040516105b99190615382565b60405180910390f35b3480156105ce57600080fd5b506105d761193a565b6040516105e49190615120565b60405180910390f35b3480156105f957600080fd5b50610614600480360381019061060f9190614586565b6119cc565b604051610621919061509f565b60405180910390f35b34801561063657600080fd5b50610651600480360381019061064c9190614468565b611aa8565b005b34801561065f57600080fd5b5061067a60048036038101906106759190614586565b611abe565b005b61069660048036038101906106919190614586565b611c6e565b005b3480156106a457600080fd5b506106bf60048036038101906106ba91906143ed565b611c78565b005b3480156106cd57600080fd5b506106e860048036038101906106e39190614586565b611cda565b6040516106f59190615120565b60405180910390f35b610718600480360381019061071391906146ce565b611ded565b005b34801561072657600080fd5b50610741600480360381019061073c9190614362565b612060565b60405161074e9190615105565b60405180910390f35b34801561076357600080fd5b5061076c6120f4565b60405161077991906150c1565b60405180910390f35b34801561078e57600080fd5b506107976124cf565b6040516107a491906150c1565b60405180910390f35b3480156107b957600080fd5b506107d460048036038101906107cf9190614586565b6128aa565b6040516107e1919061507d565b60405180910390f35b3480156107f657600080fd5b50610811600480360381019061080c91906146ce565b612a78565b604051610823969594939291906153b9565b60405180910390f35b34801561083857600080fd5b50610853600480360381019061084e9190614586565b612b99565b60405161086091906150e3565b60405180910390f35b6000634906490660e01b7bffffffffffffffffffffffffffffffffffffffffffffffffffffffff1916827bffffffffffffffffffffffffffffffffffffffffffffffffffffffff191614806108c357506108c282612c29565b5b9050919050565b6060600080546108d9906157b2565b80601f0160208091040260200160405190810160405280929190818152602001828054610905906157b2565b80156109525780601f1061092757610100808354040283529160200191610952565b820191906000526020600020905b81548152906001019060200180831161093557829003601f168201915b5050505050905090565b600061096782612d0b565b6004600083815260200190815260200160002060009054906101000a900473ffffffffffffffffffffffffffffffffffffffff169050919050565b60006109ad826115b8565b90508073ffffffffffffffffffffffffffffffffffffffff168373ffffffffffffffffffffffffffffffffffffffff161415610a1e576040517f08c379a0000000000000000000000000000000000000000000000000000000008152600401610a1590615302565b60405180910390fd5b8073ffffffffffffffffffffffffffffffffffffffff16610a3d612d56565b73ffffffffffffffffffffffffffffffffffffffff161480610a6c5750610a6b81610a66612d56565b612060565b5b610aab576040517f08c379a0000000000000000000000000000000000000000000000000000000008152600401610aa290615342565b60405180910390fd5b610ab58383612d5e565b505050565b60606000610ac86008612e17565b90506000610ad66009612e17565b610ae06008612e17565b610aea91906156a4565b90506000808267ffffffffffffffff811115610b2f577f4e487b7100000000000000000000000000000000000000000000000000000000600052604160045260246000fd5b604051908082528060200260200182016040528015610b6857816020015b610b556140c2565b815260200190600190039081610b4d5790505b50905060005b84811015610e05573073ffffffffffffffffffffffffffffffffffffffff16600c6000600184610b9e919061564e565b815260200190815260200160002060020160009054906101000a900473ffffffffffffffffffffffffffffffffffffffff1673ffffffffffffffffffffffffffffffffffffffff161415610df2576000600182610bfb919061564e565b90506000600c600083815260200190815260200160002090508060405180610140016040529081600082015481526020016001820160009054906101000a900473ffffffffffffffffffffffffffffffffffffffff1673ffffffffffffffffffffffffffffffffffffffff1673ffffffffffffffffffffffffffffffffffffffff1681526020016002820160009054906101000a900473ffffffffffffffffffffffffffffffffffffffff1673ffffffffffffffffffffffffffffffffffffffff1673ffffffffffffffffffffffffffffffffffffffff1681526020016003820160009054906101000a900473ffffffffffffffffffffffffffffffffffffffff1673ffffffffffffffffffffffffffffffffffffffff1673ffffffffffffffffffffffffffffffffffffffff168152602001600482015481526020016005820160009054906101000a900460ff161515151581526020016005820160019054906101000a900460ff1615151515815260200160068201548152602001600782015481526020016008820160009054906101000a900460ff161515151581525050848681518110610dd5577f4e487b7100000000000000000000000000000000000000000000000000000000600052603260045260246000fd5b6020026020010181905250600185610ded919061564e565b945050505b8080610dfd90615815565b915050610b6e565b508094505050505090565b6000600b54905090565b610e248282612e25565b5050565b60006040518060c001604052808781526020018673ffffffffffffffffffffffffffffffffffffffff1681526020018573ffffffffffffffffffffffffffffffffffffffff168152602001848152602001838152602001428152509050600d60008781526020019081526020016000208190806001815401808255809150506001900390600052602060002090600602016000909190919091506000820151816000015560208201518160010160006101000a81548173ffffffffffffffffffffffffffffffffffffffff021916908373ffffffffffffffffffffffffffffffffffffffff16021790555060408201518160020160006101000a81548173ffffffffffffffffffffffffffffffffffffffff021916908373ffffffffffffffffffffffffffffffffffffffff1602179055506060820151816003019080519060200190610f7692919061415d565b506080820151816004015560a082015181600501555050505050505050565b610fa6610fa0612d56565b82612ed0565b610fe5576040517f08c379a0000000000000000000000000000000000000000000000000000000008152600401610fdc90615142565b60405180910390fd5b610ff0838383612f65565b505050565b600f602052816000526040600020818154811061101157600080fd5b9060005260206000209060030201600091509150508060000154908060010160009054906101000a900473ffffffffffffffffffffffffffffffffffffffff16908060020154905083565b6000600c60008381526020019081526020016000206004015490506000600c600084815260200190815260200160002060010160009054906101000a900473ffffffffffffffffffffffffffffffffffffffff16905033600c600085815260200190815260200160002060020160006101000a81548173ffffffffffffffffffffffffffffffffffffffff021916908373ffffffffffffffffffffffffffffffffffffffff1602179055506001600c600085815260200190815260200160002060050160006101000a81548160ff0219169083151502179055506000600c600085815260200190815260200160002060010160006101000a81548173ffffffffffffffffffffffffffffffffffffffff021916908373ffffffffffffffffffffffffffffffffffffffff1602179055506000600c600085815260200190815260200160002060080160006101000a81548160ff0219169083151502179055506111c5600961325f565b6112078330336040518060400160405280600481526020017f53616c650000000000000000000000000000000000000000000000000000000081525086610e28565b611212303385612f65565b611256836000336040518060400160405280600881526020017f5472616e736665720000000000000000000000000000000000000000000000008152506000610e28565b600a60009054906101000a900473ffffffffffffffffffffffffffffffffffffffff1673ffffffffffffffffffffffffffffffffffffffff166108fc600b549081150290604051600060405180830381858888f193505050501580156112c0573d6000803e3d6000fd5b508073ffffffffffffffffffffffffffffffffffffffff166108fc349081150290604051600060405180830381858888f19350505050158015611307573d6000803e3d6000fd5b50505050565b600060405180606001604052808381526020013373ffffffffffffffffffffffffffffffffffffffff168152602001428152509050600f60008381526020019081526020016000208190806001815401808255809150506001900390600052602060002090600302016000909190919091506000820151816000015560208201518160010160006101000a81548173ffffffffffffffffffffffffffffffffffffffff021916908373ffffffffffffffffffffffffffffffffffffffff1602179055506040820151816002015550506001600c60008481526020019081526020016000206006016000828254611403919061564e565b925050819055505050565b60006040518060600160405280848152602001838152602001428152509050600e60008481526020019081526020016000208190806001815401808255809150506001900390600052602060002090600302016000909190919091506000820151816000015560208201518160010155604082015181600201555050505050565b6114aa83838360405180602001604052806000815250611c78565b505050565b600e60205281600052604060002081815481106114cb57600080fd5b9060005260206000209060030201600091509150508060000154908060010154908060020154905083565b600a60009054906101000a900473ffffffffffffffffffffffffffffffffffffffff1673ffffffffffffffffffffffffffffffffffffffff163373ffffffffffffffffffffffffffffffffffffffff1614611586576040517f08c379a000000000000000000000000000000000000000000000000000000000815260040161157d906151e2565b60405180910390fd5b80600c600084815260200190815260200160002060050160016101000a81548160ff0219169083151502179055505050565b6000806115c483613275565b9050600073ffffffffffffffffffffffffffffffffffffffff168173ffffffffffffffffffffffffffffffffffffffff161415611636576040517f08c379a000000000000000000000000000000000000000000000000000000000815260040161162d906152e2565b60405180910390fd5b80915050919050565b60008073ffffffffffffffffffffffffffffffffffffffff168273ffffffffffffffffffffffffffffffffffffffff1614156116b0576040517f08c379a00000000000000000000000000000000000000000000000000000000081526004016116a790615242565b60405180910390fd5b600360008373ffffffffffffffffffffffffffffffffffffffff1673ffffffffffffffffffffffffffffffffffffffff168152602001908152602001600020549050919050565b6000611703600861325f565b600061170f6008612e17565b905061171b33826132b2565b6117258185612e25565b61172f81846134d0565b8091505092915050565b6117416140c2565b60008211801561175a57506117566008612e17565b8211155b611799576040517f08c379a000000000000000000000000000000000000000000000000000000000815260040161179090615282565b60405180910390fd5b600c600083815260200190815260200160002060405180610140016040529081600082015481526020016001820160009054906101000a900473ffffffffffffffffffffffffffffffffffffffff1673ffffffffffffffffffffffffffffffffffffffff1673ffffffffffffffffffffffffffffffffffffffff1681526020016002820160009054906101000a900473ffffffffffffffffffffffffffffffffffffffff1673ffffffffffffffffffffffffffffffffffffffff1673ffffffffffffffffffffffffffffffffffffffff1681526020016003820160009054906101000a900473ffffffffffffffffffffffffffffffffffffffff1673ffffffffffffffffffffffffffffffffffffffff1673ffffffffffffffffffffffffffffffffffffffff168152602001600482015481526020016005820160009054906101000a900460ff161515151581526020016005820160019054906101000a900460ff1615151515815260200160068201548152602001600782015481526020016008820160009054906101000a900460ff1615151515815250509050919050565b606060018054611949906157b2565b80601f0160208091040260200160405190810160405280929190818152602001828054611975906157b2565b80156119c25780601f10611997576101008083540402835291602001916119c2565b820191906000526020600020905b8154815290600101906020018083116119a557829003601f168201915b5050505050905090565b6060600f6000838152602001908152602001600020805480602002602001604051908101604052809291908181526020016000905b82821015611a9d5783829060005260206000209060030201604051806060016040529081600082015481526020016001820160009054906101000a900473ffffffffffffffffffffffffffffffffffffffff1673ffffffffffffffffffffffffffffffffffffffff1673ffffffffffffffffffffffffffffffffffffffff16815260200160028201548152505081526020019060010190611a01565b505050509050919050565b611aba611ab3612d56565b8383613852565b5050565b6000600f600083815260200190815260200160002080549050905060005b81811015611c69573373ffffffffffffffffffffffffffffffffffffffff16600f60008581526020019081526020016000208281548110611b46577f4e487b7100000000000000000000000000000000000000000000000000000000600052603260045260246000fd5b906000526020600020906003020160010160009054906101000a900473ffffffffffffffffffffffffffffffffffffffff1673ffffffffffffffffffffffffffffffffffffffff161415611c5657600f60008481526020019081526020016000208181548110611bdf577f4e487b7100000000000000000000000000000000000000000000000000000000600052603260045260246000fd5b90600052602060002090600302016000808201600090556001820160006101000a81549073ffffffffffffffffffffffffffffffffffffffff0219169055600282016000905550506001600c60008581526020019081526020016000206006016000828254611c4e91906156a4565b925050819055505b8080611c6190615815565b915050611adc565b505050565b80600b8190555050565b611c89611c83612d56565b83612ed0565b611cc8576040517f08c379a0000000000000000000000000000000000000000000000000000000008152600401611cbf90615142565b60405180910390fd5b611cd4848484846139bf565b50505050565b6060611ce582612d0b565b6000600660008481526020019081526020016000208054611d05906157b2565b80601f0160208091040260200160405190810160405280929190818152602001828054611d31906157b2565b8015611d7e5780601f10611d5357610100808354040283529160200191611d7e565b820191906000526020600020905b815481529060010190602001808311611d6157829003601f168201915b505050505090506000611d8f613a1b565b9050600081511415611da5578192505050611de8565b600082511115611dda578082604051602001611dc2929190614f65565b60405160208183030381529060405292505050611de8565b611de384613a32565b925050505b919050565b3373ffffffffffffffffffffffffffffffffffffffff16600c600084815260200190815260200160002060020160009054906101000a900473ffffffffffffffffffffffffffffffffffffffff1673ffffffffffffffffffffffffffffffffffffffff1614611e91576040517f08c379a0000000000000000000000000000000000000000000000000000000008152600401611e88906152c2565b60405180910390fd5b600b543414611ed5576040517f08c379a0000000000000000000000000000000000000000000000000000000008152600401611ecc90615322565b60405180910390fd5b6000600c600084815260200190815260200160002060050160006101000a81548160ff02191690831515021790555080600c60008481526020019081526020016000206004018190555033600c600084815260200190815260200160002060010160006101000a81548173ffffffffffffffffffffffffffffffffffffffff021916908373ffffffffffffffffffffffffffffffffffffffff16021790555030600c600084815260200190815260200160002060020160006101000a81548173ffffffffffffffffffffffffffffffffffffffff021916908373ffffffffffffffffffffffffffffffffffffffff1602179055506001600c600084815260200190815260200160002060080160006101000a81548160ff0219169083151502179055506120026009613a9a565b61200d333084612f65565b612052826000336040518060400160405280600481526020017f4c69737400000000000000000000000000000000000000000000000000000000815250600b54610e28565b61205c828261140e565b5050565b6000600560008473ffffffffffffffffffffffffffffffffffffffff1673ffffffffffffffffffffffffffffffffffffffff16815260200190815260200160002060008373ffffffffffffffffffffffffffffffffffffffff1673ffffffffffffffffffffffffffffffffffffffff16815260200190815260200160002060009054906101000a900460ff16905092915050565b606060006121026008612e17565b905060008060005b838110156121ab573373ffffffffffffffffffffffffffffffffffffffff16600c600060018461213a919061564e565b815260200190815260200160002060020160009054906101000a900473ffffffffffffffffffffffffffffffffffffffff1673ffffffffffffffffffffffffffffffffffffffff16141561219857600183612195919061564e565b92505b80806121a390615815565b91505061210a565b5060008267ffffffffffffffff8111156121ee577f4e487b7100000000000000000000000000000000000000000000000000000000600052604160045260246000fd5b60405190808252806020026020018201604052801561222757816020015b6122146140c2565b81526020019060019003908161220c5790505b50905060005b848110156124c4573373ffffffffffffffffffffffffffffffffffffffff16600c600060018461225d919061564e565b815260200190815260200160002060020160009054906101000a900473ffffffffffffffffffffffffffffffffffffffff1673ffffffffffffffffffffffffffffffffffffffff1614156124b15760006001826122ba919061564e565b90506000600c600083815260200190815260200160002090508060405180610140016040529081600082015481526020016001820160009054906101000a900473ffffffffffffffffffffffffffffffffffffffff1673ffffffffffffffffffffffffffffffffffffffff1673ffffffffffffffffffffffffffffffffffffffff1681526020016002820160009054906101000a900473ffffffffffffffffffffffffffffffffffffffff1673ffffffffffffffffffffffffffffffffffffffff1673ffffffffffffffffffffffffffffffffffffffff1681526020016003820160009054906101000a900473ffffffffffffffffffffffffffffffffffffffff1673ffffffffffffffffffffffffffffffffffffffff1673ffffffffffffffffffffffffffffffffffffffff168152602001600482015481526020016005820160009054906101000a900460ff161515151581526020016005820160019054906101000a900460ff1615151515815260200160068201548152602001600782015481526020016008820160009054906101000a900460ff161515151581525050848681518110612494577f4e487b7100000000000000000000000000000000000000000000000000000000600052603260045260246000fd5b60200260200101819052506001856124ac919061564e565b945050505b80806124bc90615815565b91505061222d565b508094505050505090565b606060006124dd6008612e17565b905060008060005b83811015612586573373ffffffffffffffffffffffffffffffffffffffff16600c6000600184612515919061564e565b815260200190815260200160002060010160009054906101000a900473ffffffffffffffffffffffffffffffffffffffff1673ffffffffffffffffffffffffffffffffffffffff16141561257357600183612570919061564e565b92505b808061257e90615815565b9150506124e5565b5060008267ffffffffffffffff8111156125c9577f4e487b7100000000000000000000000000000000000000000000000000000000600052604160045260246000fd5b60405190808252806020026020018201604052801561260257816020015b6125ef6140c2565b8152602001906001900390816125e75790505b50905060005b8481101561289f573373ffffffffffffffffffffffffffffffffffffffff16600c6000600184612638919061564e565b815260200190815260200160002060010160009054906101000a900473ffffffffffffffffffffffffffffffffffffffff1673ffffffffffffffffffffffffffffffffffffffff16141561288c576000600182612695919061564e565b90506000600c600083815260200190815260200160002090508060405180610140016040529081600082015481526020016001820160009054906101000a900473ffffffffffffffffffffffffffffffffffffffff1673ffffffffffffffffffffffffffffffffffffffff1673ffffffffffffffffffffffffffffffffffffffff1681526020016002820160009054906101000a900473ffffffffffffffffffffffffffffffffffffffff1673ffffffffffffffffffffffffffffffffffffffff1673ffffffffffffffffffffffffffffffffffffffff1681526020016003820160009054906101000a900473ffffffffffffffffffffffffffffffffffffffff1673ffffffffffffffffffffffffffffffffffffffff1673ffffffffffffffffffffffffffffffffffffffff168152602001600482015481526020016005820160009054906101000a900460ff161515151581526020016005820160019054906101000a900460ff1615151515815260200160068201548152602001600782015481526020016008820160009054906101000a900460ff16151515158152505084868151811061286f577f4e487b7100000000000000000000000000000000000000000000000000000000600052603260045260246000fd5b6020026020010181905250600185612887919061564e565b945050505b808061289790615815565b915050612608565b508094505050505090565b6060600d6000838152602001908152602001600020805480602002602001604051908101604052809291908181526020016000905b82821015612a6d57838290600052602060002090600602016040518060c0016040529081600082015481526020016001820160009054906101000a900473ffffffffffffffffffffffffffffffffffffffff1673ffffffffffffffffffffffffffffffffffffffff1673ffffffffffffffffffffffffffffffffffffffff1681526020016002820160009054906101000a900473ffffffffffffffffffffffffffffffffffffffff1673ffffffffffffffffffffffffffffffffffffffff1673ffffffffffffffffffffffffffffffffffffffff1681526020016003820180546129c8906157b2565b80601f01602080910402602001604051908101604052809291908181526020018280546129f4906157b2565b8015612a415780601f10612a1657610100808354040283529160200191612a41565b820191906000526020600020905b815481529060010190602001808311612a2457829003601f168201915b5050505050815260200160048201548152602001600582015481525050815260200190600101906128df565b505050509050919050565b600d6020528160005260406000208181548110612a9457600080fd5b9060005260206000209060060201600091509150508060000154908060010160009054906101000a900473ffffffffffffffffffffffffffffffffffffffff16908060020160009054906101000a900473ffffffffffffffffffffffffffffffffffffffff1690806003018054612b0a906157b2565b80601f0160208091040260200160405190810160405280929190818152602001828054612b36906157b2565b8015612b835780601f10612b5857610100808354040283529160200191612b83565b820191906000526020600020905b815481529060010190602001808311612b6657829003601f168201915b5050505050908060040154908060050154905086565b6060600e6000838152602001908152602001600020805480602002602001604051908101604052809291908181526020016000905b82821015612c1e5783829060005260206000209060030201604051806060016040529081600082015481526020016001820154815260200160028201548152505081526020019060010190612bce565b505050509050919050565b60007f80ac58cd000000000000000000000000000000000000000000000000000000007bffffffffffffffffffffffffffffffffffffffffffffffffffffffff1916827bffffffffffffffffffffffffffffffffffffffffffffffffffffffff19161480612cf457507f5b5e139f000000000000000000000000000000000000000000000000000000007bffffffffffffffffffffffffffffffffffffffffffffffffffffffff1916827bffffffffffffffffffffffffffffffffffffffffffffffffffffffff1916145b80612d045750612d0382613af6565b5b9050919050565b612d1481613b60565b612d53576040517f08c379a0000000000000000000000000000000000000000000000000000000008152600401612d4a906152e2565b60405180910390fd5b50565b600033905090565b816004600083815260200190815260200160002060006101000a81548173ffffffffffffffffffffffffffffffffffffffff021916908373ffffffffffffffffffffffffffffffffffffffff160217905550808273ffffffffffffffffffffffffffffffffffffffff16612dd1836115b8565b73ffffffffffffffffffffffffffffffffffffffff167f8c5be1e5ebec7d5bd14f71427d1e84f3dd0314c0f7b2291e5b200ac8c7c3b92560405160405180910390a45050565b600081600001549050919050565b612e2e82613b60565b612e6d576040517f08c379a0000000000000000000000000000000000000000000000000000000008152600401612e6490615262565b60405180910390fd5b80600660008481526020019081526020016000209080519060200190612e9492919061415d565b507ff8e1a15aba9398e019f0b49df1a4fde98ee17ae345cb5f6b5e2c27f5033e8ce782604051612ec4919061539e565b60405180910390a15050565b600080612edc836115b8565b90508073ffffffffffffffffffffffffffffffffffffffff168473ffffffffffffffffffffffffffffffffffffffff161480612f1e5750612f1d8185612060565b5b80612f5c57508373ffffffffffffffffffffffffffffffffffffffff16612f448461095c565b73ffffffffffffffffffffffffffffffffffffffff16145b91505092915050565b8273ffffffffffffffffffffffffffffffffffffffff16612f85826115b8565b73ffffffffffffffffffffffffffffffffffffffff1614612fdb576040517f08c379a0000000000000000000000000000000000000000000000000000000008152600401612fd2906151a2565b60405180910390fd5b600073ffffffffffffffffffffffffffffffffffffffff168273ffffffffffffffffffffffffffffffffffffffff16141561304b576040517f08c379a000000000000000000000000000000000000000000000000000000000815260040161304290615202565b60405180910390fd5b6130588383836001613ba1565b8273ffffffffffffffffffffffffffffffffffffffff16613078826115b8565b73ffffffffffffffffffffffffffffffffffffffff16146130ce576040517f08c379a00000000000000000000000000000000000000000000000000000000081526004016130c5906151a2565b60405180910390fd5b6004600082815260200190815260200160002060006101000a81549073ffffffffffffffffffffffffffffffffffffffff02191690556001600360008573ffffffffffffffffffffffffffffffffffffffff1673ffffffffffffffffffffffffffffffffffffffff168152602001908152602001600020600082825403925050819055506001600360008473ffffffffffffffffffffffffffffffffffffffff1673ffffffffffffffffffffffffffffffffffffffff16815260200190815260200160002060008282540192505081905550816002600083815260200190815260200160002060006101000a81548173ffffffffffffffffffffffffffffffffffffffff021916908373ffffffffffffffffffffffffffffffffffffffff160217905550808273ffffffffffffffffffffffffffffffffffffffff168473ffffffffffffffffffffffffffffffffffffffff167fddf252ad1be2c89b69c2b068fc378daa952ba7f163c4a11628f55a4df523b3ef60405160405180910390a461325a8383836001613ba7565b505050565b6001816000016000828254019250508190555050565b60006002600083815260200190815260200160002060009054906101000a900473ffffffffffffffffffffffffffffffffffffffff169050919050565b600073ffffffffffffffffffffffffffffffffffffffff168273ffffffffffffffffffffffffffffffffffffffff161415613322576040517f08c379a0000000000000000000000000000000000000000000000000000000008152600401613319906152a2565b60405180910390fd5b61332b81613b60565b1561336b576040517f08c379a0000000000000000000000000000000000000000000000000000000008152600401613362906151c2565b60405180910390fd5b613379600083836001613ba1565b61338281613b60565b156133c2576040517f08c379a00000000000000000000000000000000000000000000000000000000081526004016133b9906151c2565b60405180910390fd5b6001600360008473ffffffffffffffffffffffffffffffffffffffff1673ffffffffffffffffffffffffffffffffffffffff16815260200190815260200160002060008282540192505081905550816002600083815260200190815260200160002060006101000a81548173ffffffffffffffffffffffffffffffffffffffff021916908373ffffffffffffffffffffffffffffffffffffffff160217905550808273ffffffffffffffffffffffffffffffffffffffff16600073ffffffffffffffffffffffffffffffffffffffff167fddf252ad1be2c89b69c2b068fc378daa952ba7f163c4a11628f55a4df523b3ef60405160405180910390a46134cc600083836001613ba7565b5050565b60008111613513576040517f08c379a000000000000000000000000000000000000000000000000000000000815260040161350a90615362565b60405180910390fd5b600b543414613557576040517f08c379a000000000000000000000000000000000000000000000000000000000815260040161354e90615322565b60405180910390fd5b6040518061014001604052808381526020013373ffffffffffffffffffffffffffffffffffffffff1681526020013073ffffffffffffffffffffffffffffffffffffffff1681526020013373ffffffffffffffffffffffffffffffffffffffff168152602001828152602001600015158152602001600015158152602001600081526020016000815260200160011515815250600c60008481526020019081526020016000206000820151816000015560208201518160010160006101000a81548173ffffffffffffffffffffffffffffffffffffffff021916908373ffffffffffffffffffffffffffffffffffffffff16021790555060408201518160020160006101000a81548173ffffffffffffffffffffffffffffffffffffffff021916908373ffffffffffffffffffffffffffffffffffffffff16021790555060608201518160030160006101000a81548173ffffffffffffffffffffffffffffffffffffffff021916908373ffffffffffffffffffffffffffffffffffffffff1602179055506080820151816004015560a08201518160050160006101000a81548160ff02191690831515021790555060c08201518160050160016101000a81548160ff02191690831515021790555060e0820151816006015561010082015181600701556101208201518160080160006101000a81548160ff0219169083151502179055509050506137a9826000336040518060400160405280600481526020017f4d696e74000000000000000000000000000000000000000000000000000000008152506601c6bf52634000610e28565b6137b4333084612f65565b6137f9826000336040518060400160405280600481526020017f4c69737400000000000000000000000000000000000000000000000000000000815250600b54610e28565b613803828261140e565b817f560fddf78a1b57989607b07f1062c0c712b87ff215e41a1af8b93d1e4175ac7133303385600080600080600160405161384699989796959493929190614fa4565b60405180910390a25050565b8173ffffffffffffffffffffffffffffffffffffffff168373ffffffffffffffffffffffffffffffffffffffff1614156138c1576040517f08c379a00000000000000000000000000000000000000000000000000000000081526004016138b890615222565b60405180910390fd5b80600560008573ffffffffffffffffffffffffffffffffffffffff1673ffffffffffffffffffffffffffffffffffffffff16815260200190815260200160002060008473ffffffffffffffffffffffffffffffffffffffff1673ffffffffffffffffffffffffffffffffffffffff16815260200190815260200160002060006101000a81548160ff0219169083151502179055508173ffffffffffffffffffffffffffffffffffffffff168373ffffffffffffffffffffffffffffffffffffffff167f17307eab39ab6107e8899845ad3d59bd9653f200f220920489ca2b5937696c31836040516139b29190615105565b60405180910390a3505050565b6139ca848484612f65565b6139d684848484613bad565b613a15576040517f08c379a0000000000000000000000000000000000000000000000000000000008152600401613a0c90615182565b60405180910390fd5b50505050565b606060405180602001604052806000815250905090565b6060613a3d82612d0b565b6000613a47613a1b565b90506000815111613a675760405180602001604052806000815250613a92565b80613a7184613d44565b604051602001613a82929190614f65565b6040516020818303038152906040525b915050919050565b60008160000154905060008111613ae6576040517f08c379a0000000000000000000000000000000000000000000000000000000008152600401613add90615162565b60405180910390fd5b6001810382600001819055505050565b60007f01ffc9a7000000000000000000000000000000000000000000000000000000007bffffffffffffffffffffffffffffffffffffffffffffffffffffffff1916827bffffffffffffffffffffffffffffffffffffffffffffffffffffffff1916149050919050565b60008073ffffffffffffffffffffffffffffffffffffffff16613b8283613275565b73ffffffffffffffffffffffffffffffffffffffff1614159050919050565b50505050565b50505050565b6000613bce8473ffffffffffffffffffffffffffffffffffffffff16613e68565b15613d37578373ffffffffffffffffffffffffffffffffffffffff1663150b7a02613bf7612d56565b8786866040518563ffffffff1660e01b8152600401613c199493929190615031565b602060405180830381600087803b158015613c3357600080fd5b505af1925050508015613c6457506040513d601f19601f82011682018060405250810190613c619190614509565b60015b613ce7573d8060008114613c94576040519150601f19603f3d011682016040523d82523d6000602084013e613c99565b606091505b50600081511415613cdf576040517f08c379a0000000000000000000000000000000000000000000000000000000008152600401613cd690615182565b60405180910390fd5b805181602001fd5b63150b7a0260e01b7bffffffffffffffffffffffffffffffffffffffffffffffffffffffff1916817bffffffffffffffffffffffffffffffffffffffffffffffffffffffff191614915050613d3c565b600190505b949350505050565b606060006001613d5384613e8b565b01905060008167ffffffffffffffff811115613d98577f4e487b7100000000000000000000000000000000000000000000000000000000600052604160045260246000fd5b6040519080825280601f01601f191660200182016040528015613dca5781602001600182028036833780820191505090505b509050600082602001820190505b600115613e5d578080600190039150507f3031323334353637383961626364656600000000000000000000000000000000600a86061a8153600a8581613e47577f4e487b7100000000000000000000000000000000000000000000000000000000600052601260045260246000fd5b0494506000851415613e5857613e5d565b613dd8565b819350505050919050565b6000808273ffffffffffffffffffffffffffffffffffffffff163b119050919050565b600080600090507a184f03e93ff9f4daa797ed6e38ed64bf6a1f0100000000000000008310613f0f577a184f03e93ff9f4daa797ed6e38ed64bf6a1f0100000000000000008381613f05577f4e487b7100000000000000000000000000000000000000000000000000000000600052601260045260246000fd5b0492506040810190505b6d04ee2d6d415b85acef81000000008310613f72576d04ee2d6d415b85acef81000000008381613f68577f4e487b7100000000000000000000000000000000000000000000000000000000600052601260045260246000fd5b0492506020810190505b662386f26fc100008310613fc757662386f26fc100008381613fbd577f4e487b7100000000000000000000000000000000000000000000000000000000600052601260045260246000fd5b0492506010810190505b6305f5e1008310614016576305f5e100838161400c577f4e487b7100000000000000000000000000000000000000000000000000000000600052601260045260246000fd5b0492506008810190505b6127108310614061576127108381614057577f4e487b7100000000000000000000000000000000000000000000000000000000600052601260045260246000fd5b0492506004810190505b606483106140aa57606483816140a0577f4e487b7100000000000000000000000000000000000000000000000000000000600052601260045260246000fd5b0492506002810190505b600a83106140b9576001810190505b80915050919050565b60405180610140016040528060008152602001600073ffffffffffffffffffffffffffffffffffffffff168152602001600073ffffffffffffffffffffffffffffffffffffffff168152602001600073ffffffffffffffffffffffffffffffffffffffff1681526020016000815260200160001515815260200160001515815260200160008152602001600081526020016000151581525090565b828054614169906157b2565b90600052602060002090601f01602090048101928261418b57600085556141d2565b82601f106141a457805160ff19168380011785556141d2565b828001600101855582156141d2579182015b828111156141d15782518255916020019190600101906141b6565b5b5090506141df91906141e3565b5090565b5b808211156141fc5760008160009055506001016141e4565b5090565b600061421361420e846154b4565b61548f565b90508281526020810184848401111561422b57600080fd5b614236848285615770565b509392505050565b600061425161424c846154e5565b61548f565b90508281526020810184848401111561426957600080fd5b614274848285615770565b509392505050565b60008135905061428b81615d80565b92915050565b6000813590506142a081615d97565b92915050565b6000813590506142b581615dae565b92915050565b6000815190506142ca81615dae565b92915050565b600082601f8301126142e157600080fd5b81356142f1848260208601614200565b91505092915050565b600082601f83011261430b57600080fd5b813561431b84826020860161423e565b91505092915050565b60008135905061433381615dc5565b92915050565b60006020828403121561434b57600080fd5b60006143598482850161427c565b91505092915050565b6000806040838503121561437557600080fd5b60006143838582860161427c565b92505060206143948582860161427c565b9150509250929050565b6000806000606084860312156143b357600080fd5b60006143c18682870161427c565b93505060206143d28682870161427c565b92505060406143e386828701614324565b9150509250925092565b6000806000806080858703121561440357600080fd5b60006144118782880161427c565b94505060206144228782880161427c565b935050604061443387828801614324565b925050606085013567ffffffffffffffff81111561445057600080fd5b61445c878288016142d0565b91505092959194509250565b6000806040838503121561447b57600080fd5b60006144898582860161427c565b925050602061449a85828601614291565b9150509250929050565b600080604083850312156144b757600080fd5b60006144c58582860161427c565b92505060206144d685828601614324565b9150509250929050565b6000602082840312156144f257600080fd5b6000614500848285016142a6565b91505092915050565b60006020828403121561451b57600080fd5b6000614529848285016142bb565b91505092915050565b6000806040838503121561454557600080fd5b600083013567ffffffffffffffff81111561455f57600080fd5b61456b858286016142fa565b925050602061457c85828601614324565b9150509250929050565b60006020828403121561459857600080fd5b60006145a684828501614324565b91505092915050565b600080600080600060a086880312156145c757600080fd5b60006145d588828901614324565b95505060206145e68882890161427c565b94505060406145f78882890161427c565b935050606086013567ffffffffffffffff81111561461457600080fd5b614620888289016142fa565b925050608061463188828901614324565b9150509295509295909350565b6000806040838503121561465157600080fd5b600061465f85828601614324565b925050602061467085828601614291565b9150509250929050565b6000806040838503121561468d57600080fd5b600061469b85828601614324565b925050602083013567ffffffffffffffff8111156146b857600080fd5b6146c4858286016142fa565b9150509250929050565b600080604083850312156146e157600080fd5b60006146ef85828601614324565b925050602061470085828601614324565b9150509250929050565b60006147168383614ca2565b905092915050565b600061472a8383614d2b565b60608301905092915050565b60006147428383614d6d565b6101408301905092915050565b600061475b8383614f05565b60608301905092915050565b614770816156ea565b82525050565b61477f816156d8565b82525050565b61478e816156d8565b82525050565b600061479f82615556565b6147a981856155cc565b9350836020820285016147bb85615516565b8060005b858110156147f757848403895281516147d8858261470a565b94506147e383615598565b925060208a019950506001810190506147bf565b50829750879550505050505092915050565b600061481482615561565b61481e81856155dd565b935061482983615526565b8060005b8381101561485a578151614841888261471e565b975061484c836155a5565b92505060018101905061482d565b5085935050505092915050565b60006148728261556c565b61487c81856155ee565b935061488783615536565b8060005b838110156148b857815161489f8882614736565b97506148aa836155b2565b92505060018101905061488b565b5085935050505092915050565b60006148d082615577565b6148da81856155ff565b93506148e583615546565b8060005b838110156149165781516148fd888261474f565b9750614908836155bf565b9250506001810190506148e9565b5085935050505092915050565b61492c816156fc565b82525050565b61493b816156fc565b82525050565b600061494c82615582565b6149568185615610565b935061496681856020860161577f565b61496f816158eb565b840191505092915050565b6149838161575e565b82525050565b60006149948261558d565b61499e8185615621565b93506149ae81856020860161577f565b6149b7816158eb565b840191505092915050565b60006149cd8261558d565b6149d78185615632565b93506149e781856020860161577f565b6149f0816158eb565b840191505092915050565b6000614a068261558d565b614a108185615643565b9350614a2081856020860161577f565b80840191505092915050565b6000614a39602d83615632565b9150614a44826158fc565b604082019050919050565b6000614a5c601b83615632565b9150614a678261594b565b602082019050919050565b6000614a7f603283615632565b9150614a8a82615974565b604082019050919050565b6000614aa2602583615632565b9150614aad826159c3565b604082019050919050565b6000614ac5601c83615632565b9150614ad082615a12565b602082019050919050565b6000614ae8602683615632565b9150614af382615a3b565b604082019050919050565b6000614b0b602483615632565b9150614b1682615a8a565b604082019050919050565b6000614b2e601983615632565b9150614b3982615ad9565b602082019050919050565b6000614b51602983615632565b9150614b5c82615b02565b604082019050919050565b6000614b74602e83615632565b9150614b7f82615b51565b604082019050919050565b6000614b97600f83615632565b9150614ba282615ba0565b602082019050919050565b6000614bba602083615632565b9150614bc582615bc9565b602082019050919050565b6000614bdd602a83615632565b9150614be882615bf2565b604082019050919050565b6000614c00601883615632565b9150614c0b82615c41565b602082019050919050565b6000614c23602183615632565b9150614c2e82615c6a565b604082019050919050565b6000614c46602483615632565b9150614c5182615cb9565b604082019050919050565b6000614c69603d83615632565b9150614c7482615d08565b604082019050919050565b6000614c8c601c83615632565b9150614c9782615d57565b602082019050919050565b600060c083016000830151614cba6000860182614f47565b506020830151614ccd6020860182614776565b506040830151614ce06040860182614776565b5060608301518482036060860152614cf88282614989565b9150506080830151614d0d6080860182614f47565b5060a0830151614d2060a0860182614f47565b508091505092915050565b606082016000820151614d416000850182614f47565b506020820151614d546020850182614776565b506040820151614d676040850182614f47565b50505050565b61014082016000820151614d846000850182614f47565b506020820151614d976020850182614767565b506040820151614daa6040850182614767565b506060820151614dbd6060850182614767565b506080820151614dd06080850182614f47565b5060a0820151614de360a0850182614923565b5060c0820151614df660c0850182614923565b5060e0820151614e0960e0850182614f47565b50610100820151614e1e610100850182614f47565b50610120820151614e33610120850182614923565b50505050565b61014082016000820151614e506000850182614f47565b506020820151614e636020850182614767565b506040820151614e766040850182614767565b506060820151614e896060850182614767565b506080820151614e9c6080850182614f47565b5060a0820151614eaf60a0850182614923565b5060c0820151614ec260c0850182614923565b5060e0820151614ed560e0850182614f47565b50610100820151614eea610100850182614f47565b50610120820151614eff610120850182614923565b50505050565b606082016000820151614f1b6000850182614f47565b506020820151614f2e6020850182614f47565b506040820151614f416040850182614f47565b50505050565b614f5081615754565b82525050565b614f5f81615754565b82525050565b6000614f7182856149fb565b9150614f7d82846149fb565b91508190509392505050565b6000602082019050614f9e6000830184614785565b92915050565b600061012082019050614fba600083018c614785565b614fc7602083018b614785565b614fd4604083018a614785565b614fe16060830189614f56565b614fee6080830188614932565b614ffb60a0830187614932565b61500860c083018661497a565b61501560e083018561497a565b615023610100830184614932565b9a9950505050505050505050565b60006080820190506150466000830187614785565b6150536020830186614785565b6150606040830185614f56565b81810360608301526150728184614941565b905095945050505050565b600060208201905081810360008301526150978184614794565b905092915050565b600060208201905081810360008301526150b98184614809565b905092915050565b600060208201905081810360008301526150db8184614867565b905092915050565b600060208201905081810360008301526150fd81846148c5565b905092915050565b600060208201905061511a6000830184614932565b92915050565b6000602082019050818103600083015261513a81846149c2565b905092915050565b6000602082019050818103600083015261515b81614a2c565b9050919050565b6000602082019050818103600083015261517b81614a4f565b9050919050565b6000602082019050818103600083015261519b81614a72565b9050919050565b600060208201905081810360008301526151bb81614a95565b9050919050565b600060208201905081810360008301526151db81614ab8565b9050919050565b600060208201905081810360008301526151fb81614adb565b9050919050565b6000602082019050818103600083015261521b81614afe565b9050919050565b6000602082019050818103600083015261523b81614b21565b9050919050565b6000602082019050818103600083015261525b81614b44565b9050919050565b6000602082019050818103600083015261527b81614b67565b9050919050565b6000602082019050818103600083015261529b81614b8a565b9050919050565b600060208201905081810360008301526152bb81614bad565b9050919050565b600060208201905081810360008301526152db81614bd0565b9050919050565b600060208201905081810360008301526152fb81614bf3565b9050919050565b6000602082019050818103600083015261531b81614c16565b9050919050565b6000602082019050818103600083015261533b81614c39565b9050919050565b6000602082019050818103600083015261535b81614c5c565b9050919050565b6000602082019050818103600083015261537b81614c7f565b9050919050565b6000610140820190506153986000830184614e39565b92915050565b60006020820190506153b36000830184614f56565b92915050565b600060c0820190506153ce6000830189614f56565b6153db6020830188614785565b6153e86040830187614785565b81810360608301526153fa81866149c2565b90506154096080830185614f56565b61541660a0830184614f56565b979650505050505050565b60006060820190506154366000830186614f56565b6154436020830185614785565b6154506040830184614f56565b949350505050565b600060608201905061546d6000830186614f56565b61547a6020830185614f56565b6154876040830184614f56565b949350505050565b60006154996154aa565b90506154a582826157e4565b919050565b6000604051905090565b600067ffffffffffffffff8211156154cf576154ce6158bc565b5b6154d8826158eb565b9050602081019050919050565b600067ffffffffffffffff821115615500576154ff6158bc565b5b615509826158eb565b9050602081019050919050565b6000819050602082019050919050565b6000819050602082019050919050565b6000819050602082019050919050565b6000819050602082019050919050565b600081519050919050565b600081519050919050565b600081519050919050565b600081519050919050565b600081519050919050565b600081519050919050565b6000602082019050919050565b6000602082019050919050565b6000602082019050919050565b6000602082019050919050565b600082825260208201905092915050565b600082825260208201905092915050565b600082825260208201905092915050565b600082825260208201905092915050565b600082825260208201905092915050565b600082825260208201905092915050565b600082825260208201905092915050565b600081905092915050565b600061565982615754565b915061566483615754565b9250827fffffffffffffffffffffffffffffffffffffffffffffffffffffffffffffffff038211156156995761569861585e565b5b828201905092915050565b60006156af82615754565b91506156ba83615754565b9250828210156156cd576156cc61585e565b5b828203905092915050565b60006156e382615734565b9050919050565b60006156f582615734565b9050919050565b60008115159050919050565b60007fffffffff0000000000000000000000000000000000000000000000000000000082169050919050565b600073ffffffffffffffffffffffffffffffffffffffff82169050919050565b6000819050919050565b600061576982615754565b9050919050565b82818337600083830152505050565b60005b8381101561579d578082015181840152602081019050615782565b838111156157ac576000848401525b50505050565b600060028204905060018216806157ca57607f821691505b602082108114156157de576157dd61588d565b5b50919050565b6157ed826158eb565b810181811067ffffffffffffffff8211171561580c5761580b6158bc565b5b80604052505050565b600061582082615754565b91507fffffffffffffffffffffffffffffffffffffffffffffffffffffffffffffffff8214156158535761585261585e565b5b600182019050919050565b7f4e487b7100000000000000000000000000000000000000000000000000000000600052601160045260246000fd5b7f4e487b7100000000000000000000000000000000000000000000000000000000600052602260045260246000fd5b7f4e487b7100000000000000000000000000000000000000000000000000000000600052604160045260246000fd5b6000601f19601f8301169050919050565b7f4552433732313a2063616c6c6572206973206e6f7420746f6b656e206f776e6560008201527f72206f7220617070726f76656400000000000000000000000000000000000000602082015250565b7f436f756e7465723a2064656372656d656e74206f766572666c6f770000000000600082015250565b7f4552433732313a207472616e7366657220746f206e6f6e20455243373231526560008201527f63656976657220696d706c656d656e7465720000000000000000000000000000602082015250565b7f4552433732313a207472616e736665722066726f6d20696e636f72726563742060008201527f6f776e6572000000000000000000000000000000000000000000000000000000602082015250565b7f4552433732313a20746f6b656e20616c7265616479206d696e74656400000000600082015250565b7f4f6e6c7920746865206f776e65722063616e207570646174652069735265776160008201527f72644974656d0000000000000000000000000000000000000000000000000000602082015250565b7f4552433732313a207472616e7366657220746f20746865207a65726f2061646460008201527f7265737300000000000000000000000000000000000000000000000000000000602082015250565b7f4552433732313a20617070726f766520746f2063616c6c657200000000000000600082015250565b7f4552433732313a2061646472657373207a65726f206973206e6f74206120766160008201527f6c6964206f776e65720000000000000000000000000000000000000000000000602082015250565b7f45524337323155524953746f726167653a2055524920736574206f66206e6f6e60008201527f6578697374656e7420746f6b656e000000000000000000000000000000000000602082015250565b7f496e76616c6964204974656d2049440000000000000000000000000000000000600082015250565b7f4552433732313a206d696e7420746f20746865207a65726f2061646472657373600082015250565b7f4f6e6c79206974656d206f776e65722063616e20706572666f726d207468697360008201527f206f7065726174696f6e00000000000000000000000000000000000000000000602082015250565b7f4552433732313a20696e76616c696420746f6b656e2049440000000000000000600082015250565b7f4552433732313a20617070726f76616c20746f2063757272656e74206f776e6560008201527f7200000000000000000000000000000000000000000000000000000000000000602082015250565b7f5072696365206d75737420626520657175616c20746f206c697374696e67207060008201527f7269636500000000000000000000000000000000000000000000000000000000602082015250565b7f4552433732313a20617070726f76652063616c6c6572206973206e6f7420746f60008201527f6b656e206f776e6572206f7220617070726f76656420666f7220616c6c000000602082015250565b7f5072696365206d757374206265206174206c6561737420312077656900000000600082015250565b615d89816156d8565b8114615d9457600080fd5b50565b615da0816156fc565b8114615dab57600080fd5b50565b615db781615708565b8114615dc257600080fd5b50565b615dce81615754565b8114615dd957600080fd5b5056fea264697066735822122015c15a25124c748ccef5fd12bd722bac525634893490ad190b4e0f455e2c09c364736f6c63430008040033",
  "linkReferences": {},
  "deployedLinkReferences": {}
}