{
  "_format": "hh-sol-artifact-1",
  "contractName": "Marketplace",
  "sourceName": "contracts/Marketplace.sol",
  "abi": [
    {
      "inputs": [],
      "stateMutability": "nonpayable",
      "type": "constructor"
    },
    {
      "anonymous": false,
      "inputs": [
        {
          "indexed": true,
          "internalType": "uint256",
          "name": "itemId",
          "type": "uint256"
        },
        {
          "indexed": true,
          "internalType": "address",
          "name": "nftContract",
          "type": "address"
        },
        {
          "indexed": true,
          "internalType": "uint256",
          "name": "tokenId",
          "type": "uint256"
        },
        {
          "indexed": false,
          "internalType": "address",
          "name": "seller",
          "type": "address"
        },
        {
          "indexed": false,
          "internalType": "address",
          "name": "owner",
          "type": "address"
        },
        {
          "indexed": false,
          "internalType": "address",
          "name": "creator",
          "type": "address"
        },
        {
          "indexed": false,
          "internalType": "uint256",
          "name": "price",
          "type": "uint256"
        },
        {
          "indexed": false,
          "internalType": "bool",
          "name": "sold",
          "type": "bool"
        },
        {
          "indexed": false,
          "internalType": "bool",
          "name": "isRewardItem",
          "type": "bool"
        },
        {
          "indexed": false,
          "internalType": "uint256",
          "name": "likes",
          "type": "uint256"
        },
        {
          "indexed": false,
          "internalType": "uint256",
          "name": "views",
          "type": "uint256"
        }
      ],
      "name": "MarketItemCreated",
      "type": "event"
    },
    {
      "inputs": [
        {
          "internalType": "uint256",
          "name": "",
          "type": "uint256"
        },
        {
          "internalType": "uint256",
          "name": "",
          "type": "uint256"
        }
      ],
      "name": "activities",
      "outputs": [
        {
          "internalType": "uint256",
          "name": "itemId",
          "type": "uint256"
        },
        {
          "internalType": "address",
          "name": "from",
          "type": "address"
        },
        {
          "internalType": "address",
          "name": "to",
          "type": "address"
        },
        {
          "internalType": "string",
          "name": "eventType",
          "type": "string"
        },
        {
          "internalType": "uint256",
          "name": "price",
          "type": "uint256"
        },
        {
          "internalType": "uint256",
          "name": "timestamp",
          "type": "uint256"
        }
      ],
      "stateMutability": "view",
      "type": "function"
    },
    {
      "inputs": [
        {
          "internalType": "uint256",
          "name": "tokenId",
          "type": "uint256"
        },
        {
          "internalType": "address",
          "name": "from",
          "type": "address"
        },
        {
          "internalType": "address",
          "name": "to",
          "type": "address"
        },
        {
          "internalType": "string",
          "name": "eventType",
          "type": "string"
        },
        {
          "internalType": "uint256",
          "name": "price",
          "type": "uint256"
        }
      ],
      "name": "addActivity",
      "outputs": [],
      "stateMutability": "nonpayable",
      "type": "function"
    },
    {
      "inputs": [
        {
          "internalType": "address",
          "name": "nftContract",
          "type": "address"
        },
        {
          "internalType": "uint256",
          "name": "tokenId",
          "type": "uint256"
        },
        {
          "internalType": "uint256",
          "name": "price",
          "type": "uint256"
        },
        {
          "internalType": "bool",
          "name": "isRewardItem",
          "type": "bool"
        }
      ],
      "name": "createMarketItem",
      "outputs": [],
      "stateMutability": "payable",
      "type": "function"
    },
    {
      "inputs": [
        {
          "internalType": "uint256",
          "name": "itemId",
          "type": "uint256"
        }
      ],
      "name": "decrementLikes",
      "outputs": [],
      "stateMutability": "nonpayable",
      "type": "function"
    },
    {
      "inputs": [],
      "name": "fetchItemsCreated",
      "outputs": [
        {
          "components": [
            {
              "internalType": "uint256",
              "name": "itemId",
              "type": "uint256"
            },
            {
              "internalType": "address",
              "name": "nftContract",
              "type": "address"
            },
            {
              "internalType": "uint256",
              "name": "tokenId",
              "type": "uint256"
            },
            {
              "internalType": "address payable",
              "name": "seller",
              "type": "address"
            },
            {
              "internalType": "address payable",
              "name": "owner",
              "type": "address"
            },
            {
              "internalType": "address payable",
              "name": "creator",
              "type": "address"
            },
            {
              "internalType": "uint256",
              "name": "price",
              "type": "uint256"
            },
            {
              "internalType": "bool",
              "name": "sold",
              "type": "bool"
            },
            {
              "internalType": "bool",
              "name": "isRewardItem",
              "type": "bool"
            },
            {
              "internalType": "uint256",
              "name": "likes",
              "type": "uint256"
            },
            {
              "internalType": "uint256",
              "name": "views",
              "type": "uint256"
            }
          ],
          "internalType": "struct Marketplace.MarketItem[]",
          "name": "",
          "type": "tuple[]"
        }
      ],
      "stateMutability": "view",
      "type": "function"
    },
    {
      "inputs": [],
      "name": "fetchMarketItems",
      "outputs": [
        {
          "components": [
            {
              "internalType": "uint256",
              "name": "itemId",
              "type": "uint256"
            },
            {
              "internalType": "address",
              "name": "nftContract",
              "type": "address"
            },
            {
              "internalType": "uint256",
              "name": "tokenId",
              "type": "uint256"
            },
            {
              "internalType": "address payable",
              "name": "seller",
              "type": "address"
            },
            {
              "internalType": "address payable",
              "name": "owner",
              "type": "address"
            },
            {
              "internalType": "address payable",
              "name": "creator",
              "type": "address"
            },
            {
              "internalType": "uint256",
              "name": "price",
              "type": "uint256"
            },
            {
              "internalType": "bool",
              "name": "sold",
              "type": "bool"
            },
            {
              "internalType": "bool",
              "name": "isRewardItem",
              "type": "bool"
            },
            {
              "internalType": "uint256",
              "name": "likes",
              "type": "uint256"
            },
            {
              "internalType": "uint256",
              "name": "views",
              "type": "uint256"
            }
          ],
          "internalType": "struct Marketplace.MarketItem[]",
          "name": "",
          "type": "tuple[]"
        }
      ],
      "stateMutability": "view",
      "type": "function"
    },
    {
      "inputs": [],
      "name": "fetchPurchasedNFTs",
      "outputs": [
        {
          "components": [
            {
              "internalType": "uint256",
              "name": "itemId",
              "type": "uint256"
            },
            {
              "internalType": "address",
              "name": "nftContract",
              "type": "address"
            },
            {
              "internalType": "uint256",
              "name": "tokenId",
              "type": "uint256"
            },
            {
              "internalType": "address payable",
              "name": "seller",
              "type": "address"
            },
            {
              "internalType": "address payable",
              "name": "owner",
              "type": "address"
            },
            {
              "internalType": "address payable",
              "name": "creator",
              "type": "address"
            },
            {
              "internalType": "uint256",
              "name": "price",
              "type": "uint256"
            },
            {
              "internalType": "bool",
              "name": "sold",
              "type": "bool"
            },
            {
              "internalType": "bool",
              "name": "isRewardItem",
              "type": "bool"
            },
            {
              "internalType": "uint256",
              "name": "likes",
              "type": "uint256"
            },
            {
              "internalType": "uint256",
              "name": "views",
              "type": "uint256"
            }
          ],
          "internalType": "struct Marketplace.MarketItem[]",
          "name": "",
          "type": "tuple[]"
        }
      ],
      "stateMutability": "view",
      "type": "function"
    },
    {
      "inputs": [
        {
          "internalType": "uint256",
          "name": "tokenId",
          "type": "uint256"
        }
      ],
      "name": "getActivities",
      "outputs": [
        {
          "components": [
            {
              "internalType": "uint256",
              "name": "itemId",
              "type": "uint256"
            },
            {
              "internalType": "address",
              "name": "from",
              "type": "address"
            },
            {
              "internalType": "address",
              "name": "to",
              "type": "address"
            },
            {
              "internalType": "string",
              "name": "eventType",
              "type": "string"
            },
            {
              "internalType": "uint256",
              "name": "price",
              "type": "uint256"
            },
            {
              "internalType": "uint256",
              "name": "timestamp",
              "type": "uint256"
            }
          ],
          "internalType": "struct Marketplace.Activity[]",
          "name": "",
          "type": "tuple[]"
        }
      ],
      "stateMutability": "view",
      "type": "function"
    },
    {
      "inputs": [],
      "name": "getListingPrice",
      "outputs": [
        {
          "internalType": "uint256",
          "name": "",
          "type": "uint256"
        }
      ],
      "stateMutability": "view",
      "type": "function"
    },
    {
      "inputs": [
        {
          "internalType": "uint256",
          "name": "itemId",
          "type": "uint256"
        }
      ],
      "name": "getNFTDetails",
      "outputs": [
        {
          "components": [
            {
              "internalType": "uint256",
              "name": "itemId",
              "type": "uint256"
            },
            {
              "internalType": "address",
              "name": "nftContract",
              "type": "address"
            },
            {
              "internalType": "uint256",
              "name": "tokenId",
              "type": "uint256"
            },
            {
              "internalType": "address payable",
              "name": "seller",
              "type": "address"
            },
            {
              "internalType": "address payable",
              "name": "owner",
              "type": "address"
            },
            {
              "internalType": "address payable",
              "name": "creator",
              "type": "address"
            },
            {
              "internalType": "uint256",
              "name": "price",
              "type": "uint256"
            },
            {
              "internalType": "bool",
              "name": "sold",
              "type": "bool"
            },
            {
              "internalType": "bool",
              "name": "isRewardItem",
              "type": "bool"
            },
            {
              "internalType": "uint256",
              "name": "likes",
              "type": "uint256"
            },
            {
              "internalType": "uint256",
              "name": "views",
              "type": "uint256"
            }
          ],
          "internalType": "struct Marketplace.MarketItem",
          "name": "",
          "type": "tuple"
        }
      ],
      "stateMutability": "view",
      "type": "function"
    },
    {
      "inputs": [
        {
          "internalType": "uint256",
          "name": "itemId",
          "type": "uint256"
        }
      ],
      "name": "incrementLikes",
      "outputs": [],
      "stateMutability": "nonpayable",
      "type": "function"
    },
    {
      "inputs": [
        {
          "internalType": "uint256",
          "name": "itemId",
          "type": "uint256"
        }
      ],
      "name": "incrementViews",
      "outputs": [],
      "stateMutability": "nonpayable",
      "type": "function"
    },
    {
      "inputs": [
        {
          "internalType": "uint256",
          "name": "_price",
          "type": "uint256"
        }
      ],
      "name": "setListingPrice",
      "outputs": [
        {
          "internalType": "uint256",
          "name": "",
          "type": "uint256"
        }
      ],
      "stateMutability": "nonpayable",
      "type": "function"
    },
    {
      "inputs": [
        {
          "internalType": "uint256",
          "name": "itemId",
          "type": "uint256"
        },
        {
          "internalType": "bool",
          "name": "isRewardItem",
          "type": "bool"
        }
      ],
      "name": "updateIsRewardItem",
      "outputs": [],
      "stateMutability": "nonpayable",
      "type": "function"
    }
  ],
  "bytecode": "0x60806040526509184e72a00060045534801561001a57600080fd5b50600160008190555033600360006101000a81548173ffffffffffffffffffffffffffffffffffffffff021916908373ffffffffffffffffffffffffffffffffffffffff160217905550612c92806100736000396000f3fe6080604052600436106100dd5760003560e01c8063d6895db21161007f578063ee6ba23411610059578063ee6ba2341461029b578063f064c32e146102c6578063fca97fdb146102f1578063fcfc1a761461032e576100dd565b8063d6895db21461022d578063e456905f14610256578063e814ce781461027f576100dd565b806319a0782e116100bb57806319a0782e146101615780634e66d34e1461018a5780637c726b69146101b357806382260f35146101f0576100dd565b80630f08efe0146100e2578063128fc6291461010d57806312e8558514610136575b600080fd5b3480156100ee57600080fd5b506100f7610370565b60405161010491906125fc565b60405180910390f35b34801561011957600080fd5b50610134600480360381019061012f9190611f11565b610722565b005b34801561014257600080fd5b5061014b610751565b60405161015891906126da565b60405180910390f35b34801561016d57600080fd5b5061018860048036038101906101839190611f3a565b61075b565b005b34801561019657600080fd5b506101b160048036038101906101ac9190611fc9565b6108c8565b005b3480156101bf57600080fd5b506101da60048036038101906101d59190611f11565b61098a565b6040516101e791906126da565b60405180910390f35b3480156101fc57600080fd5b5061021760048036038101906102129190611f11565b6109d2565b60405161022491906126be565b60405180910390f35b34801561023957600080fd5b50610254600480360381019061024f9190611f11565b610c18565b005b34801561026257600080fd5b5061027d60048036038101906102789190611f11565b610c47565b005b61029960048036038101906102949190611eae565b610c76565b005b3480156102a757600080fd5b506102b06110d5565b6040516102bd91906125fc565b60405180910390f35b3480156102d257600080fd5b506102db61150b565b6040516102e891906125fc565b60405180910390f35b3480156102fd57600080fd5b5061031860048036038101906103139190611f11565b611941565b60405161032591906125da565b60405180910390f35b34801561033a57600080fd5b5061035560048036038101906103509190612005565b611b0f565b604051610367969594939291906126f5565b60405180910390f35b6060600061037e6001611c30565b9050600061038c6002611c30565b6103966001611c30565b6103a091906128a8565b90506000808267ffffffffffffffff8111156103e5577f4e487b7100000000000000000000000000000000000000000000000000000000600052604160045260246000fd5b60405190808252806020026020018201604052801561041e57816020015b61040b611cae565b8152602001906001900390816104035790505b50905060005b8481101561071757600073ffffffffffffffffffffffffffffffffffffffff16600560006001846104559190612852565b815260200190815260200160002060040160009054906101000a900473ffffffffffffffffffffffffffffffffffffffff1673ffffffffffffffffffffffffffffffffffffffff161415610704576000600560006001846104b69190612852565b815260200190815260200160002060000154905060006005600083815260200190815260200160002090508060405180610160016040529081600082015481526020016001820160009054906101000a900473ffffffffffffffffffffffffffffffffffffffff1673ffffffffffffffffffffffffffffffffffffffff1673ffffffffffffffffffffffffffffffffffffffff168152602001600282015481526020016003820160009054906101000a900473ffffffffffffffffffffffffffffffffffffffff1673ffffffffffffffffffffffffffffffffffffffff1673ffffffffffffffffffffffffffffffffffffffff1681526020016004820160009054906101000a900473ffffffffffffffffffffffffffffffffffffffff1673ffffffffffffffffffffffffffffffffffffffff1673ffffffffffffffffffffffffffffffffffffffff1681526020016005820160009054906101000a900473ffffffffffffffffffffffffffffffffffffffff1673ffffffffffffffffffffffffffffffffffffffff1673ffffffffffffffffffffffffffffffffffffffff168152602001600682015481526020016007820160009054906101000a900460ff161515151581526020016007820160019054906101000a900460ff16151515158152602001600882015481526020016009820154815250508486815181106106e7577f4e487b7100000000000000000000000000000000000000000000000000000000600052603260045260246000fd5b60200260200101819052506001856106ff9190612852565b945050505b808061070f90612a17565b915050610424565b508094505050505090565b60056000828152602001908152602001600020600801600081548092919061074990612a17565b919050555050565b6000600454905090565b60006040518060c001604052808781526020018673ffffffffffffffffffffffffffffffffffffffff1681526020018573ffffffffffffffffffffffffffffffffffffffff168152602001848152602001838152602001428152509050600660008781526020019081526020016000208190806001815401808255809150506001900390600052602060002090600602016000909190919091506000820151816000015560208201518160010160006101000a81548173ffffffffffffffffffffffffffffffffffffffff021916908373ffffffffffffffffffffffffffffffffffffffff16021790555060408201518160020160006101000a81548173ffffffffffffffffffffffffffffffffffffffff021916908373ffffffffffffffffffffffffffffffffffffffff16021790555060608201518160030190805190602001906108a9929190611d64565b506080820151816004015560a082015181600501555050505050505050565b600360009054906101000a900473ffffffffffffffffffffffffffffffffffffffff1673ffffffffffffffffffffffffffffffffffffffff163373ffffffffffffffffffffffffffffffffffffffff1614610958576040517f08c379a000000000000000000000000000000000000000000000000000000000815260040161094f9061261e565b60405180910390fd5b806005600084815260200190815260200160002060070160016101000a81548160ff0219169083151502179055505050565b60003073ffffffffffffffffffffffffffffffffffffffff163373ffffffffffffffffffffffffffffffffffffffff1614156109c857816004819055505b6004549050919050565b6109da611cae565b6000821180156109f357506109ef6001611c30565b8211155b610a32576040517f08c379a0000000000000000000000000000000000000000000000000000000008152600401610a299061263e565b60405180910390fd5b6005600083815260200190815260200160002060405180610160016040529081600082015481526020016001820160009054906101000a900473ffffffffffffffffffffffffffffffffffffffff1673ffffffffffffffffffffffffffffffffffffffff1673ffffffffffffffffffffffffffffffffffffffff168152602001600282015481526020016003820160009054906101000a900473ffffffffffffffffffffffffffffffffffffffff1673ffffffffffffffffffffffffffffffffffffffff1673ffffffffffffffffffffffffffffffffffffffff1681526020016004820160009054906101000a900473ffffffffffffffffffffffffffffffffffffffff1673ffffffffffffffffffffffffffffffffffffffff1673ffffffffffffffffffffffffffffffffffffffff1681526020016005820160009054906101000a900473ffffffffffffffffffffffffffffffffffffffff1673ffffffffffffffffffffffffffffffffffffffff1673ffffffffffffffffffffffffffffffffffffffff168152602001600682015481526020016007820160009054906101000a900460ff161515151581526020016007820160019054906101000a900460ff16151515158152602001600882015481526020016009820154815250509050919050565b600560008281526020019081526020016000206009016000815480929190610c3f90612a17565b919050555050565b600560008281526020019081526020016000206008016000815480929190610c6e9061298a565b919050555050565b610c7e611c3e565b60008211610cc1576040517f08c379a0000000000000000000000000000000000000000000000000000000008152600401610cb89061265e565b60405180910390fd5b6004543414610d05576040517f08c379a0000000000000000000000000000000000000000000000000000000008152600401610cfc9061267e565b60405180910390fd5b610d0f6001611c8e565b6000610d1b6001611c30565b90506040518061016001604052808281526020018673ffffffffffffffffffffffffffffffffffffffff1681526020018581526020013373ffffffffffffffffffffffffffffffffffffffff168152602001600073ffffffffffffffffffffffffffffffffffffffff1681526020013373ffffffffffffffffffffffffffffffffffffffff1681526020018481526020016000151581526020018315158152602001600081526020016000815250600560008381526020019081526020016000206000820151816000015560208201518160010160006101000a81548173ffffffffffffffffffffffffffffffffffffffff021916908373ffffffffffffffffffffffffffffffffffffffff1602179055506040820151816002015560608201518160030160006101000a81548173ffffffffffffffffffffffffffffffffffffffff021916908373ffffffffffffffffffffffffffffffffffffffff16021790555060808201518160040160006101000a81548173ffffffffffffffffffffffffffffffffffffffff021916908373ffffffffffffffffffffffffffffffffffffffff16021790555060a08201518160050160006101000a81548173ffffffffffffffffffffffffffffffffffffffff021916908373ffffffffffffffffffffffffffffffffffffffff16021790555060c0820151816006015560e08201518160070160006101000a81548160ff0219169083151502179055506101008201518160070160016101000a81548160ff02191690831515021790555061012082015181600801556101408201518160090155905050610fb3816000336040518060400160405280600481526020017f4d696e74000000000000000000000000000000000000000000000000000000008152508761075b565b8473ffffffffffffffffffffffffffffffffffffffff166323b872dd3330876040518463ffffffff1660e01b8152600401610ff0939291906125a3565b600060405180830381600087803b15801561100a57600080fd5b505af115801561101e573d6000803e3d6000fd5b50505050611065816000336040518060400160405280600481526020017f4c697374000000000000000000000000000000000000000000000000000000008152508761075b565b838573ffffffffffffffffffffffffffffffffffffffff16827f1aa1e4870599a6e5a6de9a51776a6c7b45dfa68ab9d5c25eb3fcfbfabe1db1ce336000338960008a6000806040516110be989796959493929190612525565b60405180910390a4506110cf611ca4565b50505050565b606060006110e36001611c30565b905060008060005b8381101561118c573373ffffffffffffffffffffffffffffffffffffffff166005600060018461111b9190612852565b815260200190815260200160002060040160009054906101000a900473ffffffffffffffffffffffffffffffffffffffff1673ffffffffffffffffffffffffffffffffffffffff161415611179576001836111769190612852565b92505b808061118490612a17565b9150506110eb565b5060008267ffffffffffffffff8111156111cf577f4e487b7100000000000000000000000000000000000000000000000000000000600052604160045260246000fd5b60405190808252806020026020018201604052801561120857816020015b6111f5611cae565b8152602001906001900390816111ed5790505b50905060005b84811015611500573373ffffffffffffffffffffffffffffffffffffffff166005600060018461123e9190612852565b815260200190815260200160002060040160009054906101000a900473ffffffffffffffffffffffffffffffffffffffff1673ffffffffffffffffffffffffffffffffffffffff1614156114ed5760006005600060018461129f9190612852565b815260200190815260200160002060000154905060006005600083815260200190815260200160002090508060405180610160016040529081600082015481526020016001820160009054906101000a900473ffffffffffffffffffffffffffffffffffffffff1673ffffffffffffffffffffffffffffffffffffffff1673ffffffffffffffffffffffffffffffffffffffff168152602001600282015481526020016003820160009054906101000a900473ffffffffffffffffffffffffffffffffffffffff1673ffffffffffffffffffffffffffffffffffffffff1673ffffffffffffffffffffffffffffffffffffffff1681526020016004820160009054906101000a900473ffffffffffffffffffffffffffffffffffffffff1673ffffffffffffffffffffffffffffffffffffffff1673ffffffffffffffffffffffffffffffffffffffff1681526020016005820160009054906101000a900473ffffffffffffffffffffffffffffffffffffffff1673ffffffffffffffffffffffffffffffffffffffff1673ffffffffffffffffffffffffffffffffffffffff168152602001600682015481526020016007820160009054906101000a900460ff161515151581526020016007820160019054906101000a900460ff16151515158152602001600882015481526020016009820154815250508486815181106114d0577f4e487b7100000000000000000000000000000000000000000000000000000000600052603260045260246000fd5b60200260200101819052506001856114e89190612852565b945050505b80806114f890612a17565b91505061120e565b508094505050505090565b606060006115196001611c30565b905060008060005b838110156115c2573373ffffffffffffffffffffffffffffffffffffffff16600560006001846115519190612852565b815260200190815260200160002060030160009054906101000a900473ffffffffffffffffffffffffffffffffffffffff1673ffffffffffffffffffffffffffffffffffffffff1614156115af576001836115ac9190612852565b92505b80806115ba90612a17565b915050611521565b5060008267ffffffffffffffff811115611605577f4e487b7100000000000000000000000000000000000000000000000000000000600052604160045260246000fd5b60405190808252806020026020018201604052801561163e57816020015b61162b611cae565b8152602001906001900390816116235790505b50905060005b84811015611936573373ffffffffffffffffffffffffffffffffffffffff16600560006001846116749190612852565b815260200190815260200160002060030160009054906101000a900473ffffffffffffffffffffffffffffffffffffffff1673ffffffffffffffffffffffffffffffffffffffff161415611923576000600560006001846116d59190612852565b815260200190815260200160002060000154905060006005600083815260200190815260200160002090508060405180610160016040529081600082015481526020016001820160009054906101000a900473ffffffffffffffffffffffffffffffffffffffff1673ffffffffffffffffffffffffffffffffffffffff1673ffffffffffffffffffffffffffffffffffffffff168152602001600282015481526020016003820160009054906101000a900473ffffffffffffffffffffffffffffffffffffffff1673ffffffffffffffffffffffffffffffffffffffff1673ffffffffffffffffffffffffffffffffffffffff1681526020016004820160009054906101000a900473ffffffffffffffffffffffffffffffffffffffff1673ffffffffffffffffffffffffffffffffffffffff1673ffffffffffffffffffffffffffffffffffffffff1681526020016005820160009054906101000a900473ffffffffffffffffffffffffffffffffffffffff1673ffffffffffffffffffffffffffffffffffffffff1673ffffffffffffffffffffffffffffffffffffffff168152602001600682015481526020016007820160009054906101000a900460ff161515151581526020016007820160019054906101000a900460ff1615151515815260200160088201548152602001600982015481525050848681518110611906577f4e487b7100000000000000000000000000000000000000000000000000000000600052603260045260246000fd5b602002602001018190525060018561191e9190612852565b945050505b808061192e90612a17565b915050611644565b508094505050505090565b606060066000838152602001908152602001600020805480602002602001604051908101604052809291908181526020016000905b82821015611b0457838290600052602060002090600602016040518060c0016040529081600082015481526020016001820160009054906101000a900473ffffffffffffffffffffffffffffffffffffffff1673ffffffffffffffffffffffffffffffffffffffff1673ffffffffffffffffffffffffffffffffffffffff1681526020016002820160009054906101000a900473ffffffffffffffffffffffffffffffffffffffff1673ffffffffffffffffffffffffffffffffffffffff1673ffffffffffffffffffffffffffffffffffffffff168152602001600382018054611a5f906129b4565b80601f0160208091040260200160405190810160405280929190818152602001828054611a8b906129b4565b8015611ad85780601f10611aad57610100808354040283529160200191611ad8565b820191906000526020600020905b815481529060010190602001808311611abb57829003601f168201915b505050505081526020016004820154815260200160058201548152505081526020019060010190611976565b505050509050919050565b60066020528160005260406000208181548110611b2b57600080fd5b9060005260206000209060060201600091509150508060000154908060010160009054906101000a900473ffffffffffffffffffffffffffffffffffffffff16908060020160009054906101000a900473ffffffffffffffffffffffffffffffffffffffff1690806003018054611ba1906129b4565b80601f0160208091040260200160405190810160405280929190818152602001828054611bcd906129b4565b8015611c1a5780601f10611bef57610100808354040283529160200191611c1a565b820191906000526020600020905b815481529060010190602001808311611bfd57829003601f168201915b5050505050908060040154908060050154905086565b600081600001549050919050565b60026000541415611c84576040517f08c379a0000000000000000000000000000000000000000000000000000000008152600401611c7b9061269e565b60405180910390fd5b6002600081905550565b6001816000016000828254019250508190555050565b6001600081905550565b60405180610160016040528060008152602001600073ffffffffffffffffffffffffffffffffffffffff16815260200160008152602001600073ffffffffffffffffffffffffffffffffffffffff168152602001600073ffffffffffffffffffffffffffffffffffffffff168152602001600073ffffffffffffffffffffffffffffffffffffffff1681526020016000815260200160001515815260200160001515815260200160008152602001600081525090565b828054611d70906129b4565b90600052602060002090601f016020900481019282611d925760008555611dd9565b82601f10611dab57805160ff1916838001178555611dd9565b82800160010185558215611dd9579182015b82811115611dd8578251825591602001919060010190611dbd565b5b509050611de69190611dea565b5090565b5b80821115611e03576000816000905550600101611deb565b5090565b6000611e1a611e1584612782565b61275d565b905082815260208101848484011115611e3257600080fd5b611e3d848285612948565b509392505050565b600081359050611e5481612c17565b92915050565b600081359050611e6981612c2e565b92915050565b600082601f830112611e8057600080fd5b8135611e90848260208601611e07565b91505092915050565b600081359050611ea881612c45565b92915050565b60008060008060808587031215611ec457600080fd5b6000611ed287828801611e45565b9450506020611ee387828801611e99565b9350506040611ef487828801611e99565b9250506060611f0587828801611e5a565b91505092959194509250565b600060208284031215611f2357600080fd5b6000611f3184828501611e99565b91505092915050565b600080600080600060a08688031215611f5257600080fd5b6000611f6088828901611e99565b9550506020611f7188828901611e45565b9450506040611f8288828901611e45565b935050606086013567ffffffffffffffff811115611f9f57600080fd5b611fab88828901611e6f565b9250506080611fbc88828901611e99565b9150509295509295909350565b60008060408385031215611fdc57600080fd5b6000611fea85828601611e99565b9250506020611ffb85828601611e5a565b9150509250929050565b6000806040838503121561201857600080fd5b600061202685828601611e99565b925050602061203785828601611e99565b9150509250929050565b600061204d83836122bc565b905092915050565b60006120618383612345565b6101608301905092915050565b612077816128ee565b82525050565b612086816128dc565b82525050565b612095816128dc565b82525050565b60006120a6826127d3565b6120b0818561280e565b9350836020820285016120c2856127b3565b8060005b858110156120fe57848403895281516120df8582612041565b94506120ea836127f4565b925060208a019950506001810190506120c6565b50829750879550505050505092915050565b600061211b826127de565b612125818561281f565b9350612130836127c3565b8060005b838110156121615781516121488882612055565b975061215383612801565b925050600181019050612134565b5085935050505092915050565b61217781612900565b82525050565b61218681612900565b82525050565b61219581612936565b82525050565b60006121a6826127e9565b6121b08185612830565b93506121c0818560208601612957565b6121c981612aed565b840191505092915050565b60006121df826127e9565b6121e98185612841565b93506121f9818560208601612957565b61220281612aed565b840191505092915050565b600061221a602683612841565b915061222582612afe565b604082019050919050565b600061223d600f83612841565b915061224882612b4d565b602082019050919050565b6000612260601883612841565b915061226b82612b76565b602082019050919050565b6000612283602483612841565b915061228e82612b9f565b604082019050919050565b60006122a6601f83612841565b91506122b182612bee565b602082019050919050565b600060c0830160008301516122d46000860182612507565b5060208301516122e7602086018261207d565b5060408301516122fa604086018261207d565b5060608301518482036060860152612312828261219b565b91505060808301516123276080860182612507565b5060a083015161233a60a0860182612507565b508091505092915050565b6101608201600082015161235c6000850182612507565b50602082015161236f602085018261207d565b5060408201516123826040850182612507565b506060820151612395606085018261206e565b5060808201516123a8608085018261206e565b5060a08201516123bb60a085018261206e565b5060c08201516123ce60c0850182612507565b5060e08201516123e160e085018261216e565b506101008201516123f661010085018261216e565b5061012082015161240b610120850182612507565b50610140820151612420610140850182612507565b50505050565b6101608201600082015161243d6000850182612507565b506020820151612450602085018261207d565b5060408201516124636040850182612507565b506060820151612476606085018261206e565b506080820151612489608085018261206e565b5060a082015161249c60a085018261206e565b5060c08201516124af60c0850182612507565b5060e08201516124c260e085018261216e565b506101008201516124d761010085018261216e565b506101208201516124ec610120850182612507565b50610140820151612501610140850182612507565b50505050565b6125108161292c565b82525050565b61251f8161292c565b82525050565b60006101008201905061253b600083018b61208c565b612548602083018a61208c565b612555604083018961208c565b6125626060830188612516565b61256f608083018761217d565b61257c60a083018661217d565b61258960c083018561218c565b61259660e083018461218c565b9998505050505050505050565b60006060820190506125b8600083018661208c565b6125c5602083018561208c565b6125d26040830184612516565b949350505050565b600060208201905081810360008301526125f4818461209b565b905092915050565b600060208201905081810360008301526126168184612110565b905092915050565b600060208201905081810360008301526126378161220d565b9050919050565b6000602082019050818103600083015261265781612230565b9050919050565b6000602082019050818103600083015261267781612253565b9050919050565b6000602082019050818103600083015261269781612276565b9050919050565b600060208201905081810360008301526126b781612299565b9050919050565b6000610160820190506126d46000830184612426565b92915050565b60006020820190506126ef6000830184612516565b92915050565b600060c08201905061270a6000830189612516565b612717602083018861208c565b612724604083018761208c565b818103606083015261273681866121d4565b90506127456080830185612516565b61275260a0830184612516565b979650505050505050565b6000612767612778565b905061277382826129e6565b919050565b6000604051905090565b600067ffffffffffffffff82111561279d5761279c612abe565b5b6127a682612aed565b9050602081019050919050565b6000819050602082019050919050565b6000819050602082019050919050565b600081519050919050565b600081519050919050565b600081519050919050565b6000602082019050919050565b6000602082019050919050565b600082825260208201905092915050565b600082825260208201905092915050565b600082825260208201905092915050565b600082825260208201905092915050565b600061285d8261292c565b91506128688361292c565b9250827fffffffffffffffffffffffffffffffffffffffffffffffffffffffffffffffff0382111561289d5761289c612a60565b5b828201905092915050565b60006128b38261292c565b91506128be8361292c565b9250828210156128d1576128d0612a60565b5b828203905092915050565b60006128e78261290c565b9050919050565b60006128f98261290c565b9050919050565b60008115159050919050565b600073ffffffffffffffffffffffffffffffffffffffff82169050919050565b6000819050919050565b60006129418261292c565b9050919050565b82818337600083830152505050565b60005b8381101561297557808201518184015260208101905061295a565b83811115612984576000848401525b50505050565b60006129958261292c565b915060008214156129a9576129a8612a60565b5b600182039050919050565b600060028204905060018216806129cc57607f821691505b602082108114156129e0576129df612a8f565b5b50919050565b6129ef82612aed565b810181811067ffffffffffffffff82111715612a0e57612a0d612abe565b5b80604052505050565b6000612a228261292c565b91507fffffffffffffffffffffffffffffffffffffffffffffffffffffffffffffffff821415612a5557612a54612a60565b5b600182019050919050565b7f4e487b7100000000000000000000000000000000000000000000000000000000600052601160045260246000fd5b7f4e487b7100000000000000000000000000000000000000000000000000000000600052602260045260246000fd5b7f4e487b7100000000000000000000000000000000000000000000000000000000600052604160045260246000fd5b6000601f19601f8301169050919050565b7f4f6e6c7920746865206f776e65722063616e207570646174652069735265776160008201527f72644974656d0000000000000000000000000000000000000000000000000000602082015250565b7f496e76616c6964204974656d2049440000000000000000000000000000000000600082015250565b7f5072696365206d7573742062652061626f7665207a65726f0000000000000000600082015250565b7f5072696365206d75737420626520657175616c20746f206c697374696e67207060008201527f7269636500000000000000000000000000000000000000000000000000000000602082015250565b7f5265656e7472616e637947756172643a207265656e7472616e742063616c6c00600082015250565b612c20816128dc565b8114612c2b57600080fd5b50565b612c3781612900565b8114612c4257600080fd5b50565b612c4e8161292c565b8114612c5957600080fd5b5056fea26469706673582212202647b48c6eb0b3710aa2c7a5a61430ffd383d11abba38f1452de6ec5ab44b84b64736f6c63430008040033",
  "linkReferences": {},
  "deployedLinkReferences": {}
}