{
  "_format": "hh-sol-artifact-1",
  "contractName": "Marketplace",
  "sourceName": "contracts/Marketplace.sol",
  "abi": [
    {
      "inputs": [],
      "stateMutability": "nonpayable",
      "type": "constructor"
    },
    {
      "anonymous": false,
      "inputs": [
        {
          "indexed": true,
          "internalType": "address",
          "name": "owner",
          "type": "address"
        },
        {
          "indexed": true,
          "internalType": "address",
          "name": "approved",
          "type": "address"
        },
        {
          "indexed": true,
          "internalType": "uint256",
          "name": "tokenId",
          "type": "uint256"
        }
      ],
      "name": "Approval",
      "type": "event"
    },
    {
      "anonymous": false,
      "inputs": [
        {
          "indexed": true,
          "internalType": "address",
          "name": "owner",
          "type": "address"
        },
        {
          "indexed": true,
          "internalType": "address",
          "name": "operator",
          "type": "address"
        },
        {
          "indexed": false,
          "internalType": "bool",
          "name": "approved",
          "type": "bool"
        }
      ],
      "name": "ApprovalForAll",
      "type": "event"
    },
    {
      "anonymous": false,
      "inputs": [
        {
          "indexed": false,
          "internalType": "uint256",
          "name": "_fromTokenId",
          "type": "uint256"
        },
        {
          "indexed": false,
          "internalType": "uint256",
          "name": "_toTokenId",
          "type": "uint256"
        }
      ],
      "name": "BatchMetadataUpdate",
      "type": "event"
    },
    {
      "anonymous": false,
      "inputs": [
        {
          "indexed": true,
          "internalType": "uint256",
          "name": "itemId",
          "type": "uint256"
        },
        {
          "indexed": false,
          "internalType": "address",
          "name": "seller",
          "type": "address"
        },
        {
          "indexed": false,
          "internalType": "address",
          "name": "owner",
          "type": "address"
        },
        {
          "indexed": false,
          "internalType": "address",
          "name": "creator",
          "type": "address"
        },
        {
          "indexed": false,
          "internalType": "uint256",
          "name": "price",
          "type": "uint256"
        },
        {
          "indexed": false,
          "internalType": "bool",
          "name": "sold",
          "type": "bool"
        },
        {
          "indexed": false,
          "internalType": "bool",
          "name": "isRewardItem",
          "type": "bool"
        },
        {
          "indexed": false,
          "internalType": "uint256",
          "name": "likes",
          "type": "uint256"
        },
        {
          "indexed": false,
          "internalType": "uint256",
          "name": "views",
          "type": "uint256"
        },
        {
          "indexed": false,
          "internalType": "bool",
          "name": "isListed",
          "type": "bool"
        }
      ],
      "name": "MarketItemCreated",
      "type": "event"
    },
    {
      "anonymous": false,
      "inputs": [
        {
          "indexed": false,
          "internalType": "uint256",
          "name": "_tokenId",
          "type": "uint256"
        }
      ],
      "name": "MetadataUpdate",
      "type": "event"
    },
    {
      "anonymous": false,
      "inputs": [
        {
          "indexed": true,
          "internalType": "address",
          "name": "from",
          "type": "address"
        },
        {
          "indexed": true,
          "internalType": "address",
          "name": "to",
          "type": "address"
        },
        {
          "indexed": true,
          "internalType": "uint256",
          "name": "tokenId",
          "type": "uint256"
        }
      ],
      "name": "Transfer",
      "type": "event"
    },
    {
      "inputs": [
        {
          "internalType": "uint256",
          "name": "",
          "type": "uint256"
        },
        {
          "internalType": "uint256",
          "name": "",
          "type": "uint256"
        }
      ],
      "name": "activities",
      "outputs": [
        {
          "internalType": "uint256",
          "name": "itemId",
          "type": "uint256"
        },
        {
          "internalType": "address",
          "name": "from",
          "type": "address"
        },
        {
          "internalType": "address",
          "name": "to",
          "type": "address"
        },
        {
          "internalType": "string",
          "name": "eventType",
          "type": "string"
        },
        {
          "internalType": "uint256",
          "name": "price",
          "type": "uint256"
        },
        {
          "internalType": "uint256",
          "name": "timestamp",
          "type": "uint256"
        }
      ],
      "stateMutability": "view",
      "type": "function"
    },
    {
      "inputs": [
        {
          "internalType": "uint256",
          "name": "tokenId",
          "type": "uint256"
        },
        {
          "internalType": "address",
          "name": "from",
          "type": "address"
        },
        {
          "internalType": "address",
          "name": "to",
          "type": "address"
        },
        {
          "internalType": "string",
          "name": "eventType",
          "type": "string"
        },
        {
          "internalType": "uint256",
          "name": "price",
          "type": "uint256"
        }
      ],
      "name": "addActivity",
      "outputs": [],
      "stateMutability": "nonpayable",
      "type": "function"
    },
    {
      "inputs": [
        {
          "internalType": "uint256",
          "name": "itemId",
          "type": "uint256"
        }
      ],
      "name": "addLike",
      "outputs": [],
      "stateMutability": "nonpayable",
      "type": "function"
    },
    {
      "inputs": [
        {
          "internalType": "uint256",
          "name": "tokenId",
          "type": "uint256"
        },
        {
          "internalType": "uint256",
          "name": "price",
          "type": "uint256"
        }
      ],
      "name": "addPriceHistory",
      "outputs": [],
      "stateMutability": "nonpayable",
      "type": "function"
    },
    {
      "inputs": [
        {
          "internalType": "address",
          "name": "to",
          "type": "address"
        },
        {
          "internalType": "uint256",
          "name": "tokenId",
          "type": "uint256"
        }
      ],
      "name": "approve",
      "outputs": [],
      "stateMutability": "nonpayable",
      "type": "function"
    },
    {
      "inputs": [
        {
          "internalType": "address",
          "name": "owner",
          "type": "address"
        }
      ],
      "name": "balanceOf",
      "outputs": [
        {
          "internalType": "uint256",
          "name": "",
          "type": "uint256"
        }
      ],
      "stateMutability": "view",
      "type": "function"
    },
    {
      "inputs": [
        {
          "internalType": "uint256",
          "name": "tokenId",
          "type": "uint256"
        }
      ],
      "name": "buyMarketItem",
      "outputs": [],
      "stateMutability": "payable",
      "type": "function"
    },
    {
      "inputs": [
        {
          "internalType": "string",
          "name": "tokenURI",
          "type": "string"
        },
        {
          "internalType": "uint256",
          "name": "price",
          "type": "uint256"
        }
      ],
      "name": "createToken",
      "outputs": [
        {
          "internalType": "uint256",
          "name": "",
          "type": "uint256"
        }
      ],
      "stateMutability": "payable",
      "type": "function"
    },
    {
      "inputs": [],
      "name": "fetchItemsCreated",
      "outputs": [
        {
          "components": [
            {
              "internalType": "uint256",
              "name": "itemId",
              "type": "uint256"
            },
            {
              "internalType": "address payable",
              "name": "seller",
              "type": "address"
            },
            {
              "internalType": "address payable",
              "name": "owner",
              "type": "address"
            },
            {
              "internalType": "address payable",
              "name": "creator",
              "type": "address"
            },
            {
              "internalType": "uint256",
              "name": "price",
              "type": "uint256"
            },
            {
              "internalType": "bool",
              "name": "sold",
              "type": "bool"
            },
            {
              "internalType": "bool",
              "name": "isRewardItem",
              "type": "bool"
            },
            {
              "internalType": "uint256",
              "name": "likes",
              "type": "uint256"
            },
            {
              "internalType": "uint256",
              "name": "views",
              "type": "uint256"
            },
            {
              "internalType": "bool",
              "name": "isListed",
              "type": "bool"
            }
          ],
          "internalType": "struct Marketplace.MarketItem[]",
          "name": "",
          "type": "tuple[]"
        }
      ],
      "stateMutability": "view",
      "type": "function"
    },
    {
      "inputs": [],
      "name": "fetchMarketItems",
      "outputs": [
        {
          "components": [
            {
              "internalType": "uint256",
              "name": "itemId",
              "type": "uint256"
            },
            {
              "internalType": "address payable",
              "name": "seller",
              "type": "address"
            },
            {
              "internalType": "address payable",
              "name": "owner",
              "type": "address"
            },
            {
              "internalType": "address payable",
              "name": "creator",
              "type": "address"
            },
            {
              "internalType": "uint256",
              "name": "price",
              "type": "uint256"
            },
            {
              "internalType": "bool",
              "name": "sold",
              "type": "bool"
            },
            {
              "internalType": "bool",
              "name": "isRewardItem",
              "type": "bool"
            },
            {
              "internalType": "uint256",
              "name": "likes",
              "type": "uint256"
            },
            {
              "internalType": "uint256",
              "name": "views",
              "type": "uint256"
            },
            {
              "internalType": "bool",
              "name": "isListed",
              "type": "bool"
            }
          ],
          "internalType": "struct Marketplace.MarketItem[]",
          "name": "",
          "type": "tuple[]"
        }
      ],
      "stateMutability": "view",
      "type": "function"
    },
    {
      "inputs": [],
      "name": "fetchPurchasedNFTs",
      "outputs": [
        {
          "components": [
            {
              "internalType": "uint256",
              "name": "itemId",
              "type": "uint256"
            },
            {
              "internalType": "address payable",
              "name": "seller",
              "type": "address"
            },
            {
              "internalType": "address payable",
              "name": "owner",
              "type": "address"
            },
            {
              "internalType": "address payable",
              "name": "creator",
              "type": "address"
            },
            {
              "internalType": "uint256",
              "name": "price",
              "type": "uint256"
            },
            {
              "internalType": "bool",
              "name": "sold",
              "type": "bool"
            },
            {
              "internalType": "bool",
              "name": "isRewardItem",
              "type": "bool"
            },
            {
              "internalType": "uint256",
              "name": "likes",
              "type": "uint256"
            },
            {
              "internalType": "uint256",
              "name": "views",
              "type": "uint256"
            },
            {
              "internalType": "bool",
              "name": "isListed",
              "type": "bool"
            }
          ],
          "internalType": "struct Marketplace.MarketItem[]",
          "name": "",
          "type": "tuple[]"
        }
      ],
      "stateMutability": "view",
      "type": "function"
    },
    {
      "inputs": [
        {
          "internalType": "uint256",
          "name": "tokenId",
          "type": "uint256"
        }
      ],
      "name": "getActivities",
      "outputs": [
        {
          "components": [
            {
              "internalType": "uint256",
              "name": "itemId",
              "type": "uint256"
            },
            {
              "internalType": "address",
              "name": "from",
              "type": "address"
            },
            {
              "internalType": "address",
              "name": "to",
              "type": "address"
            },
            {
              "internalType": "string",
              "name": "eventType",
              "type": "string"
            },
            {
              "internalType": "uint256",
              "name": "price",
              "type": "uint256"
            },
            {
              "internalType": "uint256",
              "name": "timestamp",
              "type": "uint256"
            }
          ],
          "internalType": "struct Marketplace.Activity[]",
          "name": "",
          "type": "tuple[]"
        }
      ],
      "stateMutability": "view",
      "type": "function"
    },
    {
      "inputs": [
        {
          "internalType": "uint256",
          "name": "tokenId",
          "type": "uint256"
        }
      ],
      "name": "getApproved",
      "outputs": [
        {
          "internalType": "address",
          "name": "",
          "type": "address"
        }
      ],
      "stateMutability": "view",
      "type": "function"
    },
    {
      "inputs": [
        {
          "internalType": "uint256",
          "name": "itemId",
          "type": "uint256"
        }
      ],
      "name": "getLikes",
      "outputs": [
        {
          "components": [
            {
              "internalType": "uint256",
              "name": "itemId",
              "type": "uint256"
            },
            {
              "internalType": "address",
              "name": "from",
              "type": "address"
            },
            {
              "internalType": "uint256",
              "name": "timestamp",
              "type": "uint256"
            }
          ],
          "internalType": "struct Marketplace.Like[]",
          "name": "",
          "type": "tuple[]"
        }
      ],
      "stateMutability": "view",
      "type": "function"
    },
    {
      "inputs": [],
      "name": "getListingPrice",
      "outputs": [
        {
          "internalType": "uint256",
          "name": "",
          "type": "uint256"
        }
      ],
      "stateMutability": "view",
      "type": "function"
    },
    {
      "inputs": [
        {
          "internalType": "uint256",
          "name": "itemId",
          "type": "uint256"
        }
      ],
      "name": "getNFTDetails",
      "outputs": [
        {
          "components": [
            {
              "internalType": "uint256",
              "name": "itemId",
              "type": "uint256"
            },
            {
              "internalType": "address payable",
              "name": "seller",
              "type": "address"
            },
            {
              "internalType": "address payable",
              "name": "owner",
              "type": "address"
            },
            {
              "internalType": "address payable",
              "name": "creator",
              "type": "address"
            },
            {
              "internalType": "uint256",
              "name": "price",
              "type": "uint256"
            },
            {
              "internalType": "bool",
              "name": "sold",
              "type": "bool"
            },
            {
              "internalType": "bool",
              "name": "isRewardItem",
              "type": "bool"
            },
            {
              "internalType": "uint256",
              "name": "likes",
              "type": "uint256"
            },
            {
              "internalType": "uint256",
              "name": "views",
              "type": "uint256"
            },
            {
              "internalType": "bool",
              "name": "isListed",
              "type": "bool"
            }
          ],
          "internalType": "struct Marketplace.MarketItem",
          "name": "",
          "type": "tuple"
        }
      ],
      "stateMutability": "view",
      "type": "function"
    },
    {
      "inputs": [
        {
          "internalType": "uint256",
          "name": "tokenId",
          "type": "uint256"
        }
      ],
      "name": "getPriceHistory",
      "outputs": [
        {
          "components": [
            {
              "internalType": "uint256",
              "name": "itemId",
              "type": "uint256"
            },
            {
              "internalType": "uint256",
              "name": "price",
              "type": "uint256"
            },
            {
              "internalType": "uint256",
              "name": "timestamp",
              "type": "uint256"
            }
          ],
          "internalType": "struct Marketplace.PriceHistory[]",
          "name": "",
          "type": "tuple[]"
        }
      ],
      "stateMutability": "view",
      "type": "function"
    },
    {
      "inputs": [
        {
          "internalType": "address",
          "name": "owner",
          "type": "address"
        },
        {
          "internalType": "address",
          "name": "operator",
          "type": "address"
        }
      ],
      "name": "isApprovedForAll",
      "outputs": [
        {
          "internalType": "bool",
          "name": "",
          "type": "bool"
        }
      ],
      "stateMutability": "view",
      "type": "function"
    },
    {
      "inputs": [
        {
          "internalType": "uint256",
          "name": "",
          "type": "uint256"
        },
        {
          "internalType": "uint256",
          "name": "",
          "type": "uint256"
        }
      ],
      "name": "likes",
      "outputs": [
        {
          "internalType": "uint256",
          "name": "itemId",
          "type": "uint256"
        },
        {
          "internalType": "address",
          "name": "from",
          "type": "address"
        },
        {
          "internalType": "uint256",
          "name": "timestamp",
          "type": "uint256"
        }
      ],
      "stateMutability": "view",
      "type": "function"
    },
    {
      "inputs": [],
      "name": "name",
      "outputs": [
        {
          "internalType": "string",
          "name": "",
          "type": "string"
        }
      ],
      "stateMutability": "view",
      "type": "function"
    },
    {
      "inputs": [
        {
          "internalType": "uint256",
          "name": "tokenId",
          "type": "uint256"
        }
      ],
      "name": "ownerOf",
      "outputs": [
        {
          "internalType": "address",
          "name": "",
          "type": "address"
        }
      ],
      "stateMutability": "view",
      "type": "function"
    },
    {
      "inputs": [
        {
          "internalType": "uint256",
          "name": "",
          "type": "uint256"
        },
        {
          "internalType": "uint256",
          "name": "",
          "type": "uint256"
        }
      ],
      "name": "priceHistories",
      "outputs": [
        {
          "internalType": "uint256",
          "name": "itemId",
          "type": "uint256"
        },
        {
          "internalType": "uint256",
          "name": "price",
          "type": "uint256"
        },
        {
          "internalType": "uint256",
          "name": "timestamp",
          "type": "uint256"
        }
      ],
      "stateMutability": "view",
      "type": "function"
    },
    {
      "inputs": [
        {
          "internalType": "uint256",
          "name": "itemId",
          "type": "uint256"
        }
      ],
      "name": "removeLike",
      "outputs": [],
      "stateMutability": "nonpayable",
      "type": "function"
    },
    {
      "inputs": [
        {
          "internalType": "uint256",
          "name": "tokenId",
          "type": "uint256"
        },
        {
          "internalType": "uint256",
          "name": "price",
          "type": "uint256"
        }
      ],
      "name": "resellToken",
      "outputs": [],
      "stateMutability": "payable",
      "type": "function"
    },
    {
      "inputs": [
        {
          "internalType": "address",
          "name": "from",
          "type": "address"
        },
        {
          "internalType": "address",
          "name": "to",
          "type": "address"
        },
        {
          "internalType": "uint256",
          "name": "tokenId",
          "type": "uint256"
        }
      ],
      "name": "safeTransferFrom",
      "outputs": [],
      "stateMutability": "nonpayable",
      "type": "function"
    },
    {
      "inputs": [
        {
          "internalType": "address",
          "name": "from",
          "type": "address"
        },
        {
          "internalType": "address",
          "name": "to",
          "type": "address"
        },
        {
          "internalType": "uint256",
          "name": "tokenId",
          "type": "uint256"
        },
        {
          "internalType": "bytes",
          "name": "data",
          "type": "bytes"
        }
      ],
      "name": "safeTransferFrom",
      "outputs": [],
      "stateMutability": "nonpayable",
      "type": "function"
    },
    {
      "inputs": [
        {
          "internalType": "address",
          "name": "operator",
          "type": "address"
        },
        {
          "internalType": "bool",
          "name": "approved",
          "type": "bool"
        }
      ],
      "name": "setApprovalForAll",
      "outputs": [],
      "stateMutability": "nonpayable",
      "type": "function"
    },
    {
      "inputs": [
        {
          "internalType": "bytes4",
          "name": "interfaceId",
          "type": "bytes4"
        }
      ],
      "name": "supportsInterface",
      "outputs": [
        {
          "internalType": "bool",
          "name": "",
          "type": "bool"
        }
      ],
      "stateMutability": "view",
      "type": "function"
    },
    {
      "inputs": [],
      "name": "symbol",
      "outputs": [
        {
          "internalType": "string",
          "name": "",
          "type": "string"
        }
      ],
      "stateMutability": "view",
      "type": "function"
    },
    {
      "inputs": [
        {
          "internalType": "uint256",
          "name": "tokenId",
          "type": "uint256"
        }
      ],
      "name": "tokenURI",
      "outputs": [
        {
          "internalType": "string",
          "name": "",
          "type": "string"
        }
      ],
      "stateMutability": "view",
      "type": "function"
    },
    {
      "inputs": [
        {
          "internalType": "address",
          "name": "from",
          "type": "address"
        },
        {
          "internalType": "address",
          "name": "to",
          "type": "address"
        },
        {
          "internalType": "uint256",
          "name": "tokenId",
          "type": "uint256"
        }
      ],
      "name": "transferFrom",
      "outputs": [],
      "stateMutability": "nonpayable",
      "type": "function"
    },
    {
      "inputs": [
        {
          "internalType": "uint256",
          "name": "itemId",
          "type": "uint256"
        },
        {
          "internalType": "bool",
          "name": "isRewardItem",
          "type": "bool"
        }
      ],
      "name": "updateIsRewardItem",
      "outputs": [],
      "stateMutability": "nonpayable",
      "type": "function"
    },
    {
      "inputs": [
        {
          "internalType": "uint256",
          "name": "_price",
          "type": "uint256"
        }
      ],
      "name": "updateListingPrice",
      "outputs": [],
      "stateMutability": "payable",
      "type": "function"
    },
    {
      "inputs": [
        {
          "internalType": "uint256",
          "name": "tokenId",
          "type": "uint256"
        },
        {
          "internalType": "string",
          "name": "newTokenURI",
          "type": "string"
        }
      ],
      "name": "updateTokenURI",
      "outputs": [],
      "stateMutability": "nonpayable",
      "type": "function"
    }
  ],
  "bytecode": "0x6080604052654a941cdf2000600b553480156200001b57600080fd5b506040518060400160405280601581526020017f4e666c75656e6365722d4d61726b6574706c61636500000000000000000000008152506040518060400160405280600481526020017f4e464d50000000000000000000000000000000000000000000000000000000008152508160009080519060200190620000a09291906200010b565b508060019080519060200190620000b99291906200010b565b505050600160078190555033600a60006101000a81548173ffffffffffffffffffffffffffffffffffffffff021916908373ffffffffffffffffffffffffffffffffffffffff16021790555062000220565b8280546200011990620001bb565b90600052602060002090601f0160209004810192826200013d576000855562000189565b82601f106200015857805160ff191683800117855562000189565b8280016001018555821562000189579182015b82811115620001885782518255916020019190600101906200016b565b5b5090506200019891906200019c565b5090565b5b80821115620001b75760008160009055506001016200019d565b5090565b60006002820490506001821680620001d457607f821691505b60208210811415620001eb57620001ea620001f1565b5b50919050565b7f4e487b7100000000000000000000000000000000000000000000000000000000600052602260045260246000fd5b615cf080620002306000396000f3fe6080604052600436106101f95760003560e01c806370a082311161010d578063b88d4fde116100a0578063ee6ba2341161006f578063ee6ba23414610757578063f064c32e14610782578063fca97fdb146107ad578063fcfc1a76146107ea578063fd1a98a51461082c576101f9565b8063b88d4fde14610698578063c87b56dd146106c1578063e219fc75146106fe578063e985e9c51461071a576101f9565b8063a209081e116100dc578063a209081e146105ed578063a22cb4651461062a578063a7656e3314610653578063ae677aa31461067c576101f9565b806370a082311461051857806372b3b6201461055557806382260f351461058557806395d89b41146105c2576101f9565b806323b872dd116101905780633a52c6901161015f5780633a52c6901461042157806342842e0e1461044a5780634bd738c7146104735780634e66d34e146104b25780636352211e146104db576101f9565b806323b872dd14610374578063263457f21461039d578063351901c3146103dc578063378a35cd146103f8576101f9565b80630f08efe0116101cc5780630f08efe0146102cc57806312e85585146102f757806318e97fd11461032257806319a0782e1461034b576101f9565b806301ffc9a7146101fe57806306fdde031461023b578063081812fc14610266578063095ea7b3146102a3575b600080fd5b34801561020a57600080fd5b5061022560048036038101906102209190614450565b610869565b6040516102329190615052565b60405180910390f35b34801561024757600080fd5b506102506108ca565b60405161025d919061506d565b60405180910390f35b34801561027257600080fd5b5061028d600480360381019061028891906144f6565b61095c565b60405161029a9190614ed6565b60405180910390f35b3480156102af57600080fd5b506102ca60048036038101906102c59190614414565b6109a2565b005b3480156102d857600080fd5b506102e1610aba565b6040516102ee919061500e565b60405180910390f35b34801561030357600080fd5b5061030c610e10565b60405161031991906152cb565b60405180910390f35b34801561032e57600080fd5b50610349600480360381019061034491906145ea565b610e1a565b005b34801561035757600080fd5b50610372600480360381019061036d919061451f565b610e28565b005b34801561038057600080fd5b5061039b6004803603810190610396919061430e565b610f95565b005b3480156103a957600080fd5b506103c460048036038101906103bf919061463e565b610ff5565b6040516103d39392919061534e565b60405180910390f35b6103f660048036038101906103f191906144f6565b61105c565b005b34801561040457600080fd5b5061041f600480360381019061041a91906144f6565b61130d565b005b34801561042d57600080fd5b506104486004803603810190610443919061463e565b61140e565b005b34801561045657600080fd5b50610471600480360381019061046c919061430e565b61148f565b005b34801561047f57600080fd5b5061049a6004803603810190610495919061463e565b6114af565b6040516104a993929190615385565b60405180910390f35b3480156104be57600080fd5b506104d960048036038101906104d491906145ae565b6114f6565b005b3480156104e757600080fd5b5061050260048036038101906104fd91906144f6565b611528565b60405161050f9190614ed6565b60405180910390f35b34801561052457600080fd5b5061053f600480360381019061053a91906142a9565b6115af565b60405161054c91906152cb565b60405180910390f35b61056f600480360381019061056a91906144a2565b611667565b60405161057c91906152cb565b60405180910390f35b34801561059157600080fd5b506105ac60048036038101906105a791906144f6565b6116a9565b6040516105b991906152af565b60405180910390f35b3480156105ce57600080fd5b506105d76118aa565b6040516105e4919061506d565b60405180910390f35b3480156105f957600080fd5b50610614600480360381019061060f91906144f6565b61193c565b6040516106219190614fec565b60405180910390f35b34801561063657600080fd5b50610651600480360381019061064c91906143d8565b611a18565b005b34801561065f57600080fd5b5061067a600480360381019061067591906144f6565b611a2e565b005b610696600480360381019061069191906144f6565b611bde565b005b3480156106a457600080fd5b506106bf60048036038101906106ba919061435d565b611be8565b005b3480156106cd57600080fd5b506106e860048036038101906106e391906144f6565b611c4a565b6040516106f5919061506d565b60405180910390f35b6107186004803603810190610713919061463e565b611d5d565b005b34801561072657600080fd5b50610741600480360381019061073c91906142d2565b611fd0565b60405161074e9190615052565b60405180910390f35b34801561076357600080fd5b5061076c612064565b604051610779919061500e565b60405180910390f35b34801561078e57600080fd5b5061079761243f565b6040516107a4919061500e565b60405180910390f35b3480156107b957600080fd5b506107d460048036038101906107cf91906144f6565b61281a565b6040516107e19190614fca565b60405180910390f35b3480156107f657600080fd5b50610811600480360381019061080c919061463e565b6129e8565b604051610823969594939291906152e6565b60405180910390f35b34801561083857600080fd5b50610853600480360381019061084e91906144f6565b612b09565b6040516108609190615030565b60405180910390f35b6000634906490660e01b7bffffffffffffffffffffffffffffffffffffffffffffffffffffffff1916827bffffffffffffffffffffffffffffffffffffffffffffffffffffffff191614806108c357506108c282612b99565b5b9050919050565b6060600080546108d9906156df565b80601f0160208091040260200160405190810160405280929190818152602001828054610905906156df565b80156109525780601f1061092757610100808354040283529160200191610952565b820191906000526020600020905b81548152906001019060200180831161093557829003601f168201915b5050505050905090565b600061096782612c7b565b6004600083815260200190815260200160002060009054906101000a900473ffffffffffffffffffffffffffffffffffffffff169050919050565b60006109ad82611528565b90508073ffffffffffffffffffffffffffffffffffffffff168373ffffffffffffffffffffffffffffffffffffffff161415610a1e576040517f08c379a0000000000000000000000000000000000000000000000000000000008152600401610a159061522f565b60405180910390fd5b8073ffffffffffffffffffffffffffffffffffffffff16610a3d612cc6565b73ffffffffffffffffffffffffffffffffffffffff161480610a6c5750610a6b81610a66612cc6565b611fd0565b5b610aab576040517f08c379a0000000000000000000000000000000000000000000000000000000008152600401610aa29061526f565b60405180910390fd5b610ab58383612cce565b505050565b60606000610ac86008612d87565b90506000610ad66009612d87565b610ae06008612d87565b610aea91906155d1565b90506000808267ffffffffffffffff811115610b2f577f4e487b7100000000000000000000000000000000000000000000000000000000600052604160045260246000fd5b604051908082528060200260200182016040528015610b6857816020015b610b55614032565b815260200190600190039081610b4d5790505b50905060005b84811015610e05573073ffffffffffffffffffffffffffffffffffffffff16600c6000600184610b9e919061557b565b815260200190815260200160002060020160009054906101000a900473ffffffffffffffffffffffffffffffffffffffff1673ffffffffffffffffffffffffffffffffffffffff161415610df2576000600182610bfb919061557b565b90506000600c600083815260200190815260200160002090508060405180610140016040529081600082015481526020016001820160009054906101000a900473ffffffffffffffffffffffffffffffffffffffff1673ffffffffffffffffffffffffffffffffffffffff1673ffffffffffffffffffffffffffffffffffffffff1681526020016002820160009054906101000a900473ffffffffffffffffffffffffffffffffffffffff1673ffffffffffffffffffffffffffffffffffffffff1673ffffffffffffffffffffffffffffffffffffffff1681526020016003820160009054906101000a900473ffffffffffffffffffffffffffffffffffffffff1673ffffffffffffffffffffffffffffffffffffffff1673ffffffffffffffffffffffffffffffffffffffff168152602001600482015481526020016005820160009054906101000a900460ff161515151581526020016005820160019054906101000a900460ff1615151515815260200160068201548152602001600782015481526020016008820160009054906101000a900460ff161515151581525050848681518110610dd5577f4e487b7100000000000000000000000000000000000000000000000000000000600052603260045260246000fd5b6020026020010181905250600185610ded919061557b565b945050505b8080610dfd90615742565b915050610b6e565b508094505050505090565b6000600b54905090565b610e248282612d95565b5050565b60006040518060c001604052808781526020018673ffffffffffffffffffffffffffffffffffffffff1681526020018573ffffffffffffffffffffffffffffffffffffffff168152602001848152602001838152602001428152509050600d60008781526020019081526020016000208190806001815401808255809150506001900390600052602060002090600602016000909190919091506000820151816000015560208201518160010160006101000a81548173ffffffffffffffffffffffffffffffffffffffff021916908373ffffffffffffffffffffffffffffffffffffffff16021790555060408201518160020160006101000a81548173ffffffffffffffffffffffffffffffffffffffff021916908373ffffffffffffffffffffffffffffffffffffffff1602179055506060820151816003019080519060200190610f769291906140cd565b506080820151816004015560a082015181600501555050505050505050565b610fa6610fa0612cc6565b82612e40565b610fe5576040517f08c379a0000000000000000000000000000000000000000000000000000000008152600401610fdc9061508f565b60405180910390fd5b610ff0838383612ed5565b505050565b600f602052816000526040600020818154811061101157600080fd5b9060005260206000209060030201600091509150508060000154908060010160009054906101000a900473ffffffffffffffffffffffffffffffffffffffff16908060020154905083565b6000600c60008381526020019081526020016000206004015490506000600c600084815260200190815260200160002060010160009054906101000a900473ffffffffffffffffffffffffffffffffffffffff16905033600c600085815260200190815260200160002060020160006101000a81548173ffffffffffffffffffffffffffffffffffffffff021916908373ffffffffffffffffffffffffffffffffffffffff1602179055506001600c600085815260200190815260200160002060050160006101000a81548160ff0219169083151502179055506000600c600085815260200190815260200160002060010160006101000a81548173ffffffffffffffffffffffffffffffffffffffff021916908373ffffffffffffffffffffffffffffffffffffffff1602179055506000600c600085815260200190815260200160002060080160006101000a81548160ff0219169083151502179055506111c560096131cf565b6112078330336040518060400160405280600481526020017f53616c650000000000000000000000000000000000000000000000000000000081525086610e28565b611212303385612ed5565b611256836000336040518060400160405280600881526020017f5472616e736665720000000000000000000000000000000000000000000000008152506000610e28565b600a60009054906101000a900473ffffffffffffffffffffffffffffffffffffffff1673ffffffffffffffffffffffffffffffffffffffff166108fc600b549081150290604051600060405180830381858888f193505050501580156112c0573d6000803e3d6000fd5b508073ffffffffffffffffffffffffffffffffffffffff166108fc349081150290604051600060405180830381858888f19350505050158015611307573d6000803e3d6000fd5b50505050565b600060405180606001604052808381526020013373ffffffffffffffffffffffffffffffffffffffff168152602001428152509050600f60008381526020019081526020016000208190806001815401808255809150506001900390600052602060002090600302016000909190919091506000820151816000015560208201518160010160006101000a81548173ffffffffffffffffffffffffffffffffffffffff021916908373ffffffffffffffffffffffffffffffffffffffff1602179055506040820151816002015550506001600c60008481526020019081526020016000206006016000828254611403919061557b565b925050819055505050565b60006040518060600160405280848152602001838152602001428152509050600e60008481526020019081526020016000208190806001815401808255809150506001900390600052602060002090600302016000909190919091506000820151816000015560208201518160010155604082015181600201555050505050565b6114aa83838360405180602001604052806000815250611be8565b505050565b600e60205281600052604060002081815481106114cb57600080fd5b9060005260206000209060030201600091509150508060000154908060010154908060020154905083565b80600c600084815260200190815260200160002060050160016101000a81548160ff0219169083151502179055505050565b600080611534836131e5565b9050600073ffffffffffffffffffffffffffffffffffffffff168173ffffffffffffffffffffffffffffffffffffffff1614156115a6576040517f08c379a000000000000000000000000000000000000000000000000000000000815260040161159d9061520f565b60405180910390fd5b80915050919050565b60008073ffffffffffffffffffffffffffffffffffffffff168273ffffffffffffffffffffffffffffffffffffffff161415611620576040517f08c379a00000000000000000000000000000000000000000000000000000000081526004016116179061516f565b60405180910390fd5b600360008373ffffffffffffffffffffffffffffffffffffffff1673ffffffffffffffffffffffffffffffffffffffff168152602001908152602001600020549050919050565b600061167360086131cf565b600061167f6008612d87565b905061168b3382613222565b6116958185612d95565b61169f8184613440565b8091505092915050565b6116b1614032565b6000821180156116ca57506116c66008612d87565b8211155b611709576040517f08c379a0000000000000000000000000000000000000000000000000000000008152600401611700906151af565b60405180910390fd5b600c600083815260200190815260200160002060405180610140016040529081600082015481526020016001820160009054906101000a900473ffffffffffffffffffffffffffffffffffffffff1673ffffffffffffffffffffffffffffffffffffffff1673ffffffffffffffffffffffffffffffffffffffff1681526020016002820160009054906101000a900473ffffffffffffffffffffffffffffffffffffffff1673ffffffffffffffffffffffffffffffffffffffff1673ffffffffffffffffffffffffffffffffffffffff1681526020016003820160009054906101000a900473ffffffffffffffffffffffffffffffffffffffff1673ffffffffffffffffffffffffffffffffffffffff1673ffffffffffffffffffffffffffffffffffffffff168152602001600482015481526020016005820160009054906101000a900460ff161515151581526020016005820160019054906101000a900460ff1615151515815260200160068201548152602001600782015481526020016008820160009054906101000a900460ff1615151515815250509050919050565b6060600180546118b9906156df565b80601f01602080910402602001604051908101604052809291908181526020018280546118e5906156df565b80156119325780601f1061190757610100808354040283529160200191611932565b820191906000526020600020905b81548152906001019060200180831161191557829003601f168201915b5050505050905090565b6060600f6000838152602001908152602001600020805480602002602001604051908101604052809291908181526020016000905b82821015611a0d5783829060005260206000209060030201604051806060016040529081600082015481526020016001820160009054906101000a900473ffffffffffffffffffffffffffffffffffffffff1673ffffffffffffffffffffffffffffffffffffffff1673ffffffffffffffffffffffffffffffffffffffff16815260200160028201548152505081526020019060010190611971565b505050509050919050565b611a2a611a23612cc6565b83836137c2565b5050565b6000600f600083815260200190815260200160002080549050905060005b81811015611bd9573373ffffffffffffffffffffffffffffffffffffffff16600f60008581526020019081526020016000208281548110611ab6577f4e487b7100000000000000000000000000000000000000000000000000000000600052603260045260246000fd5b906000526020600020906003020160010160009054906101000a900473ffffffffffffffffffffffffffffffffffffffff1673ffffffffffffffffffffffffffffffffffffffff161415611bc657600f60008481526020019081526020016000208181548110611b4f577f4e487b7100000000000000000000000000000000000000000000000000000000600052603260045260246000fd5b90600052602060002090600302016000808201600090556001820160006101000a81549073ffffffffffffffffffffffffffffffffffffffff0219169055600282016000905550506001600c60008581526020019081526020016000206006016000828254611bbe91906155d1565b925050819055505b8080611bd190615742565b915050611a4c565b505050565b80600b8190555050565b611bf9611bf3612cc6565b83612e40565b611c38576040517f08c379a0000000000000000000000000000000000000000000000000000000008152600401611c2f9061508f565b60405180910390fd5b611c448484848461392f565b50505050565b6060611c5582612c7b565b6000600660008481526020019081526020016000208054611c75906156df565b80601f0160208091040260200160405190810160405280929190818152602001828054611ca1906156df565b8015611cee5780601f10611cc357610100808354040283529160200191611cee565b820191906000526020600020905b815481529060010190602001808311611cd157829003601f168201915b505050505090506000611cff61398b565b9050600081511415611d15578192505050611d58565b600082511115611d4a578082604051602001611d32929190614eb2565b60405160208183030381529060405292505050611d58565b611d53846139a2565b925050505b919050565b3373ffffffffffffffffffffffffffffffffffffffff16600c600084815260200190815260200160002060020160009054906101000a900473ffffffffffffffffffffffffffffffffffffffff1673ffffffffffffffffffffffffffffffffffffffff1614611e01576040517f08c379a0000000000000000000000000000000000000000000000000000000008152600401611df8906151ef565b60405180910390fd5b600b543414611e45576040517f08c379a0000000000000000000000000000000000000000000000000000000008152600401611e3c9061524f565b60405180910390fd5b6000600c600084815260200190815260200160002060050160006101000a81548160ff02191690831515021790555080600c60008481526020019081526020016000206004018190555033600c600084815260200190815260200160002060010160006101000a81548173ffffffffffffffffffffffffffffffffffffffff021916908373ffffffffffffffffffffffffffffffffffffffff16021790555030600c600084815260200190815260200160002060020160006101000a81548173ffffffffffffffffffffffffffffffffffffffff021916908373ffffffffffffffffffffffffffffffffffffffff1602179055506001600c600084815260200190815260200160002060080160006101000a81548160ff021916908315150217905550611f726009613a0a565b611f7d333084612ed5565b611fc2826000336040518060400160405280600481526020017f4c69737400000000000000000000000000000000000000000000000000000000815250600b54610e28565b611fcc828261140e565b5050565b6000600560008473ffffffffffffffffffffffffffffffffffffffff1673ffffffffffffffffffffffffffffffffffffffff16815260200190815260200160002060008373ffffffffffffffffffffffffffffffffffffffff1673ffffffffffffffffffffffffffffffffffffffff16815260200190815260200160002060009054906101000a900460ff16905092915050565b606060006120726008612d87565b905060008060005b8381101561211b573373ffffffffffffffffffffffffffffffffffffffff16600c60006001846120aa919061557b565b815260200190815260200160002060020160009054906101000a900473ffffffffffffffffffffffffffffffffffffffff1673ffffffffffffffffffffffffffffffffffffffff16141561210857600183612105919061557b565b92505b808061211390615742565b91505061207a565b5060008267ffffffffffffffff81111561215e577f4e487b7100000000000000000000000000000000000000000000000000000000600052604160045260246000fd5b60405190808252806020026020018201604052801561219757816020015b612184614032565b81526020019060019003908161217c5790505b50905060005b84811015612434573373ffffffffffffffffffffffffffffffffffffffff16600c60006001846121cd919061557b565b815260200190815260200160002060020160009054906101000a900473ffffffffffffffffffffffffffffffffffffffff1673ffffffffffffffffffffffffffffffffffffffff16141561242157600060018261222a919061557b565b90506000600c600083815260200190815260200160002090508060405180610140016040529081600082015481526020016001820160009054906101000a900473ffffffffffffffffffffffffffffffffffffffff1673ffffffffffffffffffffffffffffffffffffffff1673ffffffffffffffffffffffffffffffffffffffff1681526020016002820160009054906101000a900473ffffffffffffffffffffffffffffffffffffffff1673ffffffffffffffffffffffffffffffffffffffff1673ffffffffffffffffffffffffffffffffffffffff1681526020016003820160009054906101000a900473ffffffffffffffffffffffffffffffffffffffff1673ffffffffffffffffffffffffffffffffffffffff1673ffffffffffffffffffffffffffffffffffffffff168152602001600482015481526020016005820160009054906101000a900460ff161515151581526020016005820160019054906101000a900460ff1615151515815260200160068201548152602001600782015481526020016008820160009054906101000a900460ff161515151581525050848681518110612404577f4e487b7100000000000000000000000000000000000000000000000000000000600052603260045260246000fd5b602002602001018190525060018561241c919061557b565b945050505b808061242c90615742565b91505061219d565b508094505050505090565b6060600061244d6008612d87565b905060008060005b838110156124f6573373ffffffffffffffffffffffffffffffffffffffff16600c6000600184612485919061557b565b815260200190815260200160002060010160009054906101000a900473ffffffffffffffffffffffffffffffffffffffff1673ffffffffffffffffffffffffffffffffffffffff1614156124e3576001836124e0919061557b565b92505b80806124ee90615742565b915050612455565b5060008267ffffffffffffffff811115612539577f4e487b7100000000000000000000000000000000000000000000000000000000600052604160045260246000fd5b60405190808252806020026020018201604052801561257257816020015b61255f614032565b8152602001906001900390816125575790505b50905060005b8481101561280f573373ffffffffffffffffffffffffffffffffffffffff16600c60006001846125a8919061557b565b815260200190815260200160002060010160009054906101000a900473ffffffffffffffffffffffffffffffffffffffff1673ffffffffffffffffffffffffffffffffffffffff1614156127fc576000600182612605919061557b565b90506000600c600083815260200190815260200160002090508060405180610140016040529081600082015481526020016001820160009054906101000a900473ffffffffffffffffffffffffffffffffffffffff1673ffffffffffffffffffffffffffffffffffffffff1673ffffffffffffffffffffffffffffffffffffffff1681526020016002820160009054906101000a900473ffffffffffffffffffffffffffffffffffffffff1673ffffffffffffffffffffffffffffffffffffffff1673ffffffffffffffffffffffffffffffffffffffff1681526020016003820160009054906101000a900473ffffffffffffffffffffffffffffffffffffffff1673ffffffffffffffffffffffffffffffffffffffff1673ffffffffffffffffffffffffffffffffffffffff168152602001600482015481526020016005820160009054906101000a900460ff161515151581526020016005820160019054906101000a900460ff1615151515815260200160068201548152602001600782015481526020016008820160009054906101000a900460ff1615151515815250508486815181106127df577f4e487b7100000000000000000000000000000000000000000000000000000000600052603260045260246000fd5b60200260200101819052506001856127f7919061557b565b945050505b808061280790615742565b915050612578565b508094505050505090565b6060600d6000838152602001908152602001600020805480602002602001604051908101604052809291908181526020016000905b828210156129dd57838290600052602060002090600602016040518060c0016040529081600082015481526020016001820160009054906101000a900473ffffffffffffffffffffffffffffffffffffffff1673ffffffffffffffffffffffffffffffffffffffff1673ffffffffffffffffffffffffffffffffffffffff1681526020016002820160009054906101000a900473ffffffffffffffffffffffffffffffffffffffff1673ffffffffffffffffffffffffffffffffffffffff1673ffffffffffffffffffffffffffffffffffffffff168152602001600382018054612938906156df565b80601f0160208091040260200160405190810160405280929190818152602001828054612964906156df565b80156129b15780601f10612986576101008083540402835291602001916129b1565b820191906000526020600020905b81548152906001019060200180831161299457829003601f168201915b50505050508152602001600482015481526020016005820154815250508152602001906001019061284f565b505050509050919050565b600d6020528160005260406000208181548110612a0457600080fd5b9060005260206000209060060201600091509150508060000154908060010160009054906101000a900473ffffffffffffffffffffffffffffffffffffffff16908060020160009054906101000a900473ffffffffffffffffffffffffffffffffffffffff1690806003018054612a7a906156df565b80601f0160208091040260200160405190810160405280929190818152602001828054612aa6906156df565b8015612af35780601f10612ac857610100808354040283529160200191612af3565b820191906000526020600020905b815481529060010190602001808311612ad657829003601f168201915b5050505050908060040154908060050154905086565b6060600e6000838152602001908152602001600020805480602002602001604051908101604052809291908181526020016000905b82821015612b8e5783829060005260206000209060030201604051806060016040529081600082015481526020016001820154815260200160028201548152505081526020019060010190612b3e565b505050509050919050565b60007f80ac58cd000000000000000000000000000000000000000000000000000000007bffffffffffffffffffffffffffffffffffffffffffffffffffffffff1916827bffffffffffffffffffffffffffffffffffffffffffffffffffffffff19161480612c6457507f5b5e139f000000000000000000000000000000000000000000000000000000007bffffffffffffffffffffffffffffffffffffffffffffffffffffffff1916827bffffffffffffffffffffffffffffffffffffffffffffffffffffffff1916145b80612c745750612c7382613a66565b5b9050919050565b612c8481613ad0565b612cc3576040517f08c379a0000000000000000000000000000000000000000000000000000000008152600401612cba9061520f565b60405180910390fd5b50565b600033905090565b816004600083815260200190815260200160002060006101000a81548173ffffffffffffffffffffffffffffffffffffffff021916908373ffffffffffffffffffffffffffffffffffffffff160217905550808273ffffffffffffffffffffffffffffffffffffffff16612d4183611528565b73ffffffffffffffffffffffffffffffffffffffff167f8c5be1e5ebec7d5bd14f71427d1e84f3dd0314c0f7b2291e5b200ac8c7c3b92560405160405180910390a45050565b600081600001549050919050565b612d9e82613ad0565b612ddd576040517f08c379a0000000000000000000000000000000000000000000000000000000008152600401612dd49061518f565b60405180910390fd5b80600660008481526020019081526020016000209080519060200190612e049291906140cd565b507ff8e1a15aba9398e019f0b49df1a4fde98ee17ae345cb5f6b5e2c27f5033e8ce782604051612e3491906152cb565b60405180910390a15050565b600080612e4c83611528565b90508073ffffffffffffffffffffffffffffffffffffffff168473ffffffffffffffffffffffffffffffffffffffff161480612e8e5750612e8d8185611fd0565b5b80612ecc57508373ffffffffffffffffffffffffffffffffffffffff16612eb48461095c565b73ffffffffffffffffffffffffffffffffffffffff16145b91505092915050565b8273ffffffffffffffffffffffffffffffffffffffff16612ef582611528565b73ffffffffffffffffffffffffffffffffffffffff1614612f4b576040517f08c379a0000000000000000000000000000000000000000000000000000000008152600401612f42906150ef565b60405180910390fd5b600073ffffffffffffffffffffffffffffffffffffffff168273ffffffffffffffffffffffffffffffffffffffff161415612fbb576040517f08c379a0000000000000000000000000000000000000000000000000000000008152600401612fb29061512f565b60405180910390fd5b612fc88383836001613b11565b8273ffffffffffffffffffffffffffffffffffffffff16612fe882611528565b73ffffffffffffffffffffffffffffffffffffffff161461303e576040517f08c379a0000000000000000000000000000000000000000000000000000000008152600401613035906150ef565b60405180910390fd5b6004600082815260200190815260200160002060006101000a81549073ffffffffffffffffffffffffffffffffffffffff02191690556001600360008573ffffffffffffffffffffffffffffffffffffffff1673ffffffffffffffffffffffffffffffffffffffff168152602001908152602001600020600082825403925050819055506001600360008473ffffffffffffffffffffffffffffffffffffffff1673ffffffffffffffffffffffffffffffffffffffff16815260200190815260200160002060008282540192505081905550816002600083815260200190815260200160002060006101000a81548173ffffffffffffffffffffffffffffffffffffffff021916908373ffffffffffffffffffffffffffffffffffffffff160217905550808273ffffffffffffffffffffffffffffffffffffffff168473ffffffffffffffffffffffffffffffffffffffff167fddf252ad1be2c89b69c2b068fc378daa952ba7f163c4a11628f55a4df523b3ef60405160405180910390a46131ca8383836001613b17565b505050565b6001816000016000828254019250508190555050565b60006002600083815260200190815260200160002060009054906101000a900473ffffffffffffffffffffffffffffffffffffffff169050919050565b600073ffffffffffffffffffffffffffffffffffffffff168273ffffffffffffffffffffffffffffffffffffffff161415613292576040517f08c379a0000000000000000000000000000000000000000000000000000000008152600401613289906151cf565b60405180910390fd5b61329b81613ad0565b156132db576040517f08c379a00000000000000000000000000000000000000000000000000000000081526004016132d29061510f565b60405180910390fd5b6132e9600083836001613b11565b6132f281613ad0565b15613332576040517f08c379a00000000000000000000000000000000000000000000000000000000081526004016133299061510f565b60405180910390fd5b6001600360008473ffffffffffffffffffffffffffffffffffffffff1673ffffffffffffffffffffffffffffffffffffffff16815260200190815260200160002060008282540192505081905550816002600083815260200190815260200160002060006101000a81548173ffffffffffffffffffffffffffffffffffffffff021916908373ffffffffffffffffffffffffffffffffffffffff160217905550808273ffffffffffffffffffffffffffffffffffffffff16600073ffffffffffffffffffffffffffffffffffffffff167fddf252ad1be2c89b69c2b068fc378daa952ba7f163c4a11628f55a4df523b3ef60405160405180910390a461343c600083836001613b17565b5050565b60008111613483576040517f08c379a000000000000000000000000000000000000000000000000000000000815260040161347a9061528f565b60405180910390fd5b600b5434146134c7576040517f08c379a00000000000000000000000000000000000000000000000000000000081526004016134be9061524f565b60405180910390fd5b6040518061014001604052808381526020013373ffffffffffffffffffffffffffffffffffffffff1681526020013073ffffffffffffffffffffffffffffffffffffffff1681526020013373ffffffffffffffffffffffffffffffffffffffff168152602001828152602001600015158152602001600015158152602001600081526020016000815260200160011515815250600c60008481526020019081526020016000206000820151816000015560208201518160010160006101000a81548173ffffffffffffffffffffffffffffffffffffffff021916908373ffffffffffffffffffffffffffffffffffffffff16021790555060408201518160020160006101000a81548173ffffffffffffffffffffffffffffffffffffffff021916908373ffffffffffffffffffffffffffffffffffffffff16021790555060608201518160030160006101000a81548173ffffffffffffffffffffffffffffffffffffffff021916908373ffffffffffffffffffffffffffffffffffffffff1602179055506080820151816004015560a08201518160050160006101000a81548160ff02191690831515021790555060c08201518160050160016101000a81548160ff02191690831515021790555060e0820151816006015561010082015181600701556101208201518160080160006101000a81548160ff021916908315150217905550905050613719826000336040518060400160405280600481526020017f4d696e74000000000000000000000000000000000000000000000000000000008152506601c6bf52634000610e28565b613724333084612ed5565b613769826000336040518060400160405280600481526020017f4c69737400000000000000000000000000000000000000000000000000000000815250600b54610e28565b613773828261140e565b817f560fddf78a1b57989607b07f1062c0c712b87ff215e41a1af8b93d1e4175ac713330338560008060008060016040516137b699989796959493929190614ef1565b60405180910390a25050565b8173ffffffffffffffffffffffffffffffffffffffff168373ffffffffffffffffffffffffffffffffffffffff161415613831576040517f08c379a00000000000000000000000000000000000000000000000000000000081526004016138289061514f565b60405180910390fd5b80600560008573ffffffffffffffffffffffffffffffffffffffff1673ffffffffffffffffffffffffffffffffffffffff16815260200190815260200160002060008473ffffffffffffffffffffffffffffffffffffffff1673ffffffffffffffffffffffffffffffffffffffff16815260200190815260200160002060006101000a81548160ff0219169083151502179055508173ffffffffffffffffffffffffffffffffffffffff168373ffffffffffffffffffffffffffffffffffffffff167f17307eab39ab6107e8899845ad3d59bd9653f200f220920489ca2b5937696c31836040516139229190615052565b60405180910390a3505050565b61393a848484612ed5565b61394684848484613b1d565b613985576040517f08c379a000000000000000000000000000000000000000000000000000000000815260040161397c906150cf565b60405180910390fd5b50505050565b606060405180602001604052806000815250905090565b60606139ad82612c7b565b60006139b761398b565b905060008151116139d75760405180602001604052806000815250613a02565b806139e184613cb4565b6040516020016139f2929190614eb2565b6040516020818303038152906040525b915050919050565b60008160000154905060008111613a56576040517f08c379a0000000000000000000000000000000000000000000000000000000008152600401613a4d906150af565b60405180910390fd5b6001810382600001819055505050565b60007f01ffc9a7000000000000000000000000000000000000000000000000000000007bffffffffffffffffffffffffffffffffffffffffffffffffffffffff1916827bffffffffffffffffffffffffffffffffffffffffffffffffffffffff1916149050919050565b60008073ffffffffffffffffffffffffffffffffffffffff16613af2836131e5565b73ffffffffffffffffffffffffffffffffffffffff1614159050919050565b50505050565b50505050565b6000613b3e8473ffffffffffffffffffffffffffffffffffffffff16613dd8565b15613ca7578373ffffffffffffffffffffffffffffffffffffffff1663150b7a02613b67612cc6565b8786866040518563ffffffff1660e01b8152600401613b899493929190614f7e565b602060405180830381600087803b158015613ba357600080fd5b505af1925050508015613bd457506040513d601f19601f82011682018060405250810190613bd19190614479565b60015b613c57573d8060008114613c04576040519150601f19603f3d011682016040523d82523d6000602084013e613c09565b606091505b50600081511415613c4f576040517f08c379a0000000000000000000000000000000000000000000000000000000008152600401613c46906150cf565b60405180910390fd5b805181602001fd5b63150b7a0260e01b7bffffffffffffffffffffffffffffffffffffffffffffffffffffffff1916817bffffffffffffffffffffffffffffffffffffffffffffffffffffffff191614915050613cac565b600190505b949350505050565b606060006001613cc384613dfb565b01905060008167ffffffffffffffff811115613d08577f4e487b7100000000000000000000000000000000000000000000000000000000600052604160045260246000fd5b6040519080825280601f01601f191660200182016040528015613d3a5781602001600182028036833780820191505090505b509050600082602001820190505b600115613dcd578080600190039150507f3031323334353637383961626364656600000000000000000000000000000000600a86061a8153600a8581613db7577f4e487b7100000000000000000000000000000000000000000000000000000000600052601260045260246000fd5b0494506000851415613dc857613dcd565b613d48565b819350505050919050565b6000808273ffffffffffffffffffffffffffffffffffffffff163b119050919050565b600080600090507a184f03e93ff9f4daa797ed6e38ed64bf6a1f0100000000000000008310613e7f577a184f03e93ff9f4daa797ed6e38ed64bf6a1f0100000000000000008381613e75577f4e487b7100000000000000000000000000000000000000000000000000000000600052601260045260246000fd5b0492506040810190505b6d04ee2d6d415b85acef81000000008310613ee2576d04ee2d6d415b85acef81000000008381613ed8577f4e487b7100000000000000000000000000000000000000000000000000000000600052601260045260246000fd5b0492506020810190505b662386f26fc100008310613f3757662386f26fc100008381613f2d577f4e487b7100000000000000000000000000000000000000000000000000000000600052601260045260246000fd5b0492506010810190505b6305f5e1008310613f86576305f5e1008381613f7c577f4e487b7100000000000000000000000000000000000000000000000000000000600052601260045260246000fd5b0492506008810190505b6127108310613fd1576127108381613fc7577f4e487b7100000000000000000000000000000000000000000000000000000000600052601260045260246000fd5b0492506004810190505b6064831061401a5760648381614010577f4e487b7100000000000000000000000000000000000000000000000000000000600052601260045260246000fd5b0492506002810190505b600a8310614029576001810190505b80915050919050565b60405180610140016040528060008152602001600073ffffffffffffffffffffffffffffffffffffffff168152602001600073ffffffffffffffffffffffffffffffffffffffff168152602001600073ffffffffffffffffffffffffffffffffffffffff1681526020016000815260200160001515815260200160001515815260200160008152602001600081526020016000151581525090565b8280546140d9906156df565b90600052602060002090601f0160209004810192826140fb5760008555614142565b82601f1061411457805160ff1916838001178555614142565b82800160010185558215614142579182015b82811115614141578251825591602001919060010190614126565b5b50905061414f9190614153565b5090565b5b8082111561416c576000816000905550600101614154565b5090565b600061418361417e846153e1565b6153bc565b90508281526020810184848401111561419b57600080fd5b6141a684828561569d565b509392505050565b60006141c16141bc84615412565b6153bc565b9050828152602081018484840111156141d957600080fd5b6141e484828561569d565b509392505050565b6000813590506141fb81615c5e565b92915050565b60008135905061421081615c75565b92915050565b60008135905061422581615c8c565b92915050565b60008151905061423a81615c8c565b92915050565b600082601f83011261425157600080fd5b8135614261848260208601614170565b91505092915050565b600082601f83011261427b57600080fd5b813561428b8482602086016141ae565b91505092915050565b6000813590506142a381615ca3565b92915050565b6000602082840312156142bb57600080fd5b60006142c9848285016141ec565b91505092915050565b600080604083850312156142e557600080fd5b60006142f3858286016141ec565b9250506020614304858286016141ec565b9150509250929050565b60008060006060848603121561432357600080fd5b6000614331868287016141ec565b9350506020614342868287016141ec565b925050604061435386828701614294565b9150509250925092565b6000806000806080858703121561437357600080fd5b6000614381878288016141ec565b9450506020614392878288016141ec565b93505060406143a387828801614294565b925050606085013567ffffffffffffffff8111156143c057600080fd5b6143cc87828801614240565b91505092959194509250565b600080604083850312156143eb57600080fd5b60006143f9858286016141ec565b925050602061440a85828601614201565b9150509250929050565b6000806040838503121561442757600080fd5b6000614435858286016141ec565b925050602061444685828601614294565b9150509250929050565b60006020828403121561446257600080fd5b600061447084828501614216565b91505092915050565b60006020828403121561448b57600080fd5b60006144998482850161422b565b91505092915050565b600080604083850312156144b557600080fd5b600083013567ffffffffffffffff8111156144cf57600080fd5b6144db8582860161426a565b92505060206144ec85828601614294565b9150509250929050565b60006020828403121561450857600080fd5b600061451684828501614294565b91505092915050565b600080600080600060a0868803121561453757600080fd5b600061454588828901614294565b9550506020614556888289016141ec565b9450506040614567888289016141ec565b935050606086013567ffffffffffffffff81111561458457600080fd5b6145908882890161426a565b92505060806145a188828901614294565b9150509295509295909350565b600080604083850312156145c157600080fd5b60006145cf85828601614294565b92505060206145e085828601614201565b9150509250929050565b600080604083850312156145fd57600080fd5b600061460b85828601614294565b925050602083013567ffffffffffffffff81111561462857600080fd5b6146348582860161426a565b9150509250929050565b6000806040838503121561465157600080fd5b600061465f85828601614294565b925050602061467085828601614294565b9150509250929050565b60006146868383614bef565b905092915050565b600061469a8383614c78565b60608301905092915050565b60006146b28383614cba565b6101408301905092915050565b60006146cb8383614e52565b60608301905092915050565b6146e081615617565b82525050565b6146ef81615605565b82525050565b6146fe81615605565b82525050565b600061470f82615483565b61471981856154f9565b93508360208202850161472b85615443565b8060005b858110156147675784840389528151614748858261467a565b9450614753836154c5565b925060208a0199505060018101905061472f565b50829750879550505050505092915050565b60006147848261548e565b61478e818561550a565b935061479983615453565b8060005b838110156147ca5781516147b1888261468e565b97506147bc836154d2565b92505060018101905061479d565b5085935050505092915050565b60006147e282615499565b6147ec818561551b565b93506147f783615463565b8060005b8381101561482857815161480f88826146a6565b975061481a836154df565b9250506001810190506147fb565b5085935050505092915050565b6000614840826154a4565b61484a818561552c565b935061485583615473565b8060005b8381101561488657815161486d88826146bf565b9750614878836154ec565b925050600181019050614859565b5085935050505092915050565b61489c81615629565b82525050565b6148ab81615629565b82525050565b60006148bc826154af565b6148c6818561553d565b93506148d68185602086016156ac565b6148df81615818565b840191505092915050565b6148f38161568b565b82525050565b6000614904826154ba565b61490e818561554e565b935061491e8185602086016156ac565b61492781615818565b840191505092915050565b600061493d826154ba565b614947818561555f565b93506149578185602086016156ac565b61496081615818565b840191505092915050565b6000614976826154ba565b6149808185615570565b93506149908185602086016156ac565b80840191505092915050565b60006149a9602d8361555f565b91506149b482615829565b604082019050919050565b60006149cc601b8361555f565b91506149d782615878565b602082019050919050565b60006149ef60328361555f565b91506149fa826158a1565b604082019050919050565b6000614a1260258361555f565b9150614a1d826158f0565b604082019050919050565b6000614a35601c8361555f565b9150614a408261593f565b602082019050919050565b6000614a5860248361555f565b9150614a6382615968565b604082019050919050565b6000614a7b60198361555f565b9150614a86826159b7565b602082019050919050565b6000614a9e60298361555f565b9150614aa9826159e0565b604082019050919050565b6000614ac1602e8361555f565b9150614acc82615a2f565b604082019050919050565b6000614ae4600f8361555f565b9150614aef82615a7e565b602082019050919050565b6000614b0760208361555f565b9150614b1282615aa7565b602082019050919050565b6000614b2a602a8361555f565b9150614b3582615ad0565b604082019050919050565b6000614b4d60188361555f565b9150614b5882615b1f565b602082019050919050565b6000614b7060218361555f565b9150614b7b82615b48565b604082019050919050565b6000614b9360248361555f565b9150614b9e82615b97565b604082019050919050565b6000614bb6603d8361555f565b9150614bc182615be6565b604082019050919050565b6000614bd9601c8361555f565b9150614be482615c35565b602082019050919050565b600060c083016000830151614c076000860182614e94565b506020830151614c1a60208601826146e6565b506040830151614c2d60408601826146e6565b5060608301518482036060860152614c4582826148f9565b9150506080830151614c5a6080860182614e94565b5060a0830151614c6d60a0860182614e94565b508091505092915050565b606082016000820151614c8e6000850182614e94565b506020820151614ca160208501826146e6565b506040820151614cb46040850182614e94565b50505050565b61014082016000820151614cd16000850182614e94565b506020820151614ce460208501826146d7565b506040820151614cf760408501826146d7565b506060820151614d0a60608501826146d7565b506080820151614d1d6080850182614e94565b5060a0820151614d3060a0850182614893565b5060c0820151614d4360c0850182614893565b5060e0820151614d5660e0850182614e94565b50610100820151614d6b610100850182614e94565b50610120820151614d80610120850182614893565b50505050565b61014082016000820151614d9d6000850182614e94565b506020820151614db060208501826146d7565b506040820151614dc360408501826146d7565b506060820151614dd660608501826146d7565b506080820151614de96080850182614e94565b5060a0820151614dfc60a0850182614893565b5060c0820151614e0f60c0850182614893565b5060e0820151614e2260e0850182614e94565b50610100820151614e37610100850182614e94565b50610120820151614e4c610120850182614893565b50505050565b606082016000820151614e686000850182614e94565b506020820151614e7b6020850182614e94565b506040820151614e8e6040850182614e94565b50505050565b614e9d81615681565b82525050565b614eac81615681565b82525050565b6000614ebe828561496b565b9150614eca828461496b565b91508190509392505050565b6000602082019050614eeb60008301846146f5565b92915050565b600061012082019050614f07600083018c6146f5565b614f14602083018b6146f5565b614f21604083018a6146f5565b614f2e6060830189614ea3565b614f3b60808301886148a2565b614f4860a08301876148a2565b614f5560c08301866148ea565b614f6260e08301856148ea565b614f706101008301846148a2565b9a9950505050505050505050565b6000608082019050614f9360008301876146f5565b614fa060208301866146f5565b614fad6040830185614ea3565b8181036060830152614fbf81846148b1565b905095945050505050565b60006020820190508181036000830152614fe48184614704565b905092915050565b600060208201905081810360008301526150068184614779565b905092915050565b6000602082019050818103600083015261502881846147d7565b905092915050565b6000602082019050818103600083015261504a8184614835565b905092915050565b600060208201905061506760008301846148a2565b92915050565b600060208201905081810360008301526150878184614932565b905092915050565b600060208201905081810360008301526150a88161499c565b9050919050565b600060208201905081810360008301526150c8816149bf565b9050919050565b600060208201905081810360008301526150e8816149e2565b9050919050565b6000602082019050818103600083015261510881614a05565b9050919050565b6000602082019050818103600083015261512881614a28565b9050919050565b6000602082019050818103600083015261514881614a4b565b9050919050565b6000602082019050818103600083015261516881614a6e565b9050919050565b6000602082019050818103600083015261518881614a91565b9050919050565b600060208201905081810360008301526151a881614ab4565b9050919050565b600060208201905081810360008301526151c881614ad7565b9050919050565b600060208201905081810360008301526151e881614afa565b9050919050565b6000602082019050818103600083015261520881614b1d565b9050919050565b6000602082019050818103600083015261522881614b40565b9050919050565b6000602082019050818103600083015261524881614b63565b9050919050565b6000602082019050818103600083015261526881614b86565b9050919050565b6000602082019050818103600083015261528881614ba9565b9050919050565b600060208201905081810360008301526152a881614bcc565b9050919050565b6000610140820190506152c56000830184614d86565b92915050565b60006020820190506152e06000830184614ea3565b92915050565b600060c0820190506152fb6000830189614ea3565b61530860208301886146f5565b61531560408301876146f5565b81810360608301526153278186614932565b90506153366080830185614ea3565b61534360a0830184614ea3565b979650505050505050565b60006060820190506153636000830186614ea3565b61537060208301856146f5565b61537d6040830184614ea3565b949350505050565b600060608201905061539a6000830186614ea3565b6153a76020830185614ea3565b6153b46040830184614ea3565b949350505050565b60006153c66153d7565b90506153d28282615711565b919050565b6000604051905090565b600067ffffffffffffffff8211156153fc576153fb6157e9565b5b61540582615818565b9050602081019050919050565b600067ffffffffffffffff82111561542d5761542c6157e9565b5b61543682615818565b9050602081019050919050565b6000819050602082019050919050565b6000819050602082019050919050565b6000819050602082019050919050565b6000819050602082019050919050565b600081519050919050565b600081519050919050565b600081519050919050565b600081519050919050565b600081519050919050565b600081519050919050565b6000602082019050919050565b6000602082019050919050565b6000602082019050919050565b6000602082019050919050565b600082825260208201905092915050565b600082825260208201905092915050565b600082825260208201905092915050565b600082825260208201905092915050565b600082825260208201905092915050565b600082825260208201905092915050565b600082825260208201905092915050565b600081905092915050565b600061558682615681565b915061559183615681565b9250827fffffffffffffffffffffffffffffffffffffffffffffffffffffffffffffffff038211156155c6576155c561578b565b5b828201905092915050565b60006155dc82615681565b91506155e783615681565b9250828210156155fa576155f961578b565b5b828203905092915050565b600061561082615661565b9050919050565b600061562282615661565b9050919050565b60008115159050919050565b60007fffffffff0000000000000000000000000000000000000000000000000000000082169050919050565b600073ffffffffffffffffffffffffffffffffffffffff82169050919050565b6000819050919050565b600061569682615681565b9050919050565b82818337600083830152505050565b60005b838110156156ca5780820151818401526020810190506156af565b838111156156d9576000848401525b50505050565b600060028204905060018216806156f757607f821691505b6020821081141561570b5761570a6157ba565b5b50919050565b61571a82615818565b810181811067ffffffffffffffff82111715615739576157386157e9565b5b80604052505050565b600061574d82615681565b91507fffffffffffffffffffffffffffffffffffffffffffffffffffffffffffffffff8214156157805761577f61578b565b5b600182019050919050565b7f4e487b7100000000000000000000000000000000000000000000000000000000600052601160045260246000fd5b7f4e487b7100000000000000000000000000000000000000000000000000000000600052602260045260246000fd5b7f4e487b7100000000000000000000000000000000000000000000000000000000600052604160045260246000fd5b6000601f19601f8301169050919050565b7f4552433732313a2063616c6c6572206973206e6f7420746f6b656e206f776e6560008201527f72206f7220617070726f76656400000000000000000000000000000000000000602082015250565b7f436f756e7465723a2064656372656d656e74206f766572666c6f770000000000600082015250565b7f4552433732313a207472616e7366657220746f206e6f6e20455243373231526560008201527f63656976657220696d706c656d656e7465720000000000000000000000000000602082015250565b7f4552433732313a207472616e736665722066726f6d20696e636f72726563742060008201527f6f776e6572000000000000000000000000000000000000000000000000000000602082015250565b7f4552433732313a20746f6b656e20616c7265616479206d696e74656400000000600082015250565b7f4552433732313a207472616e7366657220746f20746865207a65726f2061646460008201527f7265737300000000000000000000000000000000000000000000000000000000602082015250565b7f4552433732313a20617070726f766520746f2063616c6c657200000000000000600082015250565b7f4552433732313a2061646472657373207a65726f206973206e6f74206120766160008201527f6c6964206f776e65720000000000000000000000000000000000000000000000602082015250565b7f45524337323155524953746f726167653a2055524920736574206f66206e6f6e60008201527f6578697374656e7420746f6b656e000000000000000000000000000000000000602082015250565b7f496e76616c6964204974656d2049440000000000000000000000000000000000600082015250565b7f4552433732313a206d696e7420746f20746865207a65726f2061646472657373600082015250565b7f4f6e6c79206974656d206f776e65722063616e20706572666f726d207468697360008201527f206f7065726174696f6e00000000000000000000000000000000000000000000602082015250565b7f4552433732313a20696e76616c696420746f6b656e2049440000000000000000600082015250565b7f4552433732313a20617070726f76616c20746f2063757272656e74206f776e6560008201527f7200000000000000000000000000000000000000000000000000000000000000602082015250565b7f5072696365206d75737420626520657175616c20746f206c697374696e67207060008201527f7269636500000000000000000000000000000000000000000000000000000000602082015250565b7f4552433732313a20617070726f76652063616c6c6572206973206e6f7420746f60008201527f6b656e206f776e6572206f7220617070726f76656420666f7220616c6c000000602082015250565b7f5072696365206d757374206265206174206c6561737420312077656900000000600082015250565b615c6781615605565b8114615c7257600080fd5b50565b615c7e81615629565b8114615c8957600080fd5b50565b615c9581615635565b8114615ca057600080fd5b50565b615cac81615681565b8114615cb757600080fd5b5056fea2646970667358221220982714f82b17944525624bff83dbe3aa38268f0a070b3321ac4013ec2ff806cb64736f6c63430008040033",
  "linkReferences": {},
  "deployedLinkReferences": {}
}