{
  "_format": "hh-sol-artifact-1",
  "contractName": "Marketplace",
  "sourceName": "contracts/Marketplace.sol",
  "abi": [
    {
      "inputs": [],
      "stateMutability": "nonpayable",
      "type": "constructor"
    },
    {
      "anonymous": false,
      "inputs": [
        {
          "indexed": true,
          "internalType": "address",
          "name": "owner",
          "type": "address"
        },
        {
          "indexed": true,
          "internalType": "address",
          "name": "approved",
          "type": "address"
        },
        {
          "indexed": true,
          "internalType": "uint256",
          "name": "tokenId",
          "type": "uint256"
        }
      ],
      "name": "Approval",
      "type": "event"
    },
    {
      "anonymous": false,
      "inputs": [
        {
          "indexed": true,
          "internalType": "address",
          "name": "owner",
          "type": "address"
        },
        {
          "indexed": true,
          "internalType": "address",
          "name": "operator",
          "type": "address"
        },
        {
          "indexed": false,
          "internalType": "bool",
          "name": "approved",
          "type": "bool"
        }
      ],
      "name": "ApprovalForAll",
      "type": "event"
    },
    {
      "anonymous": false,
      "inputs": [
        {
          "indexed": false,
          "internalType": "uint256",
          "name": "_fromTokenId",
          "type": "uint256"
        },
        {
          "indexed": false,
          "internalType": "uint256",
          "name": "_toTokenId",
          "type": "uint256"
        }
      ],
      "name": "BatchMetadataUpdate",
      "type": "event"
    },
    {
      "anonymous": false,
      "inputs": [
        {
          "indexed": true,
          "internalType": "uint256",
          "name": "itemId",
          "type": "uint256"
        },
        {
          "indexed": false,
          "internalType": "address",
          "name": "seller",
          "type": "address"
        },
        {
          "indexed": false,
          "internalType": "address",
          "name": "owner",
          "type": "address"
        },
        {
          "indexed": false,
          "internalType": "address",
          "name": "creator",
          "type": "address"
        },
        {
          "indexed": false,
          "internalType": "uint256",
          "name": "price",
          "type": "uint256"
        },
        {
          "indexed": false,
          "internalType": "bool",
          "name": "sold",
          "type": "bool"
        },
        {
          "indexed": false,
          "internalType": "bool",
          "name": "isRewardItem",
          "type": "bool"
        },
        {
          "indexed": false,
          "internalType": "uint256",
          "name": "likes",
          "type": "uint256"
        },
        {
          "indexed": false,
          "internalType": "uint256",
          "name": "views",
          "type": "uint256"
        },
        {
          "indexed": false,
          "internalType": "bool",
          "name": "isListed",
          "type": "bool"
        }
      ],
      "name": "MarketItemCreated",
      "type": "event"
    },
    {
      "anonymous": false,
      "inputs": [
        {
          "indexed": false,
          "internalType": "uint256",
          "name": "_tokenId",
          "type": "uint256"
        }
      ],
      "name": "MetadataUpdate",
      "type": "event"
    },
    {
      "anonymous": false,
      "inputs": [
        {
          "indexed": true,
          "internalType": "address",
          "name": "from",
          "type": "address"
        },
        {
          "indexed": true,
          "internalType": "address",
          "name": "to",
          "type": "address"
        },
        {
          "indexed": true,
          "internalType": "uint256",
          "name": "tokenId",
          "type": "uint256"
        }
      ],
      "name": "Transfer",
      "type": "event"
    },
    {
      "inputs": [
        {
          "internalType": "uint256",
          "name": "",
          "type": "uint256"
        },
        {
          "internalType": "uint256",
          "name": "",
          "type": "uint256"
        }
      ],
      "name": "activities",
      "outputs": [
        {
          "internalType": "uint256",
          "name": "itemId",
          "type": "uint256"
        },
        {
          "internalType": "address",
          "name": "from",
          "type": "address"
        },
        {
          "internalType": "address",
          "name": "to",
          "type": "address"
        },
        {
          "internalType": "string",
          "name": "eventType",
          "type": "string"
        },
        {
          "internalType": "uint256",
          "name": "price",
          "type": "uint256"
        },
        {
          "internalType": "uint256",
          "name": "timestamp",
          "type": "uint256"
        }
      ],
      "stateMutability": "view",
      "type": "function"
    },
    {
      "inputs": [
        {
          "internalType": "uint256",
          "name": "tokenId",
          "type": "uint256"
        },
        {
          "internalType": "address",
          "name": "from",
          "type": "address"
        },
        {
          "internalType": "address",
          "name": "to",
          "type": "address"
        },
        {
          "internalType": "string",
          "name": "eventType",
          "type": "string"
        },
        {
          "internalType": "uint256",
          "name": "price",
          "type": "uint256"
        }
      ],
      "name": "addActivity",
      "outputs": [],
      "stateMutability": "nonpayable",
      "type": "function"
    },
    {
      "inputs": [
        {
          "internalType": "uint256",
          "name": "tokenId",
          "type": "uint256"
        },
        {
          "internalType": "uint256",
          "name": "price",
          "type": "uint256"
        }
      ],
      "name": "addPriceHistory",
      "outputs": [],
      "stateMutability": "nonpayable",
      "type": "function"
    },
    {
      "inputs": [
        {
          "internalType": "address",
          "name": "to",
          "type": "address"
        },
        {
          "internalType": "uint256",
          "name": "tokenId",
          "type": "uint256"
        }
      ],
      "name": "approve",
      "outputs": [],
      "stateMutability": "nonpayable",
      "type": "function"
    },
    {
      "inputs": [
        {
          "internalType": "address",
          "name": "owner",
          "type": "address"
        }
      ],
      "name": "balanceOf",
      "outputs": [
        {
          "internalType": "uint256",
          "name": "",
          "type": "uint256"
        }
      ],
      "stateMutability": "view",
      "type": "function"
    },
    {
      "inputs": [
        {
          "internalType": "uint256",
          "name": "tokenId",
          "type": "uint256"
        }
      ],
      "name": "buyMarketItem",
      "outputs": [],
      "stateMutability": "payable",
      "type": "function"
    },
    {
      "inputs": [
        {
          "internalType": "string",
          "name": "tokenURI",
          "type": "string"
        },
        {
          "internalType": "uint256",
          "name": "price",
          "type": "uint256"
        }
      ],
      "name": "createToken",
      "outputs": [
        {
          "internalType": "uint256",
          "name": "",
          "type": "uint256"
        }
      ],
      "stateMutability": "payable",
      "type": "function"
    },
    {
      "inputs": [],
      "name": "fetchItemsCreated",
      "outputs": [
        {
          "components": [
            {
              "internalType": "uint256",
              "name": "itemId",
              "type": "uint256"
            },
            {
              "internalType": "address payable",
              "name": "seller",
              "type": "address"
            },
            {
              "internalType": "address payable",
              "name": "owner",
              "type": "address"
            },
            {
              "internalType": "address payable",
              "name": "creator",
              "type": "address"
            },
            {
              "internalType": "uint256",
              "name": "price",
              "type": "uint256"
            },
            {
              "internalType": "bool",
              "name": "sold",
              "type": "bool"
            },
            {
              "internalType": "bool",
              "name": "isRewardItem",
              "type": "bool"
            },
            {
              "internalType": "uint256",
              "name": "likes",
              "type": "uint256"
            },
            {
              "internalType": "uint256",
              "name": "views",
              "type": "uint256"
            },
            {
              "internalType": "bool",
              "name": "isListed",
              "type": "bool"
            }
          ],
          "internalType": "struct Marketplace.MarketItem[]",
          "name": "",
          "type": "tuple[]"
        }
      ],
      "stateMutability": "view",
      "type": "function"
    },
    {
      "inputs": [],
      "name": "fetchMarketItems",
      "outputs": [
        {
          "components": [
            {
              "internalType": "uint256",
              "name": "itemId",
              "type": "uint256"
            },
            {
              "internalType": "address payable",
              "name": "seller",
              "type": "address"
            },
            {
              "internalType": "address payable",
              "name": "owner",
              "type": "address"
            },
            {
              "internalType": "address payable",
              "name": "creator",
              "type": "address"
            },
            {
              "internalType": "uint256",
              "name": "price",
              "type": "uint256"
            },
            {
              "internalType": "bool",
              "name": "sold",
              "type": "bool"
            },
            {
              "internalType": "bool",
              "name": "isRewardItem",
              "type": "bool"
            },
            {
              "internalType": "uint256",
              "name": "likes",
              "type": "uint256"
            },
            {
              "internalType": "uint256",
              "name": "views",
              "type": "uint256"
            },
            {
              "internalType": "bool",
              "name": "isListed",
              "type": "bool"
            }
          ],
          "internalType": "struct Marketplace.MarketItem[]",
          "name": "",
          "type": "tuple[]"
        }
      ],
      "stateMutability": "view",
      "type": "function"
    },
    {
      "inputs": [],
      "name": "fetchPurchasedNFTs",
      "outputs": [
        {
          "components": [
            {
              "internalType": "uint256",
              "name": "itemId",
              "type": "uint256"
            },
            {
              "internalType": "address payable",
              "name": "seller",
              "type": "address"
            },
            {
              "internalType": "address payable",
              "name": "owner",
              "type": "address"
            },
            {
              "internalType": "address payable",
              "name": "creator",
              "type": "address"
            },
            {
              "internalType": "uint256",
              "name": "price",
              "type": "uint256"
            },
            {
              "internalType": "bool",
              "name": "sold",
              "type": "bool"
            },
            {
              "internalType": "bool",
              "name": "isRewardItem",
              "type": "bool"
            },
            {
              "internalType": "uint256",
              "name": "likes",
              "type": "uint256"
            },
            {
              "internalType": "uint256",
              "name": "views",
              "type": "uint256"
            },
            {
              "internalType": "bool",
              "name": "isListed",
              "type": "bool"
            }
          ],
          "internalType": "struct Marketplace.MarketItem[]",
          "name": "",
          "type": "tuple[]"
        }
      ],
      "stateMutability": "view",
      "type": "function"
    },
    {
      "inputs": [
        {
          "internalType": "uint256",
          "name": "tokenId",
          "type": "uint256"
        }
      ],
      "name": "getActivities",
      "outputs": [
        {
          "components": [
            {
              "internalType": "uint256",
              "name": "itemId",
              "type": "uint256"
            },
            {
              "internalType": "address",
              "name": "from",
              "type": "address"
            },
            {
              "internalType": "address",
              "name": "to",
              "type": "address"
            },
            {
              "internalType": "string",
              "name": "eventType",
              "type": "string"
            },
            {
              "internalType": "uint256",
              "name": "price",
              "type": "uint256"
            },
            {
              "internalType": "uint256",
              "name": "timestamp",
              "type": "uint256"
            }
          ],
          "internalType": "struct Marketplace.Activity[]",
          "name": "",
          "type": "tuple[]"
        }
      ],
      "stateMutability": "view",
      "type": "function"
    },
    {
      "inputs": [
        {
          "internalType": "uint256",
          "name": "tokenId",
          "type": "uint256"
        }
      ],
      "name": "getApproved",
      "outputs": [
        {
          "internalType": "address",
          "name": "",
          "type": "address"
        }
      ],
      "stateMutability": "view",
      "type": "function"
    },
    {
      "inputs": [],
      "name": "getListingPrice",
      "outputs": [
        {
          "internalType": "uint256",
          "name": "",
          "type": "uint256"
        }
      ],
      "stateMutability": "view",
      "type": "function"
    },
    {
      "inputs": [
        {
          "internalType": "uint256",
          "name": "itemId",
          "type": "uint256"
        }
      ],
      "name": "getNFTDetails",
      "outputs": [
        {
          "components": [
            {
              "internalType": "uint256",
              "name": "itemId",
              "type": "uint256"
            },
            {
              "internalType": "address payable",
              "name": "seller",
              "type": "address"
            },
            {
              "internalType": "address payable",
              "name": "owner",
              "type": "address"
            },
            {
              "internalType": "address payable",
              "name": "creator",
              "type": "address"
            },
            {
              "internalType": "uint256",
              "name": "price",
              "type": "uint256"
            },
            {
              "internalType": "bool",
              "name": "sold",
              "type": "bool"
            },
            {
              "internalType": "bool",
              "name": "isRewardItem",
              "type": "bool"
            },
            {
              "internalType": "uint256",
              "name": "likes",
              "type": "uint256"
            },
            {
              "internalType": "uint256",
              "name": "views",
              "type": "uint256"
            },
            {
              "internalType": "bool",
              "name": "isListed",
              "type": "bool"
            }
          ],
          "internalType": "struct Marketplace.MarketItem",
          "name": "",
          "type": "tuple"
        }
      ],
      "stateMutability": "view",
      "type": "function"
    },
    {
      "inputs": [
        {
          "internalType": "uint256",
          "name": "tokenId",
          "type": "uint256"
        }
      ],
      "name": "getPriceHistory",
      "outputs": [
        {
          "components": [
            {
              "internalType": "uint256",
              "name": "itemId",
              "type": "uint256"
            },
            {
              "internalType": "uint256",
              "name": "price",
              "type": "uint256"
            },
            {
              "internalType": "uint256",
              "name": "timestamp",
              "type": "uint256"
            }
          ],
          "internalType": "struct Marketplace.PriceHistory[]",
          "name": "",
          "type": "tuple[]"
        }
      ],
      "stateMutability": "view",
      "type": "function"
    },
    {
      "inputs": [
        {
          "internalType": "address",
          "name": "owner",
          "type": "address"
        },
        {
          "internalType": "address",
          "name": "operator",
          "type": "address"
        }
      ],
      "name": "isApprovedForAll",
      "outputs": [
        {
          "internalType": "bool",
          "name": "",
          "type": "bool"
        }
      ],
      "stateMutability": "view",
      "type": "function"
    },
    {
      "inputs": [],
      "name": "name",
      "outputs": [
        {
          "internalType": "string",
          "name": "",
          "type": "string"
        }
      ],
      "stateMutability": "view",
      "type": "function"
    },
    {
      "inputs": [
        {
          "internalType": "uint256",
          "name": "tokenId",
          "type": "uint256"
        }
      ],
      "name": "ownerOf",
      "outputs": [
        {
          "internalType": "address",
          "name": "",
          "type": "address"
        }
      ],
      "stateMutability": "view",
      "type": "function"
    },
    {
      "inputs": [
        {
          "internalType": "uint256",
          "name": "",
          "type": "uint256"
        },
        {
          "internalType": "uint256",
          "name": "",
          "type": "uint256"
        }
      ],
      "name": "priceHistories",
      "outputs": [
        {
          "internalType": "uint256",
          "name": "itemId",
          "type": "uint256"
        },
        {
          "internalType": "uint256",
          "name": "price",
          "type": "uint256"
        },
        {
          "internalType": "uint256",
          "name": "timestamp",
          "type": "uint256"
        }
      ],
      "stateMutability": "view",
      "type": "function"
    },
    {
      "inputs": [
        {
          "internalType": "uint256",
          "name": "tokenId",
          "type": "uint256"
        },
        {
          "internalType": "uint256",
          "name": "price",
          "type": "uint256"
        }
      ],
      "name": "resellToken",
      "outputs": [],
      "stateMutability": "payable",
      "type": "function"
    },
    {
      "inputs": [
        {
          "internalType": "address",
          "name": "from",
          "type": "address"
        },
        {
          "internalType": "address",
          "name": "to",
          "type": "address"
        },
        {
          "internalType": "uint256",
          "name": "tokenId",
          "type": "uint256"
        }
      ],
      "name": "safeTransferFrom",
      "outputs": [],
      "stateMutability": "nonpayable",
      "type": "function"
    },
    {
      "inputs": [
        {
          "internalType": "address",
          "name": "from",
          "type": "address"
        },
        {
          "internalType": "address",
          "name": "to",
          "type": "address"
        },
        {
          "internalType": "uint256",
          "name": "tokenId",
          "type": "uint256"
        },
        {
          "internalType": "bytes",
          "name": "data",
          "type": "bytes"
        }
      ],
      "name": "safeTransferFrom",
      "outputs": [],
      "stateMutability": "nonpayable",
      "type": "function"
    },
    {
      "inputs": [
        {
          "internalType": "address",
          "name": "operator",
          "type": "address"
        },
        {
          "internalType": "bool",
          "name": "approved",
          "type": "bool"
        }
      ],
      "name": "setApprovalForAll",
      "outputs": [],
      "stateMutability": "nonpayable",
      "type": "function"
    },
    {
      "inputs": [
        {
          "internalType": "bytes4",
          "name": "interfaceId",
          "type": "bytes4"
        }
      ],
      "name": "supportsInterface",
      "outputs": [
        {
          "internalType": "bool",
          "name": "",
          "type": "bool"
        }
      ],
      "stateMutability": "view",
      "type": "function"
    },
    {
      "inputs": [],
      "name": "symbol",
      "outputs": [
        {
          "internalType": "string",
          "name": "",
          "type": "string"
        }
      ],
      "stateMutability": "view",
      "type": "function"
    },
    {
      "inputs": [
        {
          "internalType": "uint256",
          "name": "tokenId",
          "type": "uint256"
        }
      ],
      "name": "tokenURI",
      "outputs": [
        {
          "internalType": "string",
          "name": "",
          "type": "string"
        }
      ],
      "stateMutability": "view",
      "type": "function"
    },
    {
      "inputs": [
        {
          "internalType": "address",
          "name": "from",
          "type": "address"
        },
        {
          "internalType": "address",
          "name": "to",
          "type": "address"
        },
        {
          "internalType": "uint256",
          "name": "tokenId",
          "type": "uint256"
        }
      ],
      "name": "transferFrom",
      "outputs": [],
      "stateMutability": "nonpayable",
      "type": "function"
    },
    {
      "inputs": [
        {
          "internalType": "uint256",
          "name": "itemId",
          "type": "uint256"
        },
        {
          "internalType": "bool",
          "name": "isRewardItem",
          "type": "bool"
        }
      ],
      "name": "updateIsRewardItem",
      "outputs": [],
      "stateMutability": "nonpayable",
      "type": "function"
    },
    {
      "inputs": [
        {
          "internalType": "uint256",
          "name": "_price",
          "type": "uint256"
        }
      ],
      "name": "updateListingPrice",
      "outputs": [],
      "stateMutability": "payable",
      "type": "function"
    },
    {
      "inputs": [
        {
          "internalType": "uint256",
          "name": "tokenId",
          "type": "uint256"
        },
        {
          "internalType": "string",
          "name": "newTokenURI",
          "type": "string"
        }
      ],
      "name": "updateTokenURI",
      "outputs": [],
      "stateMutability": "nonpayable",
      "type": "function"
    }
  ],
  "bytecode": "0x6080604052654a941cdf2000600b553480156200001b57600080fd5b506040518060400160405280601581526020017f4e666c75656e6365722d4d61726b6574706c61636500000000000000000000008152506040518060400160405280600481526020017f4e464d50000000000000000000000000000000000000000000000000000000008152508160009080519060200190620000a09291906200010b565b508060019080519060200190620000b99291906200010b565b505050600160078190555033600a60006101000a81548173ffffffffffffffffffffffffffffffffffffffff021916908373ffffffffffffffffffffffffffffffffffffffff16021790555062000220565b8280546200011990620001bb565b90600052602060002090601f0160209004810192826200013d576000855562000189565b82601f106200015857805160ff191683800117855562000189565b8280016001018555821562000189579182015b82811115620001885782518255916020019190600101906200016b565b5b5090506200019891906200019c565b5090565b5b80821115620001b75760008160009055506001016200019d565b5090565b60006002820490506001821680620001d457607f821691505b60208210811415620001eb57620001ea620001f1565b5b50919050565b7f4e487b7100000000000000000000000000000000000000000000000000000000600052602260045260246000fd5b6157da80620002306000396000f3fe6080604052600436106101cd5760003560e01c806370a08231116100f7578063c87b56dd11610095578063f064c32e11610064578063f064c32e14610688578063fca97fdb146106b3578063fcfc1a76146106f0578063fd1a98a514610732576101cd565b8063c87b56dd146105c7578063e219fc7514610604578063e985e9c514610620578063ee6ba2341461065d576101cd565b806395d89b41116100d157806395d89b411461052e578063a22cb46514610559578063ae677aa314610582578063b88d4fde1461059e576101cd565b806370a082311461048457806372b3b620146104c157806382260f35146104f1576101cd565b806319a0782e1161016f57806342842e0e1161013e57806342842e0e146103b65780634bd738c7146103df5780634e66d34e1461041e5780636352211e14610447576101cd565b806319a0782e1461031f57806323b872dd14610348578063351901c3146103715780633a52c6901461038d576101cd565b8063095ea7b3116101ab578063095ea7b3146102775780630f08efe0146102a057806312e85585146102cb57806318e97fd1146102f6576101cd565b806301ffc9a7146101d257806306fdde031461020f578063081812fc1461023a575b600080fd5b3480156101de57600080fd5b506101f960048036038101906101f49190613ff2565b61076f565b6040516102069190614b3d565b60405180910390f35b34801561021b57600080fd5b506102246107d0565b6040516102319190614b58565b60405180910390f35b34801561024657600080fd5b50610261600480360381019061025c9190614098565b610862565b60405161026e91906149e3565b60405180910390f35b34801561028357600080fd5b5061029e60048036038101906102999190613fb6565b6108a8565b005b3480156102ac57600080fd5b506102b56109c0565b6040516102c29190614af9565b60405180910390f35b3480156102d757600080fd5b506102e0610d16565b6040516102ed9190614dd6565b60405180910390f35b34801561030257600080fd5b5061031d6004803603810190610318919061418c565b610d20565b005b34801561032b57600080fd5b50610346600480360381019061034191906140c1565b610d2e565b005b34801561035457600080fd5b5061036f600480360381019061036a9190613eb0565b610e9b565b005b61038b60048036038101906103869190614098565b610efb565b005b34801561039957600080fd5b506103b460048036038101906103af91906141e0565b6111ac565b005b3480156103c257600080fd5b506103dd60048036038101906103d89190613eb0565b61122d565b005b3480156103eb57600080fd5b50610406600480360381019061040191906141e0565b61124d565b60405161041593929190614e59565b60405180910390f35b34801561042a57600080fd5b5061044560048036038101906104409190614150565b611294565b005b34801561045357600080fd5b5061046e60048036038101906104699190614098565b611356565b60405161047b91906149e3565b60405180910390f35b34801561049057600080fd5b506104ab60048036038101906104a69190613e4b565b6113dd565b6040516104b89190614dd6565b60405180910390f35b6104db60048036038101906104d69190614044565b611495565b6040516104e89190614dd6565b60405180910390f35b3480156104fd57600080fd5b5061051860048036038101906105139190614098565b6114d7565b6040516105259190614dba565b60405180910390f35b34801561053a57600080fd5b506105436116d8565b6040516105509190614b58565b60405180910390f35b34801561056557600080fd5b50610580600480360381019061057b9190613f7a565b61176a565b005b61059c60048036038101906105979190614098565b611780565b005b3480156105aa57600080fd5b506105c560048036038101906105c09190613eff565b61178a565b005b3480156105d357600080fd5b506105ee60048036038101906105e99190614098565b6117ec565b6040516105fb9190614b58565b60405180910390f35b61061e600480360381019061061991906141e0565b6118ff565b005b34801561062c57600080fd5b5061064760048036038101906106429190613e74565b611b72565b6040516106549190614b3d565b60405180910390f35b34801561066957600080fd5b50610672611c06565b60405161067f9190614af9565b60405180910390f35b34801561069457600080fd5b5061069d611fe1565b6040516106aa9190614af9565b60405180910390f35b3480156106bf57600080fd5b506106da60048036038101906106d59190614098565b6123bc565b6040516106e79190614ad7565b60405180910390f35b3480156106fc57600080fd5b50610717600480360381019061071291906141e0565b61258a565b60405161072996959493929190614df1565b60405180910390f35b34801561073e57600080fd5b5061075960048036038101906107549190614098565b6126ab565b6040516107669190614b1b565b60405180910390f35b6000634906490660e01b7bffffffffffffffffffffffffffffffffffffffffffffffffffffffff1916827bffffffffffffffffffffffffffffffffffffffffffffffffffffffff191614806107c957506107c88261273b565b5b9050919050565b6060600080546107df9061517a565b80601f016020809104026020016040519081016040528092919081815260200182805461080b9061517a565b80156108585780601f1061082d57610100808354040283529160200191610858565b820191906000526020600020905b81548152906001019060200180831161083b57829003601f168201915b5050505050905090565b600061086d8261281d565b6004600083815260200190815260200160002060009054906101000a900473ffffffffffffffffffffffffffffffffffffffff169050919050565b60006108b382611356565b90508073ffffffffffffffffffffffffffffffffffffffff168373ffffffffffffffffffffffffffffffffffffffff161415610924576040517f08c379a000000000000000000000000000000000000000000000000000000000815260040161091b90614d3a565b60405180910390fd5b8073ffffffffffffffffffffffffffffffffffffffff16610943612868565b73ffffffffffffffffffffffffffffffffffffffff16148061097257506109718161096c612868565b611b72565b5b6109b1576040517f08c379a00000000000000000000000000000000000000000000000000000000081526004016109a890614d7a565b60405180910390fd5b6109bb8383612870565b505050565b606060006109ce6008612929565b905060006109dc6009612929565b6109e66008612929565b6109f0919061506c565b90506000808267ffffffffffffffff811115610a35577f4e487b7100000000000000000000000000000000000000000000000000000000600052604160045260246000fd5b604051908082528060200260200182016040528015610a6e57816020015b610a5b613bd4565b815260200190600190039081610a535790505b50905060005b84811015610d0b573073ffffffffffffffffffffffffffffffffffffffff16600c6000600184610aa49190615016565b815260200190815260200160002060020160009054906101000a900473ffffffffffffffffffffffffffffffffffffffff1673ffffffffffffffffffffffffffffffffffffffff161415610cf8576000600182610b019190615016565b90506000600c600083815260200190815260200160002090508060405180610140016040529081600082015481526020016001820160009054906101000a900473ffffffffffffffffffffffffffffffffffffffff1673ffffffffffffffffffffffffffffffffffffffff1673ffffffffffffffffffffffffffffffffffffffff1681526020016002820160009054906101000a900473ffffffffffffffffffffffffffffffffffffffff1673ffffffffffffffffffffffffffffffffffffffff1673ffffffffffffffffffffffffffffffffffffffff1681526020016003820160009054906101000a900473ffffffffffffffffffffffffffffffffffffffff1673ffffffffffffffffffffffffffffffffffffffff1673ffffffffffffffffffffffffffffffffffffffff168152602001600482015481526020016005820160009054906101000a900460ff161515151581526020016005820160019054906101000a900460ff1615151515815260200160068201548152602001600782015481526020016008820160009054906101000a900460ff161515151581525050848681518110610cdb577f4e487b7100000000000000000000000000000000000000000000000000000000600052603260045260246000fd5b6020026020010181905250600185610cf39190615016565b945050505b8080610d03906151dd565b915050610a74565b508094505050505090565b6000600b54905090565b610d2a8282612937565b5050565b60006040518060c001604052808781526020018673ffffffffffffffffffffffffffffffffffffffff1681526020018573ffffffffffffffffffffffffffffffffffffffff168152602001848152602001838152602001428152509050600d60008781526020019081526020016000208190806001815401808255809150506001900390600052602060002090600602016000909190919091506000820151816000015560208201518160010160006101000a81548173ffffffffffffffffffffffffffffffffffffffff021916908373ffffffffffffffffffffffffffffffffffffffff16021790555060408201518160020160006101000a81548173ffffffffffffffffffffffffffffffffffffffff021916908373ffffffffffffffffffffffffffffffffffffffff1602179055506060820151816003019080519060200190610e7c929190613c6f565b506080820151816004015560a082015181600501555050505050505050565b610eac610ea6612868565b826129e2565b610eeb576040517f08c379a0000000000000000000000000000000000000000000000000000000008152600401610ee290614b7a565b60405180910390fd5b610ef6838383612a77565b505050565b6000600c60008381526020019081526020016000206004015490506000600c600084815260200190815260200160002060010160009054906101000a900473ffffffffffffffffffffffffffffffffffffffff16905033600c600085815260200190815260200160002060020160006101000a81548173ffffffffffffffffffffffffffffffffffffffff021916908373ffffffffffffffffffffffffffffffffffffffff1602179055506001600c600085815260200190815260200160002060050160006101000a81548160ff0219169083151502179055506000600c600085815260200190815260200160002060010160006101000a81548173ffffffffffffffffffffffffffffffffffffffff021916908373ffffffffffffffffffffffffffffffffffffffff1602179055506000600c600085815260200190815260200160002060080160006101000a81548160ff0219169083151502179055506110646009612d71565b6110a68330336040518060400160405280600481526020017f53616c650000000000000000000000000000000000000000000000000000000081525086610d2e565b6110b1303385612a77565b6110f5836000336040518060400160405280600881526020017f5472616e736665720000000000000000000000000000000000000000000000008152506000610d2e565b600a60009054906101000a900473ffffffffffffffffffffffffffffffffffffffff1673ffffffffffffffffffffffffffffffffffffffff166108fc600b549081150290604051600060405180830381858888f1935050505015801561115f573d6000803e3d6000fd5b508073ffffffffffffffffffffffffffffffffffffffff166108fc349081150290604051600060405180830381858888f193505050501580156111a6573d6000803e3d6000fd5b50505050565b60006040518060600160405280848152602001838152602001428152509050600e60008481526020019081526020016000208190806001815401808255809150506001900390600052602060002090600302016000909190919091506000820151816000015560208201518160010155604082015181600201555050505050565b6112488383836040518060200160405280600081525061178a565b505050565b600e602052816000526040600020818154811061126957600080fd5b9060005260206000209060030201600091509150508060000154908060010154908060020154905083565b600a60009054906101000a900473ffffffffffffffffffffffffffffffffffffffff1673ffffffffffffffffffffffffffffffffffffffff163373ffffffffffffffffffffffffffffffffffffffff1614611324576040517f08c379a000000000000000000000000000000000000000000000000000000000815260040161131b90614c1a565b60405180910390fd5b80600c600084815260200190815260200160002060050160016101000a81548160ff0219169083151502179055505050565b60008061136283612d87565b9050600073ffffffffffffffffffffffffffffffffffffffff168173ffffffffffffffffffffffffffffffffffffffff1614156113d4576040517f08c379a00000000000000000000000000000000000000000000000000000000081526004016113cb90614d1a565b60405180910390fd5b80915050919050565b60008073ffffffffffffffffffffffffffffffffffffffff168273ffffffffffffffffffffffffffffffffffffffff16141561144e576040517f08c379a000000000000000000000000000000000000000000000000000000000815260040161144590614c7a565b60405180910390fd5b600360008373ffffffffffffffffffffffffffffffffffffffff1673ffffffffffffffffffffffffffffffffffffffff168152602001908152602001600020549050919050565b60006114a16008612d71565b60006114ad6008612929565b90506114b93382612dc4565b6114c38185612937565b6114cd8184612fe2565b8091505092915050565b6114df613bd4565b6000821180156114f857506114f46008612929565b8211155b611537576040517f08c379a000000000000000000000000000000000000000000000000000000000815260040161152e90614cba565b60405180910390fd5b600c600083815260200190815260200160002060405180610140016040529081600082015481526020016001820160009054906101000a900473ffffffffffffffffffffffffffffffffffffffff1673ffffffffffffffffffffffffffffffffffffffff1673ffffffffffffffffffffffffffffffffffffffff1681526020016002820160009054906101000a900473ffffffffffffffffffffffffffffffffffffffff1673ffffffffffffffffffffffffffffffffffffffff1673ffffffffffffffffffffffffffffffffffffffff1681526020016003820160009054906101000a900473ffffffffffffffffffffffffffffffffffffffff1673ffffffffffffffffffffffffffffffffffffffff1673ffffffffffffffffffffffffffffffffffffffff168152602001600482015481526020016005820160009054906101000a900460ff161515151581526020016005820160019054906101000a900460ff1615151515815260200160068201548152602001600782015481526020016008820160009054906101000a900460ff1615151515815250509050919050565b6060600180546116e79061517a565b80601f01602080910402602001604051908101604052809291908181526020018280546117139061517a565b80156117605780601f1061173557610100808354040283529160200191611760565b820191906000526020600020905b81548152906001019060200180831161174357829003601f168201915b5050505050905090565b61177c611775612868565b8383613364565b5050565b80600b8190555050565b61179b611795612868565b836129e2565b6117da576040517f08c379a00000000000000000000000000000000000000000000000000000000081526004016117d190614b7a565b60405180910390fd5b6117e6848484846134d1565b50505050565b60606117f78261281d565b60006006600084815260200190815260200160002080546118179061517a565b80601f01602080910402602001604051908101604052809291908181526020018280546118439061517a565b80156118905780601f1061186557610100808354040283529160200191611890565b820191906000526020600020905b81548152906001019060200180831161187357829003601f168201915b5050505050905060006118a161352d565b90506000815114156118b75781925050506118fa565b6000825111156118ec5780826040516020016118d49291906149bf565b604051602081830303815290604052925050506118fa565b6118f584613544565b925050505b919050565b3373ffffffffffffffffffffffffffffffffffffffff16600c600084815260200190815260200160002060020160009054906101000a900473ffffffffffffffffffffffffffffffffffffffff1673ffffffffffffffffffffffffffffffffffffffff16146119a3576040517f08c379a000000000000000000000000000000000000000000000000000000000815260040161199a90614cfa565b60405180910390fd5b600b5434146119e7576040517f08c379a00000000000000000000000000000000000000000000000000000000081526004016119de90614d5a565b60405180910390fd5b6000600c600084815260200190815260200160002060050160006101000a81548160ff02191690831515021790555080600c60008481526020019081526020016000206004018190555033600c600084815260200190815260200160002060010160006101000a81548173ffffffffffffffffffffffffffffffffffffffff021916908373ffffffffffffffffffffffffffffffffffffffff16021790555030600c600084815260200190815260200160002060020160006101000a81548173ffffffffffffffffffffffffffffffffffffffff021916908373ffffffffffffffffffffffffffffffffffffffff1602179055506001600c600084815260200190815260200160002060080160006101000a81548160ff021916908315150217905550611b1460096135ac565b611b1f333084612a77565b611b64826000336040518060400160405280600481526020017f4c69737400000000000000000000000000000000000000000000000000000000815250600b54610d2e565b611b6e82826111ac565b5050565b6000600560008473ffffffffffffffffffffffffffffffffffffffff1673ffffffffffffffffffffffffffffffffffffffff16815260200190815260200160002060008373ffffffffffffffffffffffffffffffffffffffff1673ffffffffffffffffffffffffffffffffffffffff16815260200190815260200160002060009054906101000a900460ff16905092915050565b60606000611c146008612929565b905060008060005b83811015611cbd573373ffffffffffffffffffffffffffffffffffffffff16600c6000600184611c4c9190615016565b815260200190815260200160002060020160009054906101000a900473ffffffffffffffffffffffffffffffffffffffff1673ffffffffffffffffffffffffffffffffffffffff161415611caa57600183611ca79190615016565b92505b8080611cb5906151dd565b915050611c1c565b5060008267ffffffffffffffff811115611d00577f4e487b7100000000000000000000000000000000000000000000000000000000600052604160045260246000fd5b604051908082528060200260200182016040528015611d3957816020015b611d26613bd4565b815260200190600190039081611d1e5790505b50905060005b84811015611fd6573373ffffffffffffffffffffffffffffffffffffffff16600c6000600184611d6f9190615016565b815260200190815260200160002060020160009054906101000a900473ffffffffffffffffffffffffffffffffffffffff1673ffffffffffffffffffffffffffffffffffffffff161415611fc3576000600182611dcc9190615016565b90506000600c600083815260200190815260200160002090508060405180610140016040529081600082015481526020016001820160009054906101000a900473ffffffffffffffffffffffffffffffffffffffff1673ffffffffffffffffffffffffffffffffffffffff1673ffffffffffffffffffffffffffffffffffffffff1681526020016002820160009054906101000a900473ffffffffffffffffffffffffffffffffffffffff1673ffffffffffffffffffffffffffffffffffffffff1673ffffffffffffffffffffffffffffffffffffffff1681526020016003820160009054906101000a900473ffffffffffffffffffffffffffffffffffffffff1673ffffffffffffffffffffffffffffffffffffffff1673ffffffffffffffffffffffffffffffffffffffff168152602001600482015481526020016005820160009054906101000a900460ff161515151581526020016005820160019054906101000a900460ff1615151515815260200160068201548152602001600782015481526020016008820160009054906101000a900460ff161515151581525050848681518110611fa6577f4e487b7100000000000000000000000000000000000000000000000000000000600052603260045260246000fd5b6020026020010181905250600185611fbe9190615016565b945050505b8080611fce906151dd565b915050611d3f565b508094505050505090565b60606000611fef6008612929565b905060008060005b83811015612098573373ffffffffffffffffffffffffffffffffffffffff16600c60006001846120279190615016565b815260200190815260200160002060010160009054906101000a900473ffffffffffffffffffffffffffffffffffffffff1673ffffffffffffffffffffffffffffffffffffffff161415612085576001836120829190615016565b92505b8080612090906151dd565b915050611ff7565b5060008267ffffffffffffffff8111156120db577f4e487b7100000000000000000000000000000000000000000000000000000000600052604160045260246000fd5b60405190808252806020026020018201604052801561211457816020015b612101613bd4565b8152602001906001900390816120f95790505b50905060005b848110156123b1573373ffffffffffffffffffffffffffffffffffffffff16600c600060018461214a9190615016565b815260200190815260200160002060010160009054906101000a900473ffffffffffffffffffffffffffffffffffffffff1673ffffffffffffffffffffffffffffffffffffffff16141561239e5760006001826121a79190615016565b90506000600c600083815260200190815260200160002090508060405180610140016040529081600082015481526020016001820160009054906101000a900473ffffffffffffffffffffffffffffffffffffffff1673ffffffffffffffffffffffffffffffffffffffff1673ffffffffffffffffffffffffffffffffffffffff1681526020016002820160009054906101000a900473ffffffffffffffffffffffffffffffffffffffff1673ffffffffffffffffffffffffffffffffffffffff1673ffffffffffffffffffffffffffffffffffffffff1681526020016003820160009054906101000a900473ffffffffffffffffffffffffffffffffffffffff1673ffffffffffffffffffffffffffffffffffffffff1673ffffffffffffffffffffffffffffffffffffffff168152602001600482015481526020016005820160009054906101000a900460ff161515151581526020016005820160019054906101000a900460ff1615151515815260200160068201548152602001600782015481526020016008820160009054906101000a900460ff161515151581525050848681518110612381577f4e487b7100000000000000000000000000000000000000000000000000000000600052603260045260246000fd5b60200260200101819052506001856123999190615016565b945050505b80806123a9906151dd565b91505061211a565b508094505050505090565b6060600d6000838152602001908152602001600020805480602002602001604051908101604052809291908181526020016000905b8282101561257f57838290600052602060002090600602016040518060c0016040529081600082015481526020016001820160009054906101000a900473ffffffffffffffffffffffffffffffffffffffff1673ffffffffffffffffffffffffffffffffffffffff1673ffffffffffffffffffffffffffffffffffffffff1681526020016002820160009054906101000a900473ffffffffffffffffffffffffffffffffffffffff1673ffffffffffffffffffffffffffffffffffffffff1673ffffffffffffffffffffffffffffffffffffffff1681526020016003820180546124da9061517a565b80601f01602080910402602001604051908101604052809291908181526020018280546125069061517a565b80156125535780601f1061252857610100808354040283529160200191612553565b820191906000526020600020905b81548152906001019060200180831161253657829003601f168201915b5050505050815260200160048201548152602001600582015481525050815260200190600101906123f1565b505050509050919050565b600d60205281600052604060002081815481106125a657600080fd5b9060005260206000209060060201600091509150508060000154908060010160009054906101000a900473ffffffffffffffffffffffffffffffffffffffff16908060020160009054906101000a900473ffffffffffffffffffffffffffffffffffffffff169080600301805461261c9061517a565b80601f01602080910402602001604051908101604052809291908181526020018280546126489061517a565b80156126955780601f1061266a57610100808354040283529160200191612695565b820191906000526020600020905b81548152906001019060200180831161267857829003601f168201915b5050505050908060040154908060050154905086565b6060600e6000838152602001908152602001600020805480602002602001604051908101604052809291908181526020016000905b8282101561273057838290600052602060002090600302016040518060600160405290816000820154815260200160018201548152602001600282015481525050815260200190600101906126e0565b505050509050919050565b60007f80ac58cd000000000000000000000000000000000000000000000000000000007bffffffffffffffffffffffffffffffffffffffffffffffffffffffff1916827bffffffffffffffffffffffffffffffffffffffffffffffffffffffff1916148061280657507f5b5e139f000000000000000000000000000000000000000000000000000000007bffffffffffffffffffffffffffffffffffffffffffffffffffffffff1916827bffffffffffffffffffffffffffffffffffffffffffffffffffffffff1916145b80612816575061281582613608565b5b9050919050565b61282681613672565b612865576040517f08c379a000000000000000000000000000000000000000000000000000000000815260040161285c90614d1a565b60405180910390fd5b50565b600033905090565b816004600083815260200190815260200160002060006101000a81548173ffffffffffffffffffffffffffffffffffffffff021916908373ffffffffffffffffffffffffffffffffffffffff160217905550808273ffffffffffffffffffffffffffffffffffffffff166128e383611356565b73ffffffffffffffffffffffffffffffffffffffff167f8c5be1e5ebec7d5bd14f71427d1e84f3dd0314c0f7b2291e5b200ac8c7c3b92560405160405180910390a45050565b600081600001549050919050565b61294082613672565b61297f576040517f08c379a000000000000000000000000000000000000000000000000000000000815260040161297690614c9a565b60405180910390fd5b806006600084815260200190815260200160002090805190602001906129a6929190613c6f565b507ff8e1a15aba9398e019f0b49df1a4fde98ee17ae345cb5f6b5e2c27f5033e8ce7826040516129d69190614dd6565b60405180910390a15050565b6000806129ee83611356565b90508073ffffffffffffffffffffffffffffffffffffffff168473ffffffffffffffffffffffffffffffffffffffff161480612a305750612a2f8185611b72565b5b80612a6e57508373ffffffffffffffffffffffffffffffffffffffff16612a5684610862565b73ffffffffffffffffffffffffffffffffffffffff16145b91505092915050565b8273ffffffffffffffffffffffffffffffffffffffff16612a9782611356565b73ffffffffffffffffffffffffffffffffffffffff1614612aed576040517f08c379a0000000000000000000000000000000000000000000000000000000008152600401612ae490614bda565b60405180910390fd5b600073ffffffffffffffffffffffffffffffffffffffff168273ffffffffffffffffffffffffffffffffffffffff161415612b5d576040517f08c379a0000000000000000000000000000000000000000000000000000000008152600401612b5490614c3a565b60405180910390fd5b612b6a83838360016136b3565b8273ffffffffffffffffffffffffffffffffffffffff16612b8a82611356565b73ffffffffffffffffffffffffffffffffffffffff1614612be0576040517f08c379a0000000000000000000000000000000000000000000000000000000008152600401612bd790614bda565b60405180910390fd5b6004600082815260200190815260200160002060006101000a81549073ffffffffffffffffffffffffffffffffffffffff02191690556001600360008573ffffffffffffffffffffffffffffffffffffffff1673ffffffffffffffffffffffffffffffffffffffff168152602001908152602001600020600082825403925050819055506001600360008473ffffffffffffffffffffffffffffffffffffffff1673ffffffffffffffffffffffffffffffffffffffff16815260200190815260200160002060008282540192505081905550816002600083815260200190815260200160002060006101000a81548173ffffffffffffffffffffffffffffffffffffffff021916908373ffffffffffffffffffffffffffffffffffffffff160217905550808273ffffffffffffffffffffffffffffffffffffffff168473ffffffffffffffffffffffffffffffffffffffff167fddf252ad1be2c89b69c2b068fc378daa952ba7f163c4a11628f55a4df523b3ef60405160405180910390a4612d6c83838360016136b9565b505050565b6001816000016000828254019250508190555050565b60006002600083815260200190815260200160002060009054906101000a900473ffffffffffffffffffffffffffffffffffffffff169050919050565b600073ffffffffffffffffffffffffffffffffffffffff168273ffffffffffffffffffffffffffffffffffffffff161415612e34576040517f08c379a0000000000000000000000000000000000000000000000000000000008152600401612e2b90614cda565b60405180910390fd5b612e3d81613672565b15612e7d576040517f08c379a0000000000000000000000000000000000000000000000000000000008152600401612e7490614bfa565b60405180910390fd5b612e8b6000838360016136b3565b612e9481613672565b15612ed4576040517f08c379a0000000000000000000000000000000000000000000000000000000008152600401612ecb90614bfa565b60405180910390fd5b6001600360008473ffffffffffffffffffffffffffffffffffffffff1673ffffffffffffffffffffffffffffffffffffffff16815260200190815260200160002060008282540192505081905550816002600083815260200190815260200160002060006101000a81548173ffffffffffffffffffffffffffffffffffffffff021916908373ffffffffffffffffffffffffffffffffffffffff160217905550808273ffffffffffffffffffffffffffffffffffffffff16600073ffffffffffffffffffffffffffffffffffffffff167fddf252ad1be2c89b69c2b068fc378daa952ba7f163c4a11628f55a4df523b3ef60405160405180910390a4612fde6000838360016136b9565b5050565b60008111613025576040517f08c379a000000000000000000000000000000000000000000000000000000000815260040161301c90614d9a565b60405180910390fd5b600b543414613069576040517f08c379a000000000000000000000000000000000000000000000000000000000815260040161306090614d5a565b60405180910390fd5b6040518061014001604052808381526020013373ffffffffffffffffffffffffffffffffffffffff1681526020013073ffffffffffffffffffffffffffffffffffffffff1681526020013373ffffffffffffffffffffffffffffffffffffffff168152602001828152602001600015158152602001600015158152602001600081526020016000815260200160011515815250600c60008481526020019081526020016000206000820151816000015560208201518160010160006101000a81548173ffffffffffffffffffffffffffffffffffffffff021916908373ffffffffffffffffffffffffffffffffffffffff16021790555060408201518160020160006101000a81548173ffffffffffffffffffffffffffffffffffffffff021916908373ffffffffffffffffffffffffffffffffffffffff16021790555060608201518160030160006101000a81548173ffffffffffffffffffffffffffffffffffffffff021916908373ffffffffffffffffffffffffffffffffffffffff1602179055506080820151816004015560a08201518160050160006101000a81548160ff02191690831515021790555060c08201518160050160016101000a81548160ff02191690831515021790555060e0820151816006015561010082015181600701556101208201518160080160006101000a81548160ff0219169083151502179055509050506132bb826000336040518060400160405280600481526020017f4d696e74000000000000000000000000000000000000000000000000000000008152506601c6bf52634000610d2e565b6132c6333084612a77565b61330b826000336040518060400160405280600481526020017f4c69737400000000000000000000000000000000000000000000000000000000815250600b54610d2e565b61331582826111ac565b817f560fddf78a1b57989607b07f1062c0c712b87ff215e41a1af8b93d1e4175ac71333033856000806000806001604051613358999897969594939291906149fe565b60405180910390a25050565b8173ffffffffffffffffffffffffffffffffffffffff168373ffffffffffffffffffffffffffffffffffffffff1614156133d3576040517f08c379a00000000000000000000000000000000000000000000000000000000081526004016133ca90614c5a565b60405180910390fd5b80600560008573ffffffffffffffffffffffffffffffffffffffff1673ffffffffffffffffffffffffffffffffffffffff16815260200190815260200160002060008473ffffffffffffffffffffffffffffffffffffffff1673ffffffffffffffffffffffffffffffffffffffff16815260200190815260200160002060006101000a81548160ff0219169083151502179055508173ffffffffffffffffffffffffffffffffffffffff168373ffffffffffffffffffffffffffffffffffffffff167f17307eab39ab6107e8899845ad3d59bd9653f200f220920489ca2b5937696c31836040516134c49190614b3d565b60405180910390a3505050565b6134dc848484612a77565b6134e8848484846136bf565b613527576040517f08c379a000000000000000000000000000000000000000000000000000000000815260040161351e90614bba565b60405180910390fd5b50505050565b606060405180602001604052806000815250905090565b606061354f8261281d565b600061355961352d565b9050600081511161357957604051806020016040528060008152506135a4565b8061358384613856565b6040516020016135949291906149bf565b6040516020818303038152906040525b915050919050565b600081600001549050600081116135f8576040517f08c379a00000000000000000000000000000000000000000000000000000000081526004016135ef90614b9a565b60405180910390fd5b6001810382600001819055505050565b60007f01ffc9a7000000000000000000000000000000000000000000000000000000007bffffffffffffffffffffffffffffffffffffffffffffffffffffffff1916827bffffffffffffffffffffffffffffffffffffffffffffffffffffffff1916149050919050565b60008073ffffffffffffffffffffffffffffffffffffffff1661369483612d87565b73ffffffffffffffffffffffffffffffffffffffff1614159050919050565b50505050565b50505050565b60006136e08473ffffffffffffffffffffffffffffffffffffffff1661397a565b15613849578373ffffffffffffffffffffffffffffffffffffffff1663150b7a02613709612868565b8786866040518563ffffffff1660e01b815260040161372b9493929190614a8b565b602060405180830381600087803b15801561374557600080fd5b505af192505050801561377657506040513d601f19601f82011682018060405250810190613773919061401b565b60015b6137f9573d80600081146137a6576040519150601f19603f3d011682016040523d82523d6000602084013e6137ab565b606091505b506000815114156137f1576040517f08c379a00000000000000000000000000000000000000000000000000000000081526004016137e890614bba565b60405180910390fd5b805181602001fd5b63150b7a0260e01b7bffffffffffffffffffffffffffffffffffffffffffffffffffffffff1916817bffffffffffffffffffffffffffffffffffffffffffffffffffffffff19161491505061384e565b600190505b949350505050565b6060600060016138658461399d565b01905060008167ffffffffffffffff8111156138aa577f4e487b7100000000000000000000000000000000000000000000000000000000600052604160045260246000fd5b6040519080825280601f01601f1916602001820160405280156138dc5781602001600182028036833780820191505090505b509050600082602001820190505b60011561396f578080600190039150507f3031323334353637383961626364656600000000000000000000000000000000600a86061a8153600a8581613959577f4e487b7100000000000000000000000000000000000000000000000000000000600052601260045260246000fd5b049450600085141561396a5761396f565b6138ea565b819350505050919050565b6000808273ffffffffffffffffffffffffffffffffffffffff163b119050919050565b600080600090507a184f03e93ff9f4daa797ed6e38ed64bf6a1f0100000000000000008310613a21577a184f03e93ff9f4daa797ed6e38ed64bf6a1f0100000000000000008381613a17577f4e487b7100000000000000000000000000000000000000000000000000000000600052601260045260246000fd5b0492506040810190505b6d04ee2d6d415b85acef81000000008310613a84576d04ee2d6d415b85acef81000000008381613a7a577f4e487b7100000000000000000000000000000000000000000000000000000000600052601260045260246000fd5b0492506020810190505b662386f26fc100008310613ad957662386f26fc100008381613acf577f4e487b7100000000000000000000000000000000000000000000000000000000600052601260045260246000fd5b0492506010810190505b6305f5e1008310613b28576305f5e1008381613b1e577f4e487b7100000000000000000000000000000000000000000000000000000000600052601260045260246000fd5b0492506008810190505b6127108310613b73576127108381613b69577f4e487b7100000000000000000000000000000000000000000000000000000000600052601260045260246000fd5b0492506004810190505b60648310613bbc5760648381613bb2577f4e487b7100000000000000000000000000000000000000000000000000000000600052601260045260246000fd5b0492506002810190505b600a8310613bcb576001810190505b80915050919050565b60405180610140016040528060008152602001600073ffffffffffffffffffffffffffffffffffffffff168152602001600073ffffffffffffffffffffffffffffffffffffffff168152602001600073ffffffffffffffffffffffffffffffffffffffff1681526020016000815260200160001515815260200160001515815260200160008152602001600081526020016000151581525090565b828054613c7b9061517a565b90600052602060002090601f016020900481019282613c9d5760008555613ce4565b82601f10613cb657805160ff1916838001178555613ce4565b82800160010185558215613ce4579182015b82811115613ce3578251825591602001919060010190613cc8565b5b509050613cf19190613cf5565b5090565b5b80821115613d0e576000816000905550600101613cf6565b5090565b6000613d25613d2084614eb5565b614e90565b905082815260208101848484011115613d3d57600080fd5b613d48848285615138565b509392505050565b6000613d63613d5e84614ee6565b614e90565b905082815260208101848484011115613d7b57600080fd5b613d86848285615138565b509392505050565b600081359050613d9d81615748565b92915050565b600081359050613db28161575f565b92915050565b600081359050613dc781615776565b92915050565b600081519050613ddc81615776565b92915050565b600082601f830112613df357600080fd5b8135613e03848260208601613d12565b91505092915050565b600082601f830112613e1d57600080fd5b8135613e2d848260208601613d50565b91505092915050565b600081359050613e458161578d565b92915050565b600060208284031215613e5d57600080fd5b6000613e6b84828501613d8e565b91505092915050565b60008060408385031215613e8757600080fd5b6000613e9585828601613d8e565b9250506020613ea685828601613d8e565b9150509250929050565b600080600060608486031215613ec557600080fd5b6000613ed386828701613d8e565b9350506020613ee486828701613d8e565b9250506040613ef586828701613e36565b9150509250925092565b60008060008060808587031215613f1557600080fd5b6000613f2387828801613d8e565b9450506020613f3487828801613d8e565b9350506040613f4587828801613e36565b925050606085013567ffffffffffffffff811115613f6257600080fd5b613f6e87828801613de2565b91505092959194509250565b60008060408385031215613f8d57600080fd5b6000613f9b85828601613d8e565b9250506020613fac85828601613da3565b9150509250929050565b60008060408385031215613fc957600080fd5b6000613fd785828601613d8e565b9250506020613fe885828601613e36565b9150509250929050565b60006020828403121561400457600080fd5b600061401284828501613db8565b91505092915050565b60006020828403121561402d57600080fd5b600061403b84828501613dcd565b91505092915050565b6000806040838503121561405757600080fd5b600083013567ffffffffffffffff81111561407157600080fd5b61407d85828601613e0c565b925050602061408e85828601613e36565b9150509250929050565b6000602082840312156140aa57600080fd5b60006140b884828501613e36565b91505092915050565b600080600080600060a086880312156140d957600080fd5b60006140e788828901613e36565b95505060206140f888828901613d8e565b945050604061410988828901613d8e565b935050606086013567ffffffffffffffff81111561412657600080fd5b61413288828901613e0c565b925050608061414388828901613e36565b9150509295509295909350565b6000806040838503121561416357600080fd5b600061417185828601613e36565b925050602061418285828601613da3565b9150509250929050565b6000806040838503121561419f57600080fd5b60006141ad85828601613e36565b925050602083013567ffffffffffffffff8111156141ca57600080fd5b6141d685828601613e0c565b9150509250929050565b600080604083850312156141f357600080fd5b600061420185828601613e36565b925050602061421285828601613e36565b9150509250929050565b6000614228838361473e565b905092915050565b600061423c83836147c7565b6101408301905092915050565b6000614255838361495f565b60608301905092915050565b61426a816150b2565b82525050565b614279816150a0565b82525050565b614288816150a0565b82525050565b600061429982614f47565b6142a38185614fa5565b9350836020820285016142b585614f17565b8060005b858110156142f157848403895281516142d2858261421c565b94506142dd83614f7e565b925060208a019950506001810190506142b9565b50829750879550505050505092915050565b600061430e82614f52565b6143188185614fb6565b935061432383614f27565b8060005b8381101561435457815161433b8882614230565b975061434683614f8b565b925050600181019050614327565b5085935050505092915050565b600061436c82614f5d565b6143768185614fc7565b935061438183614f37565b8060005b838110156143b25781516143998882614249565b97506143a483614f98565b925050600181019050614385565b5085935050505092915050565b6143c8816150c4565b82525050565b6143d7816150c4565b82525050565b60006143e882614f68565b6143f28185614fd8565b9350614402818560208601615147565b61440b816152b3565b840191505092915050565b61441f81615126565b82525050565b600061443082614f73565b61443a8185614fe9565b935061444a818560208601615147565b614453816152b3565b840191505092915050565b600061446982614f73565b6144738185614ffa565b9350614483818560208601615147565b61448c816152b3565b840191505092915050565b60006144a282614f73565b6144ac818561500b565b93506144bc818560208601615147565b80840191505092915050565b60006144d5602d83614ffa565b91506144e0826152c4565b604082019050919050565b60006144f8601b83614ffa565b915061450382615313565b602082019050919050565b600061451b603283614ffa565b91506145268261533c565b604082019050919050565b600061453e602583614ffa565b91506145498261538b565b604082019050919050565b6000614561601c83614ffa565b915061456c826153da565b602082019050919050565b6000614584602683614ffa565b915061458f82615403565b604082019050919050565b60006145a7602483614ffa565b91506145b282615452565b604082019050919050565b60006145ca601983614ffa565b91506145d5826154a1565b602082019050919050565b60006145ed602983614ffa565b91506145f8826154ca565b604082019050919050565b6000614610602e83614ffa565b915061461b82615519565b604082019050919050565b6000614633600f83614ffa565b915061463e82615568565b602082019050919050565b6000614656602083614ffa565b915061466182615591565b602082019050919050565b6000614679602a83614ffa565b9150614684826155ba565b604082019050919050565b600061469c601883614ffa565b91506146a782615609565b602082019050919050565b60006146bf602183614ffa565b91506146ca82615632565b604082019050919050565b60006146e2602483614ffa565b91506146ed82615681565b604082019050919050565b6000614705603d83614ffa565b9150614710826156d0565b604082019050919050565b6000614728601c83614ffa565b91506147338261571f565b602082019050919050565b600060c08301600083015161475660008601826149a1565b5060208301516147696020860182614270565b50604083015161477c6040860182614270565b50606083015184820360608601526147948282614425565b91505060808301516147a960808601826149a1565b5060a08301516147bc60a08601826149a1565b508091505092915050565b610140820160008201516147de60008501826149a1565b5060208201516147f16020850182614261565b5060408201516148046040850182614261565b5060608201516148176060850182614261565b50608082015161482a60808501826149a1565b5060a082015161483d60a08501826143bf565b5060c082015161485060c08501826143bf565b5060e082015161486360e08501826149a1565b506101008201516148786101008501826149a1565b5061012082015161488d6101208501826143bf565b50505050565b610140820160008201516148aa60008501826149a1565b5060208201516148bd6020850182614261565b5060408201516148d06040850182614261565b5060608201516148e36060850182614261565b5060808201516148f660808501826149a1565b5060a082015161490960a08501826143bf565b5060c082015161491c60c08501826143bf565b5060e082015161492f60e08501826149a1565b506101008201516149446101008501826149a1565b506101208201516149596101208501826143bf565b50505050565b60608201600082015161497560008501826149a1565b50602082015161498860208501826149a1565b50604082015161499b60408501826149a1565b50505050565b6149aa8161511c565b82525050565b6149b98161511c565b82525050565b60006149cb8285614497565b91506149d78284614497565b91508190509392505050565b60006020820190506149f8600083018461427f565b92915050565b600061012082019050614a14600083018c61427f565b614a21602083018b61427f565b614a2e604083018a61427f565b614a3b60608301896149b0565b614a4860808301886143ce565b614a5560a08301876143ce565b614a6260c0830186614416565b614a6f60e0830185614416565b614a7d6101008301846143ce565b9a9950505050505050505050565b6000608082019050614aa0600083018761427f565b614aad602083018661427f565b614aba60408301856149b0565b8181036060830152614acc81846143dd565b905095945050505050565b60006020820190508181036000830152614af1818461428e565b905092915050565b60006020820190508181036000830152614b138184614303565b905092915050565b60006020820190508181036000830152614b358184614361565b905092915050565b6000602082019050614b5260008301846143ce565b92915050565b60006020820190508181036000830152614b72818461445e565b905092915050565b60006020820190508181036000830152614b93816144c8565b9050919050565b60006020820190508181036000830152614bb3816144eb565b9050919050565b60006020820190508181036000830152614bd38161450e565b9050919050565b60006020820190508181036000830152614bf381614531565b9050919050565b60006020820190508181036000830152614c1381614554565b9050919050565b60006020820190508181036000830152614c3381614577565b9050919050565b60006020820190508181036000830152614c538161459a565b9050919050565b60006020820190508181036000830152614c73816145bd565b9050919050565b60006020820190508181036000830152614c93816145e0565b9050919050565b60006020820190508181036000830152614cb381614603565b9050919050565b60006020820190508181036000830152614cd381614626565b9050919050565b60006020820190508181036000830152614cf381614649565b9050919050565b60006020820190508181036000830152614d138161466c565b9050919050565b60006020820190508181036000830152614d338161468f565b9050919050565b60006020820190508181036000830152614d53816146b2565b9050919050565b60006020820190508181036000830152614d73816146d5565b9050919050565b60006020820190508181036000830152614d93816146f8565b9050919050565b60006020820190508181036000830152614db38161471b565b9050919050565b600061014082019050614dd06000830184614893565b92915050565b6000602082019050614deb60008301846149b0565b92915050565b600060c082019050614e0660008301896149b0565b614e13602083018861427f565b614e20604083018761427f565b8181036060830152614e32818661445e565b9050614e4160808301856149b0565b614e4e60a08301846149b0565b979650505050505050565b6000606082019050614e6e60008301866149b0565b614e7b60208301856149b0565b614e8860408301846149b0565b949350505050565b6000614e9a614eab565b9050614ea682826151ac565b919050565b6000604051905090565b600067ffffffffffffffff821115614ed057614ecf615284565b5b614ed9826152b3565b9050602081019050919050565b600067ffffffffffffffff821115614f0157614f00615284565b5b614f0a826152b3565b9050602081019050919050565b6000819050602082019050919050565b6000819050602082019050919050565b6000819050602082019050919050565b600081519050919050565b600081519050919050565b600081519050919050565b600081519050919050565b600081519050919050565b6000602082019050919050565b6000602082019050919050565b6000602082019050919050565b600082825260208201905092915050565b600082825260208201905092915050565b600082825260208201905092915050565b600082825260208201905092915050565b600082825260208201905092915050565b600082825260208201905092915050565b600081905092915050565b60006150218261511c565b915061502c8361511c565b9250827fffffffffffffffffffffffffffffffffffffffffffffffffffffffffffffffff0382111561506157615060615226565b5b828201905092915050565b60006150778261511c565b91506150828361511c565b92508282101561509557615094615226565b5b828203905092915050565b60006150ab826150fc565b9050919050565b60006150bd826150fc565b9050919050565b60008115159050919050565b60007fffffffff0000000000000000000000000000000000000000000000000000000082169050919050565b600073ffffffffffffffffffffffffffffffffffffffff82169050919050565b6000819050919050565b60006151318261511c565b9050919050565b82818337600083830152505050565b60005b8381101561516557808201518184015260208101905061514a565b83811115615174576000848401525b50505050565b6000600282049050600182168061519257607f821691505b602082108114156151a6576151a5615255565b5b50919050565b6151b5826152b3565b810181811067ffffffffffffffff821117156151d4576151d3615284565b5b80604052505050565b60006151e88261511c565b91507fffffffffffffffffffffffffffffffffffffffffffffffffffffffffffffffff82141561521b5761521a615226565b5b600182019050919050565b7f4e487b7100000000000000000000000000000000000000000000000000000000600052601160045260246000fd5b7f4e487b7100000000000000000000000000000000000000000000000000000000600052602260045260246000fd5b7f4e487b7100000000000000000000000000000000000000000000000000000000600052604160045260246000fd5b6000601f19601f8301169050919050565b7f4552433732313a2063616c6c6572206973206e6f7420746f6b656e206f776e6560008201527f72206f7220617070726f76656400000000000000000000000000000000000000602082015250565b7f436f756e7465723a2064656372656d656e74206f766572666c6f770000000000600082015250565b7f4552433732313a207472616e7366657220746f206e6f6e20455243373231526560008201527f63656976657220696d706c656d656e7465720000000000000000000000000000602082015250565b7f4552433732313a207472616e736665722066726f6d20696e636f72726563742060008201527f6f776e6572000000000000000000000000000000000000000000000000000000602082015250565b7f4552433732313a20746f6b656e20616c7265616479206d696e74656400000000600082015250565b7f4f6e6c7920746865206f776e65722063616e207570646174652069735265776160008201527f72644974656d0000000000000000000000000000000000000000000000000000602082015250565b7f4552433732313a207472616e7366657220746f20746865207a65726f2061646460008201527f7265737300000000000000000000000000000000000000000000000000000000602082015250565b7f4552433732313a20617070726f766520746f2063616c6c657200000000000000600082015250565b7f4552433732313a2061646472657373207a65726f206973206e6f74206120766160008201527f6c6964206f776e65720000000000000000000000000000000000000000000000602082015250565b7f45524337323155524953746f726167653a2055524920736574206f66206e6f6e60008201527f6578697374656e7420746f6b656e000000000000000000000000000000000000602082015250565b7f496e76616c6964204974656d2049440000000000000000000000000000000000600082015250565b7f4552433732313a206d696e7420746f20746865207a65726f2061646472657373600082015250565b7f4f6e6c79206974656d206f776e65722063616e20706572666f726d207468697360008201527f206f7065726174696f6e00000000000000000000000000000000000000000000602082015250565b7f4552433732313a20696e76616c696420746f6b656e2049440000000000000000600082015250565b7f4552433732313a20617070726f76616c20746f2063757272656e74206f776e6560008201527f7200000000000000000000000000000000000000000000000000000000000000602082015250565b7f5072696365206d75737420626520657175616c20746f206c697374696e67207060008201527f7269636500000000000000000000000000000000000000000000000000000000602082015250565b7f4552433732313a20617070726f76652063616c6c6572206973206e6f7420746f60008201527f6b656e206f776e6572206f7220617070726f76656420666f7220616c6c000000602082015250565b7f5072696365206d757374206265206174206c6561737420312077656900000000600082015250565b615751816150a0565b811461575c57600080fd5b50565b615768816150c4565b811461577357600080fd5b50565b61577f816150d0565b811461578a57600080fd5b50565b6157968161511c565b81146157a157600080fd5b5056fea26469706673582212206a6b8bcdf7cad4b983b4b4ec9fbace62c042d4b5222134255c9c7682c3e26ffc64736f6c63430008040033",
  "linkReferences": {},
  "deployedLinkReferences": {}
}