{
  "_format": "hh-sol-artifact-1",
  "contractName": "NFTMarketplace",
  "sourceName": "contracts/NFTMarketplace.sol",
  "abi": [
    {
      "inputs": [],
      "stateMutability": "nonpayable",
      "type": "constructor"
    },
    {
      "anonymous": false,
      "inputs": [
        {
          "indexed": true,
          "internalType": "address",
          "name": "owner",
          "type": "address"
        },
        {
          "indexed": true,
          "internalType": "address",
          "name": "approved",
          "type": "address"
        },
        {
          "indexed": true,
          "internalType": "uint256",
          "name": "tokenId",
          "type": "uint256"
        }
      ],
      "name": "Approval",
      "type": "event"
    },
    {
      "anonymous": false,
      "inputs": [
        {
          "indexed": true,
          "internalType": "address",
          "name": "owner",
          "type": "address"
        },
        {
          "indexed": true,
          "internalType": "address",
          "name": "operator",
          "type": "address"
        },
        {
          "indexed": false,
          "internalType": "bool",
          "name": "approved",
          "type": "bool"
        }
      ],
      "name": "ApprovalForAll",
      "type": "event"
    },
    {
      "anonymous": false,
      "inputs": [
        {
          "indexed": false,
          "internalType": "uint256",
          "name": "_fromTokenId",
          "type": "uint256"
        },
        {
          "indexed": false,
          "internalType": "uint256",
          "name": "_toTokenId",
          "type": "uint256"
        }
      ],
      "name": "BatchMetadataUpdate",
      "type": "event"
    },
    {
      "anonymous": false,
      "inputs": [
        {
          "indexed": false,
          "internalType": "uint256",
          "name": "_tokenId",
          "type": "uint256"
        }
      ],
      "name": "MetadataUpdate",
      "type": "event"
    },
    {
      "anonymous": false,
      "inputs": [
        {
          "indexed": true,
          "internalType": "address",
          "name": "from",
          "type": "address"
        },
        {
          "indexed": true,
          "internalType": "address",
          "name": "to",
          "type": "address"
        },
        {
          "indexed": true,
          "internalType": "uint256",
          "name": "tokenId",
          "type": "uint256"
        }
      ],
      "name": "Transfer",
      "type": "event"
    },
    {
      "anonymous": false,
      "inputs": [
        {
          "indexed": true,
          "internalType": "uint256",
          "name": "tokenId",
          "type": "uint256"
        },
        {
          "indexed": false,
          "internalType": "address",
          "name": "seller",
          "type": "address"
        },
        {
          "indexed": false,
          "internalType": "address",
          "name": "owner",
          "type": "address"
        },
        {
          "indexed": false,
          "internalType": "uint256",
          "name": "price",
          "type": "uint256"
        },
        {
          "indexed": false,
          "internalType": "bool",
          "name": "sold",
          "type": "bool"
        }
      ],
      "name": "idMarketItemCreated",
      "type": "event"
    },
    {
      "inputs": [
        {
          "internalType": "address",
          "name": "to",
          "type": "address"
        },
        {
          "internalType": "uint256",
          "name": "tokenId",
          "type": "uint256"
        }
      ],
      "name": "approve",
      "outputs": [],
      "stateMutability": "nonpayable",
      "type": "function"
    },
    {
      "inputs": [
        {
          "internalType": "address",
          "name": "owner",
          "type": "address"
        }
      ],
      "name": "balanceOf",
      "outputs": [
        {
          "internalType": "uint256",
          "name": "",
          "type": "uint256"
        }
      ],
      "stateMutability": "view",
      "type": "function"
    },
    {
      "inputs": [
        {
          "internalType": "uint256",
          "name": "tokenId",
          "type": "uint256"
        }
      ],
      "name": "createMarketSale",
      "outputs": [],
      "stateMutability": "payable",
      "type": "function"
    },
    {
      "inputs": [
        {
          "internalType": "string",
          "name": "tokenURI",
          "type": "string"
        },
        {
          "internalType": "uint256",
          "name": "price",
          "type": "uint256"
        }
      ],
      "name": "createToken",
      "outputs": [
        {
          "internalType": "uint256",
          "name": "",
          "type": "uint256"
        }
      ],
      "stateMutability": "payable",
      "type": "function"
    },
    {
      "inputs": [],
      "name": "fetchItemsListed",
      "outputs": [
        {
          "components": [
            {
              "internalType": "uint256",
              "name": "tokenId",
              "type": "uint256"
            },
            {
              "internalType": "address payable",
              "name": "seller",
              "type": "address"
            },
            {
              "internalType": "address payable",
              "name": "owner",
              "type": "address"
            },
            {
              "internalType": "uint256",
              "name": "price",
              "type": "uint256"
            },
            {
              "internalType": "bool",
              "name": "sold",
              "type": "bool"
            }
          ],
          "internalType": "struct NFTMarketplace.MarketItem[]",
          "name": "",
          "type": "tuple[]"
        }
      ],
      "stateMutability": "view",
      "type": "function"
    },
    {
      "inputs": [],
      "name": "fetchMarketItem",
      "outputs": [
        {
          "components": [
            {
              "internalType": "uint256",
              "name": "tokenId",
              "type": "uint256"
            },
            {
              "internalType": "address payable",
              "name": "seller",
              "type": "address"
            },
            {
              "internalType": "address payable",
              "name": "owner",
              "type": "address"
            },
            {
              "internalType": "uint256",
              "name": "price",
              "type": "uint256"
            },
            {
              "internalType": "bool",
              "name": "sold",
              "type": "bool"
            }
          ],
          "internalType": "struct NFTMarketplace.MarketItem[]",
          "name": "",
          "type": "tuple[]"
        }
      ],
      "stateMutability": "view",
      "type": "function"
    },
    {
      "inputs": [],
      "name": "fetchMyNFT",
      "outputs": [
        {
          "components": [
            {
              "internalType": "uint256",
              "name": "tokenId",
              "type": "uint256"
            },
            {
              "internalType": "address payable",
              "name": "seller",
              "type": "address"
            },
            {
              "internalType": "address payable",
              "name": "owner",
              "type": "address"
            },
            {
              "internalType": "uint256",
              "name": "price",
              "type": "uint256"
            },
            {
              "internalType": "bool",
              "name": "sold",
              "type": "bool"
            }
          ],
          "internalType": "struct NFTMarketplace.MarketItem[]",
          "name": "",
          "type": "tuple[]"
        }
      ],
      "stateMutability": "view",
      "type": "function"
    },
    {
      "inputs": [
        {
          "internalType": "uint256",
          "name": "tokenId",
          "type": "uint256"
        }
      ],
      "name": "getApproved",
      "outputs": [
        {
          "internalType": "address",
          "name": "",
          "type": "address"
        }
      ],
      "stateMutability": "view",
      "type": "function"
    },
    {
      "inputs": [],
      "name": "getListingPrice",
      "outputs": [
        {
          "internalType": "uint256",
          "name": "",
          "type": "uint256"
        }
      ],
      "stateMutability": "view",
      "type": "function"
    },
    {
      "inputs": [
        {
          "internalType": "address",
          "name": "owner",
          "type": "address"
        },
        {
          "internalType": "address",
          "name": "operator",
          "type": "address"
        }
      ],
      "name": "isApprovedForAll",
      "outputs": [
        {
          "internalType": "bool",
          "name": "",
          "type": "bool"
        }
      ],
      "stateMutability": "view",
      "type": "function"
    },
    {
      "inputs": [],
      "name": "name",
      "outputs": [
        {
          "internalType": "string",
          "name": "",
          "type": "string"
        }
      ],
      "stateMutability": "view",
      "type": "function"
    },
    {
      "inputs": [
        {
          "internalType": "uint256",
          "name": "tokenId",
          "type": "uint256"
        }
      ],
      "name": "ownerOf",
      "outputs": [
        {
          "internalType": "address",
          "name": "",
          "type": "address"
        }
      ],
      "stateMutability": "view",
      "type": "function"
    },
    {
      "inputs": [
        {
          "internalType": "uint256",
          "name": "tokenId",
          "type": "uint256"
        },
        {
          "internalType": "uint256",
          "name": "price",
          "type": "uint256"
        }
      ],
      "name": "reSellToken",
      "outputs": [],
      "stateMutability": "payable",
      "type": "function"
    },
    {
      "inputs": [
        {
          "internalType": "address",
          "name": "from",
          "type": "address"
        },
        {
          "internalType": "address",
          "name": "to",
          "type": "address"
        },
        {
          "internalType": "uint256",
          "name": "tokenId",
          "type": "uint256"
        }
      ],
      "name": "safeTransferFrom",
      "outputs": [],
      "stateMutability": "nonpayable",
      "type": "function"
    },
    {
      "inputs": [
        {
          "internalType": "address",
          "name": "from",
          "type": "address"
        },
        {
          "internalType": "address",
          "name": "to",
          "type": "address"
        },
        {
          "internalType": "uint256",
          "name": "tokenId",
          "type": "uint256"
        },
        {
          "internalType": "bytes",
          "name": "data",
          "type": "bytes"
        }
      ],
      "name": "safeTransferFrom",
      "outputs": [],
      "stateMutability": "nonpayable",
      "type": "function"
    },
    {
      "inputs": [
        {
          "internalType": "address",
          "name": "operator",
          "type": "address"
        },
        {
          "internalType": "bool",
          "name": "approved",
          "type": "bool"
        }
      ],
      "name": "setApprovalForAll",
      "outputs": [],
      "stateMutability": "nonpayable",
      "type": "function"
    },
    {
      "inputs": [
        {
          "internalType": "bytes4",
          "name": "interfaceId",
          "type": "bytes4"
        }
      ],
      "name": "supportsInterface",
      "outputs": [
        {
          "internalType": "bool",
          "name": "",
          "type": "bool"
        }
      ],
      "stateMutability": "view",
      "type": "function"
    },
    {
      "inputs": [],
      "name": "symbol",
      "outputs": [
        {
          "internalType": "string",
          "name": "",
          "type": "string"
        }
      ],
      "stateMutability": "view",
      "type": "function"
    },
    {
      "inputs": [
        {
          "internalType": "uint256",
          "name": "tokenId",
          "type": "uint256"
        }
      ],
      "name": "tokenURI",
      "outputs": [
        {
          "internalType": "string",
          "name": "",
          "type": "string"
        }
      ],
      "stateMutability": "view",
      "type": "function"
    },
    {
      "inputs": [
        {
          "internalType": "address",
          "name": "from",
          "type": "address"
        },
        {
          "internalType": "address",
          "name": "to",
          "type": "address"
        },
        {
          "internalType": "uint256",
          "name": "tokenId",
          "type": "uint256"
        }
      ],
      "name": "transferFrom",
      "outputs": [],
      "stateMutability": "nonpayable",
      "type": "function"
    },
    {
      "inputs": [
        {
          "internalType": "uint256",
          "name": "_listingPrice",
          "type": "uint256"
        }
      ],
      "name": "updateListingPrice",
      "outputs": [],
      "stateMutability": "payable",
      "type": "function"
    }
  ],
  "bytecode": "0x60806040526608e1bc9bf040006009553480156200001c57600080fd5b506040518060400160405280601381526020017f4e666c75656e636572204e465420546f6b656e000000000000000000000000008152506040518060400160405280600581526020017f4e464e465400000000000000000000000000000000000000000000000000000081525081600090816200009a919062000370565b508060019081620000ac919062000370565b50505033600a60006101000a81548173ffffffffffffffffffffffffffffffffffffffff021916908373ffffffffffffffffffffffffffffffffffffffff16021790555062000457565b600081519050919050565b7f4e487b7100000000000000000000000000000000000000000000000000000000600052604160045260246000fd5b7f4e487b7100000000000000000000000000000000000000000000000000000000600052602260045260246000fd5b600060028204905060018216806200017857607f821691505b6020821081036200018e576200018d62000130565b5b50919050565b60008190508160005260206000209050919050565b60006020601f8301049050919050565b600082821b905092915050565b600060088302620001f87fffffffffffffffffffffffffffffffffffffffffffffffffffffffffffffffff82620001b9565b620002048683620001b9565b95508019841693508086168417925050509392505050565b6000819050919050565b6000819050919050565b6000620002516200024b62000245846200021c565b62000226565b6200021c565b9050919050565b6000819050919050565b6200026d8362000230565b620002856200027c8262000258565b848454620001c6565b825550505050565b600090565b6200029c6200028d565b620002a981848462000262565b505050565b5b81811015620002d157620002c560008262000292565b600181019050620002af565b5050565b601f8211156200032057620002ea8162000194565b620002f584620001a9565b8101602085101562000305578190505b6200031d6200031485620001a9565b830182620002ae565b50505b505050565b600082821c905092915050565b6000620003456000198460080262000325565b1980831691505092915050565b600062000360838362000332565b9150826002028217905092915050565b6200037b82620000f6565b67ffffffffffffffff81111562000397576200039662000101565b5b620003a382546200015f565b620003b0828285620002d5565b600060209050601f831160018114620003e85760008415620003d3578287015190505b620003df858262000352565b8655506200044f565b601f198416620003f88662000194565b60005b828110156200042257848901518255600182019150602085019450602081019050620003fb565b868310156200044257848901516200043e601f89168262000332565b8355505b6001600288020188555050505b505050505050565b6142ca80620004676000396000f3fe60806040526004361061012a5760003560e01c806372b3b620116100ab578063ae677aa31161006f578063ae677aa3146103ea578063b88d4fde14610406578063be9af5361461042f578063c18763f71461044b578063c87b56dd14610476578063e985e9c5146104b35761012a565b806372b3b6201461031f57806385535b251461034f5780638fafd0211461036b57806395d89b4114610396578063a22cb465146103c15761012a565b806323b872dd116100f257806323b872dd1461022857806342842e0e1461025157806345f8fa801461027a5780636352211e146102a557806370a08231146102e25761012a565b806301ffc9a71461012f57806306fdde031461016c578063081812fc14610197578063095ea7b3146101d457806312e85585146101fd575b600080fd5b34801561013b57600080fd5b5061015660048036038101906101519190612b8e565b6104f0565b6040516101639190612bd6565b60405180910390f35b34801561017857600080fd5b50610181610551565b60405161018e9190612c81565b60405180910390f35b3480156101a357600080fd5b506101be60048036038101906101b99190612cd9565b6105e3565b6040516101cb9190612d47565b60405180910390f35b3480156101e057600080fd5b506101fb60048036038101906101f69190612d8e565b610629565b005b34801561020957600080fd5b50610212610740565b60405161021f9190612ddd565b60405180910390f35b34801561023457600080fd5b5061024f600480360381019061024a9190612df8565b61074a565b005b34801561025d57600080fd5b5061027860048036038101906102739190612df8565b6107aa565b005b34801561028657600080fd5b5061028f6107ca565b60405161029c9190612fa1565b60405180910390f35b3480156102b157600080fd5b506102cc60048036038101906102c79190612cd9565b610ab6565b6040516102d99190612d47565b60405180910390f35b3480156102ee57600080fd5b5061030960048036038101906103049190612fc3565b610b3c565b6040516103169190612ddd565b60405180910390f35b61033960048036038101906103349190613125565b610bf3565b6040516103469190612ddd565b60405180910390f35b61036960048036038101906103649190613181565b610c35565b005b34801561037757600080fd5b50610380610e2a565b60405161038d9190612fa1565b60405180910390f35b3480156103a257600080fd5b506103ab611092565b6040516103b89190612c81565b60405180910390f35b3480156103cd57600080fd5b506103e860048036038101906103e391906131ed565b611124565b005b61040460048036038101906103ff9190612cd9565b61113a565b005b34801561041257600080fd5b5061042d600480360381019061042891906132ce565b6111d4565b005b61044960048036038101906104449190612cd9565b611236565b005b34801561045757600080fd5b5061046061146d565b60405161046d9190612fa1565b60405180910390f35b34801561048257600080fd5b5061049d60048036038101906104989190612cd9565b611759565b6040516104aa9190612c81565b60405180910390f35b3480156104bf57600080fd5b506104da60048036038101906104d59190613351565b61186b565b6040516104e79190612bd6565b60405180910390f35b6000634906490660e01b7bffffffffffffffffffffffffffffffffffffffffffffffffffffffff1916827bffffffffffffffffffffffffffffffffffffffffffffffffffffffff1916148061054a5750610549826118ff565b5b9050919050565b606060008054610560906133c0565b80601f016020809104026020016040519081016040528092919081815260200182805461058c906133c0565b80156105d95780601f106105ae576101008083540402835291602001916105d9565b820191906000526020600020905b8154815290600101906020018083116105bc57829003601f168201915b5050505050905090565b60006105ee826119e1565b6004600083815260200190815260200160002060009054906101000a900473ffffffffffffffffffffffffffffffffffffffff169050919050565b600061063482610ab6565b90508073ffffffffffffffffffffffffffffffffffffffff168373ffffffffffffffffffffffffffffffffffffffff16036106a4576040517f08c379a000000000000000000000000000000000000000000000000000000000815260040161069b90613463565b60405180910390fd5b8073ffffffffffffffffffffffffffffffffffffffff166106c3611a2c565b73ffffffffffffffffffffffffffffffffffffffff1614806106f257506106f1816106ec611a2c565b61186b565b5b610731576040517f08c379a0000000000000000000000000000000000000000000000000000000008152600401610728906134f5565b60405180910390fd5b61073b8383611a34565b505050565b6000600954905090565b61075b610755611a2c565b82611aed565b61079a576040517f08c379a000000000000000000000000000000000000000000000000000000000815260040161079190613587565b60405180910390fd5b6107a5838383611b82565b505050565b6107c5838383604051806020016040528060008152506111d4565b505050565b606060006107d86007611e7b565b905060008060005b83811015610880573373ffffffffffffffffffffffffffffffffffffffff16600b600060018461081091906135d6565b815260200190815260200160002060010160009054906101000a900473ffffffffffffffffffffffffffffffffffffffff1673ffffffffffffffffffffffffffffffffffffffff160361086d5760018361086a91906135d6565b92505b80806108789061360a565b9150506107e0565b5060008267ffffffffffffffff81111561089d5761089c612ffa565b5b6040519080825280602002602001820160405280156108d657816020015b6108c3612ac5565b8152602001906001900390816108bb5790505b50905060005b84811015610aab573373ffffffffffffffffffffffffffffffffffffffff16600b600060018461090c91906135d6565b815260200190815260200160002060010160009054906101000a900473ffffffffffffffffffffffffffffffffffffffff1673ffffffffffffffffffffffffffffffffffffffff1603610a9857600060018261096891906135d6565b90506000600b60008381526020019081526020016000209050806040518060a0016040529081600082015481526020016001820160009054906101000a900473ffffffffffffffffffffffffffffffffffffffff1673ffffffffffffffffffffffffffffffffffffffff1673ffffffffffffffffffffffffffffffffffffffff1681526020016002820160009054906101000a900473ffffffffffffffffffffffffffffffffffffffff1673ffffffffffffffffffffffffffffffffffffffff1673ffffffffffffffffffffffffffffffffffffffff168152602001600382015481526020016004820160009054906101000a900460ff161515151581525050848681518110610a7b57610a7a613652565b5b6020026020010181905250600185610a9391906135d6565b945050505b8080610aa39061360a565b9150506108dc565b508094505050505090565b600080610ac283611e89565b9050600073ffffffffffffffffffffffffffffffffffffffff168173ffffffffffffffffffffffffffffffffffffffff1603610b33576040517f08c379a0000000000000000000000000000000000000000000000000000000008152600401610b2a906136cd565b60405180910390fd5b80915050919050565b60008073ffffffffffffffffffffffffffffffffffffffff168273ffffffffffffffffffffffffffffffffffffffff1603610bac576040517f08c379a0000000000000000000000000000000000000000000000000000000008152600401610ba39061375f565b60405180910390fd5b600360008373ffffffffffffffffffffffffffffffffffffffff1673ffffffffffffffffffffffffffffffffffffffff168152602001908152602001600020549050919050565b6000610bff6007611ec6565b6000610c0b6007611e7b565b9050610c173382611edc565b610c2181856120f9565b610c2b818461219d565b8091505092915050565b3373ffffffffffffffffffffffffffffffffffffffff16600b600084815260200190815260200160002060020160009054906101000a900473ffffffffffffffffffffffffffffffffffffffff1673ffffffffffffffffffffffffffffffffffffffff1614610cd9576040517f08c379a0000000000000000000000000000000000000000000000000000000008152600401610cd0906137f1565b60405180910390fd5b6009543414610d1d576040517f08c379a0000000000000000000000000000000000000000000000000000000008152600401610d1490613883565b60405180910390fd5b6000600b600084815260200190815260200160002060040160006101000a81548160ff02191690831515021790555080600b60008481526020019081526020016000206003018190555033600b600084815260200190815260200160002060010160006101000a81548173ffffffffffffffffffffffffffffffffffffffff021916908373ffffffffffffffffffffffffffffffffffffffff16021790555030600b600084815260200190815260200160002060020160006101000a81548173ffffffffffffffffffffffffffffffffffffffff021916908373ffffffffffffffffffffffffffffffffffffffff160217905550610e1b60086123a0565b610e26333084611b82565b5050565b60606000610e386007611e7b565b90506000610e466008611e7b565b610e506007611e7b565b610e5a91906138a3565b90506000808267ffffffffffffffff811115610e7957610e78612ffa565b5b604051908082528060200260200182016040528015610eb257816020015b610e9f612ac5565b815260200190600190039081610e975790505b50905060005b84811015611087573073ffffffffffffffffffffffffffffffffffffffff16600b6000600184610ee891906135d6565b815260200190815260200160002060020160009054906101000a900473ffffffffffffffffffffffffffffffffffffffff1673ffffffffffffffffffffffffffffffffffffffff1603611074576000600182610f4491906135d6565b90506000600b60008381526020019081526020016000209050806040518060a0016040529081600082015481526020016001820160009054906101000a900473ffffffffffffffffffffffffffffffffffffffff1673ffffffffffffffffffffffffffffffffffffffff1673ffffffffffffffffffffffffffffffffffffffff1681526020016002820160009054906101000a900473ffffffffffffffffffffffffffffffffffffffff1673ffffffffffffffffffffffffffffffffffffffff1673ffffffffffffffffffffffffffffffffffffffff168152602001600382015481526020016004820160009054906101000a900460ff16151515158152505084868151811061105757611056613652565b5b602002602001018190525060018561106f91906135d6565b945050505b808061107f9061360a565b915050610eb8565b508094505050505090565b6060600180546110a1906133c0565b80601f01602080910402602001604051908101604052809291908181526020018280546110cd906133c0565b801561111a5780601f106110ef5761010080835404028352916020019161111a565b820191906000526020600020905b8154815290600101906020018083116110fd57829003601f168201915b5050505050905090565b61113661112f611a2c565b83836123fc565b5050565b600a60009054906101000a900473ffffffffffffffffffffffffffffffffffffffff1673ffffffffffffffffffffffffffffffffffffffff163373ffffffffffffffffffffffffffffffffffffffff16146111ca576040517f08c379a00000000000000000000000000000000000000000000000000000000081526004016111c190613949565b60405180910390fd5b8060098190555050565b6111e56111df611a2c565b83611aed565b611224576040517f08c379a000000000000000000000000000000000000000000000000000000000815260040161121b90613587565b60405180910390fd5b61123084848484612568565b50505050565b6000600b6000838152602001908152602001600020600301549050803414611293576040517f08c379a000000000000000000000000000000000000000000000000000000000815260040161128a906139db565b60405180910390fd5b33600b600084815260200190815260200160002060020160006101000a81548173ffffffffffffffffffffffffffffffffffffffff021916908373ffffffffffffffffffffffffffffffffffffffff1602179055506001600b600084815260200190815260200160002060040160006101000a81548160ff02191690831515021790555030600b600084815260200190815260200160002060020160006101000a81548173ffffffffffffffffffffffffffffffffffffffff021916908373ffffffffffffffffffffffffffffffffffffffff1602179055506113766008611ec6565b611381303384611b82565b600a60009054906101000a900473ffffffffffffffffffffffffffffffffffffffff1673ffffffffffffffffffffffffffffffffffffffff166108fc6009549081150290604051600060405180830381858888f193505050501580156113eb573d6000803e3d6000fd5b50600b600083815260200190815260200160002060010160009054906101000a900473ffffffffffffffffffffffffffffffffffffffff1673ffffffffffffffffffffffffffffffffffffffff166108fc349081150290604051600060405180830381858888f19350505050158015611468573d6000803e3d6000fd5b505050565b6060600061147b6007611e7b565b905060008060005b83811015611523573373ffffffffffffffffffffffffffffffffffffffff16600b60006001846114b391906135d6565b815260200190815260200160002060020160009054906101000a900473ffffffffffffffffffffffffffffffffffffffff1673ffffffffffffffffffffffffffffffffffffffff16036115105760018361150d91906135d6565b92505b808061151b9061360a565b915050611483565b5060008267ffffffffffffffff8111156115405761153f612ffa565b5b60405190808252806020026020018201604052801561157957816020015b611566612ac5565b81526020019060019003908161155e5790505b50905060005b8481101561174e573373ffffffffffffffffffffffffffffffffffffffff16600b60006001846115af91906135d6565b815260200190815260200160002060020160009054906101000a900473ffffffffffffffffffffffffffffffffffffffff1673ffffffffffffffffffffffffffffffffffffffff160361173b57600060018261160b91906135d6565b90506000600b60008381526020019081526020016000209050806040518060a0016040529081600082015481526020016001820160009054906101000a900473ffffffffffffffffffffffffffffffffffffffff1673ffffffffffffffffffffffffffffffffffffffff1673ffffffffffffffffffffffffffffffffffffffff1681526020016002820160009054906101000a900473ffffffffffffffffffffffffffffffffffffffff1673ffffffffffffffffffffffffffffffffffffffff1673ffffffffffffffffffffffffffffffffffffffff168152602001600382015481526020016004820160009054906101000a900460ff16151515158152505084868151811061171e5761171d613652565b5b602002602001018190525060018561173691906135d6565b945050505b80806117469061360a565b91505061157f565b508094505050505090565b6060611764826119e1565b6000600660008481526020019081526020016000208054611784906133c0565b80601f01602080910402602001604051908101604052809291908181526020018280546117b0906133c0565b80156117fd5780601f106117d2576101008083540402835291602001916117fd565b820191906000526020600020905b8154815290600101906020018083116117e057829003601f168201915b50505050509050600061180e6125c4565b90506000815103611823578192505050611866565b600082511115611858578082604051602001611840929190613a37565b60405160208183030381529060405292505050611866565b611861846125db565b925050505b919050565b6000600560008473ffffffffffffffffffffffffffffffffffffffff1673ffffffffffffffffffffffffffffffffffffffff16815260200190815260200160002060008373ffffffffffffffffffffffffffffffffffffffff1673ffffffffffffffffffffffffffffffffffffffff16815260200190815260200160002060009054906101000a900460ff16905092915050565b60007f80ac58cd000000000000000000000000000000000000000000000000000000007bffffffffffffffffffffffffffffffffffffffffffffffffffffffff1916827bffffffffffffffffffffffffffffffffffffffffffffffffffffffff191614806119ca57507f5b5e139f000000000000000000000000000000000000000000000000000000007bffffffffffffffffffffffffffffffffffffffffffffffffffffffff1916827bffffffffffffffffffffffffffffffffffffffffffffffffffffffff1916145b806119da57506119d982612643565b5b9050919050565b6119ea816126ad565b611a29576040517f08c379a0000000000000000000000000000000000000000000000000000000008152600401611a20906136cd565b60405180910390fd5b50565b600033905090565b816004600083815260200190815260200160002060006101000a81548173ffffffffffffffffffffffffffffffffffffffff021916908373ffffffffffffffffffffffffffffffffffffffff160217905550808273ffffffffffffffffffffffffffffffffffffffff16611aa783610ab6565b73ffffffffffffffffffffffffffffffffffffffff167f8c5be1e5ebec7d5bd14f71427d1e84f3dd0314c0f7b2291e5b200ac8c7c3b92560405160405180910390a45050565b600080611af983610ab6565b90508073ffffffffffffffffffffffffffffffffffffffff168473ffffffffffffffffffffffffffffffffffffffff161480611b3b5750611b3a818561186b565b5b80611b7957508373ffffffffffffffffffffffffffffffffffffffff16611b61846105e3565b73ffffffffffffffffffffffffffffffffffffffff16145b91505092915050565b8273ffffffffffffffffffffffffffffffffffffffff16611ba282610ab6565b73ffffffffffffffffffffffffffffffffffffffff1614611bf8576040517f08c379a0000000000000000000000000000000000000000000000000000000008152600401611bef90613acd565b60405180910390fd5b600073ffffffffffffffffffffffffffffffffffffffff168273ffffffffffffffffffffffffffffffffffffffff1603611c67576040517f08c379a0000000000000000000000000000000000000000000000000000000008152600401611c5e90613b5f565b60405180910390fd5b611c7483838360016126ee565b8273ffffffffffffffffffffffffffffffffffffffff16611c9482610ab6565b73ffffffffffffffffffffffffffffffffffffffff1614611cea576040517f08c379a0000000000000000000000000000000000000000000000000000000008152600401611ce190613acd565b60405180910390fd5b6004600082815260200190815260200160002060006101000a81549073ffffffffffffffffffffffffffffffffffffffff02191690556001600360008573ffffffffffffffffffffffffffffffffffffffff1673ffffffffffffffffffffffffffffffffffffffff168152602001908152602001600020600082825403925050819055506001600360008473ffffffffffffffffffffffffffffffffffffffff1673ffffffffffffffffffffffffffffffffffffffff16815260200190815260200160002060008282540192505081905550816002600083815260200190815260200160002060006101000a81548173ffffffffffffffffffffffffffffffffffffffff021916908373ffffffffffffffffffffffffffffffffffffffff160217905550808273ffffffffffffffffffffffffffffffffffffffff168473ffffffffffffffffffffffffffffffffffffffff167fddf252ad1be2c89b69c2b068fc378daa952ba7f163c4a11628f55a4df523b3ef60405160405180910390a4611e7683838360016126f4565b505050565b600081600001549050919050565b60006002600083815260200190815260200160002060009054906101000a900473ffffffffffffffffffffffffffffffffffffffff169050919050565b6001816000016000828254019250508190555050565b600073ffffffffffffffffffffffffffffffffffffffff168273ffffffffffffffffffffffffffffffffffffffff1603611f4b576040517f08c379a0000000000000000000000000000000000000000000000000000000008152600401611f4290613bcb565b60405180910390fd5b611f54816126ad565b15611f94576040517f08c379a0000000000000000000000000000000000000000000000000000000008152600401611f8b90613c37565b60405180910390fd5b611fa26000838360016126ee565b611fab816126ad565b15611feb576040517f08c379a0000000000000000000000000000000000000000000000000000000008152600401611fe290613c37565b60405180910390fd5b6001600360008473ffffffffffffffffffffffffffffffffffffffff1673ffffffffffffffffffffffffffffffffffffffff16815260200190815260200160002060008282540192505081905550816002600083815260200190815260200160002060006101000a81548173ffffffffffffffffffffffffffffffffffffffff021916908373ffffffffffffffffffffffffffffffffffffffff160217905550808273ffffffffffffffffffffffffffffffffffffffff16600073ffffffffffffffffffffffffffffffffffffffff167fddf252ad1be2c89b69c2b068fc378daa952ba7f163c4a11628f55a4df523b3ef60405160405180910390a46120f56000838360016126f4565b5050565b612102826126ad565b612141576040517f08c379a000000000000000000000000000000000000000000000000000000000815260040161213890613cc9565b60405180910390fd5b806006600084815260200190815260200160002090816121619190613e95565b507ff8e1a15aba9398e019f0b49df1a4fde98ee17ae345cb5f6b5e2c27f5033e8ce7826040516121919190612ddd565b60405180910390a15050565b600081116121e0576040517f08c379a00000000000000000000000000000000000000000000000000000000081526004016121d790613fb3565b60405180910390fd5b6009543414612224576040517f08c379a000000000000000000000000000000000000000000000000000000000815260040161221b90613883565b60405180910390fd5b6040518060a001604052808381526020013373ffffffffffffffffffffffffffffffffffffffff1681526020013073ffffffffffffffffffffffffffffffffffffffff16815260200182815260200160001515815250600b60008481526020019081526020016000206000820151816000015560208201518160010160006101000a81548173ffffffffffffffffffffffffffffffffffffffff021916908373ffffffffffffffffffffffffffffffffffffffff16021790555060408201518160020160006101000a81548173ffffffffffffffffffffffffffffffffffffffff021916908373ffffffffffffffffffffffffffffffffffffffff1602179055506060820151816003015560808201518160040160006101000a81548160ff02191690831515021790555090505061235d333084611b82565b817fdebdb32cb5230ab727c9c361b16fdb2015df225c10e6a3e7f60ecd5dc5be451633308460006040516123949493929190613fd3565b60405180910390a25050565b600081600001549050600081116123ec576040517f08c379a00000000000000000000000000000000000000000000000000000000081526004016123e390614064565b60405180910390fd5b6001810382600001819055505050565b8173ffffffffffffffffffffffffffffffffffffffff168373ffffffffffffffffffffffffffffffffffffffff160361246a576040517f08c379a0000000000000000000000000000000000000000000000000000000008152600401612461906140d0565b60405180910390fd5b80600560008573ffffffffffffffffffffffffffffffffffffffff1673ffffffffffffffffffffffffffffffffffffffff16815260200190815260200160002060008473ffffffffffffffffffffffffffffffffffffffff1673ffffffffffffffffffffffffffffffffffffffff16815260200190815260200160002060006101000a81548160ff0219169083151502179055508173ffffffffffffffffffffffffffffffffffffffff168373ffffffffffffffffffffffffffffffffffffffff167f17307eab39ab6107e8899845ad3d59bd9653f200f220920489ca2b5937696c318360405161255b9190612bd6565b60405180910390a3505050565b612573848484611b82565b61257f848484846126fa565b6125be576040517f08c379a00000000000000000000000000000000000000000000000000000000081526004016125b590614162565b60405180910390fd5b50505050565b606060405180602001604052806000815250905090565b60606125e6826119e1565b60006125f06125c4565b90506000815111612610576040518060200160405280600081525061263b565b8061261a84612881565b60405160200161262b929190613a37565b6040516020818303038152906040525b915050919050565b60007f01ffc9a7000000000000000000000000000000000000000000000000000000007bffffffffffffffffffffffffffffffffffffffffffffffffffffffff1916827bffffffffffffffffffffffffffffffffffffffffffffffffffffffff1916149050919050565b60008073ffffffffffffffffffffffffffffffffffffffff166126cf83611e89565b73ffffffffffffffffffffffffffffffffffffffff1614159050919050565b50505050565b50505050565b600061271b8473ffffffffffffffffffffffffffffffffffffffff1661294f565b15612874578373ffffffffffffffffffffffffffffffffffffffff1663150b7a02612744611a2c565b8786866040518563ffffffff1660e01b815260040161276694939291906141d7565b6020604051808303816000875af19250505080156127a257506040513d601f19601f8201168201806040525081019061279f9190614238565b60015b612824573d80600081146127d2576040519150601f19603f3d011682016040523d82523d6000602084013e6127d7565b606091505b50600081510361281c576040517f08c379a000000000000000000000000000000000000000000000000000000000815260040161281390614162565b60405180910390fd5b805181602001fd5b63150b7a0260e01b7bffffffffffffffffffffffffffffffffffffffffffffffffffffffff1916817bffffffffffffffffffffffffffffffffffffffffffffffffffffffff191614915050612879565b600190505b949350505050565b60606000600161289084612972565b01905060008167ffffffffffffffff8111156128af576128ae612ffa565b5b6040519080825280601f01601f1916602001820160405280156128e15781602001600182028036833780820191505090505b509050600082602001820190505b600115612944578080600190039150507f3031323334353637383961626364656600000000000000000000000000000000600a86061a8153600a858161293857612937614265565b5b049450600085036128ef575b819350505050919050565b6000808273ffffffffffffffffffffffffffffffffffffffff163b119050919050565b600080600090507a184f03e93ff9f4daa797ed6e38ed64bf6a1f01000000000000000083106129d0577a184f03e93ff9f4daa797ed6e38ed64bf6a1f01000000000000000083816129c6576129c5614265565b5b0492506040810190505b6d04ee2d6d415b85acef81000000008310612a0d576d04ee2d6d415b85acef81000000008381612a0357612a02614265565b5b0492506020810190505b662386f26fc100008310612a3c57662386f26fc100008381612a3257612a31614265565b5b0492506010810190505b6305f5e1008310612a65576305f5e1008381612a5b57612a5a614265565b5b0492506008810190505b6127108310612a8a576127108381612a8057612a7f614265565b5b0492506004810190505b60648310612aad5760648381612aa357612aa2614265565b5b0492506002810190505b600a8310612abc576001810190505b80915050919050565b6040518060a0016040528060008152602001600073ffffffffffffffffffffffffffffffffffffffff168152602001600073ffffffffffffffffffffffffffffffffffffffff168152602001600081526020016000151581525090565b6000604051905090565b600080fd5b600080fd5b60007fffffffff0000000000000000000000000000000000000000000000000000000082169050919050565b612b6b81612b36565b8114612b7657600080fd5b50565b600081359050612b8881612b62565b92915050565b600060208284031215612ba457612ba3612b2c565b5b6000612bb284828501612b79565b91505092915050565b60008115159050919050565b612bd081612bbb565b82525050565b6000602082019050612beb6000830184612bc7565b92915050565b600081519050919050565b600082825260208201905092915050565b60005b83811015612c2b578082015181840152602081019050612c10565b60008484015250505050565b6000601f19601f8301169050919050565b6000612c5382612bf1565b612c5d8185612bfc565b9350612c6d818560208601612c0d565b612c7681612c37565b840191505092915050565b60006020820190508181036000830152612c9b8184612c48565b905092915050565b6000819050919050565b612cb681612ca3565b8114612cc157600080fd5b50565b600081359050612cd381612cad565b92915050565b600060208284031215612cef57612cee612b2c565b5b6000612cfd84828501612cc4565b91505092915050565b600073ffffffffffffffffffffffffffffffffffffffff82169050919050565b6000612d3182612d06565b9050919050565b612d4181612d26565b82525050565b6000602082019050612d5c6000830184612d38565b92915050565b612d6b81612d26565b8114612d7657600080fd5b50565b600081359050612d8881612d62565b92915050565b60008060408385031215612da557612da4612b2c565b5b6000612db385828601612d79565b9250506020612dc485828601612cc4565b9150509250929050565b612dd781612ca3565b82525050565b6000602082019050612df26000830184612dce565b92915050565b600080600060608486031215612e1157612e10612b2c565b5b6000612e1f86828701612d79565b9350506020612e3086828701612d79565b9250506040612e4186828701612cc4565b9150509250925092565b600081519050919050565b600082825260208201905092915050565b6000819050602082019050919050565b612e8081612ca3565b82525050565b6000612e9182612d06565b9050919050565b612ea181612e86565b82525050565b612eb081612bbb565b82525050565b60a082016000820151612ecc6000850182612e77565b506020820151612edf6020850182612e98565b506040820151612ef26040850182612e98565b506060820151612f056060850182612e77565b506080820151612f186080850182612ea7565b50505050565b6000612f2a8383612eb6565b60a08301905092915050565b6000602082019050919050565b6000612f4e82612e4b565b612f588185612e56565b9350612f6383612e67565b8060005b83811015612f94578151612f7b8882612f1e565b9750612f8683612f36565b925050600181019050612f67565b5085935050505092915050565b60006020820190508181036000830152612fbb8184612f43565b905092915050565b600060208284031215612fd957612fd8612b2c565b5b6000612fe784828501612d79565b91505092915050565b600080fd5b600080fd5b7f4e487b7100000000000000000000000000000000000000000000000000000000600052604160045260246000fd5b61303282612c37565b810181811067ffffffffffffffff8211171561305157613050612ffa565b5b80604052505050565b6000613064612b22565b90506130708282613029565b919050565b600067ffffffffffffffff8211156130905761308f612ffa565b5b61309982612c37565b9050602081019050919050565b82818337600083830152505050565b60006130c86130c384613075565b61305a565b9050828152602081018484840111156130e4576130e3612ff5565b5b6130ef8482856130a6565b509392505050565b600082601f83011261310c5761310b612ff0565b5b813561311c8482602086016130b5565b91505092915050565b6000806040838503121561313c5761313b612b2c565b5b600083013567ffffffffffffffff81111561315a57613159612b31565b5b613166858286016130f7565b925050602061317785828601612cc4565b9150509250929050565b6000806040838503121561319857613197612b2c565b5b60006131a685828601612cc4565b92505060206131b785828601612cc4565b9150509250929050565b6131ca81612bbb565b81146131d557600080fd5b50565b6000813590506131e7816131c1565b92915050565b6000806040838503121561320457613203612b2c565b5b600061321285828601612d79565b9250506020613223858286016131d8565b9150509250929050565b600067ffffffffffffffff82111561324857613247612ffa565b5b61325182612c37565b9050602081019050919050565b600061327161326c8461322d565b61305a565b90508281526020810184848401111561328d5761328c612ff5565b5b6132988482856130a6565b509392505050565b600082601f8301126132b5576132b4612ff0565b5b81356132c584826020860161325e565b91505092915050565b600080600080608085870312156132e8576132e7612b2c565b5b60006132f687828801612d79565b945050602061330787828801612d79565b935050604061331887828801612cc4565b925050606085013567ffffffffffffffff81111561333957613338612b31565b5b613345878288016132a0565b91505092959194509250565b6000806040838503121561336857613367612b2c565b5b600061337685828601612d79565b925050602061338785828601612d79565b9150509250929050565b7f4e487b7100000000000000000000000000000000000000000000000000000000600052602260045260246000fd5b600060028204905060018216806133d857607f821691505b6020821081036133eb576133ea613391565b5b50919050565b7f4552433732313a20617070726f76616c20746f2063757272656e74206f776e6560008201527f7200000000000000000000000000000000000000000000000000000000000000602082015250565b600061344d602183612bfc565b9150613458826133f1565b604082019050919050565b6000602082019050818103600083015261347c81613440565b9050919050565b7f4552433732313a20617070726f76652063616c6c6572206973206e6f7420746f60008201527f6b656e206f776e6572206f7220617070726f76656420666f7220616c6c000000602082015250565b60006134df603d83612bfc565b91506134ea82613483565b604082019050919050565b6000602082019050818103600083015261350e816134d2565b9050919050565b7f4552433732313a2063616c6c6572206973206e6f7420746f6b656e206f776e6560008201527f72206f7220617070726f76656400000000000000000000000000000000000000602082015250565b6000613571602d83612bfc565b915061357c82613515565b604082019050919050565b600060208201905081810360008301526135a081613564565b9050919050565b7f4e487b7100000000000000000000000000000000000000000000000000000000600052601160045260246000fd5b60006135e182612ca3565b91506135ec83612ca3565b9250828201905080821115613604576136036135a7565b5b92915050565b600061361582612ca3565b91507fffffffffffffffffffffffffffffffffffffffffffffffffffffffffffffffff8203613647576136466135a7565b5b600182019050919050565b7f4e487b7100000000000000000000000000000000000000000000000000000000600052603260045260246000fd5b7f4552433732313a20696e76616c696420746f6b656e2049440000000000000000600082015250565b60006136b7601883612bfc565b91506136c282613681565b602082019050919050565b600060208201905081810360008301526136e6816136aa565b9050919050565b7f4552433732313a2061646472657373207a65726f206973206e6f74206120766160008201527f6c6964206f776e65720000000000000000000000000000000000000000000000602082015250565b6000613749602983612bfc565b9150613754826136ed565b604082019050919050565b600060208201905081810360008301526137788161373c565b9050919050565b7f596f7520617265206e6f7420746865206f776e6572206f66207468697320746f60008201527f6b656e0000000000000000000000000000000000000000000000000000000000602082015250565b60006137db602383612bfc565b91506137e68261377f565b604082019050919050565b6000602082019050818103600083015261380a816137ce565b9050919050565b7f5072696365206d75737420626520657175616c20746f206c697374696e67207060008201527f7269636500000000000000000000000000000000000000000000000000000000602082015250565b600061386d602483612bfc565b915061387882613811565b604082019050919050565b6000602082019050818103600083015261389c81613860565b9050919050565b60006138ae82612ca3565b91506138b983612ca3565b92508282039050818111156138d1576138d06135a7565b5b92915050565b7f4f6e6c79206f776e65722063616e206f6620746865206d61726b6574706c616360008201527f652063616e206368616e676520746865206c697374696e672070726963650000602082015250565b6000613933603e83612bfc565b915061393e826138d7565b604082019050919050565b6000602082019050818103600083015261396281613926565b9050919050565b7f506c65617365207375626d6974207468652061736b696e67207072696365206960008201527f6e206f7264657220746f20636f6d706c65746520746865207075726368617365602082015250565b60006139c5604083612bfc565b91506139d082613969565b604082019050919050565b600060208201905081810360008301526139f4816139b8565b9050919050565b600081905092915050565b6000613a1182612bf1565b613a1b81856139fb565b9350613a2b818560208601612c0d565b80840191505092915050565b6000613a438285613a06565b9150613a4f8284613a06565b91508190509392505050565b7f4552433732313a207472616e736665722066726f6d20696e636f72726563742060008201527f6f776e6572000000000000000000000000000000000000000000000000000000602082015250565b6000613ab7602583612bfc565b9150613ac282613a5b565b604082019050919050565b60006020820190508181036000830152613ae681613aaa565b9050919050565b7f4552433732313a207472616e7366657220746f20746865207a65726f2061646460008201527f7265737300000000000000000000000000000000000000000000000000000000602082015250565b6000613b49602483612bfc565b9150613b5482613aed565b604082019050919050565b60006020820190508181036000830152613b7881613b3c565b9050919050565b7f4552433732313a206d696e7420746f20746865207a65726f2061646472657373600082015250565b6000613bb5602083612bfc565b9150613bc082613b7f565b602082019050919050565b60006020820190508181036000830152613be481613ba8565b9050919050565b7f4552433732313a20746f6b656e20616c7265616479206d696e74656400000000600082015250565b6000613c21601c83612bfc565b9150613c2c82613beb565b602082019050919050565b60006020820190508181036000830152613c5081613c14565b9050919050565b7f45524337323155524953746f726167653a2055524920736574206f66206e6f6e60008201527f6578697374656e7420746f6b656e000000000000000000000000000000000000602082015250565b6000613cb3602e83612bfc565b9150613cbe82613c57565b604082019050919050565b60006020820190508181036000830152613ce281613ca6565b9050919050565b60008190508160005260206000209050919050565b60006020601f8301049050919050565b600082821b905092915050565b600060088302613d4b7fffffffffffffffffffffffffffffffffffffffffffffffffffffffffffffffff82613d0e565b613d558683613d0e565b95508019841693508086168417925050509392505050565b6000819050919050565b6000613d92613d8d613d8884612ca3565b613d6d565b612ca3565b9050919050565b6000819050919050565b613dac83613d77565b613dc0613db882613d99565b848454613d1b565b825550505050565b600090565b613dd5613dc8565b613de0818484613da3565b505050565b5b81811015613e0457613df9600082613dcd565b600181019050613de6565b5050565b601f821115613e4957613e1a81613ce9565b613e2384613cfe565b81016020851015613e32578190505b613e46613e3e85613cfe565b830182613de5565b50505b505050565b600082821c905092915050565b6000613e6c60001984600802613e4e565b1980831691505092915050565b6000613e858383613e5b565b9150826002028217905092915050565b613e9e82612bf1565b67ffffffffffffffff811115613eb757613eb6612ffa565b5b613ec182546133c0565b613ecc828285613e08565b600060209050601f831160018114613eff5760008415613eed578287015190505b613ef78582613e79565b865550613f5f565b601f198416613f0d86613ce9565b60005b82811015613f3557848901518255600182019150602085019450602081019050613f10565b86831015613f525784890151613f4e601f891682613e5b565b8355505b6001600288020188555050505b505050505050565b7f5072696365206d757374206265206174206c6561737420310000000000000000600082015250565b6000613f9d601883612bfc565b9150613fa882613f67565b602082019050919050565b60006020820190508181036000830152613fcc81613f90565b9050919050565b6000608082019050613fe86000830187612d38565b613ff56020830186612d38565b6140026040830185612dce565b61400f6060830184612bc7565b95945050505050565b7f436f756e7465723a2064656372656d656e74206f766572666c6f770000000000600082015250565b600061404e601b83612bfc565b915061405982614018565b602082019050919050565b6000602082019050818103600083015261407d81614041565b9050919050565b7f4552433732313a20617070726f766520746f2063616c6c657200000000000000600082015250565b60006140ba601983612bfc565b91506140c582614084565b602082019050919050565b600060208201905081810360008301526140e9816140ad565b9050919050565b7f4552433732313a207472616e7366657220746f206e6f6e20455243373231526560008201527f63656976657220696d706c656d656e7465720000000000000000000000000000602082015250565b600061414c603283612bfc565b9150614157826140f0565b604082019050919050565b6000602082019050818103600083015261417b8161413f565b9050919050565b600081519050919050565b600082825260208201905092915050565b60006141a982614182565b6141b3818561418d565b93506141c3818560208601612c0d565b6141cc81612c37565b840191505092915050565b60006080820190506141ec6000830187612d38565b6141f96020830186612d38565b6142066040830185612dce565b8181036060830152614218818461419e565b905095945050505050565b60008151905061423281612b62565b92915050565b60006020828403121561424e5761424d612b2c565b5b600061425c84828501614223565b91505092915050565b7f4e487b7100000000000000000000000000000000000000000000000000000000600052601260045260246000fdfea2646970667358221220f5631f85caeed653308e20e7bcbb52a2df7312883db3ecd7cf4a6a99633d840a64736f6c63430008130033",
  "linkReferences": {},
  "deployedLinkReferences": {}
}